:020000040000FA
:030000000200E318
:030013000207BC25
:030033000206C8FA
:03003B00020818A0
:03004B0002079613
:0300630002056330
:03006B000205A8E3
:03007B0002063842
:1000830002075800000080FB120113B900030200AD
:10009300CDE4900F00784A79038002F0A3D8FCD90D
:1000A300FA901149AA82AB839001167819790180DD
:1000B30015E493A3AC82AD838A828B83F0A3AA82D7
:1000C300AB838C828D83D8E9D9E77582B175830DB3
:1000D30074001200F575828675830074001200F5B2
:1000E30075D0007581BF75100075110F759F0002E3
:1000F300008BC09FF59FE473D09F22D083D082C032
:100103009FE493C0E0740193C0E0740293F59F22CF
:10011300790122FF00000000000000000000004AF7
:1001230001000000C20100000000001200FE7F0871
:10013300001200FE2409001200FE8509001200FED1
:10014300A40A001200FE310B001200FEC90B0012BC
:1001530000FE1F0D001200FE590D001200FE5F0D80
:10016300001200FEBE0F001200FECF0F001200FEB1
:10017300EB0F001200FEF60F001200FE46100012F5
:1001830000FE8610001200FEBC10001200FEC1101B
:10019300001200FE0610001200FE2610001200FEE0
:1001A3005B0F001200FE6B0F001200FE970F001290
:1001B30000FEDD0B001200FE0C0C001200FE220CF0
:1001C300001200FE390C001200FE500C001200FE5B
:1001D3007C0C001200FEA00C001200FEB10C0012F9
:1001E30000FEBA0C001200FEC30C001200FED80C75
:1001F300001200FEED0C001200FE0C0D001200FEBA
:100203004E0E00E4936670130874019366700C0835
:10021300740293667005087403936622C3E493968D
:1002230008740193960874029396087403939622B4
:10023300080808EAC0E0EBC0E086F0E7A4FA180972
:1002430086F0E7A42AFA180986F0E7A42AFA18091F
:1002530086F0E7A42AFA1986F0E7A4FBE5F02AFA68
:10026300190886F0E7A42BFBE5F03AFA190886F0A3
:10027300E7A42BFBE5F03AFA18180986F0E7A4C5C2
:10028300F02BFBE43AFA1908E7C5F0C6A426F6E515
:10029300F03BFBE43AFA1886F0E7A4F6E5F008260B
:1002A300F6E43B08F6E43A08F6D0E0FBD0E0FA22A5
:1002B3006016080808C6C313C618C613C618C613A3
:1002C300C618C613C6D5E0EA22E647F60809E6478C
:1002D300F60809E647F60809E647F622E0F608A31A
:1002E300E0F608A3E0F608A3E0F622E6F008A3E6AA
:1002F300F008A3E6F008A3E6F022E0FAA3E0FBA3EC
:10030300E0FCA3E0FD22700422600D18C6C333C6CF
:1003130008C633C6D5E0F41822E4732510C582C09D
:10032300E0E51134FFC583C0E0E510C3958224F8EE
:1003330010AF08858311858210800885831185821B
:1003430010D2AFCEF0A3E520F0A37808E608F0A31F
:10035300DEFAEFF0A3E58124FAF8E608F0A3E60855
:10036300F0A3E608F0A30808E608F0A3E608F0A364
:1003730015811581D0E0FED0E0F815811581158136
:10038300E8C0E0EEC0E022851183851082E0A3FE81
:10039300E0A3F5207808E0A3F608DFFAE0A3FFE086
:1003A300A3C0E0E0A3C0E0E0A3C0E0E0A3C0E0E0BE
:1003B300A3C0E010AF088582108583118008858271
:1003C30010858311D2AFD083D0820200FBC0D02529
:1003D30010C582C0E0E51134FFC583C0E0E510C35A
:1003E300958224F310AF08858311858210800885D8
:1003F3008311858210D2AFC8F0A3E9F0A3EAF0A37A
:10040300EBF0A37908E709F0A3D8FAECF0A3EDF039
:10041300A3EEF0A3EFF0A3D0E0F0A3D0E0F0A3D0DD
:10042300E0F0A3E520F0A3E5F0F0A3228511838596
:100433001082E0C0E0A3E0F9A3E0FAA3E0FBA37815
:1004430008E0F608A3DFFAE0FCA3E0FDA3E0FEA3C7
:10045300E0FFA3E0C0E0A3E0C0E0A3E0F5D0A3E0A9
:10046300F520A3E0A3F5F010AF0885831185821072
:100473008008858311858210D2AFD082D083D0E0EB
:10048300F8D0E032D083D082ECC0E0EDC0E0EEC023
:10049300E0EFC0E0E493A3FCE493A3FDE493A3FEA5
:1004A300E493A3FFEF4E4D4C6015120503EC24FFBC
:1004B300FCED34FFFDEE34FFFEEF34FFFF80E5E497
:1004C30093A3FCE493A3FDE493A3FEE493A3FFEFC0
:1004D3004E4D4C6015120540EC24FFFCED34FFFD3E
:1004E300EE34FFFEEF34FFFF80E5D0E0FFD0E0FE07
:1004F300D0E0FDD0E0FCE493A3C0E0E493C0E022AD
:10050300C0E0C0F088F012021FA8F04007120206F4
:10051300A8F0701AA3A3A3A312021FA8F0A3A3A376
:10052300A34013D0F0D0E0D0E0D0E00204EDA3A3C9
:10053300A3A3A3A3A3A3A3A3D0F0D0E022C0E0C0AE
:10054300F088F0120206A8F0A3A3A3A3700BD0F0C7
:10055300D0E0D0E0D0E00204EDA3A3D0F0D0E022BD
:10056300C0E074F21203D0C2DBC2C4901013E024C3
:1005730001F0A3E03400F0901013E064B87004A31A
:10058300E0640B70159010137400F0A37400F090E6
:1005930010127401F012017080069010127400F0B2
:1005A3007F0102042FC0E074F11203D0C2C5E589B4
:1005B300607E7E008074750801750900EE7808126C
:1005C3000309E508AF08E5895F605EEEF87900E8A6
:1005D30075F002A4C8AAF075F000A42AFA75F00217
:1005E300E9A42AF9741528F582741039F583E0F823
:1005F300A3E0F9E849602EEEF87900E875F002A46B
:10060300C8AAF075F000A42AFA75F002E9A42AF941
:10061300741528F582741039F583E0F8A3E0F583A7
:10062300888212031CEFF452890EEEC394084086AD
:100633007F0202042FC0E074F11203D0C2EBE58AFB
:10064300607E7E008074750801750900EE780812DB
:100653000309E508AF08E58A5F605EEEF87900E814
:1006630075F002A4C8AAF075F000A42AFA75F00286
:10067300E9A42AF9742528F582741039F583E0F882
:10068300A3E0F9E849602EEEF87900E875F002A4DA
:10069300C8AAF075F000A42AFA75F002E9A42AF9B1
:1006A300742528F582741039F583E0F8A3E0F58307
:1006B300888212031CEFF4528A0EEEC3940840861C
:1006C3007F0202042FC0E074F11203D0C2E8E58B6D
:1006D300607E7E008074750801750900EE7808124B
:1006E3000309E508AF08E58B5F605EEEF87900E883
:1006F30075F002A4C8AAF075F000A42AFA75F002F6
:10070300E9A42AF9743528F582741039F583E0F8E1
:10071300A3E0F9E849602EEEF87900E875F002A449
:10072300C8AAF075F000A42AFA75F002E9A42AF920
:10073300743528F582741039F583E0F8A3E0F58366
:10074300888212031CEFF4528B0EEEC3940540868D
:100753007F0202042FC0E074F21203D0A2AFE4338D
:10076300FEC2AFE5E9A2E6502090103FE0F8A3E017
:10077300F9E849600E90103FE0F8A3E0F583888222
:1007830012031C759B0053E9BFEEA2E092AF7F01F9
:1007930002042FC0E074F21203D0901041E0F8A3DA
:1007A300E0F9E849600E901041E0F8A3E0F5838892
:1007B3008212031C7F0102042FC0E0C0D0E8C0E016
:1007C300E9C0E0C082C083E5C1C0E09010C4E0F896
:1007D3007900744328F582741039F583D0E0F090E2
:1007E30010C3E0F89010C4E0687006E5959010C55A
:1007F300F09010C4E024019010C4F0C3948040062C
:100803009010C47400F0D083D082D0E0F9D0E0F827
:10081300D0D0D0E032C0E0C0D0E8C0E0C008C0090A
:10082300C082C083901146E0F8901147E068700BD6
:10083300539AFB9011487401F08031C2E99011463C
:10084300E0F50874012508901146F075090074C697
:100853002508F58274103509F583E0F5C19011463A
:10086300E0C3948040069011467400F0D083D08298
:10087300D009D008D0E0F8D0D0D0E03274F712031A
:100883001EE9FEEAF8EBF9E8FAE9FB740B2E8A821B
:100893008B83F0900F07E0F8A3E0F5838882A3A38E
:1008A300A3A3A3E0600678617988800478417988FE
:1008B300E88A828B83A3F0E98A828B83A3A3F090D7
:1008C3000F00E08A828B83A3A3A3F0900F07E0F8C5
:1008D300A3E0F5838882A3A3E0F8A3E0F98A828BDF
:1008E30083A3A3A3A3E8F0A3E9F08A828B83A3A342
:1008F300A3A3A3A3ECF0A3EDF0900F07E0F8A3E00C
:10090300F5838882E0F8A3E0F98A828B83A3A3A30B
:10091300A3A3A3A3A3E8F0A3E9F0790A7F01020349
:100923008A74F212031EECFEEDFF8908A908EAFCA3
:10093300EBFD7A097B0F12012EE9FB7A0080348AE2
:100943000A750B00EE250AF582EF350BF583E0C03F
:10095300E08B0A750B008A0C750D00E50C250AF86F
:10096300E50D350BF9E82409F582E9340FF583D059
:10097300E0F00AEAC3950840C6E5082BF97F0602B2
:10098300038A74F712031E7E7C7F0F1201E81201A3
:10099300887901EEFAEFFB1201D08E828F83E0C2D9
:1009A300E7F08E828F83E0640570538E828F83E03D
:1009B300F97A7D7B0F1201D08E828F83A3E0A2E5AB
:1009C3005004D2F08002C2F0A2F0E492E090115100
:1009D300F07880790F88828983A3E0A2E74003023D
:1009E3000A998E828F83A3A3A3E0FA900F00E06A93
:1009F3006003020A997401900F01F0020A998E8232
:100A03008F83E024F590114EF08E828F83E0F97A84
:100A13007D7B0F1201D08E828F83A3E0A2E5500469
:100A2300D2F08002C2F0A2F0E492E0901151F08E75
:100A3300828F83A3A3A3A3A3A3A3A3E0F8A3E0F9B3
:100A430090114AE8F0A3E9F090114F7486F0A37473
:100A53000FF090114EE0F83395E0F990114FE02834
:100A6300F8A3E039F988828983E0901152F08882F3
:100A73008983A3E0A2E750128E828F83A3E054DF21
:100A8300644170067401901153F08E828F83A3A387
:100A9300A3E0901149F012018E1201EE7F010203CF
:100AA3008A74F412031EEAFEEBFF1201B2E9640139
:100AB30070047901807312018E900F07EEF0A3EF9B
:100AC300F090114F7400F0A37400F07401900F02C2
:100AD300F090115D78081202DF900F03780812027C
:100AE300EE900F07E0F8A3E0F5838882A3A3A3A306
:100AF300E0F91201B8900F07E0F8A3E0F5838882CC
:100B0300E0FAA3E0FB1201BE900F07E0F8A3E0F5C3
:100B1300838882A3A3E0FAA3E0FB1201C47A3A7BA1
:100B2300011201F412018879007F0402038A74F42C
:100B330012031EEAFEEBFF8C0A8D0B8908900F024D
:100B4300E070031201DCE508C394675005850809CA
:100B530080037509678509081201FA1201E8A908DB
:100B6300AC0AAD0BEEFAEFFB120134E9F97A097B1B
:100B73000F1201CA1201EE1201D6E9900F07E0F835
:100B8300A3E0F5838882A3A3A3A3A3E0601C74005E
:100B9300900F01F07A4A7B021201A6900F01E060E8
:100BA30004740080027401FE80027E00900F02E054
:100BB30070031201E2EE7007900F00E02401F0EEE3
:100BC300F97F0402038AC082C0837401900F02F08C
:100BD3001201DCD083D0820200FBC082C08390610B
:100BE30089E04460F090619074D5F09061FA7409E3
:100BF300F09061B27415F09061AE7400F01201EEE2
:100C03007900D083D0820200FBC082C08375F005D7
:100C1300E9A424D490618FF0D083D0820200FBC07A
:100C230082C083EA906174F0E4EBFA906175F0D0CE
:100C330083D0820200FBC082C083EA906172F0E439
:100C4300EBFA906173F0D083D0820200FB74F6124A
:100C5300031E75E1EE7591FD780080138808750910
:100C630000EA2508F582EB3509F583E0F5D908E8B4
:100C7300C39940E87F0202038AC082C0838011E5E2
:100C8300D98A828B83F08A828B83A3AA82AB83194E
:100C9300E9C3940150E9D083D0820200FB75E1E9F6
:100CA300E591A2E150FA7591FD79000200FB75E12F
:100CB300EC75E1E30200FB75E1EF75E1EC0200FB8B
:100CC300C082C0839061A3E0C2E6F0539AFED08352
:100CD300D0820200FBC082C0839061A3E0D2E6F021
:100CE300439A01D083D0820200FBC082C083A2AFAB
:100CF300E433F8C2AF90103FEAF0A3EBF0E8A2E0D0
:100D030092AFD083D0820200FBC082C083906193F4
:100D1300E0542270F8D083D0820200FBC082C083EB
:100D2300900FFC7434F0A37402F0900FFE7434F04F
:100D3300A37402F09010007414F09010017401F089
:100D43007AFC7B0F120140E9640160F412014CD07C
:100D530083D0820200FB43F2010200FB74F0120312
:100D63001EC28D75B690A28D50FCE5BBF508E4F567
:100D730009F50AF50BE4C508C509C50AF50B85BADB
:100D83000CE4F50DF50EF50F7808790C1202CC90F2
:100D93001155780C1202DF7808790C120233740FA4
:100DA30078081202B3AA08AB097F0802038A12016A
:100DB3007C12015212016412016A12015812017667
:100DC300E960FA12016A790112019479021201941D
:100DD3007903120194790412019412015E8A088B3B
:100DE30009AA08AB099010027406F0EAF8E509A90C
:100DF30009E4E509A809E509901003F0EA90100455
:100E0300F09010057400F09010067405F090100730
:100E13007400F0901008740DF0901009740AF079C2
:100E2300087C027D107A347B82120146E97A647B66
:100E3300001201AC790112019A790212019A790325
:100E430012019A790412019A020DC074F412031E5E
:100E53008A088B098C0A8D0B53F1FE43F30C53F272
:100E6300F375868075C4807808120487000000003B
:100E73000C000000B0040000C10E60090000C90EA0
:100E8300C0120000D10E80250000D90E40380000AA
:100E9300E10E004B0000E90E80700000F10E009699
:100EA3000000F90E00E10000010F002C0100090F02
:100EB30000C20100110F00840300190F210F75C236
:100EC3003B75C505805E75C23B75C506805675C208
:100ED3003B75C507804E75C23B75C508804675C214
:100EE300D875C508803E75C23B75C509803675C285
:100EF300D875C509802E75C23B75C50A802675C293
:100F0300D875C50A801E75C23B75C50B801675C2A0
:100F1300D875C50B800E75C2D875C50C800675C211
:100F23003B75C50A75C402438640D2AA75C10090B9
:100F330010C37400F09010C47400F0901146740054
:100F4300F09011477400F09010C57400F0901148B0
:100F53007400F07F0402038AC082C0837900120107
:100F630082D083D0820200FBEBC313FBEA13FAEABD
:100F7300F8EBF9E824FFFAE934FFFBE849601200D3
:100F830000000000000000000000000000000080DE
:100F9300DE0200FB74F712031EEAFEEBFFEEF8EF2E
:100FA300F9E824FFFEE934FFFFE84960097AE87BAA
:100FB300031201A680E77F0102038A43EBE053EBB0
:100FC300EF53EBF743EB04C2BC0200FBC082C083C8
:100FD30043EB0853EBFC43EB10D2BC9010127400AC
:100FE300F0D083D0820200FB53EBF753EBEFC2BC8C
:100FF3000200FBC082C083901012E0F9D083D0823C
:101003000200FBE914600B14600C14600D14600EF5
:10101300800ED290800AD2918006D2938002D2941D
:101023000200FBE914600B14600C14600D14600ED5
:10103300800EC290800AC2918006C2938002C2943D
:101043000200FBC082C0831201A053F4BF43FE40E1
:1010530053F4FEC29043FE0153F4FDC29143FE02DA
:1010630053F4F7C29343FE0853F4EFC29443FE10C4
:101073009011591202FD120200120188D083D0820E
:101083000200FBE5C65480F853BEFBE59DA2E55084
:10109300FAE59DA2E240F4007401697007744948BF
:1010A300F5C68005E9700288C6E5C6F8E59EFAE84C
:1010B3006A70F943BE040200FBD2AF0200FBC2AF69
:0310C3000200FB2D
:04000005000000E314
:00000001FF
