:020000040000FA
:030000000200E318
:0300130002127660
:03001B0002133994
:0300330002118235
:03003B000212D2DC
:03004B000212504E
:0300630002101D6B
:03006B000210621E
:03007300021395E0
:03007B000210F27E
:1000830002121200000080FB120113B900030200E8
:10009300CDE4900F00784D79048002F0A3D8FCD909
:1000A300FA90124CAA82AB83900116781F790280D2
:1000B30015E493A3AC82AD838A828B83F0A3AA82D7
:1000C300AB838C828D83D8E9D9E7758267758325E5
:1000D30074001200F575828675830074001200F5B2
:1000E30075D0007581BF75100075110F759F0002E3
:1000F300008BC09FF59FE473D09F22D083D082C032
:100103009FE493C0E0740193C0E0740293F59F22CF
:10011300790122FF0000000000000000000000251C
:100123003032582000BDD3CAD5B5BDD4ADCABCCE7C
:10013300DECFDF5246CAFDBEDDA3BA25730D0A002A
:10014300B5B1C7B0CEC2B6C83A202564A1E60D0A40
:1001530000B5B1C7B0CFE0B6D4CAAAB6C83A2564D1
:1001630025250D0A00B5B1C7B0BAECCDE2CFDF2823
:10017300BBF0D1E629C7BFB6C83A25646D560D0A50
:1001830000B5DAD2BBD7E9A3BA00B5B1C7B0CFE0A7
:10019300B6D4CAAAB6C83A20256425250D0A00B5E7
:1001A300B1C7B0BAECCDE2CFDF28BBF0D1E629C7A7
:1001B300BFB6C83A2025646D560D0A00B5DAB6FEFF
:1001C300D7E9A3BA00B5B1C7B0CEC2B6C83A256461
:1001D300A1E60D0A00000000000100000001040078
:1001E3000000C20100000020410000A0400A0000FE
:1001F30000303132333435363738394142434445A0
:100203004600286E756C6C20706F696E7465722978
:10021300003F3F3F000000807F0000803FF9021550
:1002230050B743BA5100E7DB2E100000000800006E
:10023300001200FECA28001200FEE929001200FE87
:10024300762A001200FE862A001200FE352B0012C9
:1002530000FE1932001200FED32F001200FE4B24C1
:10026300001200FE7524001200FE2D25001200FE70
:100273003631001200FE7031001200FE24320012EB
:1002830000FE2932001200FEF630001200FE163185
:10029300001200FE4D30001200FE5D30001200FE21
:1002A3008930001200FE472F001200FE2B2D001292
:1002B30000FE5A2D001200FE5F2D001200FE752D68
:1002C300001200FE8C2D001200FEA32D001200FE72
:1002D300C72D001200FED02D001200FEE52D0012E6
:1002E30000FEFA2D001200FE492B001200FE562CD0
:1002F300001200FEB030001200FEA631001200FE14
:10030300192E001200FE432E001200FED3310012FC
:1003130000FEFB31001200FEB92E001200FEE32E98
:10032300001200FEFC13001200FE1A1900E493668B
:1003330070130874019366700C0874029366700559
:10034300087403936622C008C3E096F50808A3E087
:1003530096420808A3E096420808A3E0964208A242
:10036300D265D033E5087001D3D00822C008C3E0BA
:1003730096F50808A3E096420808A3E09642080809
:10038300A3E09645087001D3D00822C3E4939608EE
:100393007401939608740293960874039396220843
:1003A3000808E630E711120BDE1203BA080808C684
:1003B3004480C618181822181818E9799EC608CA66
:1003C300C608CBC608CCC6C370207996CACBCC70FE
:1003D30019798ECBCC70137986CC700EF9802ACA2A
:1003E30033CACB33CBCC33CC331930E7F2CCCBCAC3
:1003F3003350147004EA30E00DE4CA3ACACB3BCB65
:10040300CC3CCC500209C3E913C6CC182313C6CB8A
:1004130018C6CA18C6F92212045A20F01430E72B62
:1004230074FFFCFBFA747F8022E4FCFBFA74808087
:100433001AB48008BC00F2BB00EF800F50EBF9E464
:10044300C39AFAE49BFBE49CFCE499C6CC18C6CBA4
:1004530018C6CA18C6F922E4C9C608CAC608CBC654
:10046300D3330308CCC63392F0C3947F402E941841
:100473004019C9B90704CACBCC225025C309CA33D2
:10048300CACB33CBCC33CC33D9F422F4600DC9CCF3
:10049300C313CB13CBCA13CAD9F6CC22E4FCFBFAA1
:1004A3002214FCFBFA22E6C33318461846184622E8
:1004B300E7C33319471947194722181818E608469E
:1004C30008700AE608C3337005E633F422082219DC
:1004D3001919E7094709700AE709C3337005E733B8
:1004E300F4220922E6084608C3134608336002E6ED
:1004F30033F422E7094709C3134709336002E7339B
:10050300F4221204E760251204F660201204A97095
:10051300030204B3080808E76670101819E7667049
:100523000A1819E76670041819E76622F422120400
:10053300E7601C1204F660171204A970071204B3D3
:100543007001D322C0D01204B37006D0D0B322C33B
:100553002233D0D0501430E0F6C3E7960809E7966B
:100563000809E7960809E796B32220E0D5E697083D
:1005730009E6970809E6970809E697B3221204E704
:10058300601B1204F660161204A970071204B3600C
:100593000CB322C0D01204B37005D0D022C32233CF
:1005A300D0D0501330E0EBC3E7960809E79608096B
:1005B300E7960809E7962220E0E4E6970809E6971C
:1005C3000809E6970809E69722001204E7604F122C
:1005D30004F66012E7548066F61204BD701112042B
:1005E300B3703B090909F4F618F618F618F6221247
:1005F30004D270151204A908080860EAE6447FF6DD
:1006030018768018E4F618F6221204A9601612046C
:10061300B37012E4F608F608F608E65480F6090902
:100623000918181822EAC0E0EBC0E0ECC0E0EDC006
:10063300E0E687F0A4FBACF008E687F0A42CFCE42A
:1006430035F0FA1809E687F0A42C4B60027401CA4E
:1006530035F0FCE433FB09E687F0D2F7A42CCB3565
:10066300F0FC1908E687F0A42BCC35F0FBE433FD4E
:100673000819E687F0D2E7A42C4ACB35F0CD340035
:10068300FC09E687F0D2E7A42DCC35F0FDE433FA7C
:100693000918E687F0D2F7A42CCD35F0CA3400FC54
:1006A30008E687F0D2E7D2F7A42ACC35F07A7E2089
:1006B300E70B0ACB33CBCD33CDCC33CC33CB335059
:1006C300147004ED30E00ED2F1E4CD3DCDCC3CCC42
:1006D3003B5005DA05C2F1EB547FC63308E633928B
:1006E300F0FBE73309E733C39A502D2B70190C0D38
:1006F3004C4D70151806E608C333700D20F10AA29D
:10070300F013F6E418800B4024E4F630F002768010
:1007130018F618F618F68024D33B14501074FFA271
:10072300F013F6187680E418F618F6800FA2F0138B
:10073300F618E63303F618ECF618EDF6D0E0FDD024
:10074300E0FCD0E0FBD0E0FA221204F6604612048B
:10075300E7603DE9687008F618F618F618F6227493
:100763008067F7120780090909748067F72212046A
:10077300E7601D1204F67005191919801A1204BDD9
:10078300701F1204D2C37003E667331919194007A7
:100793001818182208080874FFF618F618F618F641
:1007A300221204D260171204B3702192F01204A92A
:1007B3007019501720F014080808090909E7F618FA
:1007C30019E7F61819E7F61819E7F6221204A960D3
:1007D300E6E869701F0808E62480F608E436F61890
:1007E300547FB47F0CE654806007F6E418F618F6DD
:1007F30022181822E9C6CC08C6CD08C6CE08C6CF33
:10080300C0E0E8C0E0EAC0E0EBC0E009E9F809E7CE
:10081300FA09E7FBE6F918E6F8C3EC98ED99EE9AC6
:10082300EBC2E7F5F0EFC2E795F0500E600CEBCFAB
:10083300FBEACEFAE9CDF9E8CCF8EAA2E7D2E7FA87
:10084300EB33FB13F5F0EEA2E7D2E7FEEF33FFC580
:10085300F013A2E730E601B313C5F0C3C0E0C0F064
:100863007F00C39BFB605B9418600C401AD0E023AD
:10087300F9D0E0F802094F8AF0E9486003D2F0E4C6
:10088300AFF0FAF9F8803BEB30E40D89F0EA60034E
:10089300D2F0E4AFF0F9CAF8EB30E30D88F0EF6083
:1008A30002D2F0AFF0E4CAC9F8EB54076014FBC3FB
:1008B300EA13FAE913F9E813F8EF135002D2E0FF51
:1008C300DBEDD0E0C0E030E739C3E49FFFF5F0ECA7
:1008D30098FC42F0ED99FD42F0EE9AFE42F0D0E032
:1008E300F9D0E0F8E5F0607AE923F9EE20E742D8A1
:1008F300028067C3EF33FFEC33FCED33FDEE33FED1
:1009030080EAEC28FCED39FDEE3AFED0E023F9D085
:10091300E0F84002801BC3EE13FEED13FDEC13FC65
:10092300EF135002D2E0FF08B800067F7F74FF8008
:100933002EEF3350178CF020F00260100CBC000C2B
:100943000DBD00080EBE000408E860DFE933E813BC
:10095300FFEE2313FE4F4D4C8008E95480FFE4FE65
:10096300FDFCEE33EF33F47004FCFD7E80D0E0FB3E
:10097300D0E0FAD0E0F8D0E0CFC618CEC618CDC686
:1009830018CCC6F9221204E77004181818221204AE
:10099300F6700D74FFF61819F61819F61819F622E1
:1009A300E7548066F61204A9700F1204B370F014B2
:1009B300F608F608F608F680D11204B3700CF608B0
:1009C300F608768008E6447F80EC1204D5700C129A
:1009D30004C060BFE65480F6E480BB1204C0700517
:1009E30019191980A5E869700C763F18768018F6F6
:1009F30018F6E8F922E6CDC0E018ECC0E0E633CD06
:100A030033CDD313F6E719FCE7191933CC33C39469
:100A13007F400ECD9D502408E65480F6E418F680FE
:100A23000FF4043D14501408E6447FF6187680E46E
:100A330018F618F6D0E0FCD0E0FD22CCD313CCFDA1
:100A430018E4C6CBC0E018E4C6CAC0E00808ED0845
:100A5300C633E613F618E433C675F003C3CA97CA60
:100A630009CB97CB199C40047D08802EBD0003025F
:100A73000B3116B6FF050606081618C3CA33CACBD0
:100A830033CB33CA27CA09CB37CB193CC37D088084
:100A93003E187D0820E75CC633C6CA33CACB33CBC6
:100AA30033DDF1D5F0EB30E77BCA97CA09CB974A20
:100AB300CB199C406F4B7025E620E0218066187DA2
:100AC30008C3CA97CA09CB97CB199CD3C633C6CAE6
:100AD30033CACB33CB3350C9DDE7D5F0E1D3E4C61A
:100AE30036C608C636C608C636C608C636C6181879
:100AF300188031C3CA97CA09CB97CB199CB34097C7
:100B0300C633C6CA33CACB33CB33DD34D5F02EC696
:100B1300A2E0C640C8CA27CA09CB37194A70BECB60
:100B23003CB480B90808E63308E633601F18181888
:100B3300D0E0FAD0E0FBD0E0FCD0E0FD22187D0845
:100B4300CA27CA09CB37CB193CD3808013F618E4E4
:100B5300B67F11F618B6FF0EF618C60470D2080851
:100B6300768080CAF618F618F680C5E4CFC0E0E4B4
:100B7300CEC0E0E4CDC0E0E4CCC0E075F020C3E635
:100B830033F608E633F608E633F608E633F61818C4
:100B930018EC33FCED33FDEE33FEEF33FFC3EC977C
:100BA30009ED9709EE9709EF97191919400FFFEC13
:100BB30097FC09ED97FD09EE97FE191906D5F0BECE
:100BC300ECF709EDF709EEF709EFF7191919D0E07A
:100BD300FCD0E0FDD0E0FED0E0FF22181818E4C3FB
:100BE30096F608E496F608E496F608E496F622E00C
:100BF30026F608A3E036F608A3E036F608A3E036A7
:100C0300F622E0F608A3E0F608A3E0F608A3E0F670
:100C130022E6F008A3E6F008A3E6F008A3E6F02234
:100C2300E0FAA3E0FBA3E0FCA3E0FD22EAF0A3EBE0
:100C3300F0A3ECF0A3EDF022CAC0E0E6F0A308DADB
:100C4300FAD0E0FA22CAC0E0E0A3C582CCC582C5CF
:100C530083CDC583F0A3C582CCC582C583CDC583AF
:100C6300DAE6D0E0CA22C3E498F8E499F9120CAAB0
:100C73008026C3E49AFAE49BFBE920E7E9120CAA75
:100C8300E498F8E499F922C3E498F8E499F9120C8A
:100C9300AAE498F8E499F9C3E49AFAE49BFB22EBFB
:100CA30020E7CFE920E7E0B90010BB0008E88AF0AD
:100CB30084F8AAF022E4FBC8FA22EB70227B10C866
:100CC30033C8C933C9335007C39AC3DBF280069ACA
:100CD30050012ADBEAC833F4C8C933F4C9FA2275D0
:100CE300F008E4C833C8C933C933C99AC99B50044F
:100CF300C92AC93BD5F0ECFBC833F4C8E4C9FA22CE
:100D0300700422600D18C6C333C608C633C6D5E0C7
:100D1300F41822251010AF08F510400215118008B1
:100D2300F51040021511D2AF22C0D0251010AF0824
:100D3300F510500205118008F51050020511D2AFCD
:100D4300D0D0222510F58210AF08F51040021511FE
:100D53008008F51040021511D2AF85118322C58298
:100D63002510C582C583351110AF07F51185821093
:100D73008007F511858210D2AFC583222510F58235
:100D8300E43511F58322C5822510C582C58335114B
:100D9300C58322E4732510C582C0E0E51134FFC585
:100DA30083C0E0E510C3958224F810AF0885831152
:100DB3008582108008858311858210D2AFCEF0A37F
:100DC300E520F0A37808E608F0A3DEFAEFF0A3E548
:100DD3008124FAF8E608F0A3E608F0A3E608F0A3F6
:100DE3000808E608F0A3E608F0A315811581D0E012
:100DF300FED0E0F8158115811581E8C0E0EEC0E072
:100E030022851183851082E0A3FEE0A3F5207808F4
:100E1300E0A3F608DFFAE0A3FFE0A3C0E0E0A3C08D
:100E2300E0E0A3C0E0E0A3C0E0E0A3C0E010AF08AF
:100E33008582108583118008858210858311D2AF46
:100E4300D083D0820200FBC0D02510C582C0E0E56C
:100E53001134FFC583C0E0E510C3958224F310AFBE
:100E6300088583118582108008858311858210D2BD
:100E7300AFC8F0A3E9F0A3EAF0A3EBF0A37908E786
:100E830009F0A3D8FAECF0A3EDF0A3EEF0A3EFF092
:100E9300A3D0E0F0A3D0E0F0A3D0E0F0A3E520F0EE
:100EA300A3E5F0F0A322851183851082E0C0E0A3BF
:100EB300E0F9A3E0FAA3E0FBA37808E0F608A3DFD8
:100EC300FAE0FCA3E0FDA3E0FEA3E0FFA3E0C0E0A3
:100ED300A3E0C0E0A3E0F5D0A3E0F520A3E0A3F5F1
:100EE300F010AF08858311858210800885831185F2
:100EF3008210D2AFD082D083D0E0F8D0E032740237
:100F030080027401C0E0F404120D46D0E0120C3BE1
:100F13002274028000CCC0E0EDC0E0E510C39CCC9D
:100F2300AD1150011D10AF068C108D1180068C1071
:100F33008D11D2AF120C48D0E0FDD0E0FC22D0835B
:100F4300D082ECC0E0EDC0E0EEC0E0EFC0E0E4939F
:100F5300A3FCE493A3FDE493A3FEE493A3FFEF4E6A
:100F63004D4C6015120FBDEC24FFFCED34FFFDEE7C
:100F730034FFFEEF34FFFF80E5E493A3FCE493A387
:100F8300FDE493A3FEE493A3FFEF4E4D4C601512D3
:100F93000FFAEC24FFFCED34FFFDEE34FFFEEF34DB
:100FA300FFFF80E5D0E0FFD0E0FED0E0FDD0E0FC25
:100FB300E493A3C0E0E493C0E022C0E0C0F088F073
:100FC30012038EA8F04007120330A8F0701AA3A3EF
:100FD300A3A312038EA8F0A3A3A3A34013D0F0D01E
:100FE300E0D0E0D0E0020FA7A3A3A3A3A3A3A3A3EE
:100FF300A3A3D0F0D0E022C0E0C0F088F012033009
:10100300A8F0A3A3A3A3700BD0F0D0E0D0E0D0E06E
:10101300020FA7A3A3D0F0D0E022C0E074F2120E17
:101023004AC2DBC2C4900F8AE02401F0A3E034007B
:10103300F0900F8AE064A17004A3E0640770159038
:101043000F8A7400F0A37400F0900F897401F012FA
:1010530002528006900F897400F07F01020EA9C02E
:10106300E074F1120E4AC2C5E589607E7E00807489
:10107300750801750900EE7808120D03E508AF083D
:10108300E5895F605EEEF87900E875F002A4C8AA0E
:10109300F075F000A42AFA75F002E9A42AF9741293
:1010A30028F582741039F583E0F8A3E0F9E8496084
:1010B3002EEEF87900E875F002A4C8AAF075F000E6
:1010C300A42AFA75F002E9A42AF9741228F58274A5
:1010D3001039F583E0F8A3E0F5838882120D96EFCB
:1010E300F452890EEEC3940840867F02020EA9C013
:1010F300E074F1120E4AC2EBE58A607E7E008074D2
:10110300750801750900EE7808120D03E508AF08AC
:10111300E58A5F605EEEF87900E875F002A4C8AA7C
:10112300F075F000A42AFA75F002E9A42AF97422F2
:1011330028F582741039F583E0F8A3E0F9E84960F3
:101143002EEEF87900E875F002A4C8AAF075F00055
:10115300A42AFA75F002E9A42AF9742228F5827404
:101163001039F583E0F8A3E0F5838882120D96EF3A
:10117300F4528A0EEEC3940840867F02020EA9C081
:10118300E074F1120E4AC2E8E58B607E7E00807443
:10119300750801750900EE7808120D03E508AF081C
:1011A300E58B5F605EEEF87900E875F002A4C8AAEB
:1011B300F075F000A42AFA75F002E9A42AF9743252
:1011C30028F582741039F583E0F8A3E0F9E8496063
:1011D3002EEEF87900E875F002A4C8AAF075F000C5
:1011E300A42AFA75F002E9A42AF9743228F5827464
:1011F3001039F583E0F8A3E0F5838882120D96EFAA
:10120300F4528B0EEEC3940540867F02020EA9C0F2
:10121300E074F2120E4AA2AFE433FEC2AFE5E9A2D4
:10122300E6502090103CE0F8A3E0F9E849600E9006
:10123300103CE0F8A3E0F5838882120D96759B00BD
:1012430053E9BFEEA2E092AF7F01020EA9C0E074A2
:10125300F2120E4A90103EE0F8A3E0F9E849600E5E
:1012630090103EE0F8A3E0F5838882120D967F018B
:10127300020EA9C0E0C0D0E8C0E0E9C0E0C082C06F
:1012830083E5C1C0E09010C1E0F87900744028F50F
:1012930082741039F583D0E0F09010C0E0F890101C
:1012A300C1E0687006E5959010C2F09010C1E0248B
:1012B300019010C1F0C3948040069010C17400F0F7
:1012C300D083D082D0E0F9D0E0F8D0D0D0E032C0E3
:1012D300E0C0D0E8C0E0C008C009C082C08390115C
:1012E30043E0F8901144E068700B539AFB9011456A
:1012F3007401F08031C2E9901143E0F508740125CF
:1013030008901143F075090074C32508F582741021
:101313003509F583E0F5C1901143E0C3948040069D
:101323009011437400F0D083D082D009D008D0E06C
:10133300F8D0D0D0E032C0E0C0D0E8C0E0E9C0E0EF
:10134300C082C083E5F9C0E09011C7E0F87900746A
:101353004628F582741139F583D0E0F09011C6E088
:10136300F89011C7E0687006E5959011C8F09011E8
:10137300C7E024019011C7F0C3948040069011C7C1
:101383007400F0D083D082D0E0F9D0E0F8D0D0D090
:10139300E032C0E0C0D0E8C0E0C008C009C082C0ED
:1013A30083901249E0F890124AE068700B539AF761
:1013B30090124B7401F08031C2EA901249E0F508B3
:1013C30074012508901249F075090074C92508F5C0
:1013D3008274113509F583E0F5F9901249E0C3945D
:1013E3008040069012497400F0D083D082D009D097
:1013F30008D0E0F8D0D0D0E03274F0120D9874FD2C
:10140300120D167402120D7FE9F08A088B098C0AFB
:101413008D0B7415120D7FE0FEA3E0FF851082850E
:101423001183E4F0A3F08E828F83A3AA82AB83900F
:10143300134E780C120C057808790C1205057018F8
:101443008E828F8374691218DB746EF0A37466F056
:10145300A30A0AAB83021876780879081205056097
:10146300118E828F83746E1218DB7461F0A3746E15
:1014730080DD901352780C120C057808790C120554
:1014830031500302152690130E780C120C057808C0
:10149300790C120505600302157A7417120D7FE0AB
:1014A30070030215BC851082851183C082C08374CA
:1014B30013120D7F122319D083D0821218B4502C2B
:1014C300851082851183C3E094FCA3E094FFA2D22C
:1014D30065D03340177402120D7FE41223EDF974C3
:1014E30013120D7FC3E098F0A3E099F07413120D6B
:1014F3007F1218D17418120D7FE070030215B974AE
:1015030017120D7FE40215BB901356780C120C05CD
:101513007808790C120988851082851183E0240AE2
:1015230012242A90135A780C120C057808790C129D
:10153300053140D490131E780C120C057808790CF1
:10154300120531400302149D90131E780C120C05F2
:101553007808790C12098812242180D890135678C0
:101563000C120C057808790C1205CC8510828511B4
:1015730083E024F61218D490135E780C120C0578CD
:1015830008790C12058040D4901352780C120C0584
:101593007808790C120580400302149D90131E787D
:1015A3000C120C057808790C1205CC851082851174
:1015B300831218D180D27401F07402120D7FE0609F
:1015C300077A007B000216C81218C0507D8E828FE6
:1015D300837430F0EAFEEBFF7413120D7FE0FCA37B
:1015E300E0FDEC4D70087418120D7FE0600B8E82E5
:1015F3008F83742EF0A30EAF837A007B0080118E4D
:10160300828F8374301218FC7413120D7F1218D159
:10161300EA24FF1AEB34FFFB85108285118312182D
:10162300A8500B7413120D7F12231D4970D185101E
:101633008285118374FFC39CF874FF9DF91218B45B
:1016430050030217967A010215C68510828511830D
:10165300122319C3E498FAE499FB806985080C8581
:10166300090D850A0E850B0F780C12041AAC0CE5D4
:101673000D3395E0F50EF50F780C1203A278087977
:101683000C12074C90131E780C120C057808790C79
:101693001205CCEC1218F6EAF8EBF9E824010AE992
:1016A3003400FBE849701E7413120D7F12231D4989
:1016B30070087418120D7FE0600B8E828F83742E76
:1016C300F0A30EAF837413120D7F1218A8508D90E0
:1016D3001322780C120C057808790C12053140039B
:1016E3000217967C01EE24FFF8EF34FFF97415120C
:1016F3000D7FE0F508A3E0F50988828983E0642E75
:101703006010E02CF0643A70077430F07C018002C2
:101713007C00E8FAE9FBEA24FF18EB34FFF9C3E5A0
:10172300089AE5099B40D2ECA2E050677402120DBF
:101733007FE06036EEF8EF800A121893E824FF1872
:10174300E934FFF9C3E50898E509995018121880A0
:10175300E0642E70E4E824FEF582E934FFF5831299
:10176300188DF980D7122421801E8E828F83A3AE19
:1017730082AF83EEF8EF800612188012188DF9C33A
:10178300E50898E5099940F07415120D7F12233886
:101793007431F07417120D7FE07005801A1EAF8349
:1017A300EE24FFF582EF34FFF583E0643060EEE072
:1017B300642E70031EAF837402120D7FE070030268
:1017C30018721218F8A3A9831218C08E828F83503F
:1017D30014742DF00EE9FF851082851183122361A5
:1017E3001218E98006742BF00EE9FF7C007D00EEF1
:1017F300240AFEEF3400FFEC24010CED3400FD124B
:10180300189A120CA2EA1218F612189A120CA212C3
:1018130019034970E2C3EC9402ED1222CA40D8ECDA
:10182300FAEDFBC3E49CF8E49DF9EE28F582EF3969
:10183300F583E0C0E0C3E49AF8E49BF9EE28F8EFFF
:1018430039F9E82CF8E93DF9E824F5F582E934FFA4
:10185300F583D0E0F0EC24FF1CED34FFFDC3EC94E2
:1018630001ED1222CA50BCEE24F6FEEF34FFFFEE68
:10187300FAEFFB7403120D2C7F08020E04E824FF19
:10188300FAE934FFFB8A828B832212189318EB2226
:10189300E088828983F02285108285118312236E6A
:1018A3007A0A7B0022C3E09AA3E09BA2D265D033DD
:1018B30022C3E098A3E099A2D265D0332285108297
:1018C300851183C3A3E09400A2D265D03322E02420
:1018D300FFF0A3E034FFF022F0EAFEEBFF8E828FED
:1018E3008322A3E03400F9851082851183E8F0A3F5
:1018F300E9F02224308E828F83F0A3AE82AF83225D
:1019030085108285118312190D22E8F0A3E9F08571
:101913001082851183E02274F0120D9874B0120DB9
:10192300168510828511831223D37418120D7FEC50
:10193300F0A3EDF0740F120D7FE4F0A38022746026
:10194300120D7F1223097404120D7FE0F97418122B
:101953000D7F122338120D96740F120D7F1222D2AF
:10196300F012234CFA12240C120D7FEAF074256A4C
:101973006010E070C9740F120D7F122309745002B6
:10198300187812234C64257019851082851183E021
:101993002401081218E57460120D7F1223097925BA
:1019A30080AB740E120D7FE4F0740D120D7FE4F022
:1019B300740C120D7FE4F07405120D7FE4F0741EB5
:1019C300120D7FA882A9837402120D7F80157405FE
:1019D300120D7FE070077405120D7FEAF085108207
:1019E300851183121909122300122393FA24E0604C
:1019F300DD24FD601724F860DD24FE600624FD600D
:101A03000F8011740C120D7FE00480D0740D80F5EB
:101A1300740E80F1122393642A705B7462120D7F3B
:101A230012239EFB8A828B83E0FCA3E0FD740A12DF
:101A33000D7FECF0A3EDF0EA24020A0AEB3400FB7D
:101A43007462120D7F1223CB740A120D7F1218C613
:101A5300501F740A120D7F122309C3E49AFAE49B00
:101A6300FB740A120D7F1223D3740C120D7FE00452
:101A7300F01218EA804A740A120D7FE4F0A3802D55
:101A8300740A120D7F12231D75F00AA4F8AAF075CB
:101A9300F00AE9A42AF9E50828F8E439F9E824D09A
:101AA300F8E934FFF9740A120D7F1224311223ED81
:101AB300F5838882E0F50874D02508C3940A40C0F2
:101AC300740C120D7FE06007740E120D7FE4F012A8
:101AD300234C642E6003021B65851082851183E00D
:101AE300240108A3E03400F912190312233DE06432
:101AF3002A702C7462120D7F122352F8A3E0F98826
:101B0300828983E0FEA3E0FFE824020808E93400A9
:101B1300F97462120D7F122386122431F080477EFE
:101B2300007F0085108285118312235B74D0250802
:101B3300C3940A5031EE75F00AA4FEA8F075F00ABA
:101B4300EFA428FFE5082EF8E43FF9E824D0FEE9E6
:101B530034FFFF851082851183E02401F81218E514
:101B630080C17EFF7FFF7A00851082851183122258
:101B7300FB851082851183E0FBA3E0F5838B82E074
:101B830024B4600824E4600524FC70040A1218EAF3
:101B930012234CFB12240C120D7FEBF07003022175
:101BA3007024BB700302203624FE70030220182425
:101BB300EF7003021D6224F57003021C67147003A7
:101BC300021E07147003022036147003022034141B
:101BD300700302201824FE7003021E0724FB6024F6
:101BE300147003021D52147003021D6224FD70035E
:101BF300021CA024FE7003021D6224FD7003021D5B
:101C03006202217C7462120D7F1223C5120D7F12B2
:101C130018F0EAA2E0740F5033120D7FE0FCA3E04A
:101C2300FD3395E0FE7406120D7F1223A6ECF0A39C
:101C3300EDF0A3EEF0A3F07462120D7F1223AD1248
:101C43000D7F122386E8F0A3E9021963120D7F12B8
:101C530023197406120D7F12239EF5838A82E8F0FE
:101C6300A3E980D27462120D7F1223A6E0C0E07450
:101C73001E120D7FD0E0F07462120D7F1223AD129D
:101C83000D7F1223861218F0741F120D7FA882A9EC
:101C9300837412120D7FE8F0A3E902219374621298
:101CA3000D7F1223C5120D7F1218F07406120D7FDB
:101CB3001223C5120D7FE02402FAA3E03400FB7463
:101CC30062120D7F1223CB7402120D7F1218F0E8FB
:101CD30049700C7402120D7F743BF0A37413F0125D
:101CE30022C850047E107F277408120D7FE4F0A3EE
:101CF30080087408120D7F1222D2F07402120D7F35
:101D030012231988828983A3AA82AB837402120DDA
:101D13007F1223D388828983E0600A7408120D7FBF
:101D230012232240CD7402120D7F1222E974121283
:101D33000D7F1218F07408120D7F122361F97412CB
:101D4300120D7FE028F8A3E039F97402021C96749F
:101D53000D120D7FE06008EE4F70047E017F00746A
:101D630062120D7F1223C5120D7F122419120D7FEB
:101D7300E0647070387406120D7F1223BB120D7F5E
:101D83001223F4120D7FE0240212237D120D7F1221
:101D930023861218F0901362120C23741A120D7F0B
:101DA300120C2F7405120D7FE4F0021E97EAA2E0D5
:101DB3007406501B120D7F122338120C2374141255
:101DC3000D7F120C2F7406120D7FE0240480121273
:101DD3000D7F1223BB120D7F1223F4120D7FE0241B
:101DE3000212237D120D7F122386122419120D7FF6
:101DF300E0646F7005901366809EE0647570969042
:101E0300132680947462120D7F1223C5120D7F1264
:101E130018F0EAA2E074065016120D7F12233878E8
:101E230008120C057406120D7FE02404F8801B12BF
:101E33000D7F12235BA3E0F5093395E0F50AF50B5B
:101E43007406120D7FE02402080812237E120D7F10
:101E5300122401120D7F7808120C1490130E7808C7
:101E630012034940217405120D7F742DF07414126E
:101E73000D7F7808120C057808120BE17414120D0B
:101E83007F7808120C14901326120C23741A120D67
:101E93007F120C2F744F120D7FA882A98374021234
:101EA3000D7F1218F07412120D7F122404120D7F8D
:101EB3007808120C05E5084509450A450B600974C5
:101EC30011120D7F740180067411120D7FE4F0EE80
:101ED3004F7008E0A2E04003021F8B7402120D7FD3
:101EE300122332120D7F122404120D7F780C120C70
:101EF30005741A120D7F7808120C05780C790812F4
:101F03000B6E742A2508F58274133509F583E0C036
:101F1300E07402120D7F122338D0E0F07414120D16
:101F23007F780C120C05741A120D7F7808120C05B9
:101F3300780C7908120B6E7414120D7F780C120C46
:101F4300147414120D7F7808120C05E50845094531
:101F53000A450B70861222C8502E740E120D7FE0B4
:101F630060267405120D7FE06004D2F08002C2F097
:101F7300740A120D7F1222DB800E7402120D7F127F
:101F830023E5120D7F1223457402120D7F1222E9FD
:101F9300744F120D7FC082C0837402120D7F12230F
:101FA30009D083D082E582C39AFAE5839BFBC3EA17
:101FB3009EEB12232B40C3740D120D7FE0700302BE
:101FC30021947411120D7FE0A2E040030221947466
:101FD30004120D7FE064786005E06458701E1218E7
:101FE30093E824FF18E934FFF97402120D7F1223DA
:101FF300E5120D7F1223387430022193E0646F6081
:10200300030221947402120D7F122399643070032A
:1020130002219480D47408120D7F7401F0A3E4F0BC
:102023007404120D7FE024FEF0EE4F700F7E0180EA
:1020330012E4F07408120D7FE4F0A3F01222C850EA
:10204300047E067F007462120D7F1223C5120D7F7A
:102053001218F07406120D7F122338780C120C0537
:102063007406120D7FE0240412237D120D7F1224C7
:1020730001120D7F780C120C1490130E7808120CB9
:1020830005780C790812058050227405120D7F74AF
:102093002DF07414120D7F7808120C05E50BB2E7CE
:1020A300F50B7414120D7F7808120C14740A120DB8
:1020B3007F122319741E120D7FE58228F8E58339F8
:1020C300F97402120D7F1218F0740D120D7FE0F5F2
:1020D300087808120F057409120D7FE0F5087808D7
:1020E300120F057404120D7F120F148E088F0978D6
:1020F30008120F01740A120D7FE0F9741A120D7F92
:10210300120C231203247406120D2C7412120D7F69
:102113001223D3740E120D7FE060767405120D7FC7
:10212300E06004D2F08002C2F0740A120D7F122222
:10213300DB7412120D7FC082C0837402120D7F12F2
:102143002319D083D082E0C398F8A3E099F9C3E8B8
:102153009EE912232B503A7402120D7F122332127E
:102163000D7F1223E5120D7F12234580C485108253
:102173008511831222F21218E97402120D7F744A38
:10218300F0A37413F07412120D7F744DF0A3741343
:10219300F07412120D7FC082C0837402120D7F127D
:1021A3002319D083D082E0C398FEA3E099FF740A79
:1021B300120D7F122322500A7408120D7FE4F0A33C
:1021C30080307405120D7FE06004D2F08002C2F00B
:1021D300740A120D7FE0C39EF8A3E09FF9A2F0E416
:1021E30033FAE89AF8E99400F97408120D7FE8F0DD
:1021F300A3E9F0740C120D7FE0702B801974601248
:102203000D7F12230F120D7F122338120D96740FB8
:10221300120D7F1224277408120D7F1223D9120D79
:102223007F1218C650D77405120D7FE0605074609A
:10223300120D7F1223097405120D7FE0F974181231
:102243000D7F122338120D96802C7460120D7F12AD
:1022530023097402120D7F122352F97418120D7F91
:10226300122338120D967402120D7F1222FB740290
:10227300120D7F1218F0740F120D7F122427EE2413
:10228300FF1EEF34FFFFC31222CA50BE740C120D9F
:102293007FE070030219647408120D7F1223D912B0
:1022A3000D7F1218C650030219647460120D7F1259
:1022B300230F120D7F122338120D96740F120D7F08
:1022C30012242780D2C3EF9400A2D265D03322E038
:1022D3002401F0A3E0340022A2F0E433F8E098FEF6
:1022E300A3E09400FF221222ED221222F2F922E04F
:1022F30024FFF8A3E034FF22E0122300222401F894
:10230300A3E03400F922E0FAA3E0FB22E0FAA3E021
:10231300FB792074182212236E2212236EE822C343
:10232300E09EA3E012232B229FA2D265D033221278
:1023330022ED74022212233C22E0F8A3E0F5838805
:10234300822212233C7430F022851082851183127D
:10235300235622122374E022122356F50822122355
:102363006EC3E498F8E49922122374E0F8A3E0F929
:1023730022E0F8A3E0F583888222F8A3E03400F991
:1023830074622212238A22E0FAA3E0F5838A82226E
:1023930085108285118312238AE02212238AE0FAB0
:1023A300A3E02212235612233D221223562402F8BD
:1023B300A3E03400F974622212236BE8FAE9FB7498
:1023C300142212236B740622E0FCA3E0F5838C82B3
:1023D300EAF0A3EBF022E024FFF0A3E034FFF07473
:1023E3000822E8F0A3E9F0740222121911F8A3E01D
:1023F30022EAF0A3EBF0A3E4F0A3F0740622122385
:102403008AE8F0A3E9F0741422851082851183E031
:1024130024010812243FE8F0A3E9F0740422851094
:1024230082851183E02401F0A3E03400F022121925
:102433000D2401F812243FE8F0A3E922A3E03400BD
:10244300F985108285118322C082C083E9F879005F
:1024530080108A828B83E029F98A828B83A3AA82E4
:10246300AB83E8FC74FF2CF8EC70E7D083D08202D6
:1024730000FB74F2120D987480120D16EAFEEBFF46
:1024830089088C0C8D0D750A80750B00780A120F64
:10249300017C007D007402120D7FAA82AB831202BD
:1024A300FA7402120D2C750900804E8E828F83E020
:1024B300F50A750B00780A120F017C587D12E509A5
:1024C300A8097900E875F003A4C8AAF075F000A480
:1024D3002AFA75F003E9A42AF97402120D7FE58242
:1024E30028FAE58339FB1203067402120D2C8E823F
:1024F3008F83A3AE82AF830509E509C3950840AB7B
:10250300851082851183AC82AD83AA0CAB0D1203B7
:102513000C851082851183AA82AB83120312EAF918
:102523007480120D2C7F06020E04C082C0839010AB
:102533000E74C2F0A374D0F0901010740BF09010CE
:102543000C74F3F0A374B4F09010117401F07A0CCE
:102553007B1012023AE9640160F412024CD083D07A
:10256300820200FB7582FE7583FE120D617E007F81
:102573000090130E7808120C058510828511837460
:1025830000F07401120D7F7400F012027012026ADF
:1025930085080C85090D850A0E850B0F850C0885AA
:1025A3000D09850E0A850F0B9013127808120BF292
:1025B300901316780C12036F506790130E7808125D
:1025C3000C057401120D7FE060258510828511834F
:1025D300E02401F0851082851183E0C3945AA2D2CE
:1025E30065D033402D7401120D7F7400F080238574
:1025F3001082851183E024FFF0851082851183E02A
:10260300C3940BA2D265D03350087401120D7F74AA
:1026130001F0851082851183E0F97A017B001202B3
:10262300A6120240E9700302259379021202887A06
:10263300647B001202A0790212028EE4F50CF50D00
:10264300780C120F017C807D007A8C7B0F1202467E
:102653007402120D2CE9FE7F00750E00750C0075D7
:102663000D01780C120F017C007D007404120D7FA4
:10267300AA82AB831202FA7402120D2C7402120D99
:102683007FAC82AD83EEF97A8C7B0F120264E9741E
:1026930002120D7F85820C85830D780C120F017A4F
:1026A3005E7B121202587402120D2C7A00900F8E68
:1026B300E0F879002401F8E93400F9C3E89481E9EA
:1026C3009400A2D265D0334003022593900F8EE08D
:1026D300F97A8C7B0F12025EE9FA900F8CE064CCDE
:1026E3006003022593900F8EE0F87900748C28F52F
:1026F30082740F39F583E06A6003022593900F8F8C
:10270300E064017079900F90E01460081460221463
:10271300603C8067900F91E0F50C750D00780C120A
:102723000F017A797B121202587402120D2C0225C2
:1027330093900F91E0F50C750D00780C120F017A50
:102743008A7B121202587402120D2C022593900FE9
:1027530091E0F87900E4C8F9900F92E0FA7B00E881
:102763002AF50CE93BF50D780C120F017A9E7B12CA
:102773001202587402120D2C022593022593900F16
:102783008FE064026003022593750E007ABA7B1210
:10279300120258900F90E014600814602114603AFC
:1027A3008065900F91E0F50C750D00780C120F0108
:1027B3007A797B121202587402120D2C8049900F01
:1027C30091E0F50C750D00780C120F017AC37B12A2
:1027D3001202587402120D2C802D900F91E0F8799B
:1027E30000E4C8F9900F92E0FA7B00E82AF50CE9BF
:1027F3003BF50D780C120F017AD87B121202587434
:1028030002120D2C750E017AF57B12120258850EF9
:102813000C750D007492250CF582740F350DF5833C
:10282300E014600914602F146055022593750F009E
:102833007493250EF582740F350FF583E0F50C754F
:102843000D00780C120F017AFE7B121202587402EB
:10285300120D2C022593750F007493250EF58274C7
:102863000F350FF583E0F50C750D00780C120F0191
:102873007A8A7B121202587402120D2C0225938558
:102883000E0C750D007493250CF582740F350DF540
:1028930083E0F87900E4C8F9750F007494250EF508
:1028A30082740F350FF583E0FA7B00E82AF50CE913
:1028B3003BF50D780C120F017A9E7B1212025874AD
:1028C30002120D2C02259374F7120D987E097F0FC7
:1028D3001202D612027C7901EEFAEFFB1202CA8EC3
:1028E300828F83E0C2E7F08E828F83E064057053AA
:1028F3008E828F83E0F97A0A7B0F1202CA8E828F4F
:1029030083A3E0A2E55004D2F08002C2F0A2F0E477
:1029130092E0901254F0780D790F88828983A3E0B6
:10292300A2E740030229DE8E828F83A3A3A3E0FAEA
:10293300900F00E06A60030229DE7401900F01F03A
:102943000229DE8E828F83E024F5901251F08E826D
:102953008F83E0F97A0A7B0F1202CA8E828F83A3D8
:10296300E0A2E55004D2F08002C2F0A2F0E492E0CB
:10297300901254F08E828F83A3A3A3A3A3A3A3A334
:10298300E0F8A3E0F990124DE8F0A3E9F0901252B9
:102993007413F0A3740FF0901251E0F83395E0F93B
:1029A300901252E028F8A3E039F988828983E090F5
:1029B3001255F088828983A3E0A2E750128E828F9A
:1029C30083A3E054DF644170067401901256F08EC5
:1029D300828F83A3A3A3E090124CF012028212020F
:1029E300DC7F01020E0474F4120D98EAFEEBFF1271
:1029F30002ACE96401700479018073120282900FC2
:102A030007EEF0A3EFF09012527400F0A37400F0FD
:102A13007401900F02F090130E7808120C05900FBA
:102A2300037808120C14900F07E0F8A3E0F58388ED
:102A330082A3A3A3A3E0F91202B8900F07E0F8A3BF
:102A4300E0F5838882E0FAA3E0FB1202BE900F0751
:102A5300E0F8A3E0F5838882A3A3E0FAA3E0FB12E6
:102A630002C47A347B021202E212027C79007F04F0
:102A7300020E04C082C083901256E0F9D083D08244
:102A83000200FB74F2120D988A0A8B0BECFEEDFF29
:102A9300740E120D7FE0F508A3E0F509120282908F
:102AA3001251E0F83395E0F9C3E89EE99F500D9089
:102AB3001251E0F50C3395E0F50D80048E0C8F0D6B
:102AC300780C120F01901252E0FCA3E0FDAA0AABAE
:102AD3000B1202F47402120D2CE50864007004E575
:102AE30009640060261202B2E9F50A901255E0F873
:102AF3003395E0F9750B00E8C3950AF8E9950BF9EE
:102B0300850882850983E8F0A3E9F07400901256E2
:102B1300F012027C901251E0F83395E0F9C3E89E7D
:102B2300E99F5007901251E0F98002EEF97F060207
:102B33000E04C082C0837401900F02F01202D0D041
:102B430083D0820200FB74F4120D988A088B098CDF
:102B53000A8D0B53F1FE43F30C53F2F37586807524
:102B6300C4807808120F41000000000C000000B080
:102B7300040000BC2B60090000C42BC0120000CC71
:102B83002B80250000D42B40380000DC2B004B00A9
:102B930000E42B80700000EC2B00960000F42B0067
:102BA300E10000FC2B002C0100042C00C201000CEE
:102BB3002C00840300142C1C2C75C23B75C50580A6
:102BC3005E75C23B75C506805675C23B75C50780E9
:102BD3004E75C23B75C508804675C2D875C5088059
:102BE3003E75C23B75C509803675C2D875C5098067
:102BF3002E75C23B75C50A802675C2D875C50A8075
:102C03001E75C23B75C50B801675C2D875C50B8082
:102C13000E75C2D875C50C800675C23B75C50A759D
:102C2300C402438640D2AA75C1009010C07400F05C
:102C33009010C17400F09011437400F0901144742B
:102C430000F09010C27400F09011457400F07F04FE
:102C5300020E0474F7120D98901143E0F89011449A
:102C6300E0C398501F901143E0F87900901144E0BD
:102C7300FE7F00E8C39EF8E99FF9E824FFF8E934F2
:102C8300FFF98037901144E0F87900C3E498F8E441
:102C930099F9901143E0FE7F00E82EF8E93FF9E847
:102CA300247FF8E93400F9C3E89CE99D5004D2F08D
:102CB3008002C2F0A2F0E433F87900E84960067AB2
:102CC300007B00805E780079008012901144E0243C
:102CD30001F0439A04E82401F8E93400F9C3E89CBD
:102CE300E99D503B8A828B83E0C0E0901144E0FE73
:102CF3007F0074C32EF58274103FF583D0E0F08A11
:102D0300828B83A3AA82AB839011457400F0901148
:102D130044E0C3947F40B49011447400F080B3E85E
:102D2300FAE9FB7F01020E04C082C083906189E04F
:102D33004460F090619074D5F09061FA7409F0905A
:102D430061B27415F09061AE7400F01202DC790088
:102D5300D083D0820200FB79490200FBC082C0838A
:102D630075F005E9A424D490618FF0D083D082025A
:102D730000FBC082C083EA906174F0E4EBFA9061D7
:102D830075F0D083D0820200FBC082C083EA9061D9
:102D930072F0E4EBFA906173F0D083D0820200FB0F
:102DA300C082C0838011E5D98A828B83F08A828BAB
:102DB30083A3AA82AB8319E9C3940150E9D083D0DA
:102DC300820200FB75E1EC75E1E30200FBC082C007
:102DD300839061A3E0C2E6F0539AFED083D08202CF
:102DE30000FBC082C0839061A3E0D2E6F0439A0166
:102DF300D083D0820200FBC082C083A2AFE433F849
:102E0300C2AF90103CEAF0A3EBF0E8A2E092AFD09F
:102E130083D0820200FBC082C0838A828B83122EFE
:102E2300B0E9F08A828B83E02401FCA3E03400FD47
:102E33008A828B83ECF0A3EDF0D083D0820200FB77
:102E430074F6120D9874FC120D167402120D7FEABB
:102E5300F0A3EBF0ECFAEDFB740E120D7FA882A940
:102E630083851082851183E8F0A3E9F085108285BC
:102E730011838582088583097808120F017404126F
:102E83000D7F8582088583097808120F017C007DF8
:102E93000312032A7404120D2C7402120D7F122ED6
:102EA300B0E4F07404120D2C7F02020E04E0F8A3C8
:102EB300E0F583888222C082C0838A828B83122FAB
:102EC3003EE9F08A828B83E02401FCA3E03400FD19
:102ED3008A828B83ECF0A3EDF0D083D0820200FBD7
:102EE30074F6120D9874FE120D16851082851183E7
:102EF300EAF0A3EBF0ECFAEDFB740C120D7FE0F5B6
:102F030008A3E0F5097808120F017402120D7F85FA
:102F130082088583097808120F017C187D03120348
:102F23002A7404120D2C851082851183122F3EE41E
:102F3300F07402120D2C7F02020E04E0F8A3E0F5F8
:102F43008388822274F6120D98E9FE780079007C5A
:102F5300007D0043C63843F40143F14053F5EF438A
:102F6300FFC043FE0175E40275E724EA75F0FAA495
:102F7300CAAFF075F000A42FFF75F0FAEBA42FFB96
:102F8300EAF8EBF9E8FAE9FBE4EBFAF5DBE8F5DA62
:102F93008E08750900E88508F0A4C8AAF08509F031
:102FA300A42AFA8508F0E9A42AF97A647B00120CB2
:102FB300AA88088909AC08AD09ECF8E509A909E470
:102FC300E509A809E509F5DFECF5DE7F02020E0449
:102FD30074F6120D987582FE7583FE120D6175826B
:102FE3000C758301120D89A882A98385108285112E
:102FF30083E8F0A3E9F08510828511838582088533
:1030030083097808120F01EAFCEBFD7404120D7FAB
:10301300AA82AB8312031E7402120D2C7402120DCA
:103023007FAA82AB83120312EAFCEBFD7402120D3A
:103033007FAA82AB831202EE92F07582027583013E
:10304300120D61A2F07F02020E04C082C0837900D8
:10305300120276D083D0820200FBEBC313FBEA1388
:10306300FAEAF8EBF9E824FFFAE934FFFBE84960F0
:10307300120000000000000000000000000000003B
:103083000080DE0200FB74F7120D98EAFEEBFFEE00
:10309300F8EFF9E824FFFEE934FFFFE84960097A15
:1030A300E87B0312029A80E77F01020E0474F61292
:1030B3000D98740A120D7FE0FEA3E0FFEAF8EBF926
:1030C30080188C828D83E088828983F0A3A882A9EB
:1030D300838C828D83A3AC82AD838E088F09E50830
:1030E30024FF1EE50934FFFFE508450970D47F027C
:1030F300020E04E914600B14600C14600D14600ECE
:10310300800ED290800AD2918006D2938002D2940C
:103113000200FBE914600B14600C14600D14600EC4
:10312300800EC290800AC2918006C2938002C2942C
:103133000200FBC082C08312029453F4FEC2904388
:10314300FE0153F4FDC29143FE0253F4F7C29343CD
:10315300FE0853F4EFC29443FE1090131A120C238B
:103163001202E812027CD083D0820200FBE5C6542F
:1031730080F853BEFBE59DA2E550FAE59DA2E2402F
:10318300F4007401697007744948F5C68005E97055
:103193000288C6E5C6F8E59EFAE86A70F943BE04FC
:1031A3000200FB74F7120D987409120D7FE0F8A367
:1031B300E0F98A828B838003ECF0A3E8FEE9FFEE5B
:1031C30024FF18EF34FFF9EE4F70ED7F01020E0478
:1031D30074F7120D98EAF8EBF98C828D83E0A3ACB7
:1031E30082AD838A828B83F0A3AA82AB8370EAE8E1
:1031F300FAE9FB7F01020E04C082C0838A828B83BB
:103203008001A3E070FCE582C39AFAE5839BFBD0BF
:1032130083D0820200FB53EBF753EBEFC2BC0200F7
:0B322300FBD2AF0200FBC2AF0200FBB9
:04000005000000E314
:00000001FF
