:020000040000FA
:030000000200E318
:030013000212587E
:03001B0002131FAE
:0300330002115A5D
:03003B000212B8F6
:03004B000212306E
:03006300020FEB9E
:03006B0002103050
:0300730002137FF6
:03007B000210C5AB
:100083000211EF00000080FB120113B9000302000C
:10009300CDE4900F0078C179048002F0A3D8FCD995
:1000A300FA9012C0AA82AB8390011678B3790180CB
:1000B30015E493A3AC82AD838A828B83F0A3AA82D7
:1000C300AB838C828D83D8E9D9E77582B775832F8B
:1000D30074001200F575828675830074001200F5B2
:1000E30075D0007581BF75100075110F759F0002E3
:1000F300008BC09FF59FE473D09F22D083D082C032
:100103009FE493C0E0740193C0E0740293F59F22CF
:10011300790122FF00000000000000000000000041
:10012300C2010000000000000080C054E3253DA28E
:10013300E73BB60AD7233CACC5A738000020C20072
:1001430000C8C10100C8420000C842CDCCCC3D006C
:100153000020410000A040414141CEC2CAAAB6C816
:10016300B4ABB8D0C6F7A3ACCEC2B6C8A3BA2564A5
:10017300A1E62C20CAAAB6C8A3BA256425250D0A70
:10018300000A000000303132333435363738394114
:10019300424344454600286E756C6C20706F696E4F
:1001A30074657229003F3F3F000000807F0000809C
:1001B3003FF9021550B743BA5100E7DB2E10000098
:1001C30000080000001200FE082A001200FEAD2AFB
:1001D300001200FE0E2B001200FE2D2C001200FE5A
:1001E300BA2C001200FE522D001200FEA73300129B
:1001F30000FEBA33001200FED833001200FEE333D0
:10020300001200FE7032001200FEF333001200FEF3
:100213003634001200FEB734001200FEBC34001264
:1002230000FE5533001200FE7E33001200FEE6325C
:10023300001200FEF632001200FE2833001200FE08
:10024300A330001200FED230001200FEE83000128C
:1002530000FEFD30001200FE1231001200FE3E319E
:10026300001200FE6231001200FE7331001200FE24
:100273007C31001200FE8531001200FE9A3100121B
:1002830000FEAF31001200FECF31001200FE662DDA
:10029300001200FE772E001200FE3524001200FE2D
:1002A3006724001200FED924001200FE5825001214
:1002B30000FEC525001200FEFE25001200FE992651
:1002C300001200FE8428001200FE532F001200FECD
:1002D3007D2F001200FE6C34001200FE99340012D0
:1002E30000FEE231001200FE0C32001200FEE613A3
:1002F300001200FE041900E493667013087401935E
:1003030066700C0874029366700508740393662282
:10031300C008C3E096F50808A3E096420808A3E0E6
:1003230096420808A3E0964208A2D265D033E508B6
:100333007001D3D00822C3E49396087401939608FE
:1003430074029396087403939622080808E630E72C
:1003530011120B89120365080808C64480C61818D1
:100363001822181818E9799EC608CAC608CBC60809
:10037300CCC6C370207996CACBCC7019798ECBCCFE
:1003830070137986CC700EF9802ACA33CACB33CB6B
:10039300CC33CC331930E7F2CCCBCA3350147004CE
:1003A300EA30E00DE4CA3ACACB3BCBCC3CCC50029A
:1003B30009C3E913C6CC182313C6CB18C6CA18C67B
:1003C300F92212040520F01430E72B74FFFCFBFA2A
:1003D300747F8022E4FCFBFA7480801AB48008BC2A
:1003E30000F2BB00EF800F50EBF9E4C39AFAE49BF1
:1003F300FBE49CFCE499C6CC18C6CB18C6CA18C645
:10040300F922E4C9C608CAC608CBC6D3330308CC4D
:10041300C63392F0C3947F402E94184019C9B9078C
:1004230004CACBCC225025C309CA33CACB33CBCCA5
:1004330033CC33D9F422F4600DC9CCC313CB13CB23
:10044300CA13CAD9F6CC22E4FCFBFA2214FCFBFA49
:1004530022E6C33318461846184622E7C333194722
:100463001947194722181818E6084608700AE608BB
:10047300C3337005E633F4220822191919E7094733
:1004830009700AE709C3337005E733F4220922E64A
:10049300084608C3134608336002E633F422E7092B
:1004A3004709C3134709336002E733F42212049266
:1004B30060251204A16020120454700302045E0834
:1004C3000808E76670101819E766700A1819E766D6
:1004D30070041819E76622F422120492601C1204B5
:1004E300A16017120454700712045E7001D322C076
:1004F300D012045E7006D0D0B322C32233D0D050C2
:100503001430E0F6C3E7960809E7960809E796086A
:1005130009E796B32220E0D5E6970809E69708098C
:10052300E6970809E697B322120492601B1204A10E
:100533006016120454700712045E600CB322C0D01C
:1005430012045E7005D0D022C32233D0D0501330B2
:10055300E0EBC3E7960809E7960809E7960809E779
:10056300962220E0E4E6970809E6970809E697084B
:1005730009E6972200120492604F1204A16012E769
:10058300548066F6120468701112045E703B090908
:1005930009F4F618F618F618F62212047D701512EF
:1005A300045408080860EAE6447FF618768018E4E5
:1005B300F618F622120454601612045E7012E4F662
:1005C30008F608F608E65480F609090918181822EF
:1005D300EAC0E0EBC0E0ECC0E0EDC0E0E687F0A4E9
:1005E300FBACF008E687F0A42CFCE435F0FA18091C
:1005F300E687F0A42C4B60027401CA35F0FCE433A7
:10060300FB09E687F0D2F7A42CCB35F0FC1908E6FA
:1006130087F0A42BCC35F0FBE433FD0819E687F013
:10062300D2E7A42C4ACB35F0CD3400FC09E687F0A1
:10063300D2E7A42DCC35F0FDE433FA0918E687F0B0
:10064300D2F7A42CCD35F0CA3400FC08E687F0D2EB
:10065300E7D2F7A42ACC35F07A7E20E70B0ACB3316
:10066300CBCD33CDCC33CC33CB3350147004ED30FE
:10067300E00ED2F1E4CD3DCDCC3CCC3B5005DA05C8
:10068300C2F1EB547FC63308E63392F0FBE733093C
:10069300E733C39A502D2B70190C0D4C4D70151860
:1006A30006E608C333700D20F10AA2F013F6E4182E
:1006B300800B4024E4F630F002768018F618F61822
:1006C300F68024D33B14501074FFA2F013F618766F
:1006D30080E418F618F6800FA2F013F618E6330339
:1006E300F618ECF618EDF6D0E0FDD0E0FCD0E0FB18
:1006F300D0E0FA221204A16046120492603DE96838
:100703007008F618F618F618F622748067F71207C1
:100713002B090909748067F722120492601D1204E1
:10072300A17005191919801A120468701F12047D2B
:10073300C37003E6673319191940071818182208FC
:10074300080874FFF618F618F618F62212047D60EE
:100753001712045E702192F012045470195017207E
:10076300F014080808090909E7F61819E7F6181933
:10077300E7F61819E7F62212045460E6E869701FD9
:100783000808E62480F608E436F618547FB47F0C94
:10079300E654806007F6E418F618F622181822E9E2
:1007A300C6CC08C6CD08C6CE08C6CFC0E0E8C0E0B8
:1007B300EAC0E0EBC0E009E9F809E7FA09E7FBE67C
:1007C300F918E6F8C3EC98ED99EE9AEBC2E7F5F069
:1007D300EFC2E795F0500E600CEBCFFBEACEFAE9DF
:1007E300CDF9E8CCF8EAA2E7D2E7FAEB33FB13F54D
:1007F300F0EEA2E7D2E7FEEF33FFC5F013A2E73036
:10080300E601B313C5F0C3C0E0C0F07F00C39BFB98
:10081300605B9418600C401AD0E023F9D0E0F80232
:1008230008FA8AF0E9486003D2F0E4AFF0FAF9F885
:10083300803BEB30E40D89F0EA6003D2F0E4AFF0E3
:10084300F9CAF8EB30E30D88F0EF6002D2F0AFF0B5
:10085300E4CAC9F8EB54076014FBC3EA13FAE913BB
:10086300F9E813F8EF135002D2E0FFDBEDD0E0C05C
:10087300E030E739C3E49FFFF5F0EC98FC42F0ED7C
:1008830099FD42F0EE9AFE42F0D0E0F9D0E0F8E5AF
:10089300F0607AE923F9EE20E742D8028067C3EFDC
:1008A30033FFEC33FCED33FDEE33FE80EAEC28FC42
:1008B300ED39FDEE3AFED0E023F9D0E0F8400280B6
:1008C3001BC3EE13FEED13FDEC13FCEF135002D22A
:1008D300E0FF08B800067F7F74FF802EEF335017C8
:1008E3008CF020F00260100CBC000C0DBD00080E53
:1008F300BE000408E860DFE933E813FFEE2313FECC
:100903004F4D4C8008E95480FFE4FEFDFCEE33EFCD
:1009130033F47004FCFD7E80D0E0FBD0E0FAD0E03D
:10092300F8D0E0CFC618CEC618CDC618CCC6F9226B
:100933001204927004181818221204A1700D74FF87
:10094300F61819F61819F61819F622E7548066F600
:10095300120454700F12045E70F014F608F608F6D1
:1009630008F680D112045E700CF608F6087680084B
:10097300E6447F80EC120480700C12046B60BFE6C7
:100983005480F6E480BB12046B700519191980A515
:10099300E869700C763F18768018F618F6E8F922A5
:1009A300E6CDC0E018ECC0E0E633CD33CDD313F68B
:1009B300E719FCE7191933CC33C3947F400ECD9D5F
:1009C300502408E65480F6E418F6800FF4043D142E
:1009D300501408E6447FF6187680E418F618F6D02B
:1009E300E0FCD0E0FD22CCD313CCFD18E4C6CBC091
:1009F300E018E4C6CAC0E00808ED08C633E613F6FB
:100A030018E433C675F003C3CA97CA09CB97CB1949
:100A13009C40047D08802EBD0003020ADC16B6FF4D
:100A2300050606081618C3CA33CACB33CB33CA2705
:100A3300CA09CB37CB193CC37D08803E187D0820FB
:100A4300E75CC633C6CA33CACB33CB33DDF1D5F04B
:100A5300EB30E77BCA97CA09CB974ACB199C406F07
:100A63004B7025E620E0218066187D08C3CA97CA2B
:100A730009CB97CB199CD3C633C6CA33CACB33CB66
:100A83003350C9DDE7D5F0E1D3E4C636C608C63630
:100A9300C608C636C608C636C61818188031C3CA73
:100AA30097CA09CB97CB199CB34097C633C6CA33B1
:100AB300CACB33CB33DD34D5F02EC6A2E0C640C853
:100AC300CA27CA09CB37194A70BECB3CB480B908D0
:100AD30008E63308E633601F181818D0E0FAD0E0B0
:100AE300FBD0E0FCD0E0FD22187D08CA27CA09CB61
:100AF30037CB193CD3808013F618E4B67F11F61870
:100B0300B6FF0EF618C60470D20808768080CAF6BF
:100B130018F618F680C5E4CFC0E0E4CEC0E0E4CD1B
:100B2300C0E0E4CCC0E075F020C3E633F608E6335A
:100B3300F608E633F608E633F6181818EC33FCED3E
:100B430033FDEE33FEEF33FFC3EC9709ED9709EE68
:100B53009709EF97191919400FFFEC97FC09ED97C7
:100B6300FD09EE97FE191906D5F0BEECF709EDF76E
:100B730009EEF709EFF7191919D0E0FCD0E0FDD021
:100B8300E0FED0E0FF22181818E4C396F608E496B6
:100B9300F608E496F608E496F622E0F608A3E0F6F3
:100BA30008A3E0F608A3E0F622E6F008A3E6F008BF
:100BB300A3E6F008A3E6F022E0FAA3E0FBA3E0FC3F
:100BC300A3E0FD22EAF0A3EBF0A3ECF0A3EDF02207
:100BD300CAC0E0E6F0A308DAFAD0E0FA22CAC0E01D
:100BE300E0A3C582CCC582C583CDC583F0A3C582EE
:100BF300CCC582C583CDC583DAE6D0E0CA22C3E47F
:100C030098F8E499F9120C428026C3E49AFAE49B1B
:100C1300FBE920E7E9120C42E498F8E499F922C3CE
:100C2300E498F8E499F9120C42E498F8E499F9C3CA
:100C3300E49AFAE49BFB22EB20E7CFE920E7E0B953
:100C43000010BB0008E88AF084F8AAF022E4FBC88D
:100C5300FA22EB70227B10C833C8C933C93350075B
:100C6300C39AC3DBF280069A50012ADBEAC833F445
:100C7300C8C933F4C9FA2275F008E4C833C8C933C4
:100C8300C933C99AC99B5004C92AC93BD5F0ECFBA7
:100C9300C833F4C8E4C9FA22700422600D18C6C32D
:100CA30033C608C633C6D5E0F41822251010AF08A2
:100CB300F510400215118008F51040021511D2AF4E
:100CC30022C0D0251010AF08F5105002051180087E
:100CD300F51050020511D2AFD0D0222510F58210A5
:100CE300AF08F510400215118008F51040021511E8
:100CF300D2AF85118322C5822510C582C5833511E4
:100D030010AF07F5118582108007F511858210D287
:100D1300AFC583222510F582E43511F58322C58200
:100D23002510C582C5833511C58322E4732510C5FB
:100D330082C0E0E51134FFC583C0E0E510C39582AE
:100D430024F810AF088583118582108008858311EC
:100D5300858210D2AFCEF0A3E520F0A37808E60891
:100D6300F0A3DEFAEFF0A3E58124FAF8E608F0A396
:100D7300E608F0A3E608F0A30808E608F0A3E608EF
:100D8300F0A315811581D0E0FED0E0F8158115811F
:100D93001581E8C0E0EEC0E022851183851082E072
:100DA300A3FEE0A3F5207808E0A3F608DFFAE0A3AA
:100DB300FFE0A3C0E0E0A3C0E0E0A3C0E0E0A3C085
:100DC300E0E0A3C0E010AF0885821085831180089E
:100DD300858210858311D2AFD083D0820200FBC0FD
:100DE300D02510C582C0E0E51134FFC583C0E0E51E
:100DF30010C3958224F310AF088583118582108078
:100E030008858311858210D2AFC8F0A3E9F0A3EA65
:100E1300F0A3EBF0A37908E709F0A3D8FAECF0A369
:100E2300EDF0A3EEF0A3EFF0A3D0E0F0A3D0E0F059
:100E3300A3D0E0F0A3E520F0A3E5F0F0A322851111
:100E430083851082E0C0E0A3E0F9A3E0FAA3E0FB0E
:100E5300A37808E0F608A3DFFAE0FCA3E0FDA3E033
:100E6300FEA3E0FFA3E0C0E0A3E0C0E0A3E0F5D071
:100E7300A3E0F520A3E0A3F5F010AF088583118567
:100E830082108008858311858210D2AFD082D083EF
:100E9300D0E0F8D0E032740280027401C0E0F404C0
:100EA300120CDED0E0120BD32274028000CCC0E01F
:100EB300EDC0E0E510C39CCCAD1150011D10AF0691
:100EC3008C108D1180068C108D11D2AF120BE0D0D7
:100ED300E0FDD0E0FC22D083D082C5F0E493A3C52B
:100EE300F0C395F0F5F0E493A3C395F04005E5F066
:100EF300048001E475F002A42582F582E5F03583D0
:100F0300F583E493A3C0E0E493C0E022D083D082CE
:100F1300ECC0E0EDC0E0EEC0E0EFC0E0E493A3FC82
:100F2300E493A3FDE493A3FEE493A3FFEF4E4D4CA0
:100F33006015120F8BEC24FFFCED34FFFDEE34FF44
:100F4300FEEF34FFFF80E5E493A3FCE493A3FDE409
:100F530093A3FEE493A3FFEF4E4D4C6015120FC80D
:100F6300EC24FFFCED34FFFDEE34FFFEEF34FFFF16
:100F730080E5D0E0FFD0E0FED0E0FDD0E0FCE493DC
:100F8300A3C0E0E493C0E022C0E0C0F088F0120305
:100F930039A8F040071202FAA8F0701AA3A3A3A37A
:100FA300120339A8F0A3A3A3A34013D0F0D0E0D039
:100FB300E0D0E0020F75A3A3A3A3A3A3A3A3A3A3BA
:100FC300D0F0D0E022C0E0C0F088F01202FAA8F01E
:100FD300A3A3A3A3700BD0F0D0E0D0E0D0E0020F26
:100FE30075A3A3D0F0D0E022C0E074F2120DE2C2E8
:100FF300DBC2C4900FFDE02401F0A3E03400F090C5
:101003000FFDE064A17004A3E064077015900FFD69
:101013007400F0A37400F07401900FFCF01201F857
:1010230080067400900FFCF07F01020E41C0E07453
:10103300F1120DE2C2C5E58970030210C07E008083
:1010430076750801750900EE7808120C9BAF08E568
:10105300895F6062EEF87900E875F002A4C8AAF02F
:1010630075F000A42AFA75F002E9A42AF9E824FF2E
:10107300F582E9340FF583E064007004A3E06400B3
:10108300602EEEF87900E875F002A4C8AAF075F0B6
:1010930000A42AFA75F002E9A42AF9E824FFF582EC
:1010A300E9340FF583E0F8A3E0F5838882120D2E6F
:1010B300EFF45589F5890EEEC3940840847F02024C
:1010C3000E41C0E074F1120DE2C2EBE58A70030237
:1010D30011557E008076750801750900EE780812B7
:1010E3000C9BAF08E58A5F6062EEF87900E875F063
:1010F30002A4C8AAF075F000A42AFA75F002E9A4C4
:101103002AF9E8240FF582E93410F583E0640070CE
:1011130004A3E06400602EEEF87900E875F002A401
:10112300C8AAF075F000A42AFA75F002E9A42AF916
:10113300E8240FF582E93410F583E0F8A3E0F583A2
:101143008882120D2EEFF4558AF58A0EEEC39408A9
:1011530040847F02020E41C0E074F1120DE2C2E846
:10116300E58B70030211EA7E00807675080175092C
:1011730000EE7808120C9BAF08E58B5F6062EEF817
:101183007900E875F002A4C8AAF075F000A42AFA61
:1011930075F002E9A42AF9E8241FF582E93410F571
:1011A30083E064007004A3E06400602EEEF879002D
:1011B300E875F002A4C8AAF075F000A42AFA75F045
:1011C30002E9A42AF9E8241FF582E93410F583E043
:1011D300F8A3E0F5838882120D2EEFF4558BF58B7F
:1011E3000EEEC3940540847F02020E41C0E074F208
:1011F300120DE2A2AFE492E0FEC2AFE5E9A2E6502F
:1012030022901029E064007004A3E06400600E9053
:101213001029E0F8A3E0F5838882120D2E759B0058
:1012230053E9BFEEA2E092AF7F01020E41C0E0742A
:10123300F2120DE290102BE064007004A3E064004E
:10124300600E90102BE0F8A3E0F5838882120D2E38
:101253007F01020E41C0E0C0D0E8C0E0E9C0E0EA8F
:10126300C0E0C082C083E5C1C0E09010AEE0790069
:10127300242DF582E93410F583D0E0F09010ADE031
:10128300FA9010AEE06A7006E5959010AFF09010FA
:10129300AEE024019010AEF0C39480400674009039
:1012A30010AEF0D083D082D0E0FAD0E0F9D0E0F8ED
:1012B300D0D0D0E032C0E0C0D0EAC0E0C008C0095E
:1012C300C082C083901130E0FA901131E06A700B54
:1012D300539AFB7401901132F08031C2E9901130BE
:1012E300E0F50874012508901130F0750900E50850
:1012F30024B0F582E5093410F583E0F5C19011308F
:10130300E0C3948040067400901130F0D083D08203
:10131300D009D008D0E0FAD0D0D0E032C0E0C0D0BD
:10132300E8C0E0E9C0E0EAC0E0C082C083E5F9C0FC
:10133300E09011B4E079002433F582E93411F583A8
:10134300D0E0F09011B3E0FA9011B4E06A7006E5D2
:10135300959011B5F09011B4E024019011B4F0C34D
:101363009480400674009011B4F0D083D082D0E012
:10137300FAD0E0F9D0E0F8D0D0D0E032C0E0C0D06D
:10138300EAC0E0C008C009C082C083901236E0FA08
:10139300901237E06A700B539AF77401901238F089
:1013A3008031C2EA901236E0F508740125089012E4
:1013B30036F0750900E50824B6F582E5093411F520
:1013C30083E0F5F9901236E0C394804006740090F0
:1013D3001236F0D083D082D009D008D0E0FAD0D032
:1013E300D0E03274F0120D3074FD120CAE740212A0
:1013F3000D17E9F08A088B098C0A8D0B7415120DF1
:1014030017E0FEA3E0FF851082851183E4F0A3F0CB
:101413008E828F83A3AA82AB83901356780C120B10
:101423009D7808790C1204B070188E828F837469CA
:101433001218C5746EF0A37466F0A30A0AAB830294
:101443001860780879081204B060118E828F837453
:101453006E1218C57461F0A3746E80DD90135A7810
:101463000C120B9D7808790C1204DC500302151042
:101473009012D0780C120B9D7808790C1204B0608E
:10148300030215647417120D17E070030215A68585
:101493001082851183C082C0837413120D17122327
:1014A30003D083D08212189E502C8510828511831D
:1014B300C3E094FCA3E094FFA2D265D03340177439
:1014C30002120D17E41223D7F97413120D17C3E098
:1014D30098F0A3E099F07413120D171218BB741847
:1014E300120D17E070030215A37417120D17E4020F
:1014F30015A590135E780C120B9D7808790C1209D0
:1015030033851082851183E0240A12241490136218
:10151300780C120B9D7808790C1204DC40D49012DD
:10152300FC780C120B9D7808790C1204DC40030242
:1015330014879012FC780C120B9D7808790C120911
:101543003312240B80D890135E780C120B9D78080D
:10155300790C120577851082851183E024F6121821
:10156300BE901366780C120B9D7808790C12052B2C
:1015730040D490135A780C120B9D7808790C1205FD
:101583002B40030214879012FC780C120B9D7808F1
:10159300790C1205778510828511831218BB80D2CE
:1015A3007401F07402120D17E060077A007B0002E9
:1015B30016B21218AA507D8E828F837430F0EAFE21
:1015C300EBFF7413120D17E0FCA3E0FDEC4D700864
:1015D3007418120D17E0600B8E828F83742EF0A3A4
:1015E3000EAF837A007B0080118E828F837430125A
:1015F30018E67413120D171218BBEA24FF1AEB3402
:10160300FFFB851082851183121892500B741312FD
:101613000D171223074970D185108285118374FF3A
:10162300C39CF874FF9DF912189E50030217807A29
:10163300010215B0851082851183122303C3E49838
:10164300FAE499FB806985080C85090D850A0E85E6
:101653000B0F780C1203C5AC0CE50D3395E0F50EBA
:10166300F50F780C12034D7808790C1206F79012D7
:10167300FC780C120B9D7808790C120577EC121884
:10168300E0EAF8EBF9E824010AE93400FBE84970E1
:101693001E7413120D171223074970087418120DC4
:1016A30017E0600B8E828F83742EF0A30EAF8374CA
:1016B30013120D17121892508D901300780C120B01
:1016C3009D7808790C1204DC40030217807C01EE3C
:1016D30024FFF8EF34FFF97415120D17E0F508A392
:1016E300E0F50988828983E0642E6010E02CF064C1
:1016F3003A70077430F07C0180027C00E8FAE9FB61
:10170300EA24FF18EB34FFF9C3E5089AE5099B4087
:10171300D2ECA2E050677402120D17E06036EEF8C7
:10172300EF800A12187DE824FF18E934FFF9C3E5B6
:101733000898E50999501812186AE0642E70E4E8D5
:1017430024FEF582E934FFF583121877F980D71266
:10175300240B801E8E828F83A3AE82AF83EEF8EFBD
:10176300800612186A121877F9C3E50898E50999F3
:1017730040F07415120D171223227431F0741712EE
:101783000D17E07005801A1EAF83EE24FFF582EF7C
:1017930034FFF583E0643060EEE0642E70031EAF27
:1017A300837402120D17E0700302185C1218E2A38F
:1017B300A9831218AA8E828F835014742DF00EE918
:1017C300FF85108285118312234B1218D380067470
:1017D3002BF00EE9FF7C007D00EE240AFEEF3400BF
:1017E300FFEC24010CED3400FD121884120C3AEACC
:1017F3001218E0121884120C3A1218ED4970E2C361
:10180300EC9402ED1222B440D8ECFAEDFBC3E49C55
:10181300F8E49DF9EE28F582EF39F583E0C0E0C3E3
:10182300E49AF8E49BF9EE28F8EF39F9E82CF8E9A3
:101833003DF9E824F5F582E934FFF583D0E0F0ECD7
:1018430024FF1CED34FFFDC3EC9401ED1222B450D0
:10185300BCEE24F6FEEF34FFFFEEFAEFFB74031247
:101863000CC47F08020D9CE824FFFAE934FFFB8ACD
:10187300828B832212187D18EB22E088828983F001
:10188300228510828511831223587A0A7B0022C392
:10189300E09AA3E09BA2D265D03322C3E098A3E0F1
:1018A30099A2D265D03322851082851183C3A3E028
:1018B3009400A2D265D03322E024FFF0A3E034FFEA
:1018C300F022F0EAFEEBFF8E828F8322A3E0340046
:1018D300F9851082851183E8F0A3E9F02224308E84
:1018E300828F83F0A3AE82AF83228510828511831A
:1018F3001218F722E8F0A3E9F0851082851183E03E
:101903002274F0120D3074B0120CAE851082851162
:10191300831223BD7418120D17ECF0A3EDF0740FAE
:10192300120D17E4F0A380227460120D171222F334
:101933007404120D17E0F97418120D1712232212F2
:101943000D2E740F120D171222BCF0122336FA1249
:1019530023F6120D17EAF074256A6010E070C9745B
:101963000F120D171222F3745002186212233664F9
:10197300257019851082851183E02401081218CF80
:101983007460120D171222F3792580AB740E120DB9
:1019930017E4F0740D120D17E4F0740C120D17E434
:1019A300F07405120D17E4F0741E120D17A882A926
:1019B300837402120D1780157405120D17E070075A
:1019C3007405120D17EAF08510828511831218F33E
:1019D3001222EA12237DFA24E060DD24FD6017243D
:1019E300F860DD24FE600624FD600F8011740C1284
:1019F3000D17E00480D0740D80F5740E80F112236E
:101A03007D642A705B7462120D17122388FB8A822D
:101A13008B83E0FCA3E0FD740A120D17ECF0A3ED39
:101A2300F0EA24020A0AEB3400FB7462120D171267
:101A330023B5740A120D171218B0501F740A120D31
:101A4300171222F3C3E49AFAE49BFB740A120D17EC
:101A53001223BD740C120D17E004F01218D4804A3F
:101A6300740A120D17E4F0A3802D740A120D1712D5
:101A7300230775F00AA4F8AAF075F00AE9A42AF975
:101A8300E50828F8E439F9E824D0F8E934FFF974D3
:101A93000A120D1712241B1223D7F5838882E0F54F
:101AA3000874D02508C3940A40C0740C120D17E0C3
:101AB3006007740E120D17E4F0122336642E6003D0
:101AC300021B4F851082851183E0240108A3E034B3
:101AD30000F91218ED122327E0642A702C746212A5
:101AE3000D1712233CF8A3E0F988828983E0FEA353
:101AF300E0FFE824020808E93400F97462120D17C4
:101B030012237012241BF080477E007F0085108211
:101B130085118312234574D02508C3940A5031EEEE
:101B230075F00AA4FEA8F075F00AEFA428FFE508F3
:101B33002EF8E43FF9E824D0FEE934FFFF85108254
:101B4300851183E02401F81218CF80C17EFF7FFF47
:101B53007A008510828511831222E5851082851112
:101B630083E0FBA3E0F5838B82E024B4600824E4E4
:101B7300600524FC70040A1218D4122336FB1223C6
:101B8300F6120D17EBF0700302215A24BB70030207
:101B9300202024FE700302200224EF7003021D4C58
:101BA30024F57003021C51147003021DF114700319
:101BB30002202014700302201E147003022002244A
:101BC300FE7003021DF124FB6024147003021D3C0C
:101BD300147003021D4C24FD7003021C8A24FE7042
:101BE30003021D4C24FD7003021D4C022166746226
:101BF300120D171223AF120D171218DAEAA2E074AE
:101C03000F5033120D17E0FCA3E0FD3395E0FE7493
:101C130006120D17122390ECF0A3EDF0A3EEF0A340
:101C2300F07462120D17122397120D17122370E826
:101C3300F0A3E902194D120D171223037406120DB6
:101C430017122388F5838A82E8F0A3E980D27462AD
:101C5300120D17122390E0C0E0741E120D17D0E08E
:101C6300F07462120D17122397120D1712237012BC
:101C730018DA741F120D17A882A9837412120D1794
:101C8300E8F0A3E902217D7462120D171223AF124B
:101C93000D171218DA7406120D171223AF120D174F
:101CA300E02402FAA3E03400FB7462120D1712233E
:101CB300B57402120D171218DAE849700C74021287
:101CC3000D177443F0A37413F01222B250047E1064
:101CD3007F277408120D17E4F0A380087408120D0F
:101CE300171222BCF07402120D1712230388828983
:101CF30083A3AA82AB837402120D171223BD8882B9
:101D03008983E0600A7408120D1712230C40CD7406
:101D130002120D171222D37412120D171218DA744D
:101D230008120D1712234BF97412120D17E028F83D
:101D3300A3E039F97402021C80740D120D17E060E0
:101D430008EE4F70047E017F007462120D17122398
:101D5300AF120D17122403120D17E064707038745C
:101D630006120D171223A5120D171223DE120D17DB
:101D7300E02402122367120D171223701218DA904F
:101D8300136A120BBB741A120D17120BC7740512C8
:101D93000D17E4F0021E81EAA2E07406501B120D37
:101DA30017122322120BBB7414120D17120BC774D4
:101DB30006120D17E024048012120D171223A51228
:101DC3000D171223DE120D17E02402122367120DE2
:101DD30017122370122403120D17E0646F7005901D
:101DE300136E809EE06475709690132E80947462D7
:101DF300120D171223AF120D171218DAEAA2E074AC
:101E0300065016120D171223227808120B9D740622
:101E1300120D17E02404F8801B120D17122345A39B
:101E2300E0F5093395E0F50AF50B7406120D17E09A
:101E330024020808122368120D171223EB120D1740
:101E43007808120BAC9012D0780812031340217457
:101E530005120D17742DF07414120D177808120B58
:101E63009D7808120B8C7414120D177808120BACA2
:101E730090132E120BBB741A120D17120BC7744F4B
:101E8300120D17A882A9837402120D171218DA749F
:101E930012120D171223EE120D177808120B9DE57F
:101EA300084509450A450B60097411120D177401A1
:101EB30080067411120D17E4F0EE4F7008E0A2E0F3
:101EC3004003021F757402120D1712231C120D1703
:101ED3001223EE120D17780C120B9D741A120D17A4
:101EE3007808120B9D780C7908120B1974322508A7
:101EF300F58274133509F583E0C0E07402120D17FF
:101F0300122322D0E0F07414120D17780C120B9DDB
:101F1300741A120D177808120B9D780C7908120B9E
:101F2300197414120D17780C120BAC7414120D17CC
:101F33007808120B9DE5084509450A450B70861282
:101F430022B2502E740E120D17E060267405120D86
:101F530017E06004D2F08002C2F0740A120D171267
:101F630022C5800E7402120D171223CF120D171201
:101F7300232F7402120D171222D3744F120D17C0A0
:101F830082C0837402120D171222F3D083D082E52C
:101F930082C39AFAE5839BFBC3EA9EEB12231540A7
:101FA300C3740D120D17E0700302217E7411120D1C
:101FB30017E0A2E0400302217E7404120D17E064CF
:101FC300786005E06458701E12187DE824FF18E954
:101FD30034FFF97402120D171223CF120D171223B7
:101FE30022743002217DE0646F600302217E74025B
:101FF300120D171223836430700302217E80D47480
:1020030008120D177401F0A3E4F07404120D17E025
:1020130024FEF0EE4F700F7E018012E4F07408127C
:102023000D17E4F0A3F01222B250047E067F007471
:1020330062120D171223AF120D171218DA7406125B
:102043000D17122322780C120B9D7406120D17E044
:102053002404122367120D171223EB120D17780CA9
:10206300120BAC9012D07808120B9D780C790812E1
:10207300052B50227405120D17742DF07414120DD4
:10208300177808120B9DE50BB2E7F50B7414120DCC
:10209300177808120BAC740A120D17122303741E5F
:1020A300120D17E58228F8E58339F97402120D172A
:1020B3001218DA740D120D17E0F5087808120E9D48
:1020C3007409120D17E0F5087808120E9D740412B6
:1020D3000D17120EAC8E088F097808120E99740A28
:1020E300120D17E0F9741A120D17120BBB1202EE40
:1020F3007406120CC47412120D171223BD740E123F
:102103000D17E060767405120D17E06004D2F080BD
:1021130002C2F0740A120D171222C57412120D179F
:10212300C082C0837402120D17122303D083D0829E
:10213300E0C398F8A3E099F9C3E89EE91223155088
:102143003A7402120D1712231C120D171223CF1209
:102153000D1712232F80C48510828511831222DC70
:102163001218D37402120D177452F0A37413F0747F
:1021730012120D177455F0A37413F07412120D1785
:10218300C082C0837402120D17122303D083D0823E
:10219300E0C398FEA3E099FF740A120D1712230CF3
:1021A300500A7408120D17E4F0A380307405120D61
:1021B30017E06004D2F08002C2F0740A120D17E037
:1021C300C39EF8A3E09FF9A2F0E433FAE89AF8E992
:1021D3009400F97408120D17E8F0A3E9F0740C12D7
:1021E3000D17E0702B80197460120D171222F9126B
:1021F3000D17122322120D2E740F120D1712241114
:102203007408120D171223C3120D171218B050D7EA
:102213007405120D17E060507460120D171222F34B
:102223007405120D17E0F97418120D1712232212F8
:102233000D2E802C7460120D171222F37402120DEE
:102243001712233CF97418120D17122322120D2EA4
:102253007402120D171222E57402120D171218DA06
:10226300740F120D17122411EE24FF1EEF34FFFF1B
:10227300C31222B450BE740C120D17E0700302197E
:102283004E7408120D171223C3120D171218B050F3
:102293000302194E7460120D171222F9120D171250
:1022A3002322120D2E740F120D1712241180D2C384
:1022B300EF9400A2D265D03322E02401F0A3E034EE
:1022C3000022A2F0E433F8E098FEA3E09400FF229A
:1022D3001222D7221222DCF922E024FFF8A3E034F1
:1022E300FF22E01222EA222401F8A3E03400F922BB
:1022F300E0FAA3E0FB22E0FAA3E0FB7920741822C2
:1023030012235822122358E822C3E09EA3E012238B
:1023130015229FA2D265D033221222D77402221231
:10232300232622E0F8A3E0F5838882221223267471
:1023330030F0228510828511831223402212235EFE
:10234300E022122340F50822122358C3E498F8E44C
:10235300992212235EE0F8A3E0F922E0F8A3E0F566
:1023630083888222F8A3E03400F974622212237472
:1023730022E0FAA3E0F5838A822285108285118305
:10238300122374E022122374E0FAA3E02212234002
:10239300122327221223402402F8A3E03400F97405
:1023A3006222122355E8FAE9FB74142212235574AE
:1023B3000622E0FCA3E0F5838C82EAF0A3EBF02293
:1023C300E024FFF0A3E034FFF0740822E8F0A3E96F
:1023D300F07402221218FBF8A3E022EAF0A3EBF058
:1023E300A3E4F0A3F0740622122374E8F0A3E9F047
:1023F300741422851082851183E024010812242994
:10240300E8F0A3E9F0740422851082851183E024A7
:1024130001F0A3E03400F0221218F72401F812248B
:1024230029E8F0A3E922A3E03400F985108285119D
:102433008322EBC313FBEA13FA80100000000000B1
:102443000000000000000000000000EAF8EBF9744F
:10245300FF28FA74FF39FB74006870037400697015
:10246300DA0200FB74F7120D30E9FE7F80802553FA
:10247300F4DFC29543FE2053F4BFD29643FE407A65
:10248300017B0012029A53F4BFC29643FE4075F0DB
:1024930002EF84FFEFC39401400EEE5F60D153F46B
:1024A300DFD29543FE2080CF53F4DFD29543FE2045
:1024B30053F4DF53FEDF53F6DF53F7BF53F4BFD2BA
:1024C3009643FE4074205590F953F4BFC29643FEE1
:1024D300407F01020D9C74F7120D30E9FE75080070
:1024E30053F4DFD29543FE2053F4DF53FEDF53F65C
:1024F300DF53F7BF7A80801D53F4BFD29643FE406B
:10250300A2955003EA420853F4BFC29643FE4075B6
:10251300F002EA84FAEAC3940150DD53F4DFEE706B
:10252300047A0180027A00EAA2E0929543FE2053E6
:10253300F4BFD29643FE407A017B0012029A53F411
:10254300BFC29643FE4053F4DFD29543FE20A90851
:102553007F01020D9CC082C08353F4BFD29643FE19
:10256300407A017B0012029A53F4DFC29543FE20A6
:102573007A017B0012029A53F4BFC29643FE407A5B
:10258300027B0012029A53F4BFD29643FE407A01B3
:102593007B0012029A53F4DFD29543FE207A017B2B
:1025A3000012029A53F4BFC29643FE407A027B00A4
:1025B30012029A53F4DFC29543FE20D083D08202E5
:1025C30000FBC082C08353F4DFD29543FE2053F453
:1025D300BFC29643FE407A00801153F4BFD29643A4
:1025E300FE4053F4BFC29643FE400AEAC394094037
:1025F300E91202ACD083D0820200FB74F2120D30D8
:102603008A0A8B0B8C0C8D0D89097508001202B296
:10261300E509120ED90001362620262C267903124D
:1026230002A0E92508F508800A79051202A0E92528
:1026330008F50853F4DF53FEDF53F6DF53F7BF7E8D
:10264300007F008008EE2401FEEF3400FFC3EE9408
:10265300FFEF94FF500B7A0A7B0012029AA2954077
:10266300E4A2955002050879011202A6E9850A82BF
:10267300850B83A3F079011202A6E9850A82850BF3
:1026830083F079001202A6E9850C82850D83F0A9F7
:10269300087F06020D9C74F0120D3074E0120CAE2C
:1026A3009012D47808120B9D741C120D177808121F
:1026B3000BAC9012D87808120B9D7418120D177872
:1026C30008120BAC9012DC7808120B9D7414120DD7
:1026D300177808120BAC9012E07808120B9D741057
:1026E300120D177808120BAC9012E47808120B9DA8
:1026F300740C120D177808120BAC8A828B8378083E
:10270300120B9D8510828511837808120BAC8C8285
:102713008D837808120B9D9012E0780C120B9D7834
:1027230008790C1205779012E8780C120B9D780843
:10273300790C12071C7404120D177808120BAC7471
:1027430014120D177808120B9D851082851183785A
:102753000C120B9D7808790C120577851082851170
:1027630083780C120B9D7808790C120577C008C08A
:1027730009C00AC00B7418120D17780C120B9D8533
:1027830010828511837808120B9D780C7908120545
:1027930077D00BD00AD009D0087808790C12071C1F
:1027A300741C120D17780C120B9D7808790C120704
:1027B3001C7408120D177808120BAC7404120D1751
:1027C3007808120B9D9012EC780C120B9D78087907
:1027D3000C12071CC008C009C00AC00B740C120DF0
:1027E300177808120B9D851082851183780C120BC4
:1027F3009D7808790C1205777410120D17780C1256
:102803000B9D7808790C12071CD00FD00ED00DD079
:102813000C780C79081205777408120D17780812D2
:102823000B9D780C790812071C9012F07808120B94
:102833009D780C79081204DC50089012F4780C127D
:102843000B9D9012F87808120B9D780C79081205ED
:102853002B50089012F8780C120B9D7404120D176C
:102863007808120B9D8C828D837808120BAC8A82B8
:102873008B83780C120BAC7420120CC47F08020DEE
:102883009C74F0120D3074F3120CAE740B120D170E
:10289300EAF0A3EBF07409120D17ECF0A3EDF07E50
:1028A30000740B120D17E0F8A3E0F583888274001F
:1028B300F0A37400F07409120D17E0F8A3E0F58398
:1028C30088827400F0A37400F07901851082851169
:1028D30083AC82AD837405120D17AA82AB831202F7
:1028E300B8E92EFE7900851082851183AC82AD8311
:1028F3007401120D17AA82AB831202B8E92E600687
:102903001202B20229FE7405120D17E0F508A3E0C6
:10291300F509E4F50AF50B78081203687405120D3E
:10292300177808120BAC7401120D17E0F508A3E039
:10293300F509E4F50AF50B78081203687401120D22
:10294300177808120BAC7401120D17AC82AD8374A7
:1029530005120D17AA82AB831202BE7401120D1762
:102963007808120B9D9012FC780C120B9D78087955
:102973000C120577901300780C120B9D7808790CD4
:1029830012071C9012FC780C120B9D7808790C121C
:10299300093378081203C5740B120D17E0F8A3E08E
:1029A300F5838882E508F0A3E509F07405120D1795
:1029B3007808120B9D9012FC780C120B9D78087905
:1029C3000C120577901300780C120B9D7808790C84
:1029D30012071C9012FC780C120B9D7808790C12CC
:1029E300093378081203C57409120D17E0F8A3E040
:1029F300F5838882E508F0A3E509F0740D120CC491
:102A03007F08020D9C74F7120D30E9FEEAF8EBF92A
:102A1300E8FAE9FB740B2E8A828B83F0900F07E0B0
:102A2300F8A3E0F5838882A3A3A3A3A3E0600678B9
:102A3300617988800478417988E88A828B83A3F05E
:102A4300E98A828B83A3A3F0900F00E08A828B83B1
:102A5300A3A3A3F0900F07E0F8A3E0F5838882A374
:102A6300A3E0F8A3E0F98A828B83A3A3A3A3E8F0EE
:102A7300A3E9F08A828B83A3A3A3A3A3A3ECF0A36C
:102A8300EDF0900F07E0F8A3E0F5838882E0F8A368
:102A9300E0F98A828B83A3A3A3A3A3A3A3A3E8F050
:102AA300A3E9F0790A7F01020D9C74F2120D30EC58
:102AB300FEEDFF8908A908EAFCEBFD7A097B0F12FA
:102AC30001C8E9FB7A0080348A0A750B00EE250AF7
:102AD300F582EF350BF583E0C0E08B0A750B008AB6
:102AE3000C750D00E50C250AF8E50D350BF9E82406
:102AF30009F582E9340FF583D0E0F00AEAC39508BB
:102B030040C6E5082BF97F06020D9C74F7120D30C1
:102B13007E7C7F0F1202761202167901EEFAEFFB2A
:102B230012025E8E828F83E0C2E7F08E828F83E093
:102B3300640570538E828F83E0F97A7D7B0F1202D6
:102B43005E8E828F83A3E0A2E55004D2F08002C29E
:102B5300F0A2F0E492E09012C8F07880790F8882B6
:102B63008983A3E0A2E74003022C228E828F83A3F2
:102B7300A3A3E0FA900F00E06A6003022C22740121
:102B8300900F01F0022C228E828F83E024F59012A5
:102B9300C5F08E828F83E0F97A7D7B0F12025E8E01
:102BA300828F83A3E0A2E55004D2F08002C2F0A298
:102BB300F0E492E09012C8F08E828F83A3A3A3A3C4
:102BC300A3A3A3A3E0F8A3E0F99012C1E8F0A3E95B
:102BD300F09012C67486F0A3740FF09012C5E0F85B
:102BE3003395E0F99012C6E028F8A3E039F988821A
:102BF3008983E09012C9F088828983A3E0A2E75019
:102C0300128E828F83A3E054DF64417006740190B7
:102C130012CAF08E828F83A3A3A3E09012C0F01296
:102C2300021C12027C7F01020D9C74F4120D30EA27
:102C3300FEEBFF120240E964017004790180731214
:102C4300021C900F07EEF0A3EFF09012C67400F091
:102C5300A37400F07401900F02F09012D078081260
:102C63000B9D900F037808120BAC900F07E0F8A3AD
:102C7300E0F5838882A3A3A3A3E0F9120246900F91
:102C830007E0F8A3E0F5838882E0FAA3E0FB1202F1
:102C93004C900F07E0F8A3E0F5838882A3A3E0FA42
:102CA300A3E0FB1202527AD47B01120282120216B3
:102CB30079007F04020D9C74F4120D30EAFEEBFFE1
:102CC3008C0A8D0B8908900F02E0700312026AE5EB
:102CD30008C394675005850809800375096785094A
:102CE30008120288120276A908AC0AAD0BEEFAEFBD
:102CF300FB1201CEE9F97A097B0F12025812027C0A
:102D0300120264E9900F07E0F8A3E0F5838882A339
:102D1300A3A3A3A3E0601C7400900F01F07A4A7B85
:102D230002120234900F01E0600474008002740107
:102D3300FE80027E00900F02E07003120270EE70BC
:102D430007900F00E02401F0EEF97F04020D9CC010
:102D530082C0837401900F02F012026AD083D08282
:102D63000200FB74F4120D308A088B098C0A8D0B58
:102D730053F1FE43F30CE5F353F2F3E5F27586806A
:102D830075C4807808120F0F000000000C000000CB
:102D9300B0040000DD2D60090000E52DC012000025
:102DA300ED2D80250000F52D40380000FD2D004B52
:102DB3000000052E807000000D2E00960000152ED9
:102DC30000E100001D2E002C0100252E00C2010091
:102DD3002D2E00840300352E3D2E75C23B75C5058F
:102DE300805E75C23B75C506805675C23B75C507C7
:102DF300804E75C23B75C508804675C2D875C50837
:102E0300803E75C23B75C509803675C2D875C50944
:102E1300802E75C23B75C50A802675C2D875C50A52
:102E2300801E75C23B75C50B801675C2D875C50B60
:102E3300800E75C2D875C50C800675C23B75C50A70
:102E430075C402438640D2AA75C10074009010ADC8
:102E5300F074009010AEF07400901130F074009094
:102E63001131F074009010AFF07400901132F07FC4
:102E730004020D9C74F7120D30901131E0C0E09004
:102E83001130E0FED0E0C39E501F901130E0F8797E
:102E930000901131E0FE7F00E8C39EF8E99FF974CA
:102EA300FF28F874FF39F98036901131E0F8790082
:102EB300C3E498F8E499F9901130E07F0028F8EF23
:102EC30039F9747F28F8740039F9C3E89CE99D50F7
:102ED30004D2F08002C2F0A2F0E492E0F879007428
:102EE3000068700374006960067A007B00805C7878
:102EF3000079008012901131E02401F0439A04E834
:102F03002401F8E93400F9C3E89CE99D50398A8229
:102F13008B83E0C0E0901131E07F0024B0F582EFB5
:102F23003410F583D0E0F08A828B83A3AA82AB832B
:102F33007400901132F0901131E0C3947F40B67465
:102F430000901131F080B5E8FAE9FB7F01020D9C96
:102F5300C082C083E9F8790080108A828B83E029DC
:102F6300F98A828B83A3AA82AB83E8FC74FF2CF8D3
:102F7300EC70E7D083D0820200FBC082C083901242
:102F83003B74C2F0A374D0F090123D741AF0901207
:102F93003974BDF0A374C2F090123E7401F07A3913
:102FA3007B121201DAE9640160F41201E6D083D0E6
:102FB300820200FB74FC120CAE12020A1202D0123F
:102FC30001EC1201F21201FEE99012BFF09012BF60
:102FD300E0640170F07402120D17AC82AD838510AA
:102FE30082851183AA82AB831202C47402120D1765
:102FF300120EAC7402120D17120EAC7A047B13126C
:1030030002047404120CC475088075090078081250
:103013000E997C007D007A3F7B121202D674021255
:103023000CC490123F74CCF09012407401F09012D3
:10303300417408F09012427402F09012437401F04C
:10304300851082851183E0F8A3E0F9E8901244F03B
:103053009012457402F07402120D17E0F8A3E0F920
:10306300E8901246F0901241E0F97A3F7B12120287
:10307300CAE9901247F0901241E02401F97C3F7DA8
:10308300127AF37BB41201E0E979011202227A6425
:103093007B0012023A79011202281201F2022FC8B0
:1030A300C082C083906189E04460F074D5906190E0
:1030B300F074099061FAF074159061B2F0740090A5
:1030C30061AEF012027C7900D083D0820200FBC093
:1030D30082C08375F005E9A424D490618FF0D08376
:1030E300D0820200FBC082C083EA906174F0EB904F
:1030F3006175F0D083D0820200FBC082C083EA9066
:103103006172F0EB906173F0D083D0820200FB74A4
:10311300F6120D3075E1EE7591FD7C0080138C087D
:10312300750900EA2508F582EB3509F583E0F5D941
:103133000CECC39940E87F02020D9CC082C08380DF
:1031430011E5D98A828B83F08A828B83A3AA82AB0F
:103153008319E9C3940150E9D083D0820200FB753F
:10316300E1E9E591A2E150FA7591FD79000200FBD6
:1031730075E1EC75E1E30200FB75E1EF75E1EC024B
:1031830000FBC082C0839061A3E0C2E6F0539AFEC5
:10319300D083D0820200FBC082C0839061A3E0D2BF
:1031A300E6F0439A01D083D0820200FBC082C08341
:1031B300A2AFE492E0FCC2AF901029EAF0A3EBF0D7
:1031C300ECA2E092AFD083D0820200FBC082C08326
:1031D300906193E0542270F8D083D0820200FBC048
:1031E30082C0838A828B83123267E9F08A828B835F
:1031F300E02401FCA3E03400FD8A828B83ECF0A37E
:10320300EDF0D083D0820200FB74F6120D3074FE11
:10321300120CAE851082851183EAF0A3EBF0ECFA71
:10322300EDFB740C120D17E0F508A3E0F50978081F
:10323300120E997402120D17858208858309780886
:10324300120E997CE27D021202F47404120CC485FE
:103253001082851183123267E4F07402120CC47F6A
:1032630002020D9CE0F8A3E0F58388822274F61233
:103273000D307582FE7583FE120CF975820C758311
:1032830001120D21A882A983851082851183E8F09C
:10329300A3E9F085108285118385820885830978E7
:1032A30008120E99EAFCEBFD7404120D17AA82AB07
:1032B300831202E87402120CC47402120D17AA825C
:1032C300AB831202DCEAFCEBFD7402120D17AA8237
:1032D300AB83120294758202758301120CF97F028B
:1032E300020D9CC082C0837900120210D083D08269
:1032F3000200FBEBC313FBEA13FAEAF8EBF974FFE2
:1033030028FA74FF39FB7400687003740069601253
:1033130000000000000000000000000000000000AA
:1033230080D80200FB74F7120D30EAFEEBFFEEF8D3
:10333300EFF974FF28FE74FF39FF7400687003749B
:10334300006960097AE87B0312023480E17F01029D
:103353000D9CC082C083E9120ED901037733693310
:103363006D3371337533D290800AD2918006D29334
:103373008002D294D083D0820200FBC082C083E952
:10338300120ED90103A033923396339A339E33C27C
:1033930090800AC2918006C2938002C294D083D0E7
:1033A300820200FB43EBE0E5EB53EBEF53EBF74318
:1033B300EB04C2BC0200FBC082C08343EB0853EBA7
:1033C300FCE5EB43EB10D2BC7400900FFCF0D08310
:1033D300D0820200FB53EBF753EBEFC2BC0200FBBE
:1033E300C082C083900FFCE0F9D083D0820200FB3F
:1033F30074F4120D3012022E53F4FEC29043FE01F8
:1034030053F4FDC29143FE0253F4F7C29343FE0803
:1034130053F4EFC29443FE109012CC7808120B9D24
:10342300AA08AB09AC0AAD0B12028E1202167F0476
:10343300020D9C748055C6FA53BEFBE59DA2E55070
:10344300FAE59DA2E240F400740169700774494AE9
:10345300F5C68005E970028AC6E5C6FAE59EFBEA71
:103463006B70F943BE040200FB74F7120D3074094C
:10347300120D17E0F8A3E0F98A828B838003ECF046
:10348300A3E8FEE9FFEE24FF18EF34FFF9EE4F70D7
:10349300ED7F01020D9CC082C0838A828B838001F1
:1034A300A3E070FCE582C39AFAE5839BFBD083D04B
:0E34B300820200FBD2AF0200FBC2AF0200FBA0
:04000005000000E314
:00000001FF
