:020000040000FA
:030000000200E318
:03001300020739A8
:030033000206457D
:03003B0002079524
:03004B0002071396
:030063000204E0B4
:03006B0002052566
:03007B000205B5C6
:100083000206D500000080FB120113B90003020031
:10009300CDE4900F0078DB79028002F0A3D8FCD97D
:1000A300FA9010DAAA82AB83900116781579018051
:1000B30015E493A3AC82AD838A828B83F0A3AA82D7
:1000C300AB838C828D83D8E9D9E77582B075830CB5
:1000D30074001200F575828675830074001200F5B2
:1000E30075D0007581BF75100075110F759F0002E3
:1000F300008BC09FF59FE473D09F22D083D082C032
:100103009FE493C0E0740193C0E0740293F59F22CF
:10011300790122FF00000000000000000000000041
:10012300C20100000000001200FEFC07001200FEE6
:100133001B09001200FEA809001200FEB8090012F4
:1001430000FE670A001200FE760C001200FEA80EE5
:10015300001200FE380E001200FE720E001200FEA6
:10016300B30E001200FEB80E001200FEF80D0012CE
:1001730000FE180E001200FE4F0D001200FE5F0D70
:10018300001200FE8B0D001200FE880B001200FE11
:10019300B70B001200FEBC0B001200FED20B0012C4
:1001A30000FEE90B001200FE000C001200FE240CFE
:1001B300001200FE2D0C001200FE420C001200FE85
:1001C300570C001200FE7B0A001200FEB20D00E481
:1001D300936670130874019366700C087402936637
:1001E3007005087403936622C3E49396087401931D
:1001F300960874029396087403939622E0F608A374
:10020300E0F608A3E0F608A3E0F622E6F008A3E68A
:10021300F008A3E6F008A3E6F022E0FAA3E0FBA3CC
:10022300E0FCA3E0FD22CAC0E0E6F0A308DAFAD0BE
:10023300E0FA22700422600D18C6C333C608C63321
:10024300C6D5E0F41822C0D0251010AF08F5105021
:100253000205118008F51050020511D2AFD0D0224B
:100263002510F58210AF08F510400215118008F52E
:100273001040021511D2AF851183222510F582E4B7
:100283003511F58322E4732510C582C0E0E51134EE
:10029300FFC583C0E0E510C3958224F810AF08853D
:1002A30083118582108008858311858210D2AFCE99
:1002B300F0A3E520F0A37808E608F0A3DEFAEFF058
:1002C300A3E58124FAF8E608F0A3E608F0A3E6081C
:1002D300F0A30808E608F0A3E608F0A3158115814A
:1002E300D0E0FED0E0F8158115811581E8C0E0EE7D
:1002F300C0E022851183851082E0A3FEE0A3F520F0
:100303007808E0A3F608DFFAE0A3FFE0A3C0E0E08B
:10031300A3C0E0E0A3C0E0E0A3C0E0E0A3C0E0101E
:10032300AF0885821085831180088582108583112B
:10033300D2AFD083D0820200FBC0D02510C582C0CB
:10034300E0E51134FFC583C0E0E510C3958224F3D3
:1003530010AF0885831185821080088583118582FB
:1003630010D2AFC8F0A3E9F0A3EAF0A3EBF0A379AE
:1003730008E709F0A3D8FAECF0A3EDF0A3EEF0A39D
:10038300EFF0A3D0E0F0A3D0E0F0A3D0E0F0A3E53A
:1003930020F0A3E5F0F0A322851183851082E0C04D
:1003A300E0A3E0F9A3E0FAA3E0FBA37808E0F608F2
:1003B300A3DFFAE0FCA3E0FDA3E0FEA3E0FFA3E0DC
:1003C300C0E0A3E0C0E0A3E0F5D0A3E0F520A3E004
:1003D300A3F5F010AF08858311858210800885830B
:1003E30011858210D2AFD082D083D0E0F8D0E03232
:1003F30074028000C0E0F404120263D0E012022908
:1004030022D083D082ECC0E0EDC0E0EEC0E0EFC0CC
:10041300E0E493A3FCE493A3FDE493A3FEE493A39A
:10042300FFEF4E4D4C6015120480EC24FFFCED34BD
:10043300FFFDEE34FFFEEF34FFFF80E5E493A3FC02
:10044300E493A3FDE493A3FEE493A3FFEF4E4D4C8B
:1004530060151204BDEC24FFFCED34FFFDEE34FF08
:10046300FEEF34FFFF80E5D0E0FFD0E0FED0E0FDFB
:10047300D0E0FCE493A3C0E0E493C0E022C0E0C07A
:10048300F088F01201EBA8F040071201D2A8F07037
:100493001AA3A3A3A31201EBA8F0A3A3A3A340133E
:1004A300D0F0D0E0D0E0D0E002046AA3A3A3A3A3DA
:1004B300A3A3A3A3A3D0F0D0E022C0E0C0F088F0B0
:1004C3001201D2A8F0A3A3A3A3700BD0F0D0E0D065
:1004D300E0D0E002046AA3A3D0F0D0E022C0E0742D
:1004E300F212033CC2DBC2C4900FA4E02401F0A3C8
:1004F300E03400F0900FA4E064A17004A3E064076B
:100503007015900FA47400F0A37400F0900FA374FF
:1005130001F012014E8006900FA37400F07F0102D8
:10052300039BC0E074F112033CC2C5E589607E7E83
:10053300008074750801750900EE7808120236E52B
:1005430008AF08E5895F605EEEF87900E875F002B0
:10055300A4C8AAF075F000A42AFA75F002E9A42A47
:10056300F974A628F582740F39F583E0F8A3E0F94E
:10057300E849602EEEF87900E875F002A4C8AAF005
:1005830075F000A42AFA75F002E9A42AF974A628E2
:10059300F582740F39F583E0F8A3E0F583888212BE
:1005A3000288EFF452890EEEC3940840867F02025C
:1005B300039BC0E074F112033CC2EBE58A607E7ECC
:1005C300008074750801750900EE7808120236E59B
:1005D30008AF08E58A5F605EEEF87900E875F0021F
:1005E300A4C8AAF075F000A42AFA75F002E9A42AB7
:1005F300F974B628F582740F39F583E0F8A3E0F9AE
:10060300E849602EEEF87900E875F002A4C8AAF074
:1006130075F000A42AFA75F002E9A42AF974B62841
:10062300F582740F39F583E0F8A3E0F5838882122D
:100633000288EFF4528A0EEEC3940840867F0202CA
:10064300039BC0E074F112033CC2E8E58B607E7E3D
:10065300008074750801750900EE7808120236E50A
:1006630008AF08E58B5F605EEEF87900E875F0028D
:10067300A4C8AAF075F000A42AFA75F002E9A42A26
:10068300F974C628F582740F39F583E0F8A3E0F90D
:10069300E849602EEEF87900E875F002A4C8AAF0E4
:1006A30075F000A42AFA75F002E9A42AF974C628A1
:1006B300F582740F39F583E0F8A3E0F5838882129D
:1006C3000288EFF4528B0EEEC3940540867F02023C
:1006D300039BC0E074F212033CA2AFE433FEC2AF4B
:1006E300E5E9A2E65020900FD0E0F8A3E0F9E8494D
:1006F300600E900FD0E0F8A3E0F5838882120288A1
:10070300759B0053E9BFEEA2E092AF7F0102039B0A
:10071300C0E074F212033C900FD2E0F8A3E0F9E8D2
:1007230049600E900FD2E0F8A3E0F58388821202AD
:10073300887F0102039BC0E0C0D0E8C0E0E9C0E0CD
:10074300C082C083E5C1C0E0901055E0F879007421
:10075300D428F582740F39F583D0E0F0901054E07B
:10076300F8901055E0687006E595901056F09010DB
:1007730055E02401901055F0C39480400690105525
:100783007400F0D083D082D0E0F9D0E0F8D0D0D09C
:10079300E032C0E0C0D0E8C0E0C008C009C082C0F9
:1007A300839010D7E0F89010D8E068700B539AFB51
:1007B3009010D97401F08031C2E99010D7E0F508A8
:1007C300740125089010D7F075090074572508F5B2
:1007D3008274103509F583E0F5C19010D7E0C39416
:1007E3008040069010D77400F0D083D082D009D017
:1007F30008D0E0F8D0D0D0E03274F712028A7E0934
:100803007F0F1201B41201607901EEFAEFFB1201BE
:10081300A88E828F83E0C2E7F08E828F83E0640527
:1008230070538E828F83E0F97A0A7B0F1201A88EB0
:10083300828F83A3E0A2E55004D2F08002C2F0A22B
:10084300F0E492E09010E2F0780D790F88828983CA
:10085300A3E0A2E740030209108E828F83A3A3A320
:10086300E0FA900F00E06A60030209107401900F30
:1008730001F00209108E828F83E024F59010DFF0DF
:100883008E828F83E0F97A0A7B0F1201A88E828F02
:1008930083A3E0A2E55004D2F08002C2F0A2F0E408
:1008A30092E09010E2F08E828F83A3A3A3A3A3A36D
:1008B300A3A3E0F8A3E0F99010DBE8F0A3E9F0903C
:1008C30010E07413F0A3740FF09010DFE0F8339589
:1008D300E0F99010E0E028F8A3E039F988828983F1
:1008E300E09010E3F088828983A3E0A2E750128EA0
:1008F300828F83A3E054DF6441700674019010E497
:10090300F08E828F83A3A3A3E09010DAF012016626
:100913001201BA7F010202F674F412028AEAFEEBB4
:10092300FF12018AE9640170047901807312016680
:10093300900F07EEF0A3EFF09010E07400F0A374B3
:1009430000F07401900F02F09010EA78081201FF92
:10095300900F03780812020E900F07E0F8A3E0F55A
:10096300838882A3A3A3A3E0F9120196900F07E063
:10097300F8A3E0F5838882E0FAA3E0FB12019C90E0
:100983000F07E0F8A3E0F5838882A3A3E0FAA3E0CE
:10099300FB1201A27A2A7B011201C01201607900C5
:1009A3007F040202F6C082C0839010E4E0F9D08392
:1009B300D0820200FB74F212028A8A0A8B0BECFECD
:1009C300EDFF740E12027EE0F508A3E0F5091201B3
:1009D300669010DFE0F83395E0F9C3E89EE99F5095
:1009E3000D9010DFE0F50C3395E0F50D80048E0CCF
:1009F3008F0D780C1203F39010E0E0FCA3E0FDAA46
:100A03000AAB0B1201CC7402120249E508640070B0
:100A130004E50964006026120190E9F50A9010E3E9
:100A2300E0F83395E0F9750B00E8C3950AF8E9950A
:100A33000BF9850882850983E8F0A3E9F074009037
:100A430010E4F01201609010DFE0F83395E0F9C391
:100A5300E89EE99F50079010DFE0F98002EEF97FEE
:100A6300060202F6C082C0837401900F02F01201E5
:100A7300AED083D0820200FB74F412028A8A088B00
:100A8300098C0A8D0B53F1FE43F30C53F2F3758675
:100A93008075C4807808120404000000000C000074
:100AA30000B0040000EE0A60090000F60AC012005C
:100AB30000FE0A80250000060B403800000E0B00E4
:100AC3004B0000160B807000001E0B0096000026E2
:100AD3000B00E100002E0B002C0100360B00C201BD
:100AE300003E0B00840300460B4E0B75C23B75C5DD
:100AF30005805E75C23B75C506805675C23B75C5DC
:100B030007804E75C23B75C508804675C2D875C54A
:100B130008803E75C23B75C509803675C2D875C558
:100B230009802E75C23B75C50A802675C2D875C566
:100B33000A801E75C23B75C50B801675C2D875C574
:100B43000B800E75C2D875C50C800675C23B75C582
:100B53000A75C402438640D2AA75C100901054742A
:100B630000F09010557400F09010D77400F09010BE
:100B7300D87400F09010567400F09010D97400F0FF
:100B83007F040202F6C082C083906189E04460F072
:100B930090619074D5F09061FA7409F09061B27429
:100BA30015F09061AE7400F01201BA7900D083D0D1
:100BB300820200FB79490200FBC082C08375F00505
:100BC300E9A424D490618FF0D083D0820200FBC0CB
:100BD30082C083EA906174F0E4EBFA906175F0D01F
:100BE30083D0820200FBC082C083EA906172F0E48A
:100BF300EBFA906173F0D083D0820200FBC082C015
:100C0300838011E5D98A828B83F08A828B83A3AA9E
:100C130082AB8319E9C3940150E9D083D0820200E7
:100C2300FB75E1EC75E1E30200FBC082C0839061D8
:100C3300A3E0C2E6F0539AFED083D0820200FBC049
:100C430082C0839061A3E0D2E6F0439A01D083D0BF
:100C5300820200FBC082C083A2AFE433F8C2AF902C
:100C63000FD0EAF0A3EBF0E8A2E092AFD083D082FA
:100C73000200FBC082C083900F8B7416F0A3740034
:100C8300F0900F8D7410F0900F897402F0A374002C
:100C9300F0900F8E7401F07A897B0F120130E964B2
:100CA3000160F4120142D083D0820200FB7E007FF8
:100CB300001201541201488013D296790212016C7A
:100CC3007A647B001201847902120172120136E9FF
:100CD30060FAE4F508F50978081203F37C087D004F
:100CE3007A8F7B0F12013C7402120249E9F87900F2
:100CF300900F9FF0A3E9F0900F9FE064087004A3A6
:100D0300E0640070C7900F90E0F87900900FA1F0B5
:100D1300A3E9F0900FA1E0F8A3E0F9E4C8F9900F7C
:100D2300A1E8F0A3E9F0900F91E0F87900900FA10A
:100D3300E048F0A3E049F0900FA1C3E09464A3E07E
:100D430094004003020CBCC296020CBEC082C08356
:100D5300790012015AD083D0820200FBEBC313FB4C
:100D6300EA13FAEAF8EBF9E824FFFAE934FFFBE8BF
:100D730049601200000000000000000000000000B5
:100D830000000080DE0200FB74F712028AEAFEEB29
:100D9300FFEEF8EFF9E824FFFEE934FFFFE84960CE
:100DA300097AE87B0312017E80E77F010202F67471
:100DB300F612028A740A12027EE0FEA3E0FFEAF84A
:100DC300EBF980188C828D83E088828983F0A3A855
:100DD30082A9838C828D83A3AC82AD838E088F0915
:100DE300E50824FF1EE50934FFFFE508450970D433
:100DF3007F020202F6E914600B14600C14600D14F8
:100E0300600E800ED290800AD2918006D293800227
:100E1300D2940200FBE914600B14600C14600D14EF
:100E2300600E800EC290800AC2918006C293800237
:100E3300C2940200FBC082C08312017853F4FEC245
:100E43009043FE0153F4FDC29143FE0253F4F7C2F3
:100E53009343FE0853F4EFC29443FE109010E6123E
:100E6300021D1201C6120160D083D0820200FBE58D
:100E7300C65480F853BEFBE59DA2E550FAE59DA25A
:100E8300E240F4007401697007744948F5C68005AF
:100E9300E9700288C6E5C6F8E59EFAE86A70F94388
:100EA300BE040200FB53EBF753EBEFC2BC0200FBA3
:0A0EB300D2AF0200FBC2AF0200FB49
:04000005000000E314
:00000001FF
