:020000040800F2
:100000005005002045010008471F00081D1D00087D
:10001000451F000805070008D52300080000000060
:100020000000000000000000000000009D1F00080C
:100030000707000800000000491F000831200008E1
:100040005F0100085F0100085F0100085F01000810
:100050005F0100085F0100085F0100085F01000800
:100060005F0100085F0100085F0100085F010008F0
:100070005F0100085F0100085F0100085F010008E0
:100080005F0100085F0100085F0100085F010008D0
:100090005F0100085F0100085F0100085F010008C0
:1000A0005F0100085F0100085F0100085F010008B0
:1000B0005F0100085F0100085F0100085F010008A0
:1000C0005F0100085F0100085F0100085F01000890
:1000D0005F0100085F010008BD2300085F01000800
:1000E0005F0100085F0100085F0100085F01000870
:1000F0005F0100085F0100085F0100085F01000860
:100100005F0100085F0100085F0100085F0100084F
:100110005F0100085F010008E12000085F0100089E
:100120005F0100085F0100085F0100085F0100082F
:10013000DFF80CD000F066FA0048004709260008F6
:10014000500500200648804706480047FEE7FEE7C6
:10015000FEE7FEE7FEE7FEE7FEE7FEE7FEE7FEE777
:100160009920000831010008202A04DB203A21FAF6
:1001700002F00021704721FA02F3D040C2F12002C0
:100180009140084319467047D2B201E000F8012BB4
:10019000491EFBD270470022F6E710B513460A4607
:1001A00004461946FFF7F0FF204610BD80EA010221
:1001B00010B502F00043400022D04A001FD0010ECB
:1001C00001EB1261C0F35600C2F3560240F4000086
:1001D00042F40002A0FB022000047F39140400D086
:1001E000401C50EA124001D44000491EC2B20C0625
:1001F00004EBD010401C4008802A02D003E000200D
:1002000010BD20F00100002900DA0020184310BDC5
:1002100030B480EA010202F0004530F0004221F0E3
:10022000004013D090B1C30DD40DC2F31601C0F33A
:100230001600E41A41F4000140F400027D349142BA
:1002400001D3641C00E04900002C02DA30BC00201D
:1002500070474FF400000023914201D3891A0343F1
:1002600040084FEA4101F7D151B1914202D14FF01C
:10027000004105E002D24FF0010101E06FF0010101
:1002800003EBC450284430BC00F028B92DE9FE4FE0
:1002900081EA030404F0004421F0004100944FF08F
:1002A000000B23F0004350EA01045ED052EA03043D
:1002B0005BD0C3F30A54C1F30A552C44A4F2F334BF
:1002C0000194A0FB0254C1F3130141F48011C3F364
:1002D000130343F4801301FB024400FB034E840A22
:1002E000970A44EA815447EA8357A4FB07680295BA
:1002F0008D0A05FB07854FEA932C04FB0C54270558
:10030000029D4FEA065847EA1637B5EB08056EEB33
:10031000070C870E920E47EA811742EA8312A7FB69
:100320000201B6EB0B0164EB00042B0D43EA0C3326
:100330005E1844EB1C50DA465146E7FB0201C5F358
:1003400013044FEA0B3343EA14534FEA0432019C7F
:1003500043EA0603A4F10C040294009CCDE900B426
:1003600000F002F903B0BDE8F08F00200146F9E784
:100370002DE9F04D81EA030404F0004B21F0004523
:1003800014464FF0000A23F0004150EA050220D045
:1003900054EA01021DD0C5F30A570246C5F3130300
:1003A000C1F31300C1F30A5640F4801543F48013DF
:1003B000A7EB0608101BD64608F2FD3873EB0500C4
:1003C00002D308F1010801E092185B41B8F1000F77
:1003D00003DA00200146BDE8F08D00204FF48011C3
:1003E000064684460EE0171B73EB050705D3121B68
:1003F00063EB050306434CEA010C49084FEA300061
:1004000092185B4150EA0107EDD152EA030012D085
:1004100082EA040083EA0501084305D0101BAB41C2
:1004200006D20122002306E000224FF0004302E042
:100430006FF0010253101AEB06004CEB085110EB61
:100440000A0041EB0B01BDE8F04D00F07EB89623A9
:100450000022114600F04BB8C1F30A5210B5C1F3A7
:10046000130140F2FF3341F480119A4201DA002077
:1004700010BD40F233439A42A2F2334203DC5242AF
:10048000FFF772FE10BD904010BD00F0004230F04A
:1004900000400AD0C10D01F56071C0F3160042EAB8
:1004A0000151C208400711437047002001467047C0
:1004B00030B50B46014600202022012409E021FA34
:1004C00002F59D4205D303FA02F5491B04FA02F531
:1004D0002844151EA2F10102F1DC30BD0029A8BF9D
:1004E0007047401C490008BF20F00100704710B45D
:1004F000B0FA80FC00FA0CF050EA010404BF10BC12
:10050000704749B1CCF1200421FA04F411FA0CF13E
:1005100018BF012121430843A3EB0C01CB1D4FEA77
:1005200000614FEA102042BF002010BC704700EB72
:10053000C35010440029A4BF10BC7047401C4900A0
:1005400008BF20F0010010BC704710B5141E73F1F5
:10055000000408DA401C41F1000192185B411A4383
:1005600001D120F0010010BD2DE9F04D92469B46CF
:1005700011B1B1FA81F202E0B0FA80F22032904675
:1005800000F052F804460F4640EA0A0041EA0B0127
:1005900053465A46084313D0114653EA010019D076
:1005A000C8F140025046FFF7DFFD05460E465046B3
:1005B0005946424600F038F8084305D0012004E0CF
:1005C00020463946BDE8F08D0020054346EAE07636
:1005D0002C4337430A986305E40AA0EB0800002285
:1005E000FD0A44EA47540A3002D500200146E9E7F3
:1005F000010510196941DDE9084500196941BDE8A7
:10060000F04DA2E7064C074D06E0E06840F001031C
:1006100094E8070098471034AC42F6D3FFF78CFDFE
:10062000542A0008742A0008202A04DB203A00FA21
:1006300002F1002070479140C2F1200320FA03F339
:10064000194390407047000070B504460068816807
:10065000C943C9071CD1816821F00101816000F004
:1006600057FC05460FE000BF00F052FC401B02287B
:1006700009D9A06A40F01000A062E06A40F00100D1
:10068000E062012070BD20688068C043C007EBD0E5
:10069000002070BDF8B50026044600960068816809
:1006A000C943C90728D0816841F00101816013481E
:1006B00013490068B0FBF1F000E0401E00900028F4
:1006C000FBD100F025FC054611E000BF00F020FC46
:1006D000401B02280BD9A06A40F01000A062E06A1B
:1006E00040F00100E06284F824600120F8BD206839
:1006F0008068C043C007E9D10020F8BD1400002085
:1007000040420F00FEE7704770470000F8B5002434
:10071000009490F824202546012A12D0012280F866
:1007200024204A681F23072A0DD20668776B521EC1
:1007300002EB820293409F430B6893401F43776311
:1007400019E00220F8BD06680D2A0AD2376BD21FC5
:1007500002EB820293409F430B6893401F43376331
:1007600009E0F76A0D3A02EB820293409F430B685F
:1007700093401F43F7620A68072306680A2A0AD3D0
:10078000F7680A3A02EB420293409F438B6893401A
:100790001F43F76008E0376902EB420293409F4332
:1007A0008B6893401F4337610A68102A01D0112AD1
:1007B00020D1124B02689A4217D193681B0219D4B8
:1007C000936843F4000393600968102912D10C491F
:1007D0000C4A0968B1FBF2F101EB8101490000E02C
:1007E000491E00910029FBD104E0816A41F02001FB
:1007F0008162012480F824502046F8BD0024014085
:100800001400002040420F000068C06C70470000D8
:100810002DE9F04104004FF000057FD0A06A0026CA
:1008200028B9E66284F82460204600F081F820466A
:10083000FFF70AFFA16AC90600D420B1A06A40F000
:100840001000A0626AE0A16A21F4885141F002011F
:10085000A162334923688B42E16904D1B1F5402F8D
:1008600001D14FF40021277B4FF4807C41EA4702FD
:1008700061680A43A168614508D0012906D00021BA
:1008800094F814E0BEF1010F02D00AE06146F7E7E8
:10089000C7B1A76A47F02007A762E76A47F00107D8
:1008A000E7625F6827F469470F435F6023689968D0
:1008B0001C4F394011439960A16861450BD0012953
:1008C00009D00CE0DFF860E0A7690EEB47370F4373
:1008D00047F40061E5E7218A0D05A5F5801521683B
:1008E000CB6A23F470032B43CB62216889680F4BDA
:1008F0001940914208D1E662A16A21F0020141F05B
:100900000101A162BDE8F081A06A20F0020040F080
:100910001000A062E06A40F00100E0620120F1E70F
:10092000003C0140FDF7E1FF00E0FFFFFE0E1FFF6E
:1009300000B585B0002100910191029103910068FA
:100940000E49884218D10E48816941F400718161D5
:10095000816901F400710491816941F004018161B0
:100960008069694600F00400049001200090032093
:100970000190044800F0C4F905B000BD0024014016
:1009800000100240000801402DE9F84300260D4602
:100990000446009600F0BCFA804620688168C905CC
:1009A00008D5A06A40F02000A06284F824600120ED
:1009B000BDE8F8834168C90503D4C06A10F4700F1C
:1009C00026D0022000F042FB38490968B1FBF0F75D
:1009D0002068036936490B424FEA61014FEAA112D0
:1009E0001BD1C3684FEA611C13EA0C0F15D10369D0
:1009F0000B4221D1C06810421ED114201FE0681C98
:100A000006D045B300F084FAA0EB0800A84222D833
:100A1000206800688007F2D52AE003690B4202D102
:100A2000C168114206D0026922490A4206D1C06853
:100A3000084203D1542002E0292000E0FC20474373
:100A4000009813E0681C0ED02DB100F061FAA0EB05
:100A50000800A84207D9A06A40F00400A06284F808
:100A600024600320A4E70098401C0090B842E9D31A
:100A700021686FF012000860A06A40F40070A06264
:100A800020688068C0F3424007280CD1207B50B911
:100A9000A06A20F48070A062A06AC00403D4A06A97
:100AA00040F00100A062002082E700001400002056
:100AB000244992244992240070B5044690F82400F9
:100AC00001280DD0012084F824002046FFF7E2FD24
:100AD00002004FF0000005D084F82400104670BDDD
:100AE000022070BDA16A40F20123994341F4807154
:100AF000A1621F4D23681F49AB4218D10E6816F43E
:100B0000702F14D0A66A46F48016A6620E68760589
:100B100005D5A66A26F4005646F48056A662A66A53
:100B2000F6040AD5E66A26F00606E66206E0A66A3C
:100B300026F48016A6625E68E9E7E06284F8240085
:100B40006FF00200186020688368C3F34243072BEC
:100B500005D1A84208D1096811F4702F04D081682A
:100B600041F480118160B9E7816841F4A001F9E79F
:100B7000002801400424014010B5044690F82400E8
:100B8000012807D0012084F824002046FFF75CFDEF
:100B900010B107E0022010BDA16A21F4885141F094
:100BA0000101A162002184F8241010BD2DE9F05F3D
:100BB00090F821100024022903D00421816301242C
:100BC00085E001680A6822F00E020A6001680A687E
:100BD00022F001020A603F4E3E4FB215DFF8F4C02A
:100BE000DFF8F090DFF8ECA0DFF8E8B0DFF8E4E041
:100BF0000168783F13011502ACF1640CA9F15009AA
:100C0000AAF13C0AABF1280BAEF1140E4FF4801898
:100C1000B14227D9B9420ED0614512D049451DD005
:100C2000514518D0594518D0714501D1424615E0BB
:100C3000294EB14201D1012210E0274E1436B142B3
:100C400001D110220AE0244E2836B14206D0224AB1
:100C50003C32914201D11A4600E02A461E49091F42
:100C60000A602BE0B94213D0614517D0494522D024
:100C700051451DD059451DD0714501D142461AE05C
:100C8000B14202D14FF0807215E0134EB14201D152
:100C9000012210E0104E1436B14201D110220AE0B8
:100CA0000D4E2836B14206D00B4A3C32914201D15A
:100CB0001A4600E02A46074980394A60012180F837
:100CC0002110002180F82010416B01B18847204697
:100CD000BDE8F09F800002400804024070B5044661
:100CE00000F016F90546601C02D004480078044460
:100CF00000F00EF9401BA042FAD370BD080000209E
:100D00002DE9F84FDFF8C891002409F1040A0AF12F
:100D1000040B23460F270BF1040ED1E00125A5405B
:100D200006EA0502AA4276D1DFF8A8C14E68A6EB12
:100D30000C0866452BD00DDC032E34D005DC36B311
:100D4000012E19D0022E2FD11BE0112E16D0122EFB
:100D50002AD119E0B8F5881F19D006DCB8F5803F14
:100D600015D0B8F5801F1FD111E0B8F5001F0ED0C7
:100D7000B8F5041F18D10AE0CB6815E0CB681B1D3D
:100D800012E0CB6808330FE0CB680C330CE08B68C3
:100D90002BB1012B4FF0080303D0456104E004237D
:100DA00002E0056100E00023FF2A01D8064601E0C9
:100DB00000F104064FEA840501D9A5F12005D6F813
:100DC000008007FA05FC28EA0C0803FA05F548EA52
:100DD0000508C6F800804D68ED0070D53E4DAE693F
:100DE00046F00106AE61AD6924F0030605F0010589
:100DF00000953A4D06EB050CDCF80850A607360FB7
:100E000007FA06F825EA0805DFF8D480404503D143
:100E10004FF0000825E052E0DFF8C880404502D1DD
:100E20004FF001081DE0DFF8C080404502D14FF0CF
:100E3000020816E0DFF8B480404502D14FF0030805
:100E40000FE0DFF8AC80404502D14FF0040808E025
:100E5000DFF8A080404502D14FF0050801E04FF0D7
:100E6000060808FA06F848EA0508CCF808804D6834
:100E7000D9F80060ED034D4601D5164300E09643D6
:100E80002E604D68DAF80060AD03554601D5164373
:100E900000E096432E604D68DBF80060ED025D4691
:100EA00001D5164300E096432E604D68DEF80060E1
:100EB000AD02754601D5164300E096432E60641CD2
:100EC0000A681646E2407FF429AFBDE8F88F0000BB
:100ED0000004014000001110001002400000014019
:100EE00000080140000C01400010014000140140C6
:100EF00000180140001C0140C2680A4201D0416153
:100F00007047016170470AB1016170470904FBE74E
:100F1000014880687047000008000020024881688E
:100F2000027811448160704708000020074810B51E
:100F3000016841F010010160032000F075F8002005
:100F400000F006F800F024F8002010BD0020024058
:100F500070B50D4D04464FF47A712878B1FBF0F06E
:100F60000A490968B1FBF0F000F0CCFB48B9102C3D
:100F700007D200222146501E00F036F800206C6097
:100F800070BD012070BD000008000020140000208A
:100F90000C4808B5816941F001018161816901F066
:100FA00001010091C16941F08051C161C06900F047
:100FB000805000900448416821F0E06141F00071E8
:100FC000416008BD0010024000000140002809DB1C
:100FD00000F01F02012191404009800000F1E02053
:100FE000C0F8001170470000F0B40E4B1B680C46AF
:100FF000C3F30223C3F10705042D00D90425191DED
:10100000072901D2002300E0DB1E012606FA05F1C4
:10101000491E214099409E40761E16403143F0BC47
:1010200001F0EAB90CED00E0064900F0070208689B
:101030004FF6FF03184040EA0220034A10430860BD
:10104000704700000CED00E00000FA0510B52CA47C
:1010500001461DCC86B08DE81D002DA02D4C0068EA
:101060000490002004292FD00BDC01292FD0022965
:1010700028D100F071F96168C1F38131491C490040
:101080001EE0082920D010291CD161682268D201F5
:1010900018D5C1F38342C9031DF8020009D5616860
:1010A00004AAC1F34041515C1B4AB2FBF1F1484331
:1010B00001E01A4948436168490203D44000032112
:1010C000B0FBF1F006B010BD00F056F9FAE7226A65
:1010D000C2F30121012903D1920701D5C803F1E729
:1010E000022905D1626A920702D549F64040E9E734
:1010F0000329E7D121688903E4D54FF22440E1E7D1
:1011000002030405060708090A0B0C0D0E0F101048
:10111000010200000010024000127A0000093D00A8
:101120002DE9F84305460078354CC00754D0E069F6
:101130000026C00008D4E06940F08050E061E0691A
:10114000012600F0805000902E480168C90512D495
:101150000168804641F480710160FFF7D9FE0746BF
:1011600005E000BFFFF7D4FEC01B642823D8D8F8E1
:101170000000C005F6D5206A10F4407021D0A9887F
:1011800001F4407181421CD0206A1F49012220F4E1
:1011900040700A6000220A602062C00711D0FFF789
:1011A000B7FE074641F2883808E000BFFFF7B0FEFF
:1011B000C11B414502D90320BDE8F883206A80079E
:1011C000F4D5206A696820F44070084320621EB19B
:1011D000E06920F08050E0612878800705D56068DC
:1011E000A96820F44040084360602878C00605D50F
:1011F0006068696920F48000084360600020DBE7D4
:101200000010024000700040400442422DE9F047C7
:101210000F46050061D0434E306800F00700B84229
:1012200009D2306820F0070038433060306800F0A1
:101230000700B84251D128683B4C810712D54007BE
:1012400003D5606840F4E06060602878000703D54B
:10125000606840F4605060606068A96820F0F00049
:10126000084360602878C00728D06868012810D03B
:101270002168022810D0890700292EDA616821F040
:10128000030101436160FFF743FE804641F2883964
:101290000DE021688903EFE78901EDE7FFF738FEEC
:1012A000A0EB0801494502D90320BDE8F08760683A
:1012B000696800F00C00B0EB810FEFD1306800F0EE
:1012C0000700B8420BD9306820F00700384330607F
:1012D000306800F00700B84201D00120E5E7287827
:1012E000400705D56068E96820F4E0600843606065
:1012F0002878000706D56068296920F4605040EA24
:10130000C100606000F038F86168084AC1F3031159
:10131000515CC8400649086006480068FFF718FE9F
:101320000020C2E700200240001002403C2A0008D2
:10133000140000200C00002004480549006849689A
:10134000044AC1F30221515CC840704714000020D8
:10135000001002404C2A000804480549006849680A
:10136000044AC1F3C221515CC840704714000020F8
:10137000001002404C2A000812A185B00FC98DE868
:101380000F0014A0144A006804905168134801F03B
:101390000C03042B10D0082B0ED1C1F38343C903D7
:1013A0001DF803000AD5516804AAC1F34041515CFD
:1013B0000A4A5043B0FBF1F005B070470849484372
:1013C000FAE7000002030405060708090A0B0C0DE2
:1013D0000E0F1010010200000010024000127A00EF
:1013E00000093D002DE9F84F040070D02078C04D71
:1013F000C00749D06868C0F38100012807D0686839
:10140000C0F38100022809D16868C00306D52868A6
:10141000800339D560680028E7D035E06068B0F512
:10142000803F0BD010B1B0F5A02F11D0286820F468
:1014300080302860286820F4802002E0286840F48A
:1014400080302860606890B1FFF762FD06460AE0D0
:10145000286840F480202860F0E700BFFFF758FDBF
:10146000801B642873D828688003F7D50CE0FFF749
:101470004FFD064605E000BFFFF74AFD801B6428CC
:10148000F0D828688003F7D420789A4E80074FF070
:1014900001094FF0000839D5686810F00C0F07D02B
:1014A0006868C0F38100022809D16868C00306D4C7
:1014B0002868800714D52069012808D110E0206928
:1014C000B0B1C6F80090FFF723FD074605E00AE13A
:1014D000FFF71EFDC01B0228C4D828688007F7D577
:1014E0002868616920F0F80040EAC10028600DE03A
:1014F000C6F80080FFF70CFD074604E0FFF708FD83
:10150000C01B022823D828688007F7D4207800075A
:101510002CD57948A169D9B1C0F80090FFF7F8FC43
:10152000074604E0FFF7F4FCC01B02280FD8686AE6
:101530008007F7D571484FF4FA510068B0FBF1F01D
:10154000009000BF0098411E0091FAD20EE080E0AA
:10155000C0F80080FFF7DCFC074604E0FFF7D8FC8A
:10156000C01B022875D8686A8007F7D42078400726
:1015700060D5E8690027C00008D4E86940F08050D1
:10158000E861E869012700F0805000905C4801683C
:10159000C90513D40168834641F480710160FFF7E7
:1015A000B7FC824606E000BFFFF7B2FCA0EB0A00E2
:1015B00064284ED8DBF80000C005F5D5E0680128A6
:1015C0000AD008B1052813D0286A20F0010028624B
:1015D000286A20F0040002E0286A40F00100286236
:1015E000E06841F2883B98B1FFF792FC82460BE03D
:1015F000286A40F004002862EEE700BFFFF788FC8D
:10160000A0EB0A0159455AD8286A8007F6D50CE0A4
:10161000FFF77EFC824605E0FFF77AFCA0EB0A01AB
:1016200059454CD8286A8007F6D41FB1E86920F0E4
:101630008050E861E06988B36968C1F381010229DB
:1016400044D00228C6F8608004D0FFF761FC04464D
:1016500038E034E0FFF75CFC074604E0FFF758FC95
:10166000C01B02282BD828688001F7D4206AB0F567
:10167000803F05D16868A16820F4003008436860A5
:10168000D4E908010843696821F4741108436860CB
:10169000C6F86090FFF73CFC044606E025E000BF7A
:1016A000FFF736FC001B022809D828688001F7D50F
:1016B0001BE000BFFFF72CFC001B022802D903200F
:1016C000BDE8F88F28688001F4D40EE00128F7D037
:1016D0006868226A00F48031914204D1616A00F4A2
:1016E0007010884201D00120EAE70020E8E70000FE
:1016F00000100240000042428004424214000020D8
:101700000070004010B5401EB0F1807F01D3012071
:1017100010BD4FF0E02460610F21601700F06CFEF7
:101720000020A06107202061002010BD7047704795
:1017300070B590F83C20012A19D0012400F83C4FE4
:101740000222427050F83C3C5A689D6822F07006B4
:101750000A684968324325F0800529435A6050F8E9
:101760003C2C9160447000210170084670BD02203D
:1017700070BD10B5040003D094F83D0010B107E02F
:10178000012010BD002084F83C00204600F00CF839
:10179000022084F83D00211D206800F0A7FC0120F4
:1017A00084F83D00002010BD08B500680B49884250
:1017B00012D10B48C16941F01001C161C069012219
:1017C00000F01000009000213620FFF70DFCBDE86E
:1017D00008403620FFF7FABB08BD000000100040AB
:1017E000001002400168CA6842F00102CA60006845
:1017F000816801F00701062903D0016841F0010169
:10180000016000207047704770B5044600680169A8
:101810004FF00005C943890715D4C168C94389073A
:1018200011D4E91E016101202077206880698007BA
:10183000204602D0FFF7E7FF04E000F098F82046CA
:1018400000F096F8257720680169C943490717D445
:10185000C168C943490713D46FF004010161022034
:1018600020772068806910F4407F204602D0FFF77F
:10187000CAFF04E000F07BF8204600F079F82577F5
:1018800020680169C943090716D4C168C94309071B
:1018900012D46FF008010161042020772068C0692C
:1018A0008007204602D0FFF7AEFF04E000F05FF8AB
:1018B000204600F05DF8257720680169C943C90614
:1018C00017D4C168C943C90613D46FF01001016170
:1018D000082020772068C06910F4407F204602D09D
:1018E000FFF791FF04E000F042F8204600F040F8D6
:1018F000257720680169C943C90708D1C168C94370
:10190000C90704D1891E0161204600F033F8206820
:101910000169C943090609D4C168C943090605D448
:101920006FF0800101612046FFF700FF2068016928
:10193000C943490609D4C168C943490605D46FF0B3
:1019400040010161204600F01FF820680169C94389
:1019500089060BD4C168C943890607D46FF02001FA
:1019600001612046BDE87040FFF7E1BE70BD7047E1
:101970007047000000680349884201D100F0E6BAD0
:1019800070470000001000407047704770B5026853
:1019900004461068D168536910F00F0F50D003F05F
:1019A000010501F4907635435DD0C20705D0CA0524
:1019B00003D5E26B42F00102E263420705D5DA0784
:1019C00003D0E26B42F00202E263820705D5DA0738
:1019D00003D0E26B42F00402E263020705D5DA07A6
:1019E00003D0E26B42F00802E263E26B002A33D0DC
:1019F000800604D5880602D5204600F0D3FB206877
:101A00004069E16BC0F38010090700D428B3204679
:101A100000F0BAFB2068416949061AD5416921F0F6
:101A200040014161606BA0B11B494163606BFFF7EE
:101A3000BDF8002810D0606B416BBDE870400847CE
:101A4000830610D58B060ED52046BDE8704000F009
:101A5000A9BB2046FFF799FF70BD2046FFF795FF11
:101A60000020E06370BD030606D50B0604D52046B2
:101A7000BDE8704000F03EBC4006F3D54806F1D505
:101A8000D168204621F04001D160202184F839102E
:101A900000F043F970BD00007921000870B5040022
:101AA00004D094F83900002510B106E0012070BD83
:101AB00084F83850204600F023F8242084F83900B8
:101AC0002068C16821F40051C160204600F0B6FBD7
:101AD0002068016921F4904101612068416921F089
:101AE0002A0141612068C16841F40051C160E56389
:101AF000202084F8390084F83A00002070BD0000EE
:101B000070B586B0002400940194029403942B4E87
:101B100003682B49022003222A4DB34221D18B694D
:101B200043F480438B618B6903F4804304938B6996
:101B300043F004038B618969039201F0040104916D
:101B40000102CDE9001069462846FFF7D9F82815AB
:101B5000CDE90004694628460294FFF7D1F806B0A3
:101B600070BD194EB342FAD1CB6943F40033CB6157
:101B7000CB6903F4003304938B6943F004038B6156
:101B80008969039201F0040104910421CDE9001058
:101B900069462846FFF7B4F80820CDE900046946F5
:101BA00028460294FFF7ACF8002211462620FFF7E2
:101BB0001BFA2620FFF70AFAD1E70000003801409F
:101BC00000100240000801400044004090F83A3004
:101BD000202B22D1F9B1F2B190F83830012B1CD072
:101BE00081628285C2850021C163222280F83A2069
:101BF00080F838100168CA6842F48072CA600168CF
:101C00004A6942F001024A610068C16841F020015E
:101C1000C16000207047012070470220704700001B
:101C200000680B49884211D10A480B4B0178C278F1
:101C30005A54491CC9B20170402901D300210170D6
:101C400004490122C91C0548FFF7C0BF70470000C6
:101C500000440040000000201C0000200C01002077
:101C60002DE9F843044690F839001F4616460D4604
:101C7000202850D1A5B19EB194F8380001284AD04F
:101C8000012084F838004FF00008C4F83C8021207F
:101C900084F83900FFF73CF9A6848146E68426E003
:101CA0000120BDE8F883E08C401EE084A0684B462C
:101CB000B0F5805F4FF000024FF0800120460097A2
:101CC00003D000F048FBE8B90DE000F044FBC8B9D0
:101CD00028882168C0F308004860206908B16D1C9D
:101CE00005E0AD1C03E0216815F8010B4860E08CAD
:101CF0000028D8D14B46002240212046009700F012
:101D00002AFB08B10320CCE7202084F8390084F8AE
:101D100038800020C5E70220C3E77047FEE70000D7
:101D200008B50068074988420BD107480068016878
:101D3000C943C90605D4054A01219170016840686C
:101D4000009008BD004400400C010020000000206D
:101D50003EB5002410480094019402940D4984601B
:101D6000016004730475012505614FF4602144602E
:101D7000C161FEF74DFD08B1FEF7C6FCCDE9004597
:101D8000694605480294FEF7C1FC002801D0FEF721
:101D9000BBFC3EBD002401405C0000202DE9F04F5B
:101DA00085B000243548009401940294039481691D
:101DB00041F040018161816901F040010491816934
:101DC00041F010018161816901F010010491816984
:101DD00041F004018161816901F00401049181698C
:101DE00041F0080181618069DFF8949000F00800FB
:101DF00004900122FF214846FFF785F84FF48077D1
:101E0000002239464846FFF77EF8DFF878A04FF405
:101E10000078002241465046FFF775F8DFF868B0B9
:101E2000012239465846FFF76EF8FF2001250326A8
:101E3000CDE90005CDE9024669464846FEF760FF58
:101E4000022000970396CDE9015069464846FEF707
:101E500057FFCDF800800396CDE9015469465046FE
:101E6000FEF74EFF00970396CDE9015469465846A8
:101E7000FEF746FF05B0BDE8F08F000000100240FD
:101E80000018014000100140000C01401CB5002466
:101E90000F4800940D490194016041F61F41C0E9CB
:101EA000011442F20F718461C160FFF762FC08B156
:101EB000FEF72AFC0094694605480194FFF738FCB8
:101EC000002801D0FEF720FC1CBD000000100040DF
:101ED0008C0000200C4810B50A4901604FF4E13134
:101EE0004160002181600C22C160C0E9041281615F
:101EF000C161FFF7D3FD002803D0BDE81040FEF715
:101F000003BC10BD00380140CC0000200C4810B5C7
:101F10000A4901604FF4E1314160002181600C22E7
:101F2000C160C0E904128161C161FFF7B7FD0028FB
:101F300003D0BDE81040FEF7E7BB10BD00440040F1
:101F40000C010020FEE770477047000070B500F0FC
:101F500029FB0B4C0B48E1888515642901D9002227
:101F600000E001222946FEF7CEFFE18806A000F03E
:101F700033FA2946BDE870400748FEF7BDBF0000B0
:101F80000000002000180140B9E2D5D5D6B5CEAA90
:101F900025640D0A00000000000C0140704700009D
:101FA0007CB5002100918DF8000004208DF801001F
:101FB000174C022001918DF80200E0888DF8040092
:101FC000010A8DF803100521684600F081FB010A23
:101FD0008DF805108DF80600E1880EA000F0FCF9E0
:101FE0000122114D540221462846FEF78CFF4FF482
:101FF0007A70FEF773FE4FF6FF73072269460B48AF
:10200000FFF72EFE002221462846FEF77CFF7CBD0E
:1020100000000020B5B1C7B0B9E2D5D5B6C8CEAA88
:1020200025640D0A00000000001001400C01002092
:10203000FEF774BF30B595B028216846FEF7ABF8BF
:1020400014210AA8FEF7A7F818210FA8FEF7A3F895
:1020500001210804CDE90010002402940225049116
:10206000CDE907504FF4E01009906846FFF7BAF940
:102070000F20CDE90A056802CDE90C4002210AA82B
:102080000E94FFF7C3F8A80311900F950FA8FFF760
:1020900047F815B030BD00000D48016841F001015E
:1020A000016041680B4A1140416001680A4A1140D1
:1020B0000160016821F480210160416821F4FE0182
:1020C00041604FF41F0181600449C00308607047FC
:1020D000001002400000FFF8FFFFF6FE08ED00E0F0
:1020E0000148FFF791BB00008C000020F0B50268AA
:1020F0001C4B1D4D1D4E1E4F1E4C4FF0804C9842E8
:1021000009D0A04207D0604505D0A84203D0B04214
:1021100001D0B84204D122F0700E4A6842EA0E02A1
:10212000984209D0A04207D0604505D0A84203D00C
:10213000B04201D0B84203D122F44075CA682A43A4
:102140004D6922F080022A4302608A68C2620A68EE
:102150008262984201D0A04201D109690163012144
:102160004161F0BD002C0140000400400008004027
:10217000000C00400034014010B5406A0021C185C8
:10218000C184FFF702FC10BD0168CA6822F4907296
:10219000CA6001684A6922F001024A61202180F880
:1021A0003A10704710B590F83A10222901D0022059
:1021B00010BD8168B1F5805F11D001690029016807
:1021C0001FD0496801F07F03816A4A1C82620B704C
:1021D000C18D491E0904090CC18518D02BE0026984
:1021E000816A002A0268526805D0D2B20A80816AE8
:1021F000491C8162ECE7C2F308020A80816A891CEB
:10220000F7E74A68816A4B1C83620A70E0E701685D
:10221000CA6822F02002CA600168CA6822F480728B
:10222000CA6001684A6922F001024A61202180F8EF
:102230003A10FFF7F5FC002010BD00002DE9F04139
:10224000044600680169E26821F4405111430161CC
:102250002169A0680843616908432168CA6841F29E
:102260000C639A430243CA6020684169A26921F461
:102270004071114341611E4920686425322688421D
:1022800002D1FFF769F801E0FFF756F800EBC00153
:1022900001EB001160686FF018078000B1FBF0F2ED
:1022A000B2FBF5F2B1FBF0F37A4303EB8202B1FB30
:1022B000F0F306EB0212B2FBF5F2B3FBF5F302F01A
:1022C000F00202EB0312B1FBF0F3B1FBF0F0B0FB54
:1022D000F5F0784303EB800006EB0010B0FBF5F05F
:1022E000216800F00F0010448860BDE8F081000014
:1022F0000038014090F83910212901D002207047A0
:102300008168B1F5805F016A0BD04A1C02620268E5
:1023100009785160C18C491E0904090CC1840ED092
:1023200017E009880268C1F30801516001690029BA
:10233000016A02D0491C0162ECE7891CFBE70168D5
:10234000CA6822F08002CA600068C16841F040019A
:10235000C160002070472DE9F041984617460E46AF
:102360000446069D1DE0681C1BD02DB1FEF7D0FD74
:10237000A0EB0800A84214D92068C16821F4D071EC
:10238000C1602068416921F001014161202084F889
:10239000390084F83A00002084F838000320BDE8B2
:1023A000F0812068006836EA000004D00020B842BE
:1023B000D9D00020F3E70120F9E7000010B5044868
:1023C000FFF7E4FABDE810400148FFF7A9BC0000A0
:1023D0000C010020FEE700000FB4054B10B503A967
:1023E000044A029800F028F810BC5DF814FB0000C5
:1023F0008D250008180000200907090E002804DBBD
:1024000000F1E02080F80014704700F00F0000F1A8
:10241000E02080F8141D704702E008C8121F08C1B0
:10242000002AFAD170477047002001E001C1121F55
:10243000002AFBD1704700002DE9FF4F89B09B4671
:102440000446002506E025280BD05A460B999047F4
:10245000641C6D1C20780028F5D10DB02846BDE81D
:10246000F08F0027B8460122474900E0074314F8DF
:10247000013F203B02FA03F00842F7D120782E28D2
:1024800019D114F8010F47F004072A280ED06FF075
:102490002F022078A0F1300109290CD808EB88011F
:1024A00002EB410100EB0108641CF2E70A98641C8E
:1024B00050F8048B0A9020780028CED0642808D0E9
:1024C000692806D075281ED05A460B9990476D1C76
:1024D00058E00A994FF00A0901C90A91002802DA66
:1024E00040422D2102E0390504D52B218DF8201022
:1024F000012103E0F90704D02021F7E78A4608AE5E
:102500000DE00021FAE70A994FF00A0901C90A9182
:10251000F7E74946FDF7CCFF303106F8011D0028EA
:10252000F7D1ADEB060000F12009780701D44FF098
:102530000108C84502DDA8EB090000E00020804644
:10254000002706E008A85A46C05D0B9990476D1C0D
:102550007F1C5745F6DB04E030205A460B99904724
:102560006D1CB8F10001A8F10108F5DC05E016F8D2
:10257000010B5A460B9990476D1CB9F10001A9F166
:102580000109F4DC641C65E70928010013B54FF666
:10259000FF73012269460248FFF762FB00981CBDE9
:1025A000CC00002010B51248FEF786FA282110480A
:1025B000FEF7EAF90E48FEF727F9FDF748FF0D4947
:1025C000FDF7F4FD0C49FDF723FEFDF75EFF002249
:1025D0000A4BFDF7CDFE0022094BFDF757FEFDF734
:1025E0003BFF0849C880BDE810400148FEF7C4BA67
:1025F0005C00002000404E4500F07F450000244074
:102600000000044000000020FEF790FCFFF712FDE0
:10261000FFF7C4FBFFF75EFCFFF778FCFFF798FBC2
:10262000FFF734FC1B4C1CA06178FFF7D5FE204857
:10263000FFF7D8F80122E11C1E48FFF7C7FA1D4832
:102640000068C16841F01001C1601B4D0026207870
:102650000828FCD1A0780128F9D1297817A0FFF724
:10266000BBFE0621144800F033F8E98849BA8142DC
:1026700007D129786078814203D1FFF791FC00F0FF
:1026800043F82670A670E67040210B48FDF783FDE5
:10269000DDE700000000002053544D333220B4D356
:1026A000BBFABDDAB5E32564B3CCD0F20D0A000065
:1026B0008C0000200C0100201C000020CAD5B5BDF4
:1026C000BDDAB5E3C7EBC7F32025640D0A000000AF
:1026D000F0B500250B4EFF231A4606F5807705E07E
:1026E00010F8014B5440325D5A403B5D491E89B29F
:1026F000F6D2A8184FF6FF7101EA0020184480B204
:10270000F0BD00003C27000870B50A4CA08808B94D
:102710008020A080084D0122FF212846FEF7F3FB10
:102720000022A1882846FEF7EEFBA0884008A08082
:1027300070BD0000000000200018014000C1814071
:1027400001C0804101C0804100C1814001C0804181
:1027500000C1814000C1814001C0804101C0804171
:1027600000C1814000C1814001C0804100C1814061
:1027700001C0804101C0804100C1814001C0804151
:1027800000C1814000C1814001C0804100C1814041
:1027900001C0804101C0804100C1814000C1814031
:1027A00001C0804101C0804100C1814001C0804121
:1027B00000C1814000C1814001C0804101C0804111
:1027C00000C1814000C1814001C0804100C1814001
:1027D00001C0804101C0804100C1814000C18140F1
:1027E00001C0804101C0804100C1814001C08041E1
:1027F00000C1814000C1814001C0804100C18140D1
:1028000001C0804101C0804100C1814001C08041C0
:1028100000C1814000C1814001C0804101C08041B0
:1028200000C1814000C1814001C0804100C18140A0
:1028300001C0804101C0804100C1814000C0C10190
:10284000C30302C2C60607C705C5C404CC0C0DCD20
:102850000FCFCE0E0ACACB0BC90908C8D81819D990
:102860001BDBDA1A1EDEDF1FDD1D1CDC14D4D515C0
:10287000D71716D6D21213D311D1D010F03031F1B0
:1028800033F3F23236F6F737F53534F43CFCFD3DE0
:10289000FF3F3EFEFA3A3BFB39F9F83828E8E929D0
:1028A000EB2B2AEAEE2E2FEF2DEDEC2CE42425E580
:1028B00027E7E62622E2E323E12120E0A06061A1F0
:1028C00063A3A26266A6A767A56564A46CACAD6DA0
:1028D000AF6F6EAEAA6A6BAB69A9A86878B8B97910
:1028E000BB7B7ABABE7E7FBF7DBDBC7CB47475B540
:1028F00077B7B67672B2B373B17170B05090915130
:102900009353529296565797559594549C5C5D9D5F
:102910005F9F9E5E5A9A9B5B99595898884849894F
:102920004B8B8A4A4E8E8F4F8D4D4C8C44848545FF
:10293000874746868242438341818040005EBCE2F5
:10294000613FDD83C29C7E20A3FD1F419DC3217F8B
:10295000FCA2401E5F01E3BD3E6082DC237D9FC17F
:10296000421CFEA0E1BF5D0380DE3C62BEE0025C73
:10297000DF81633D7C22C09E1D43A1FF4618FAA45F
:1029800027799BC584DA3866E5BB5907DB8567394B
:10299000BAE406581947A5FB7826C49A653BD9873F
:1029A000045AB8E6A7F91B45C6987A24F8A6441A33
:1029B00099C7257B3A6486D85B05E7B98CD2306E1F
:1029C000EDB3510F4E10F2AC2F7193CD114FADF30B
:1029D000702ECC92D38D6F31B2EC0E50AFF1134DFF
:1029E000CE90722C6D33D18F0C52B0EE326C8ED0F3
:1029F000530DEFB1F0AE4C1291CF2D73CA947628DF
:102A0000ABF517490856B4EA6937D58B5709EBB5CA
:102A100036688AD495CB2977F4AA4816E9B7550BBE
:102A200088D6346A2B7597C94A14F6A8742AC896B2
:102A3000154BA9F7B6E80A54D7896B35000000009A
:102A4000000000000102030406070809000000005E
:102A500001020304742A0008000000201C0000008A
:102A600018240008902A00081C00002034050000EB
:102A70002824000800010000800000000100000080
:102A800010000000000000000024F400000000001E
:0400000508000131BD
:00000001FF
