:020000040800F2
:10000000807600202D02000815350008F52E000826
:100010001135000875090008995200080000000019
:10002000000000000000000000000000714800080F
:10003000890900080000000017350008354900084C
:10004000470200084702000847020008470200086C
:10005000470200084702000847020008470200085C
:100060004702000847020008470200087909000813
:10007000470200084702000847020008470200083C
:10008000470200084702000847020008470200082C
:10009000470200084702000847020008470200081C
:1000A000470200084702000847020008470200080C
:1000B0001D4A0008614A000847020008470200087C
:1000C00047020008470200084702000847020008EC
:1000D0004702000801510008A15100081D52000804
:1000E00047020008470200084702000847020008CC
:1000F00047020008470200084702000847020008BC
:1001000047020008470200084702000847020008AB
:1001100047020008FD4C000847020008470200089B
:10012000470200084702000847020008470200088B
:1001300000F002F800F06BF80AA090E8000C82448E
:100140008344AAF10107DA4501D100F060F8AFF26B
:10015000090EBAE80F0013F0010F18BFFB1A43F0A5
:100160000103184724950000449500000A444FF00D
:10017000000C10F8013B13F0070408BF10F8014B06
:100180001D1108BF10F8015B641E05D010F8016B4B
:10019000641E01F8016BF9D113F0080F1EBF10F8AF
:1001A000014BAD1C0C1B09D16D1E58BF01F801CBD2
:1001B000FAD505E014F8016B01F8016B6D1EF9D555
:1001C0009142D6D37047000000230024002500266A
:1001D000103A28BF78C1FBD8520728BF30C148BFAA
:1001E0000B607047642900F0B180752900F0AE8083
:1001F000782900F0E780632900F0CA82732900F0B3
:10020000CF82002070471FB51FBD10B510BD00F094
:1002100017FB1146FFF7F7FF06F0C2F800F035FBB9
:1002200003B4FFF7F2FF03BC05F01FFA094880474B
:1002300009480047FEE7FEE7FEE7FEE7FEE7FEE7C8
:10024000FEE7FEE7FEE7FEE704480549054A064BE0
:1002500070470000C5490008310100088070002087
:100260008076002080720020807200207047B2F1FA
:1002700020030AD5C2F1200320FA02F001FA03F3A9
:1002800021FA02F140EA0300704721FA03F04FF02F
:10029000000170470FB4044910B503AA029800F09A
:1002A00083FA10BC5DF814FB4801002070B50446C9
:1002B00085690068C10601D5302600E02026C00708
:1002C00007D070BDD4E9012130469047206A401C18
:1002D00020626D1EF6D570BD70B504468569007844
:1002E000C00707D170BDD4E9012120209047206AC2
:1002F000401C20626D1EF6D570BD70B50C460546DB
:10030000012A05D02878800600D5EA69002302E09A
:10031000012305E05B1C934202D2E05C0028F9D186
:10032000A869E618C01AA861286A184428622846F5
:10033000FFF7BCFF04E0D5E9012114F8010B904759
:10034000B442F8D32846FFF7C7FF70BD2DE9F0414E
:100350000646002410687529314616A510D0AFF363
:100360000080002802DA404213A507E031688A07BE
:1003700001D512A502E0490704D511A5012401E029
:10038000AFF3008000210A2206F1240709E0B0FB48
:10039000F2FCB0FBF2F302FB1C003030785418463C
:1003A000491C0028F3D123462A463046BDE8F041D7
:1003B00000F073B9000000002D0000002B000000C9
:1003C0002000000070B504460D4621461068AFF3CA
:1003D00000802188090502D50F4A7A4402E00E4ABE
:1003E0007A440E32002104F1240305E000F00F06E8
:1003F0000009965D5E54491C0028F7D1207800233F
:10040000000704D5702D02D009B102231132204615
:10041000BDE8704000F041B97D8E00002DE9F05F2D
:10042000894604464FF0000ADFF874B1FB44C0F877
:1004300020A02046E1688847002874D0252806D0EF
:10044000D4E901219047206A401C2062F1E7002690
:100450005F462046E16888472028054607DB312DA6
:1004600005D2781910F8200C08B10643F1E7B0075F
:1004700001D526F00406C4F81CA00027C4F818A073
:100480002A2D09D0284605F0E9F838B304EB87088F
:10049000303DC8F8185019E059F8041B204604EB09
:1004A00087029161E1688847012F054618D1E0690C
:1004B000002820DA26F020061DE0D8F8180000EB0E
:1004C000800005EB40003038C8F818002046E1688D
:1004D0008847054605F0C2F80028EED1012F0AD062
:1004E0002E2D08D12046E16888477F1C0546022F43
:1004F00046F02006C4DBA069002803DA404246F03B
:100500000106A061F00701D026F010066C2D0BD07B
:10051000682D09D04C2D39D06A2D35D0742D35D0A9
:100520007A2D33D016E038E0E1682F462046884720
:10053000B842054609D16C2F26D04FF48060E1689F
:10054000064320468847054604E06C2F1AD04FF436
:10055000807006430DB3A5F14100192802D820355B
:1005600046F400664A462946204626604E46FFF776
:1005700039FE80B101280BD0F61D26F0070000F1EE
:10058000080956E74020E4E78020D8E70020D6E7B6
:1005900006F104094DE7284652E7206ABDE8F09FBE
:1005A000538E00000022CBB210F8011B994200D1FB
:1005B000421E0029F8D110467047032A40F23080CD
:1005C00010F0030C00F0158011F8013BBCF1020F94
:1005D000624498BF11F801CB00F8013B38BF11F815
:1005E000013BA2F1040298BF00F801CB38BF00F82C
:1005F000013B11F0030300F0E980083AC0F00880E5
:1006000051F8043B083A51F804CBA0E80810F5E78C
:10061000121D5CBF51F8043B40F8043BAFF300806F
:10062000D20724BF11F8013B11F801CB48BF11F8E4
:10063000012B24BF00F8013B00F801CB48BF00F8B4
:10064000012B70474FF0000200B5134694469646C2
:10065000203922BFA0E80C50A0E80C50B1F12001D5
:10066000BFF4F7AF090728BFA0E80C5048BF0CC083
:100670005DF804EB890028BF40F8042B08BF7047E1
:1006800048BF20F8022B11F0804F18BF00F8012B53
:10069000704770477047704770472DE9F0470D4627
:1006A00099469246044600F124080168880604D55C
:1006B000E06921F01001216000E00120A84201DD85
:1006C000471B00E00027A1697A1902EB0900081A0C
:1006D000A0612078C00602D42046FFF7E7FD00267F
:1006E00008E0D4E901211AF806009047206A401C6E
:1006F000761C20624E45F4DB2078C0060AD52046E1
:10070000FFF7D4FD06E0D4E9012130209047206AAC
:10071000401C2062381EA7F10107F4DC07E0D4E991
:10072000012118F805009047206A401C2062281E0D
:10073000A5F10105F3DC2046FFF7CEFD2078000689
:1007400002D50220BDE8F0870120FBE701694A1CC1
:1007500002610878704700B58FB0CDE90131002102
:10076000059105497944CDE9031011466846FFF724
:1007700055FE0FB000BD0000E5FFFFFF10B5436957
:1007800013B1AFF3008001E0FFF7B7FD012010BD0A
:10079000127800F124010A7000224A700122EDE76C
:1007A00011684FF0FF32E9E7074B70B50D467B4407
:1007B000FFF7D1FF0446284600F03AF810B14FF099
:1007C000FF3070BD204670BDB756000010B5203A0E
:1007D000C0F00B80B1E81850203AA0E81850B1E8FA
:1007E0001850A0E81850BFF4F5AF5FEA027C24BFB0
:1007F000B1E81850A0E8185044BF18C918C0BDE8A7
:1008000010405FEA827C24BF51F8043B40F8043B6F
:1008100008BF7047D20728BF31F8023B48BF11F824
:10082000012B28BF20F8023B48BF00F8012B70477E
:10083000007B00F080007047004870472070002067
:100840007546FFF7F9FFAE4605006946534620F0AE
:100850000700854618B020B5FFF7F6FCBDE820403C
:100860004FF000064FF000074FF000084FF0000B6C
:1008700021F00701AC46ACE8C009ACE8C009ACE81F
:10088000C009ACE8C0098D46704710B50446AFF307
:1008900000802046BDE81040FFF7C2BC70B504469A
:1008A00000252068806800F00100F0B120688068B1
:1008B00020F001002168886001F080F905460EE013
:1008C00001F07CF9401B022809D9A06A40F0100011
:1008D000A062E06A40F00100E062012070BD206883
:1008E000806800F001000028EAD10020F6E700004F
:1008F00038B504460025002000902068806800F08C
:10090000010080BB2068806840F001002168886099
:10091000164800681649B0FBF1F0009002E000981C
:10092000401E009000980028F9D101F047F90546D3
:1009300013E001F043F9401B02280ED9A06A40F0F1
:100940001000A062E06A40F00100E06200BF0020F9
:1009500084F8240000BF012038BD2068806800F0C2
:1009600001000028E5D00020F6E7000098010020F3
:1009700040420F0000BFFEE710B5024800F0BEFC89
:1009800010BD0000680200207047002104E000BF95
:1009900000BF00BF00BF491C8142F8D370477047B9
:1009A0000021074AD1610749096941F00401054A5C
:1009B00011611146096941F0400111617047000061
:1009C000006F0020002002400021074AD161074942
:1009D000096941F00201054A11611146486109693E
:1009E00041F0400111617047006F0020002002407B
:1009F0000022054BDA61054A126942F00102034BFD
:100A00001A61018070470000006F00200020024042
:100A100000201E49C96801F0100139B11C49C9699B
:100A200041F002011A4AD16140F010001749C9682B
:100A300001F0040139B11649C96941F00101144AB4
:100A4000D16140F004001149C96901F0010169B1A7
:100A50000F49C96941F004010D4AD16100BF0B493A
:100A6000C96921F00101094AD16100BF00BF40F20C
:100A70000111884206D10549C96921F00101034AE3
:100A8000D16101E00149C86000BF70470020024009
:100A9000006F002070B5044601F090F8054609E0AB
:100AA000601C38B124B101F089F8401BA04201D983
:100AB000032070BD1248C06800F001000028EFD18B
:100AC0000F48C06800F0200020B100BF20200C4972
:100AD000C86000BF0A48C06800F0100048B9084864
:100AE000C06900F0010020B90548C06800F00400AA
:100AF00018B1FFF78DFF0120DBE70020D9E70000E8
:100B00000020024070B500BF0B4800F06BFA0A21CC
:100B1000094800F0AFF9084800F0C0F885B24FF47A
:100B2000A57105FB01F0C11700EB11510C13024830
:100B300000F0F0FA204670BD3802002038B50246B9
:100B400000230020009000BF92F82400012801D16A
:100B5000022038BD012082F8240000BF4868072821
:100B600012D21068406B0C79641E04EB84051F24BC
:100B7000AC40A0430D796D1E05EB85050C68AC40BB
:100B800020431468606327E048680D2812D210687B
:100B9000006B0C79E41F04EB84051F24AC40A043D8
:100BA0000D79ED1F05EB85050C68AC4020431468FA
:100BB000206311E01068C06A0C790D3C04EB8405D9
:100BC0001F24AC40A0430D790D3D05EB85050C6855
:100BD000AC4020431468E06208680A2812D3106809
:100BE000C0680C780A3C04EB44050724AC40A043E1
:100BF0000D780A3D05EB45058C68AC402043146830
:100C0000E0600FE0106800690C7804EB44050724ED
:100C1000AC40A0430D7805EB45058C68AC40204303
:100C2000146820610868102802D00868112827D1AC
:100C3000174C1068A0421ED11068806800F40000B4
:100C4000F0B91068806840F400001468A06008687B
:100C5000102815D10F4800680F4CB0FBF4F000EBE2
:100C600080004000009002E00098401E0090009834
:100C70000028F9D104E0906A40F02000906201233E
:100C800000BF002082F8240000BF184661E7000082
:100C9000002401409801002040420F0001460868EE
:100CA000C06C70472DE9F04104460027002500265E
:100CB000A84614B90120BDE8F081A06810B1207DDC
:100CC00000B100BFA06A30B90020E06284F82400BF
:100CD000204600F097F82046FFF7E0FD0746A06A9F
:100CE00000F01000002873D1002F7ED1A06A20F4FC
:100CF000885040F00200A0623F4AD4E900019042CF
:100D000008D1E069B0F5402F02D14FF4002002E095
:100D1000E06900E0E0690143207B41EA40000643CE
:100D2000A068B0F5807F02D0A068012802D14FF4FE
:100D3000807000E000200543207D012811D1207B38
:100D400038B9A069401E4FF4006141EA40300543C4
:100D500007E0A06A40F02000A062E06A40F00100D5
:100D6000E0622068406820F46940284321684860B8
:100D70002068806821490840304321688860A06865
:100D8000B0F5807F02D0A068012802D14FF48070B6
:100D900000E00020B0F5807F03D1208A401E4FEA9A
:100DA00000582068C06A20F4700040EA08002168FA
:100DB000C8622068806812490840B04209D100200A
:100DC000E062A06A20F0020040F00100A06211E0A1
:100DD0000BE0A06A20F0020040F01000A062E06A80
:100DE00040F00100E062012704E0A06A40F010003A
:100DF000A062012738465EE7003C0140FDF7E1FFB5
:100E0000FE0E1FFF10B586B004460020029003902E
:100E10000490059014492068884222D100BF1348ED
:100E2000806940F40070114988610846806900F4C7
:100E30000070019000BF00BF00BF0846806940F00D
:100E4000040088610846806900F00400019000BF3A
:100E500000BF012002900320039002A9044800F083
:100E6000FFFC06B010BD000000240140001002404D
:100E700000080140F8B504460D4600260020009009
:100E8000002700F09BFE06462068806800F4807012
:100E900050B1A06A40F02000A06200BF002084F89A
:100EA000240000BF0120F8BD2068406800F4807075
:100EB000F8B92068C06A00F47000D0B912E0681C6C
:100EC00080B125B100F07AFE801BA8420AD9A06A41
:100ED00040F00400A06200BF002084F8240000BF9E
:100EE0000320E0E72068006800F002000028E6D058
:100EF00050E0022000F03EFF36490968B1FBF0F0F7
:100F000021680969344A114091B92168C968921170
:100F1000114069B921680969304A114031B9216825
:100F2000C9689211114009B9142117E0292115E06F
:100F300021680969294A114021B92168C9689211BB
:100F4000114041B121680969254A114029B9216838
:100F5000C968114009B9542100E0FC2100FB01F7E8
:100F600015E0681C80B125B100F028FE801BA84266
:100F70000AD9A06A40F00400A06200BF002084F8F3
:100F8000240000BF03208EE70098401C00900098CA
:100F9000B842E6D36FF0120021680860A06A40F4FE
:100FA0000070A0622068806800F46020B0F5602FB7
:100FB0000DD1207B58B9A06A20F48070A062A06A8D
:100FC00000F4805018B9A06A40F00100A06200202F
:100FD00069E70000980100202449922492244912D4
:100FE0004992240070B50446002500BF94F82400FF
:100FF000012801D1022070BD012084F8240000BF27
:101000002046FFF775FC0546002D77D1A06A40F217
:101010000121884340F48070A0623C4920688842E6
:1010200008D13B48006800F4702008B9012002E0B4
:10103000002000E0012078B1A06A20F48010A062B6
:101040002068406800F4806000B3A06A20F400507B
:1010500040F48050A06219E0A06A40F48010A062C1
:101060002B49091F2068884203D0284920688842FC
:1010700004D12748006800F4806000E0002028B117
:10108000A06A20F4005040F48050A062A06A00F4EE
:10109000805020B1E06A20F00600E06201E000200C
:1010A000E06200BF002084F8240000BFC01E216859
:1010B00008602068806800F46020B0F5602F16D1C9
:1010C00012492068884208D11148006800F4702055
:1010D00008B9012002E0002000E0012038B12068BA
:1010E000806840F4A000216888600CE006E0206879
:1010F000806840F480102168886004E000BF002010
:1011000084F8240000BF284675E70000002801404D
:101110000424014070B50446002500BF94F8240063
:10112000012801D1022070BD012084F8240000BFF5
:101130002046FFF7B3FB05462DB9A06A20F488507E
:1011400040F00100A06200BF002084F8240000BF2E
:101150002846E8E770B50446002594F821000228E7
:1011600003D00420A0630125C1E02068006820F0BE
:101170000E00216808602068006820F001002168E6
:1011800008605C492068884252D95A4978392068F9
:10119000884201D1012047E05649643920688842DD
:1011A00001D1102040E0534950392068884201D1D4
:1011B000801539E04F493C392068884201D18014BC
:1011C00032E04C4928392068884202D14FF48030FF
:1011D0002AE0484914392068884202D14FF480102F
:1011E00022E044492068884201D140041CE0424981
:1011F0002068884201D1012016E03F49143120685F
:10120000884201D110200FE03B49283120688842F4
:1012100001D1801508E038493C312068884201D16D
:10122000801401E04FF480303349091F086051E019
:10123000304978392068884201D1012047E02D49A2
:1012400064392068884201D1102040E02949503992
:101250002068884201D1801539E026493C39206850
:10126000884201D1801432E022492839206888421E
:1012700002D14FF480302AE01E4914392068884298
:1012800002D14FF4801022E01A492068884201D12F
:1012900040041CE018492068884201D1012016E072
:1012A000154914312068884201D110200FE01249FD
:1012B00028312068884201D1801508E00E493C3170
:1012C0002068884201D1801401E04FF48030094940
:1012D00080394860012084F8210000BF002084F894
:1012E000200000BF606B10B12046616B8847284624
:1012F00070BD0000800002400804024070B5044642
:10130000E06B05682068066894F840100420884067
:101310002840002875D006F004000028FAD0206884
:10132000006800F0200028B92068006820F0040060
:1013300021680860D5492068884254D9D349783952
:101340002068884201D1042049E0D04964392068EE
:10135000884201D1402042E0CC495039206888427F
:1013600001D100153BE0C9493C392068884202D1CF
:101370004FF4804033E0C54928392068884202D1C3
:101380004FF480202BE0C14914392068884202D1F3
:101390004FF4800023E0BD492068884201D1C00499
:1013A0001DE0BB492068884201D1042017E0B849FC
:1013B00014312068884201D1402010E0B44928311E
:1013C0002068884201D1001509E0B1493C3120680C
:1013D000884202D14FF4804001E04FF48020AC49B4
:1013E000091F086054E0A94978392068884201D172
:1013F00004204AE0A54964392068884202D140208F
:1014000043E04CE0A14950392068884201D10015E1
:101410003BE09E493C392068884202D14FF480402D
:1014200033E09A4928392068884202D14FF480205D
:101430002BE0964914392068884202D14FF480008D
:1014400023E092492068884201D1C0041DE0904900
:101450002068884201D1042017E08D4914312068AA
:10146000884201D1402010E0894928312068884213
:1014700001D1001509E086493C312068884202D13B
:101480004FF4804001E04FF480208049803948606B
:10149000E06A002802D02046E16A8847F4E094F828
:1014A0004010022088402840002871D006F0020039
:1014B0000028FAD02068006800F0200040B92068B9
:1014C000006820F00A0021680860012084F82100EB
:1014D0006E492068884254D96C497839206888421E
:1014E00001D1022049E0694964392068884201D16C
:1014F000202042E0654950392068884201D14015DA
:101500003BE062493C392068884202D14FF40050E8
:1015100033E05E4928392068884202D14FF4003018
:101520002BE05A4914392068884202D14FF4001048
:1015300023E056492068884201D180041DE05449C7
:101540002068884201D1022017E0514914312068F7
:10155000884201D1202010E04D492831206888427E
:1015600001D1401509E04A493C312068884202D146
:101570004FF4005001E04FF400304549091F086066
:1015800054E0424978392068884202D102204AE07A
:1015900057E03E4964392068884201D1202042E06A
:1015A0003A4950392068884201D140153BE037491B
:1015B0003C392068884202D14FF4005033E033496F
:1015C00028392068884202D14FF400302BE02F499F
:1015D00014392068884202D14FF4001023E02B49CF
:1015E0002068884201D180041DE029492068884292
:1015F00001D1022017E0264914312068884201D128
:10160000202010E0224928312068884201D140156D
:1016100009E01F493C312068884202D14FF4005054
:1016200001E04FF4003019498039486000BF0020C4
:1016300084F8200000BFA06A30B32046A16A884722
:1016400022E094F84010082088402840E0B106F0DD
:101650000800C8B12068006820F00E00216808600A
:1016600094F8401001208840E16B48600120A0639D
:1016700084F8210000BF002084F8200000BF206B08
:1016800010B12046216B884770BD000080000240E9
:101690000804024070B5044600F090FA064625465C
:1016A000681C10B104480078054400BF00F086FAB9
:1016B000801BA842FAD370BD940100202DE9F041AF
:1016C00004460E460127002500BF2648007E01285B
:1016D00002D10220BDE8F08101202249087600BF36
:1016E0002068022813D14CF25030FFF7D3F990BB99
:1016F0000120FFF755F94CF25030FFF7CBF90746C0
:101700001948006920F004001749086123E04CF2F1
:101710005030FFF7BFF9F0B94FF0FF303060A568E7
:1017200012E02846FFF750F94CF25030FFF7B2F9BB
:1017300007460D48006920F002000B4908610FB10F
:10174000356007E005F50065D4E9021001EBC02023
:10175000A842E6D800BF00BF00200249087600BFBB
:101760003846B7E7006F00200020024003480069B8
:1017700040F08000014908610020704700200240CD
:101780002DE9FE4F05468B46174698460126002454
:101790000020029000BF2448007E012802D10220D0
:1017A000BDE8FE8F01202049087600BF4CF2503082
:1017B000FFF770F9064686BB012D02D10120029089
:1017C00006E0022D02D10220029001E004200290E6
:1017D00000241EE02201B946C24648465146FEF7A3
:1017E00046FD80B20190022000FB04B000900199F8
:1017F000FFF7FEF84CF25030FFF74CF906460B4865
:10180000006920F001000949086106B104E0601C8C
:10181000C4B202988442DDDB00BF00BF0020024951
:10182000087600BF3046BBE7006F00200020024072
:1018300000200849096901F0800151B10649054AB3
:101840005160064951601146096901F0800101B1FA
:10185000012070470020024023016745AB89EFCD8E
:101860002DE9F847024600239C467BE14FF0010832
:1018700008FA03F4D1F8008008EA0400A0427DD100
:10188000DFF8F4A2D1F80480A8EB0A09D0453AD0D9
:1018900014DCB8F1030F50D009DCB8F1000F31D0DF
:1018A000B8F1010F1CD0B8F1020F49D120E0B8F116
:1018B000110F18D0B8F1120F42D11EE0B9F5881FF0
:1018C00025D006DCB9F5803F20D0B9F5801F37D18F
:1018D0001AE0B9F5001F18D0B9F5041F30D117E090
:1018E000D1F80CC02DE0D1F80C8008F1040C28E0F0
:1018F000D1F80C8008F1080C23E0D1F80C8008F135
:101900000C0C1EE000BF00BF00BF00BF00BF00BF47
:10191000D1F80880B8F1000F02D14FF0040C0BE0B1
:10192000D1F80880B8F1010F03D14FF0080C146111
:1019300002E04FF0080C546103E04FF0000C00E0AF
:1019400000BF00BFFF2801D8904601E002F1040863
:101950004646FF2802D84FEA830803E0A3F10808AF
:101960004FEA88084746D6F800804FF00F0909FA79
:1019700007F928EA09080CFA07F900E07AE048EAD2
:101980000908C6F80080D1F8048008F08058B8F142
:10199000805F6FD100BFDFF8E481D8F8188048F08D
:1019A0000108DFF8D891C9F81880C846D8F818801F
:1019B00008F00108CDF8008000BF00BF4FEAB93839
:1019C0004FEA930958F829504FEA83784FEA18797B
:1019D0004FF00F0808FA09F825EA0805DFF8A0819A
:1019E000424502D14FF0000824E0DFF898814245DB
:1019F00002D14FF001081DE0DFF88C81424502D191
:101A00004FF0020816E0DFF88481424502D14FF022
:101A100003080FE0DFF87881424502D14FF0040857
:101A200008E0DFF87081424502D14FF0050801E07F
:101A30004FF006084FEA83794FEA197908FA09F856
:101A400048EA0505DFF850814FEA930948F8295024
:101A5000D1F8048008F48038B8F5803F0BD1DFF866
:101A60003C81D8F8008048EA0008DFF83091C9F8D6
:101A700000800AE075E0DFF82481D8F8008028EAC9
:101A80000008DFF81891C9F80080D1F8048008F444
:101A90000038B8F5003F0ED1DFF8008108F10408E6
:101AA000D8F8008048EA0008DFF8F09009F104094E
:101AB000C9F800800DE0DFF8E48008F10408D8F8E8
:101AC000008028EA0008DFF8D49009F10409C9F879
:101AD0000080D1F8048008F48018B8F5801F0ED17A
:101AE000DFF8B88008F10808D8F8008048EA000854
:101AF000DFF8A89009F10809C9F800800DE0DFF8C7
:101B00009C8008F10808D8F8008028EA0008DFF86F
:101B10008C9009F10809C9F80080D1F8048008F414
:101B20000018B8F5001F0ED1DFF8708008F10C081E
:101B3000D8F8008048EA0008DFF8609009F10C0945
:101B4000C9F800800DE0DFF8548008F10C08D8F8DF
:101B5000008028EA0008DFF8449009F10C09C9F870
:101B600000805B1CD1F8008028FA03F8B8F1000F60
:101B70007FF47CAEBDE8F887000011100010024031
:101B800000080140000C0140001001400014014019
:101B900000180140001C0140080001400004014001
:101BA000024693680B400BB1012000E00020704713
:101BB0000AB1016101E00B0403617047014800684C
:101BC000704700008C010020034800680349097831
:101BD00008440149086070478C01002094010020EE
:101BE00010B50848006840F010000649086003205E
:101BF00000F0ACF8002000F007F800F02BF800200F
:101C000010BD00000020024070B504460E48007868
:101C10004FF47A71B1FBF0F00C490968B1FBF0F5B3
:101C2000284600F041FD08B1012070BD102C07D2FC
:101C300000222146501E00F04BF80548046001E0E8
:101C40000120F2E70020F0E7940100209801002035
:101C50009001002008B500BF1348806940F00100E2
:101C6000114988610846806900F00100009000BFBA
:101C700000BF00BF0846C06940F08050C8610846F8
:101C8000C06900F08050009000BF00BF052000F048
:101C90005DF800BF0549486820F0E06040F0007042
:101CA000486000BF08BD0000001002400000014075
:101CB00001460846002809DB00F01F0301229A4074
:101CC00043099B0003F1E023C3F8002100BF7047E4
:101CD0002DE9F05F80460D461646002703F0A2FC72
:101CE000074639462A46334601F00700C0F1070A85
:101CF000BAF1040F02D94FF0040A01E0C0F1070A5B
:101D0000D14600F1040ABAF1070F02D24FF0000ADF
:101D100001E0A0F1030AD4464FF0010A0AFA09FAD9
:101D2000AAF1010A0AEA020A0AFA0CFA4FF0010BB8
:101D30000BFA0CFBABF1010B0BEA030B4AEA0B04A9
:101D40002146404603F076FCBDE8F09F00BF00F05E
:101D50000702064B19684FF6FF031940044B0B436B
:101D600043EA0221014B196000BF70470CED00E00F
:101D70000000FA052DE9F04385B0064642A30FCBDB
:101D800001AC0FC444A0006800904FF0000800258B
:101D900000270024A146042E36D004DC012E3BD0BF
:101DA000022E6BD15FE0082E32D0102E66D13B4858
:101DB0004468006800F0807000B301A8C4F3834158
:101DC000475C04F4803070B134484068C0F3404050
:101DD0001DF8008004F4803040B13148B0FBF8F0C9
:101DE00000FB07F502E02F4807FB00F52B48406891
:101DF00000F48000B0F5800F01D1A94603E068002F
:101E00000321B0FBF1F93AE000F0D2F9814636E067
:101E100000F0CEF9814632E02048046A04F44070B4
:101E2000B0F5807F05D104F0020010B14FF40049F5
:101E300018E004F44070B0F5007F07D11748406AFD
:101E400000F0020010B149F640490BE004F4407084
:101E5000B0F5407F06D11148006800F4003008B1A9
:101E60004FF224490BE000F093F90C494968C1F3A3
:101E70008131491C4900B0FBF1F900E000BF00BF0F
:101E8000484605B0BDE8F0830203040506070809CB
:101E90000A0B0C0D0E0F1010010200000010024082
:101EA00000127A0000093D00F8B50446002600251E
:101EB000207800F0010000286BD000274348C0695B
:101EC00000F0805070B900BF4048C06940F08050B9
:101ED0003E49C8610846C06900F08050009000BFCC
:101EE00000BF01273A48006800F48070B0B9384854
:101EF000006840F4807036490860FFF75FFE0646D0
:101F000006E0FFF75BFE801B642801D90320F8BDC3
:101F10002F48006800F480700028F2D02B48006A37
:101F200000F440752DB3A08800F44070A84220D082
:101F30002648006A20F440750120264908600020E8
:101F400008602248056205F0010090B1FFF736FEF7
:101F5000064608E0FFF732FE801B41F288318842D6
:101F600001D90320D3E71948006A00F002000028D5
:101F7000F0D01648006A20F44070616808431349A5
:101F80000862012F04D10846C06920F08050C86162
:101F900000BF207800F00200022807D10B484068FB
:101FA00020F44040A168084308494860207800F0C8
:101FB0001000102807D10548406820F480006169AE
:101FC0000843024948600020A1E7000000100240D9
:101FD000007000404004424270B504460D460CB902
:101FE000012070BD5A48006800F00700A8420ED2D8
:101FF0005748006820F00700284355490860084604
:10200000006800F00700A84201D00120E9E720782D
:1020100000F0020002281DD1207800F004000428FE
:1020200005D14C48406840F4E0604A494860207857
:1020300000F00800082805D14648406840F4605088
:10204000444948604348406820F0F000A1680843D4
:1020500040494860207800F0010078B360680128AA
:1020600006D13C48006800F4003090B90120B8E780
:102070006068022806D13748006800F0007040B957
:102080000120AEE73348006800F0020008B90120E3
:10209000A7E73048406820F00300616808432D49F5
:1020A0004860FFF78BFD064609E0FFF787FD801BC0
:1020B00041F28831884202D9032092E707E025489F
:1020C000406800F00C006168B0EB810FEDD1204852
:1020D000006800F00700A8420ED91D48006820F0F3
:1020E000070028431A4908600846006800F0070006
:1020F000A84201D0012074E7207800F004000428F1
:1021000007D11448406820F4E060E16808431149B1
:102110004860207800F00800082808D10D48406881
:1021200020F46050216940EAC1000A49486000F08B
:102130003FF808494968C1F30311074A515CC84098
:102140000649086006480068FFF75EFD002048E782
:102150000020024000100240189200089801002060
:10216000900100200148006870470000980100209D
:1021700000B5FFF7F7FF04494968C1F30221034A9C
:10218000515CC84000BD00000010024028920008C9
:1021900000B5FFF7E7FF04494968C1F3C221034ACC
:1021A000515CC84000BD00000010024028920008A9
:1021B000F0B585B00FF26C0C9CE8E01001A8A0E827
:1021C000E0101CA52D6800950021002200230024AA
:1021D0000020194D696801F00C05F5B1042D02D0FD
:1021E000082D19D101E0154819E001ADC1F383466E
:1021F000AC5D01F4803555B10F4D6D68C5F34045B8
:102200001DF805200D4D6543B5FBF2F302E00C4DC2
:1022100004FB05F3184602E000BF084800BF00BFFA
:1022200005B0F0BD02030405060708090A0B0C0DF2
:102230000E0F1010010200000010024000127A0080
:1022400000093D00F8B504460CB90120F8BD20781E
:1022500000F00100002878D0F848406800F00C0039
:1022600004280CD0F548406800F00C00082811D173
:10227000F248406800F48030B0F5803F0AD1EF4862
:10228000006800F4003000285FD0606800285CD14E
:102290000120DBE700BF6068B0F5803F06D1E7486A
:1022A000006840F48030E549086028E0606858B96B
:1022B000E248006820F48030E04908600846006881
:1022C00020F4802008601AE06068B0F5A02F0BD1E0
:1022D000DA48006840F48020D84908600846006861
:1022E00040F4803008600AE0D448006820F4803070
:1022F000D24908600846006820F48020086000BFCA
:10230000606888B1FFF75AFC054606E0FFF756FC07
:10231000401B642801D9032098E7C848006800F4EE
:1023200000300028F2D010E0FFF748FC054606E038
:10233000FFF744FC401B642801D9032086E7BF480F
:10234000006800F400300028F2D1207800F002008C
:10235000022857D1B948406800F00C0050B1B74886
:10236000406800F00C00082818D1B448406800F418
:10237000803098B9B148006800F0020020B12069AF
:10238000012801D0012061E7AC48006820F0F80086
:10239000616940EAC100A949086033E02069E8B1F9
:1023A0000120A7490860FFF709FC054606E0FFF792
:1023B00005FC401B022801D9032047E79F4800681D
:1023C00000F002000028F2D09C48006820F0F800DD
:1023D000616940EAC1009949086013E0002098490A
:1023E0000860FFF7EBFB054606E0FFF7E7FB401B45
:1023F000022801D9032029E79048006800F0020074
:102400000028F2D1207800F0080008282DD1A0691A
:10241000B8B101208B490860FFF7D0FB054606E004
:10242000FFF7CCFB401B022801D903200EE78348AD
:10243000406A00F002000028F2D0012001F06CF8A0
:1024400013E000207F490860FFF7B8FB054606E06F
:10245000FFF7B4FB401B022801D90320F6E67748BA
:10246000406A00F002000028F2D1207800F0040059
:10247000042873D100277148C06900F0805070B9FA
:1024800000BF6E48C06940F080506C49C861084682
:10249000C06900F08050009000BF00BF01276A486B
:1024A000006800F48070B0B96748006840F480703C
:1024B00065490860FFF782FB054606E0FFF77EFBF3
:1024C000401B642801D90320C0E65F48006800F47F
:1024D00080700028F2D000BFE068012806D157487C
:1024E000006A40F001005549086227E0E06858B9E9
:1024F0005248006A20F00100504908620846006A0C
:1025000020F00400086219E0E06805280BD14B4870
:10251000006A40F00400494908620846006A40F039
:10252000010008620AE04548006A20F001004349C2
:1025300008620846006A20F00400086200BFE068F4
:10254000A0B1FFF73BFB054609E0FFF737FB401B57
:1025500041F28831884202D9032077E622E03748E9
:10256000006A00F002000028EFD012E0FFF726FB1F
:10257000054608E0FFF722FB401B41F28831884204
:1025800001D9032062E62D48006A00F0020000280D
:10259000F0D1012F05D12948C06920F0805027498A
:1025A000C86100BFE069C8B32448406800F00C006F
:1025B000082860D0E069022848D100202049086638
:1025C000FFF7FCFA054606E0FFF7F8FA401B022881
:1025D00001D903203AE61948006800F0007000288D
:1025E000F2D1206AB0F5803F07D11448406820F44A
:1025F0000030A168084311494860D4E90801084344
:102600000E49496821F4741108430C4948600120BF
:102610000B490866FFF7D2FA054607E03DE0FFF7F1
:10262000CDFA401B022801D903200FE603480068B9
:1026300000F000700028F2D02FE0000000100240EF
:1026400000004242800442420070004000201449D1
:102650000866FFF7B3FA054606E0FFF7AFFA401B3E
:10266000022801D90320F1E50E48006800F000704F
:102670000028F2D111E0E069012800D1E6E509481F
:10268000466806F48031206A814204D106F4701154
:10269000606A814201D00120D8E50020D6E5000023
:1026A000000042420010024070B504462546681EF4
:1026B000B0F1807F01D301200FE0681E4FF0E021D0
:1026C00048610F214FF0FF3002F0B4FF00204FF0BF
:1026D000E021886107200861002070BD10B5024626
:1026E00000BF92F83C00012801D1022010BD01205A
:1026F00082F83C0000BF022082F83D001068436869
:102700001068846823F070030868034324F0800491
:10271000486804431068436010688460012082F8B0
:102720003D0000BF002082F83C0000BF00BFDDE795
:1027300010B504460CB9012010BD94F83D0028B92D
:10274000002084F83C00204600F00CF8022084F8B9
:102750003D00211D206802F0F9F9012084F83D00B8
:102760000020E9E738B504462068B0F1804F16D163
:1027700000BF1848C06940F001001649C86108460A
:10278000C06900F00100009000BF00BF00220221DC
:102790001C20FFF79DFA1C20FFF78AFA19E00E496A
:1027A0002068884215D100BF0A48C06940F0020085
:1027B0000849C8610846C06900F00200009000BFE7
:1027C00000BF002202211D20FFF782FA1D20FFF723
:1027D0006FFA38BD0010024000040040014608684E
:1027E000C06840F001000B68D8600868806800F09D
:1027F0000702062A05D00868006840F001000B684F
:102800001860002070472DE9F04104460D4600BFD6
:1028100094F83C00012802D10220BDE8F08101209B
:1028200084F83C0000BF022084F83D0020688668E0
:1028300026F0770626F47F462068866028685028B0
:1028400033D00CDC202850D004DC00284BD01028DA
:1028500051D149E0302849D040284CD139E0602896
:102860002DD0702807D0B0F5805F03D0B0F5005FA1
:1028700041D10DE040E0D5E902136A68206802F01A
:10288000B3F92068866846F077062068866033E0F2
:10289000D5E902136A68206802F0A6F9206880680A
:1028A00040F480402168886026E0EA686968206812
:1028B00002F0AEF95021206802F0A1F91CE0EA68AC
:1028C0006968206802F0B7F96021206802F097F982
:1028D00012E0EA686968206802F09AF940212068ED
:1028E00002F08DF908E000BF00BF00BF2968206832
:1028F00002F085F900E000BF00BF012084F83D0030
:1029000000BF002084F83C0000BF00BF85E770478F
:102910002DE9F0470446206805682068C6682068ED
:1029200047694FF00008C14605F00F08B8F1000FE5
:102930000AD105F0200038B106F0200020B1204671
:1029400002F050FABDE8F087B8F1000F6DD007F043
:10295000010018B906F49070002866D005F0010057
:1029600030B106F4807018B1E06B40F00100E06314
:1029700005F0040030B107F0010018B1E06B40F041
:102980000200E06305F0020030B107F0010018B169
:10299000E06B40F00400E06305F0080030B107F0A0
:1029A000010018B1E06B40F00800E063E06B68B331
:1029B00005F0200028B106F0200010B1204602F0FA
:1029C00011FA20684069C0F38019E06B00F008003C
:1029D00010B9B9F1000F22D0204602F0E3F92068C7
:1029E000406900F04000B0B12068406920F040002C
:1029F00021684861606B50B11748616B4863606B38
:102A0000FEF7A8FB10B1606B416B88470CE02046D5
:102A1000FFF77DFF08E02046FFF779FF04E020463E
:102A2000FFF775FF0020E0638CE705F0800030B110
:102A300006F0800018B1204602F0F8FA82E705F0AF
:102A4000400030B106F0400018B1204602F0BAF95B
:102A500078E700BF76E70000914D000810B5044606
:102A60000CB9012010BDA06900B100E000BF94F8CE
:102A7000390028B9002084F83800204600F028F8F2
:102A8000242084F839002068C06820F400502168B0
:102A9000C860204602F0FAF92068006920F49040EE
:102AA000216808612068406920F02A002168486197
:102AB0002068C06840F400502168C8600020E063CE
:102AC000202084F8390084F83A000020CAE700008A
:102AD00010B586B004460020029003900490059043
:102AE0008D492068884243D100BF8C48C06940F4BA
:102AF00080108A49C8610846C06900F480100190BE
:102B000000BF00BF00BF0846806940F01000886128
:102B10000846806900F01000019000BF00BF00BFB0
:102B20000846806940F0200088610846806900F00E
:102B30002000019000BF00BF881402900220039083
:102B40000320059002A97648FEF78AFE0420029031
:102B500000200390049002A97248FEF781FE012232
:102B600003213520FFF7B4F83520FFF7A1F8D1E0B5
:102B70006D492068884243D100BF6848806940F4AD
:102B80008040664988610846806900F48040019071
:102B900000BF00BF00BF0846806940F004008861A4
:102BA0000846806900F00400019000BF00BF48158E
:102BB000029002200390012004900320059002A9B6
:102BC0005A48FEF74DFE4FF48060029000200390BB
:102BD000049002A95548FEF743FE6FF020002168DB
:102BE0000860002203212520FFF772F82520FFF757
:102BF0005FF82068C06840F020002168C86089E064
:102C00004B492068884240D100BF4448C06940F425
:102C100000304249C8610846C06900F400300190A4
:102C200000BF00BF00BF0846806940F00400886113
:102C30000846806900F00400019000BF00BF042036
:102C40000290022003900320059002A93748FEF766
:102C500007FE0820029000200390049002A9334848
:102C6000FEF7FEFD6FF020002168086001220321BD
:102C70002620FFF72DF82620FFF71AF82068C068F5
:102C800040F020002168C86044E02A49206888425A
:102C900040D100BF2148C06940F480201F49C8616D
:102CA0000846C06900F48020019000BF00BF00BF4B
:102CB0000846806940F0080088610846806900F095
:102CC0000800019000BF00BF081502900220039089
:102CD0000320059002A91848FEF7C2FD4FF40060DA
:102CE000029000200390049002A91348FEF7B8FD5B
:102CF0006FF0200021680860012203212720FEF7E1
:102D0000E7FF2720FEF7D4FF2068C06840F02000CE
:102D10002168C86006B010BD00500040001002409D
:102D2000001001400014014000380140000801403B
:102D30000044004000480040000C01402DE9F843E9
:102D400004460D4616461F464FF0000994F83A0017
:102D5000202860D105B116B90120BDE8F88300BF75
:102D600094F83800012801D10220F6E7012084F808
:102D7000380000BF0020E063222084F83A00FEF70C
:102D80001DFF8146A685E68539E0E08D401EE08581
:102D9000A068B0F5805F1BD14B4600222021204661
:102DA000009702F077F908B10320D6E7A84620691A
:102DB00038B920684068C0F30800A8F80000AD1CCE
:102DC0001DE020684068C0B2A8F800006D1C16E045
:102DD0004B46002220212046009702F05BF908B103
:102DE0000320BAE7206920B92068406805F8010B84
:102DF00005E02068406800F07F0005F8010BE08DD9
:102E00000028C2D1202084F83A0000BF002084F8B6
:102E1000380000BFA1E702209FE770472DE9F84383
:102E200004460D4616461F464FF0000994F8390037
:102E300020285CD105B116B90120BDE8F88300BF98
:102E400094F83800012801D10220F6E7012084F827
:102E5000380000BF0020E063212084F83900FEF72D
:102E6000ADFE8146A684E6842BE0E08C401EE08423
:102E7000A068B0F5805F16D14B4600228021204625
:102E8000009702F007F908B10320D6E7A846B8F882
:102E90000000C0F3080021684860206908B9AD1C33
:102EA0000FE06D1C0DE04B4600228021204600976C
:102EB00002F0F0F808B10320BFE715F8010B216814
:102EC0004860E08C0028D0D14B46002240212046AB
:102ED000009702F0DFF808B10320AEE7202084F865
:102EE000390000BF002084F8380000BFA5E70220A9
:102EF000A3E7704700BFFEE700B585B00020019052
:102F000002900390049000BF0F48806940F00800D1
:102F10000D4988610846806900F00800009000BFF4
:102F200000BF0122C0210948FEF742FEC0200190E7
:102F300011200290012003900320049001A903486E
:102F4000FEF78EFC05B000BD00100240000C0140F1
:102F50002DE9F04104460E4617464FF000080020C8
:102F60002070012280212A48FEF722FE012000F075
:102F700023F980251FE0012240212548FEF718FE95
:102F80000120FDF702FD384600F0A8F88046032036
:102F9000FDF7FBFC80211E48FEF702FE10B12078F1
:102FA00028432070002240211948FEF701FE01202D
:102FB000FDF7EBFC6D10002DDDDC002000F0FCF8CF
:102FC0002EB9002280211248FEF7F2FD04E0012212
:102FD00080210F48FEF7ECFD0120FDF7D6FC012211
:102FE00040210B48FEF7E4FD0520FDF7CEFC002252
:102FF00040210748FEF7DCFD012280210448FEF74E
:10300000D7FD1420FDF7C1FC4046BDE8F08100006B
:10301000000C01401FB50446002000900190029072
:10302000039040200090012C02D01120019001E07B
:10303000002001900120029003200390694602487D
:10304000FEF70EFC1FBD0000000C014010B5012270
:1030500080210F48FEF7ACFD0120FDF796FC012210
:1030600040210B48FEF7A4FD0120FDF78EFC002255
:1030700080210748FEF79CFD0A20FDF786FC002210
:1030800040210348FEF794FD0A20FDF77EFC10BDA9
:10309000000C014010B5002240210F48FEF788FDCA
:1030A0000120FDF772FC002280210B48FEF780FD15
:1030B0000120FDF76AFC012240210748FEF778FD58
:1030C0000A20FDF762FC012280210348FEF770FD13
:1030D0000A20FDF75AFC10BD000C014070B50446F3
:1030E00000250120FFF796FF0AE0201EA4F1010150
:1030F000CCB201D1042070BD4FF47A70FDF745FCCD
:1031000040210548FEF74CFD0028EED00020FFF7D7
:1031100081FF2846EFE70000000C014070B505462E
:103120000026802421E004EA050028B9002280213D
:103130002048FEF73DFD04E0012280211D48FEF7F6
:1031400037FD0120FDF721FC012240211948FEF73F
:103150002FFD0520FDF719FC002240211548FEF740
:1031600027FD0120FDF711FC6410002CDBDC01229F
:1031700080211048FEF71CFD012240210D48FEF77A
:1031800017FD0120FDF701FC012000F015F880215A
:103190000848FEF705FD00B1012600224021054840
:1031A000FEF706FD1420FDF7F0FB002000F004F808
:1031B000304670BD000C01401FB504460020009051
:1031C00001900290039080200090012C02D01120E9
:1031D000019001E000200190012002900320039063
:1031E00069460248FEF73CFB1FBD0000000C014091
:1031F00000B585B00020019002900390049000BFBC
:103200000C48806940F004000A49886108468069DA
:1032100000F00400009000BF00BF022001900120D8
:1032200002900390049001A90348FEF719FB05B032
:1032300000BD000000100240000801400EB5002053
:103240000090019002901248124908600021114834
:103250008160017301754FF46021C16100200D4947
:10326000486001210B480161FDF71CFD08B1FDF725
:1032700096FB0020009001200190072002906946F3
:103280000448FDF75BFC08B1FDF789FB0EBD0000AB
:10329000002401403802002000B585B000200190D4
:1032A00002900390049000BF4248806940F04000C3
:1032B000404988610846806900F04000009000BFE6
:1032C00000BF00BF0846806940F0100088610846D2
:1032D000806900F01000009000BF00BF00BF0846EA
:1032E000806940F0040088610846806900F00400AD
:1032F000009000BF00BF00BF0846806940F0080092
:1033000088610846806900F00800009000BF00BF97
:1033100000BF0846806940F0200088610846806947
:1033200000F02000009000BF00BF0122FF212248D2
:10333000FEF73EFC00224FF480712048FEF738FC77
:10334000FF200190012002900020039003200490B0
:1033500001A91948FEF784FA4FF4005001900020AB
:103360000290039001A91648FEF77AFA0220019014
:10337000002002900120039001A91048FEF770FA86
:103380004FF40050019000200290039001A90D48D5
:10339000FEF766FA4FF48070019001200290002041
:1033A00003900320049001A90448FEF759FA05B0E0
:1033B00000BD00000010024000180140000801405C
:1033C000001001400014014000B587B000200390B8
:1033D00004900590069001900290164816490860E6
:1033E0004FF6FF7048600021134881606421C1607E
:1033F000002101618161FFF79BF908B1FDF7CFFA68
:103400004FF48050039003A90B48FFF7FCF908B173
:10341000FDF7C5FA00200190029001A90648FFF7C8
:103420005DF908B1FDF7BBFA0348FFF7D7F907B01C
:1034300000BD000000040040AC02002010B50446AE
:1034400009480A4908600846446000218160C1605B
:1034500001610C21416100218161C161FFF7FEFA28
:1034600008B1FDF79CFA10BD00500040EC020020AE
:1034700010B50B480B4908604FF4E130486000215B
:1034800008488160C16001610C21416100218161B6
:10349000C161FFF7E3FA08B1FDF781FA10BD000042
:1034A000003801402C03002010B5044609480A49A1
:1034B00008600846446000218160C16001610C2100
:1034C000416100218161C161FFF7C8FA08B1FDF7D0
:1034D00066FA10BD004400406C03002010B504469D
:1034E00009480A4908600846446000218160C160BB
:1034F00001610C21416100218161C161FFF7AEFAD8
:1035000008B1FDF74CFA10BD00480040AC030020A4
:1035100000BFFEE77047704708B508490968C90849
:103520004FF47A72B1FBF2F14143009100BF00BF4A
:1035300000994A1E00920029F9D108BD9801002087
:103540001FB504462046FFF7AFFF00200090019012
:10355000029003904FF40070009001200190002031
:1035600002900320039069460448FEF779F900228F
:103570004FF400710148FEF71BFB1FBD0010014016
:1035800070B504460D46012251020A48FEF710FBB1
:103590004FF6FF732A4621460748FFF73FFC0A20F3
:1035A000FEF778F800224FF400710248FEF700FBA6
:1035B00070BD0000001001406C0300201FB50446E0
:1035C0002046FFF78BFF00200090019002900390AF
:1035D0004FF4006000900120019000200290032031
:1035E000039069460448FEF73BF900224FF400615E
:1035F0000148FEF7DDFA1FBD0014014010B5044676
:103600000122D1020A48FEF7D3FA03E0207801F044
:1036100069FB641C20780028F8D10A20FEF73AF8EC
:1036200000224FF400610248FEF7C2FA10BD00000C
:10363000001401401FB504462046FFF7FFFE00209E
:1036400000900190029003900120009001900020D2
:1036500002900320039069460448FEF701F9002216
:1036600001210248FEF7A4FA1FBD0000001401402A
:1036700010B50446012211460948FEF799FA03E005
:10368000207801F079FB641C20780028F8D10A200A
:10369000FEF700F8002201210148FEF789FA10BD6B
:1036A0000014014010B50446012251020A48FEF7F9
:1036B0007FFA03E0207801F009FB641C20780028E1
:1036C000F8D10A20FDF7E6FF00224FF4007102480E
:1036D000FEF76EFA10BD00000010014070B588B012
:1036E0000446012C20D17CA0FFF7DCFF00BF5C2149
:1036F0007DA0FCF757FF28B15C217BA0FCF752FFAF
:10370000401C00E078A00546FEF758FA0646222045
:103710007B4B2A46314600907AA0FCF7BBFD00BFE8
:103720003220FDF7B7FFD5E0022C20D181A0FFF7B2
:1037300065FF00BF5C216CA0FCF734FF28B15C2161
:1037400069A0FCF72FFF401C00E067A00546FEF7CC
:1037500035FA064627206A4B2A463146009079A062
:10376000FCF798FD00BF3220FDF794FFB2E0032C78
:1037700020D180A0FFF77CFF00BF5C215AA0FCF79E
:1037800011FF28B15C2158A0FCF70CFF401C00E0A1
:1037900055A00546FEF712FA06462C20584B2A463D
:1037A0003146009077A0FCF775FD00BF3220FDF791
:1037B00071FF8FE0042C2DD1052206A97D4802F06F
:1037C0007DFD00BF5C2148A0FCF7ECFE28B15C2128
:1037D00045A0FCF7E7FE401C00E043A00546FEF7CD
:1037E000EDF906469DF81C009DF81B109DF81A2067
:1037F0009DF81930CDE90232CDE904109DF818008A
:1038000030213F4B2A46CDE9001031466A48FCF78B
:1038100041FD5FE0052C2DD1052206A9674802F085
:103820004DFD00BF5C2130A0FCF7BCFE28B15C213F
:103830002DA0FCF7B7FE401C00E02BA00546FEF7CC
:10384000BDF906469DF81C009DF81B109DF81A2036
:103850009DF81930CDE90232CDE904109DF8180029
:103860003421274B2A46CDE9001031465248FCF757
:1038700011FD2FE0062C2DD1052206A9504802F09B
:103880001DFD00BF5C2118A0FCF78CFE28B15C2157
:1038900015A0FCF787FE401C00E013A00546FEF7CC
:1038A0008DF906469DF81C109DF81B209DF81A0006
:1038B0009DF81930CDE90230CDE904219DF81800BA
:1038C00038210F4B2A46CDE9001031463A48FCF723
:1038D000E1FC00BF08B070BD7465737431313131E3
:1038E0003131200D0A0000002E2E5C5372635C54AF
:1038F0004553545C6170705F746573742E6300008F
:103900003E8E00085B256C645D5B2538735D5B252E
:1039100038735D5B252D33645D5B494E464F5D3AE0
:1039200020B2E2CAD4343835CDA8B5C031B7A2CB65
:10393000CD0D0A00746573743232323232320D0AA0
:10394000000000005B256C645D5B2538735D5B25C2
:1039500038735D5B252D33645D5B494E464F5D3AA0
:1039600020B2E2CAD4343835CDA8B5C032B7A2CB24
:10397000CD0D0A00746573743333333333200D0A6D
:10398000000000005B256C645D5B2538735D5B2582
:1039900038735D5B252D33645D5B494E464F5D3A60
:1039A00020B2E2CAD4343835CDA8B5C033B7A2CBE3
:1039B000CD0D0A00A4010020A8930008BC0100203E
:1039C000D40100202DE9F0478AB00024A04600274A
:1039D0009F480068807806029D480068C0780643CA
:1039E0009B480068007905029948006840790543C2
:1039F00000BF5C2197A0FCF7D5FD28B15C2195A004
:103A0000FCF7D0FD401C00E092A08146FEF7D6F8FE
:103A100082462420974B4A465146CDE901650090E5
:103A20009548FCF737FC00BF012D78DB032D76DAD3
:103A3000052E75DC9148007805A90855601CC4B2B4
:103A400002200855601CC4B205F0070040B12846AA
:103A5000E91705EB5171C910491C01F0FF0805E099
:103A60002846E91705EB5171C1F3C70805A800F80E
:103A70000480601CC4B200BF5C2176A0FCF792FDFC
:103A800028B15C2173A0FCF78DFD401C00E071A003
:103A90008146FEF793F882469DF814003521754B58
:103AA0004A46CDE90010514675A0FCF7F3FB00BF74
:103AB00000BF5C2167A0FCF775FD28B15C2165A003
:103AC000FCF770FD401C00E062A08146FEF776F82E
:103AD00082469DF815003621664B4A46CDE9001016
:103AE000514672A0FCF7D6FB00BF00BF5C2159A075
:103AF000FCF758FD28B15C2156A0FCF753FD401C93
:103B000000E054A08146FEF759F882469DF8160061
:103B10003721584B4A46CDE90010514601E091E06B
:103B200094E06DA0FCF7B6FB00BF00BF5C2149A08C
:103B3000FCF738FD28B15C2146A0FCF733FD401CA2
:103B400000E044A08146FEF739F882463820494B10
:103B50004A465146CDE9016500906B48FCF79AFB57
:103B600000BF36B96948007800F0010005A9085582
:103B700010E0012E06D165480078C0F3400005A989
:103B8000085507E0022E05D160480078C0F3800098
:103B900005A90855601CC4B22D48C07930B1012870
:103BA0000AD002280ED0032818D111E0214605A81A
:103BB00002F03CFE074611E0214605A802F04EFE49
:103BC00007460BE0214605A802F01EFE074605E069
:103BD000214605A802F0F4FD074600BF00BF1C48BF
:103BE000C079032828D1380A05A90855601CC4B239
:103BF0000F5500BF5C2117A0FCF7D4FC28B15C2155
:103C000014A0FCF7CFFC401C00E012A08146FDF799
:103C1000D5FF824605A8005D611E05AA515CCDE96D
:103C20000174CDE903106420124B4A4651460090BE
:103C30003748FCF72FFB00BF601CC1B205A8FFF797
:103C40009FFC03E001200AB0BDE8F0870020FAE7FE
:103C5000700100202E2E5C5372635C6D6F64627580
:103C600073736C6176655C66756E63646973632EED
:103C700063000000B48E0008589400085001002032
:103C80005B256C645D5B2538735D5B2538735D5B1C
:103C9000252D33645D5B494E464F5D3A2061646477
:103CA00072657373203A2025640D0A005B256C64ED
:103CB0005D5B2538735D5B2538735D5B252D336453
:103CC0005D5B494E464F5D3A2066756E63203A2033
:103CD00025640D0A000000005B256C645D5B2538DF
:103CE000735D5B2538735D5B252D33645D5B494EE9
:103CF000464F5D3A2073656E645F62797465203A61
:103D000025640D0A000000009C9400085C0100205E
:103D1000E09400082DE9F04F8BB00024A0469548B0
:103D200000688078060293480068C078064391488E
:103D30000068007905028F48006840790543DFF884
:103D4000389200BF5C218DA0FCF72CFC28B15C21CF
:103D50008AA0FCF727FC401C00E088A08246FDF703
:103D60002DFF83461D208E4B52465946CDE90165F5
:103D700000908C48FCF78EFA00BF012D75DB042DF6
:103D800073DA032E72DC8848007806A90855601C97
:103D9000C4B203200855601CC4B26806000E085562
:103DA000601CC4B200BF5C2174A0FCF7FBFB28B10F
:103DB0005C2172A0FCF7F6FB401C00E06FA082467D
:103DC000FDF7FCFE83469DF818002621744B5246F1
:103DD000CDE90010594675A0FCF75CFA00BF00BFA2
:103DE0005C2166A0FCF7DEFB28B15C2163A0FCF738
:103DF000D9FB401C00E061A08246FDF7DFFE834650
:103E00009DF819002721664B5246CDE9001059460E
:103E100071A0FCF73FFA00BF00BF5C2157A0FCF780
:103E2000C1FB28B15C2155A0FCF7BCFB401C00E0A5
:103E300052A08246FDF7C2FE83469DF81A00282153
:103E4000574B5246CDE9001059466EA0FCF722FAB6
:103E500000BF00BF5C2149A0FCF7A4FB38B15C2186
:103E600046A0FCF79FFB401C02E07DE080E043A001
:103E70008246FDF7A3FE83462920494B5246594608
:103E8000CDE9016500906B48FCF704FA00BF3046AD
:103E900087B20FE039F81700001206A90855601C18
:103EA000C4B219F817000855601CC4B2781C87B258
:103EB000681E85B2002DEDDC2E48C07930B1012896
:103EC0000AD002280ED0032818D111E0214606A8F6
:103ED00002F0ACFC804611E0214606A802F0BEFCD0
:103EE00080460BE0214606A802F08EFC804605E0E5
:103EF000214606A802F064FC804600BF00BF1D48B2
:103F0000C07903282AD14FEA182006A90855601C59
:103F1000C4B201F8048000BF5C2118A0FCF742FB8A
:103F200028B15C2115A0FCF73DFB401C00E013A06C
:103F30008246FDF743FE834606A8005D611E06AA81
:103F4000515CCDE90184CDE903104620144B524663
:103F5000594600903848FCF79DF900BF601CC1B27B
:103F600006A8FFF70DFB03E001200BB0BDE8F08FC2
:103F70000020FAE770010020600100202E2E5C5323
:103F800072635C6D6F64627573736C6176655C6897
:103F90006F6C6472656769737465722E63000000EC
:103FA000C58E000858940008500100205B256C6401
:103FB0005D5B2538735D5B2538735D5B252D336450
:103FC0005D5B494E464F5D3A206164647265737370
:103FD000203A2025640D0A005B256C645D5B253862
:103FE000735D5B2538735D5B252D33645D5B494EE6
:103FF000464F5D3A2066756E63203A2025640D0AAF
:10400000000000005B256C645D5B2538735D5B25FB
:1040100038735D5B252D33645D5B494E464F5D3AD9
:10402000207265616420636E74203A2025640D0A55
:10403000000000009C940008E09400082DE9F04F77
:104040008BB00024A0469648006880780602944809
:104050000068C078064392480068007905029048DD
:10406000006840790543DFF83C9200BF5C218EA0D8
:10407000FCF798FA28B15C218BA0FCF793FA401C5E
:1040800000E089A08246FDF799FD834621208F4BF1
:1040900052465946CDE9016500908D48FCF7FAF883
:1040A00000BF012D77DB042D75DA002E74DB032EA3
:1040B00072DC8848007806A90855601CC4B2042048
:1040C0000855601CC4B26806000E0855601CC4B2D6
:1040D00000BF5C2174A0FCF765FA28B15C2172A0D6
:1040E000FCF760FA401C00E06FA08246FDF766FD19
:1040F00083469DF818002A21744B5246CDE90010E2
:10410000594675A0FCF7C6F800BF00BF5C2166A049
:10411000FCF748FA28B15C2163A0FCF743FA401C85
:1041200000E061A08246FDF749FD83469DF8190035
:104130002B21664B5246CDE90010594671A0FCF781
:10414000A9F800BF00BF5C2157A0FCF72BFA28B1EB
:104150005C2155A0FCF726FA401C00E052A08246E4
:10416000FDF72CFD83469DF81A002C21574B524633
:10417000CDE9001059466EA0FCF78CF800BF00BFD7
:104180005C2149A0FCF70EFA38B15C2146A0FCF78F
:1041900009FA401C02E07DE080E043A08246FDF782
:1041A0000DFD83462D20494B52465946CDE9016508
:1041B00000906B48FCF76EF800BF304687B20FE006
:1041C00039F81700001206A90855601CC4B219F886
:1041D00017000855601CC4B2781C87B2681E85B2EF
:1041E000002DEDDC2E48C07930B101280AD002281C
:1041F0000ED0032818D111E0214606A802F016FBC4
:10420000804611E0214606A802F028FB80460BE01C
:10421000214606A802F0F8FA804605E0214606A8E5
:1042200002F0CEFA804600BF00BF1D48C0790328C7
:104230002AD14FEA182006A90855601CC4B201F81B
:10424000048000BF5C2118A0FCF7ACF928B15C2108
:1042500015A0FCF7A7F9401C00E013A08246FDF76B
:10426000ADFC834606A8005D611E06AA515CCDE93F
:104270000184CDE903104B20144B5246594600905F
:104280003848FCF707F800BF601CC1B206A8FFF76A
:1042900077F903E001200BB0BDE8F08F0020FAE7CA
:1042A00070010020660100202E2E5C5372635C6D4D
:1042B0006F64627573736C6176655C696E7075743A
:1042C00072656769737465722E630000E88E00087A
:1042D00058940008500100205B256C645D5B253814
:1042E000735D5B2538735D5B252D33645D5B494EE3
:1042F000464F5D3A2061646472657373203A2025ED
:10430000640D0A005B256C645D5B2538735D5B257D
:1043100038735D5B252D33645D5B494E464F5D3AD6
:104320002066756E63203A2025640D0A00000000A7
:104330005B256C645D5B2538735D5B2538735D5B65
:10434000252D33645D5B494E464F5D3A20726561B1
:104350006420636E74203A2025640D0A000000007A
:104360009C940008E094000810B500F0AFFA02F049
:10437000F3FC02F0B5FD4FF47A5000F097FA10BD4F
:1043800030B502460B46FF20002113E0555C684023
:1043900008240BE000F0800525B1312585EA4005B1
:1043A000E8B201E04506280E651EECB2002CF1DCF7
:1043B0004D1CE9B29942E9DB30BD000070B50446FE
:1043C000204604F081FB0646034904F0C5FB054680
:1043D000024904F07BFA70BD0000C84200FF7F472D
:1043E0002DE9F0410446204604F06EFB07460649DD
:1043F00004F0B2FB0646054904F068FA0546044994
:1044000004F0A8FCBDE8F08100002F4300FF7F47C7
:10441000000034422DE9F04105460E46144631466F
:104420002846FFF7ADFF0746A74202D00220BDE8AD
:10443000F0810020FBE72DE9F04706460F46904645
:104440001D46DDF8209015B1012D10D107E04B4637
:1044500042463946304600F010F8044609E04B4623
:1044600042463946304600F052F8044601E08024C6
:1044700000BF00BF2046BDE8F0872DE9FC4105469E
:104480000E461746984600F025F90446CCB97FB190
:10449000012F07D0022F11D142F6104000F02CF965
:1044A00004460DE042F60D4000F026F9044607E010
:1044B00042F6064000F020F9044601E0802400BFE7
:1044C00000BF44F62060FCF760FA14B900F0F2F87F
:1044D00004462CB94246002101A800F0A7F8044682
:1044E0002CB900220121684600F0A0F8044600F033
:1044F000FFF84CB9BDF80400FFF772FF2860BDF863
:104500000000FFF75BFF30602046BDE8FC812DE92D
:10451000FC4106460F4690461D4600F0DBF8044677
:10452000ECB9B8F1000F11D0B8F1010F08D0B8F113
:10453000020F11D142F2164000F0DEF804460DE001
:1045400042F20B4000F0D8F8044607E04FF4105058
:1045500000F0D2F8044601E0802400BF00BF44F61A
:104560002060FCF712FA8CB908E000F0A3F80446CA
:1045700004B908E04FF47A70FCF707FA281EA5F199
:104580000101CDB2F1D100BF05B904245CB900220C
:10459000114601A800F04AF80443002201216846B0
:1045A00000F044F8044300F0A3F84CB9BDF804004F
:1045B000FFF716FF3060BDF80000FFF7FFFE386020
:1045C0002046BDE8FC81000010B50448FCF7DDF989
:1045D0004CF25030FCF7D9F910BD0000A086010064
:1045E00038B504460025FEF787FC204600F04AF85F
:1045F00000F04EF84CF25030FCF7C7F9684600F076
:1046000087F8054602A00099FBF744FE284638BD0E
:1046100053485433582053657269616C204E756D50
:10462000626572203D20256C750D0A002DE9FC4164
:1046300005460E4617463A46002101A8FEF788FCBB
:10464000044634B9002211460DF10500FEF780FC46
:1046500004462CB9002231466846FEF779FC044630
:1046600034B99DF80020022101A8FFF7D3FE0446CB
:104670009DF805009DF8041040EA0120288020469E
:10468000BDE8FC810149087070470000F501002079
:1046900010B500F01FF8044643F2A20000F02CF819
:1046A000044300F025F81CB94CF25030FCF76DF9CA
:1046B000204610BD10B5FEF7C9FC05490978012256
:1046C00002EB4101C8B2FEF729FD0446204610BDA9
:1046D000F501002010B5FEF7B9FC04490978490638
:1046E000080EFEF71BFD0446204610BDF501002014
:1046F00010B5FEF7CFFC10BD70B504462012FEF7D2
:104700000DFD0546E0B2FEF709FD0543284670BDE4
:1047100038B50546FFF7DEFF04464FF45E50FFF75D
:10472000EBFF044314B9FFF7C5FF04462CB964221C
:1047300000216846FFF77AFF044634B900220121C0
:104740000DF10200FFF772FF0446FFF7D1FF34B905
:10475000BDF80200BDF8001040EA01402860204684
:1047600038BD000010B54420FFF73AFF04462CB1D5
:10477000FFF7FAFD00200849087002E00120064911
:1047800008700548007818B104A0FBF783FD02E02B
:1047900009A0FBF77FFD10BDF4010020CEC2CAAA1C
:1047A000B6C8B4ABB8D0C6F7D0CDBAC5A3BA5348D3
:1047B0005433580D0A000000CEC2CAAAB6C8B4AB22
:1047C000B8D0C6F7D0CDBAC5A3BA53485431580DA6
:1047D0000A0000002DE9FE4304460D4621480078FA
:1047E000002832D0002632200123002201A90090A7
:1047F00002A8FFF720FE06462EB1FFF749FF064646
:104800000EB1FFF7E1FE1849029804F0A5F98146C0
:10481000164903F0EDFF8046134904F057F80746A8
:1048200004F016F940B220700F49019804F094F991
:1048300081460E4903F0DCFF80460B4904F046F840
:10484000074604F021F9287009E001A902A801F047
:104850002BF9029840B220700198287000BFBDE883
:10486000FE830000F4010020000020410000A04071
:10487000704700001FB50446002000900190029090
:10488000039080200090012C02D01120019001E0C3
:104890000020019001200290032003906946024805
:1048A000FCF7DEFF1FBD0000000C0140002109E005
:1048B000002204E000BF00BF00BF00BF521C082A56
:1048C000F8D3491C8142F3D37047000000B585B08E
:1048D0000020019002900390049000BF0F4880696F
:1048E00040F008000D4988610846806900F0080022
:1048F000009000BF00BF0122C0210948FDF758F910
:10490000C020019011200290012003900320049008
:1049100001A90348FCF7A4FF05B000BD0010024048
:10492000000C014010B502210148FDF739F910BD16
:104930000008014010B5FDF747F910BD00B595B06E
:1049400028210BA8FBF77EFE142106A8FBF77AFEB0
:1049500018216846FBF776FE09200B904FF4803053
:104960000C9000200D9001200F90119002201290C9
:10497000C10313914FF4E01114910BA8FDF762FCF1
:1049800008B1FCF70CF80F200690022007900020D9
:1049900008904FF48060099000200A90022106A838
:1049A000FDF71AFB08B1FBF7FAFF02200090800325
:1049B00002906846FDF778FA08B1FBF7F0FF15B0F2
:1049C00000BD00001148006840F001000F49086078
:1049D000084640680E4908400C494860084600688F
:1049E0000C490840094908600846006820F4802006
:1049F00008600846406820F4FE0048604FF41F003D
:104A00008860C80304490860704700000010024035
:104A10000000FFF8FFFFF6FE08ED00E010B50E48BD
:104A20000068C06800F0010078B10C49086980474F
:104A3000002009490968486200BF642006490968E6
:104A4000C86264210448C16000BF6FF001000249E0
:104A50000968086110BD0000F80100205400002022
:104A600010B533480068C06800F00100002858D035
:104A700030480088012818D12F480078401C2E4962
:104A800008700846007804280FDD002029490880B6
:104A90002949087029488088052803DB0120274917
:104AA000887102E000202549888024488079012807
:104AB00018D120480088A8B921480078401C204916
:104AC000087008460078C8280CDD002008701B49D3
:104AD00040F205120868002102F034F9002017495D
:104AE000888088711748008801280DD11648007801
:104AF000401C1549087008460078032804DD002092
:104B00001049088010490870002009490968486266
:104B100000BF0A2006490968C8620A210448C1602A
:104B200000BF6FF0010002490968086110BD000074
:104B3000AC020020A00100209C0100207001002098
:104B40004E010020B80100209D01002010B5026830
:104B5000204B98420ED0204B98420BD0B0F1804FA2
:104B600008D01E4B984205D01D4B984202D01D4BD9
:104B7000984203D122F070024B681A43154B9842B9
:104B80000ED0154B98420BD0B0F1804F08D0134B8C
:104B9000984205D0124B984202D0124B984203D152
:104BA00022F44072CB681A4322F080034C6943EA36
:104BB000040202608B68C3620B688362054B9842F3
:104BC00002D0054B984201D10B6903630123436175
:104BD00010BD0000002C01400034014000040040E2
:104BE00000080040000C004030B50C46816821F4FC
:104BF0007F4142EA032525432943816030BD0A46AF
:104C0000816821F0700142F0070319438160704709
:104C100030B50B461446026A056A25F001050562A7
:104C2000816921F0F00141EA041122F00A021A43DD
:104C30008161026230BD30B50B461446056A25F02D
:104C4000100505628169026A21F4704141EA04316C
:104C500022F0A00242EA03128161026230BD00002C
:104C600030B587B005460C460020039004900590AF
:104C70000690019002904FF080401349086008466A
:104C8000446000218160C56001618161FDF750FDD4
:104C900008B1FBF784FE4FF48050039003A90A4843
:104CA000FDF7B1FD08B1FBF77AFE002001900290FC
:104CB00001A90548FDF712FD08B1FBF770FE024897
:104CC000FDF78CFD07B030BDF801002001B54FF6AF
:104CD000FF73012269460248FEF7A0F808BD0000F4
:104CE0006C03002001B54FF6FF73012269460248AC
:104CF000FEF794F808BD0000AC03002008B5194881
:104D000000680068C0F3401038B3012016490880DD
:104D10000020164908704FF47A7301226946114841
:104D2000FEF70CF81248807990B99DF80000104900
:104D300009680F4A928888540D488088401C0C49A5
:104D4000888008468088B0F5827F01DD0020888059
:104D500001226946074801F0E8FA0248FDF7D8FD4C
:104D600008BD0000EC020020D00100209E010020C0
:104D700070010020D401002001B54FF6FF7301221D
:104D800069460248FEF74AF808BD0000EC02002020
:104D900070B505466C6A0020E085E0842046FDF78A
:104DA000B6FD70BD0168C96821F490710268D160D8
:104DB0000168496921F0010102685161202180F8F0
:104DC0003A10704710B504462068C06820F04000D3
:104DD0002168C860202084F839002046FEF789F851
:104DE000002010BD70B5044694F83A0022284AD13C
:104DF000A068B0F5805F13D1A56A206940B920682A
:104E00004068C0F308002880A06A801CA06219E0F6
:104E100020684068C0B22880A06A401CA06211E0EF
:104E2000206938B920684068C1B2A26A501CA062EB
:104E3000117007E02068406800F07F01A26A501CF2
:104E4000A0621170E08D401E80B2E085C8B9206874
:104E5000C06820F020002168C8602068C06820F485
:104E600080702168C8602068406920F001002168D6
:104E70004861202084F83A002046FDF7CEFF00204C
:104E800070BD0020FCE70220FAE7000070B5044680
:104E90002168096921F44051E268114322681161D7
:104EA0002269A1681143626941EA02052168C96863
:104EB00041F20C62914329432268D160216849691B
:104EC00021F44071A269114322685161564A216858
:104ED000914254D1FDF75CF900EBC00101EB0011E8
:104EE00062689200B1FBF2F100EBC00202EB00122B
:104EF00063689B00B2FBF3F26423B2FBF3F202EBB4
:104F0000C20303EB0212A1EB8201322202EB011178
:104F10006422B1FBF2F101F0F00100EBC00202EB00
:104F2000001263689B00B2FBF3F26423B2FBF3F25E
:104F300001EB021200EBC00101EB001163689B0062
:104F4000B1FBF3F100EBC00303EB00136668B6009E
:104F5000B3FBF6F36426B3FBF6F303EBC30606EBF1
:104F60000313A1EB8301322303EB01116423B1FB93
:104F7000F3F101F00F0111442268916053E0FDF755
:104F8000F7F800EBC00101EB001162689200B1FB81
:104F9000F2F100EBC00202EB001263689B00B2FB6F
:104FA000F3F26423B2FBF3F202EBC20303EB02124F
:104FB000A1EB8201322202EB01116422B1FBF2F17A
:104FC00001F0F00100EBC00202EB001263689B00ED
:104FD000B2FBF3F26423B2FBF3F201EB021200EB3B
:104FE000C00101EB001163689B00B1FBF3F100EB22
:104FF000C00303EB00136668B600B3FBF6F3642648
:10500000B3FBF6F303EBC30606EB0313A1EB83013B
:10501000322303EB01116423B1FBF3F101F00F0123
:1050200011442268916070BD00380140014691F83A
:10503000390021282CD18868B0F5805F0FD10A6A29
:105040001088C0F308000B685860086918B9086A2E
:10505000801C086209E0086A401C086205E00B6ACF
:10506000581C086218780B685860C88C401E80B2C3
:10507000C88458B90868C06820F080000B68D86000
:105080000868C06840F040000B68D8600020704796
:105090000220FCE72DE9F04104460D4617469846EC
:1050A000069E21E0701CF8B12EB1FCF787FDA0EB45
:1050B0000800B04218D92068C06820F4D070216878
:1050C000C8602068406920F0010021684861202004
:1050D00084F8390084F83A0000BF002084F83800D2
:1050E00000BF0320BDE8F081206800682840A84286
:1050F00001D1012000E00020B842D3D00020F1E728
:1051000008B5244800680068C0F3401048B34FF465
:105110007A73012269461F48FDF710FE1E48008879
:1051200000F40040E8B91C48008800F4804070B1E9
:105130009DF800000A2803D000201749088024E0C9
:105140001548008840F40040134908801DE09DF890
:1051500000000D2806D11048008840F480400E4918
:10516000088012E09DF800000B490988C1F30D0189
:105170000A4A505408480088401C074908800846DD
:105180000088C72801DD002008800248FDF7C0FB29
:1051900008BD00002C0300204C010020EC0300207F
:1051A00008B5194800680068C0F3401038B3012002
:1051B000164908800020164908704FF47A730122BE
:1051C00069461148FDF7BAFD1248807990B99DF8FB
:1051D0000000104909680F4A928888540D48808859
:1051E000401C0C49888008468088B0F5827F01DD2C
:1051F0000020888001226946074801F096F802489D
:10520000FDF786FB08BD00006C030020A001002014
:105210009C01002070010020A401002008B519485D
:1052200000680068C0F3401038B3012016490880B8
:105230000020164908704FF47A730122694611481C
:10524000FDF77CFD1248807990B99DF80000104967
:1052500009680F4A928888540D488088401C0C4980
:10526000888008468088B0F5827F01DD0020888034
:1052700001226946074801F058F80248FDF748FB4B
:1052800008BD0000AC030020B80100209D010020F3
:1052900070010020BC01002000BFFEE72DE9F04FA7
:1052A0008BB00024002791480068807805028F4861
:1052B0000068C07805438D480068007906028B4875
:1052C000006840790643DFF8289200BF5C2189A07E
:1052D000FBF768F928B15C2186A0FBF763F9401C55
:1052E00000E084A08246FCF769FC834667208A4B75
:1052F000524659468DE8610088A0FAF7CBFF00BFFF
:10530000B6F5805F75DC022D74DC9448007806A940
:105310000855601CC4B206200855601CC4B2280A97
:105320000855601CC4B20D55601CC4B200BF5C219E
:1053300070A0FBF737F928B15C216EA0FBF732F9BA
:10534000401C00E06BA08246FCF738FC83469DF8C9
:1053500018007321704B5246CDE90010594680A0C9
:10536000FAF798FF00BF00BF5C2162A0FBF71AF9B3
:1053700028B15C215FA0FBF715F9401C00E05DA09F
:105380008246FCF71BFC83469DF819007421624B92
:105390005246CDE9001059467CA0FAF77BFF00BFCA
:1053A00000BF5C2153A0FBF7FDF828B15C2151A0A0
:1053B000FBF7F8F8401C00E04EA08246FCF7FEFB2D
:1053C00083469DF81A007521534B5246CDE90010D3
:1053D000594679A0FAF75EFF00BF00BF5C2145A0E7
:1053E000FBF7E0F838B15C2142A0FBF7DBF8401C8A
:1053F00002E074E01DE03FA08246FCF7DFFB83463D
:105400009DF81B007621444B5246CDE900105946C9
:1054100076A0FAF73FFF00BF28461FFA80F829F868
:105420001860300A06A90855601CC4B20E55601CED
:10543000C4B22E48C07930B101280AD002280ED05B
:10544000032818D111E0214606A801F0EFF907461C
:1054500011E0214606A801F001FA07460BE02146BB
:1054600006A801F0D1F9074605E0214606A801F09B
:10547000A7F9074600BF00BF1C48C079032828D100
:10548000380A06A90855601CC4B20F5500BF5C213C
:1054900018A0FBF787F828B15C2116A0FBF782F86B
:1054A000401C00E013A08246FCF788FB834606A858
:1054B000005D611E06AA515CCDE90174CDE90310BF
:1054C0009320154B5246594600905548FAF7E2FE94
:1054D00000BF601CC1B206A8FEF752F803E001202D
:1054E0000BB0BDE8F08F0020FAE70000700100204B
:1054F000600100202E2E5C5372635C6D6F646275D8
:1055000073736C6176655C686F6C647265676973F0
:105510007465722E63000000D68E00085B256C64F3
:105520005D5B2538735D5B2538735D5B252D3364CA
:105530005D5B494E464F5D3A2072656761646472F7
:10554000657373203A20256420202076616C756590
:1055500020203A20202564200D0A00005001002060
:105560005B256C645D5B2538735D5B2538735D5B23
:10557000252D33645D5B494E464F5D3A206164647E
:1055800072657373203A2025640D0A005B256C64F4
:105590005D5B2538735D5B2538735D5B252D33645A
:1055A0005D5B494E464F5D3A2066756E63203A203A
:1055B00025640D0A000000005B256C645D5B2538E6
:1055C000735D5B2538735D5B252D33645D5B494EF0
:1055D000464F5D3A2072656761646472657373203B
:1055E000686967683A2025640D0A00005B256C64D1
:1055F0005D5B2538735D5B2538735D5B252D3364FA
:105600005D5B494E464F5D3A207265676164647226
:10561000657373206C6F77203A2025640D0A0000B3
:10562000E094000802480068C0F3022070470000C0
:105630000CED00E010B5002804DB0A07130E054A44
:10564000135406E00A07140E034A00F00F031B1F51
:10565000D45410BD00E400E018ED00E030380A2812
:1056600001D2012070470020704700BF704710B57D
:10567000FDF7AAFE4FF4E130FDF762FF4FF4E13091
:10568000FDF79CFF4FF4E130FDF7D4FF01F0F4F893
:1056900010BD00007FB554488079002875D001A85E
:1056A00000F0B4FE0446002C6FD0012C19D100BFCD
:1056B0005C214EA0FAF776FF28B15C214BA0FAF7E7
:1056C00071FF401C00E049A00546FCF777FA06464A
:1056D00052204B4B2A46314600904AA0FAF7DAFD99
:1056E00053E0022C19D100BF5C2140A0FAF75AFF09
:1056F00028B15C213DA0FAF755FF401C00E03BA01B
:105700000546FCF75BFA064654203D4B2A463146D7
:10571000009047A0FAF7BEFD37E0032C19D100BF77
:105720005C2132A0FAF73EFF28B15C212FA0FAF7E6
:1057300039FF401C00E02DA00546FCF73FFA064665
:1057400056202F4B2A463146009044A0FAF7A2FD7E
:105750001BE0042C19D100BF5C2124A0FAF722FF22
:1057600028B15C2121A0FAF71DFF401C00E01FA01A
:105770000546FCF723FA06465820214B2A463146B7
:10578000009041A0FAF786FD00BFFCF717FA4949DF
:105790000968401AB0F5FA7F01D3012000E000202B
:1057A000002820D0FCF70AFA4249086000BF5C21BB
:1057B0000EA0FAF7F7FE28B15C210CA0FAF7F2FE72
:1057C000401C00E009A00546FCF7F8F906465E20FB
:1057D0000B4B2A463146009037A0FAF75BFD00BF1D
:1057E000434800F0AFF97FBD700100202E2E5C53BE
:1057F00072635C6170705F736C6176652E6300002C
:105800008E8E00085B256C645D5B2538735D5B25BF
:1058100038735D5B252D33645D5B4552524F5D3AB5
:1058200020D6A1B8F1CABDB4EDCEF30D0A00000038
:105830005B256C645D5B2538735D5B2538735D5B50
:10584000252D33645D5B4552524F5D3A20D6A1D081
:10585000A3D1E9B4EDCEF30D0A0000005B256C6422
:105860005D5B2538735D5B2538735D5B252D336487
:105870005D5B4552524F5D3A20B4D3BBFAB5D8D6E2
:10588000B7B4EDCEF30D0A005B256C645D5B253883
:10589000735D5B2538735D5B252D33645D5B45521D
:1058A000524F5D3A20B9A6C4DCC2EBB4EDCEF30D85
:1058B0000A000000540100205B256C645D5B253804
:1058C000735D5B2538735D5B252D33645D5B494EED
:1058D000464F5D3A20736C617665616464726573EE
:1058E000735F7365745F74696D650D0A0000000075
:1058F00050010020F0B585B005460C46002600207A
:105900000490FBF795FF074667B9E60AC4F30A005F
:1059100000B1761C029503960020009004A9684609
:10592000FBF7CCFEFBF722FF002005B0F0BD70B501
:1059300004460D461646324621462846FAF73DFEF5
:10594000304670BD2DE9F84307460E461546002047
:1059500000900024FBF76CFF8046B8F1000F19D1CE
:1059600016E0201D854203D930190068009004E03C
:105970002A1B31196846FAF720FE39190023012045
:10598000009AFBF7FDFE08B9241D01E000BFFEE709
:10599000AC42E6D3FBF7EAFE2846BDE8F8830000F8
:1059A0002DE9F04F8BB004460D463148099031483F
:1059B000089031480790314806903148059020689A
:1059C000049028680390039802F0E6FE2D4A2E4BBF
:1059D000CDE9000102F0F8FC07462C4A2C4B02F0FE
:1059E000F1FD824602F0CEFB81462248049903F085
:1059F000B3F882462048049903F0AEF88346049930
:105A000003F0AAF88046514602F0F2FE0746184914
:105A100002F0EEFE02901A48049903F09DF88346C6
:105A2000164902F0E5FE80461A49484603F092F90D
:105A30008246414603F090F80746029902F0D8FEEC
:105A400006461549304603F053F900D2124E30464F
:105A500002F0A2FE0746114A114B02F079FC00D277
:105A6000104EC5F8009026600BB0BDE8F08F000026
:105A7000C5FE02C0BD52163DF624D6B50AD7233C5A
:105A8000ACC5A7387B14AE47E17A843FCDCCCCCCF3
:105A9000CC0C44400000C8410000C8429A99999932
:105AA0009999B93FCDCCCC3D2DE9FE4305460E4634
:105AB00001F052F900240122694602A801F072F9AE
:105AC0002044C4B20022694601A801F06BF92044C9
:105AD000C4B214B101F040F90DE0BDF8080002F0C5
