:020000040800F2
:10000000007600202D020008591500085B15000835
:100010005D1500085F15000861150008000000006C
:100020000000000000000000000000006315000850
:100030006515000800000000671500086915000834
:10004000470200084702000847020008470200086C
:10005000470200084702000847020008470200085C
:100060004702000847020008470200086D15000813
:10007000470200084702000847020008470200083C
:10008000470200084702000847020008470200082C
:10009000470200084702000847020008470200081C
:1000A000470200084702000847020008470200080C
:1000B0008904000873150008470200084702000879
:1000C00047020008470200084702000847020008EC
:1000D00047020008311200089D940008A19500080D
:1000E00047020008470200084702000847020008CC
:1000F00047020008470200084702000847020008BC
:1001000047020008470200084702000847020008AB
:10011000470200089D9600084702000847020008B1
:10012000470200084702000847020008470200088B
:1001300000F002F800F06BF80AA090E8000C82448E
:100140008344AAF10107DA4501D100F060F8AFF26B
:10015000090EBAE80F0013F0010F18BFFB1A43F0A5
:100160000103184724A6000044A600000A444FF0EB
:10017000000C10F8013B13F0070408BF10F8014B06
:100180001D1108BF10F8015B641E05D010F8016B4B
:10019000641E01F8016BF9D113F0080F1EBF10F8AF
:1001A000014BAD1C0C1B09D16D1E58BF01F801CBD2
:1001B000FAD505E014F8016B01F8016B6D1EF9D555
:1001C0009142D6D37047000000230024002500266A
:1001D000103A28BF78C1FBD8520728BF30C148BFAA
:1001E0000B607047642909F07583752909F07283E3
:1001F000782909F0AB83632909F08E85732909F00A
:100200009385002070471FB51FBD10B510BD09F0C4
:10021000D7FD1146FFF7F7FF00F0BFFE09F0F5FD2F
:1002200003B4FFF7F2FF03BC00F0C8FF09488047A2
:1002300009480047FEE7FEE7FEE7FEE7FEE7FEE7C8
:10024000FEE7FEE7FEE7FEE704480549054A064BE0
:10025000704700004593000831010008007000203D
:10026000007600200072002000720020F0B58DB0F2
:1002700004461E236A4602A900F0B7FC019000283C
:100280007DD19DF8000027180026D04C8DF8006025
:100290009DF8000054F8201002A800F015FC38B1B9
:1002A0009DF80000401CC0B28DF800000728EFD375
:1002B0009DF800000425C64C072860D2DFE800F056
:1002C00004041839607F9E00C2A009F0A7FAC2A0FA
:1002D00009F0A4FAC6A009F0A1FACBA009F09EFA91
:1002E000D0A009F09BFAD6A009F098FAE2A01BE092
:1002F000B8A009F093FAEEA009F090FA8DF800602A
:100300000CE000BF216805EBC0000958F8A009F017
:1003100085FA9DF80000401C8DF80000217D9DF8B5
:1003200000008142EED888E009F078FA00200DB094
:10033000F0BDA8A009F072FAEFA009F06FFA8DF8ED
:10034000006016E0216805EBC0000BAB08580AAA54
:1003500002A900F06BFC9DF80010206850F83120D5
:1003600002A9F5A009F05AFA9DF80000401C8DF88A
:100370000000217D9DF800008142E3D85DE05EE051
:1003800094A009F04BFA6A4602A9384600F001FD34
:100390009DF80000002843D101A902A800F0BAFB93
:1003A0008DF8000010B104283AD102E0E7A00199CD
:1003B0001CE0E9A009F032FA0120E0753DE085A0DB
:1003C00009F02CFA6A4602A9384600F0E2FC9DF8D2
:1003D000000028BB01A902A800F09CFB8DF80000DA
:1003E00010B104281CD104E0E0A0019909F016FA2C
:1003F00023E0E1A009F012FAE6751EE075A009F00D
:100400000DFA6A4602A9384600F0C3FC9DF80000C8
:1004100030B901A902A800F07DFB8DF8000008B1F9
:10042000022084E7019810F0FF0084F8EC0001D06E
:10043000D6A000E0DCA009F0F1F966A074E7012085
:1004400075E7E0486FF00101026811610268090C6C
:10045000D162C1600068002141625D48C0F8F010BF
:100460007047D84800680169C943CA075849D1F89C
:10047000F02004D14FF6FF731A44C1F8F020406A0F
:100480001044C1F8F000704710B5CE4C2068C06829
:10049000C043C00709D14E48006980472168002049
:1004A000486221686420C862E06021686FF0010042
:1004B000086110BD10B586B00024C24A00940194B2
:1004C0000294039404940594C2E9024014614FF02D
:1004D00080439461C2E90031104603F0DAF908B1B3
:1004E00000F026FD4FF4805000906946B54805F0B5
:1004F000A2F808B100F01CFD049404A9B1480594C9
:1005000005F027FF08B100F013FDAE4803F021FA13
:1005100006B010BD10B5044600F071FE04EBC40037
:1005200000EB04104FF0FF3101EB800081B24FF47B
:100530007A70FFF7BFFF26490120C87510BD70B55E
:1005400096B0054614AB01AA03A900F06FFB002882
:1005500023D18DF84C001E4C042614E0216806EBD4
:10056000C00014AB08586A460BA900F05FFB0028D6
:1005700013D103A90BA800F0A7FA80B19DF84C0095
:10058000401C8DF84C00217DC0B28142E6D8207D10
:100590009DF84C1088420ED1042016B070BD9DF815
:1005A00000009DF80410884201D90220F5E79DF86B
:1005B0004C00A075EBE713A9284600F04CFC00287E
:1005C000EBD19DF84C0060750020E6E700000020AC
:1005D000240000200D0A00003F3A20202020202087
:1005E000BBF1C8A1B0EFD6FAD0C5CFA20D0A00006A
:1005F00068656C703A202020BBF1C8A1B0EFD6FA34
:10060000D0C5CFA20D0A00006C6973743A20202077
:10061000BFC9D3C3B5C4BAAFCAFDC1D0B1ED0D0ACD
:100620000A00000069643A2020202020BFC9D3C3FB
:10063000BAAFCAFDB5C44944C1D0B1ED0D0A0A0034
:100640006865783A20202020B2CECAFD3136BDF848
:10065000D6C6CFD4CABE2CBAF3B8FABFD5B8F12BE0
:10066000CAFDD7D6BCB4D6B4D0D0BDF8D6C6D7AAAA
:10067000BBBB0D0A0A0000006465633A20202020FD
:10068000B2CECAFD3130BDF8D6C6CFD4CABE2CBA60
:10069000F3B8FABFD5B8F12BCAFDD7D6BCB4D6B4DF
:1006A000D0D0BDF8D6C6D7AABBBB0D0A0A00000041
:1006B0002D2D2D2D2D2D2D2D2D2D2D2D2D2D2D2D6A
:1006C0002D2D2D2D2D2D2D2D2DBAAFCAFDC7E5B504
:1006D000A52D2D2D2D2D2D2D2D2D2D2D2D2D2D2DD2
:1006E0002D2D2D2D2D2D2D2D2D2D2D2D200D0A00B7
:1006F00025730D0A000000002D2D2D2D2D2D2D2DE3
:100700002D2D2D2D2D2D2D2D2D2D2D2D2D2D2D2D19
:100710002DBAAFCAFD204944202D2D2D2D2D2D2D74
:100720002D2D2D2D2D2D2D2D2D2D2D2D2D2D2D2DF9
:100730002D2D2D2D200D0A0025732069642069734D
:100740003A0D0A3058253038580D0A004845583AB5
:10075000305825580D0A00003136BDF8D6C6B2CE45
:10076000CAFDCFD4CABE210D0A0000004445433A59
:10077000256C750D0A0000003130BDF8D6C6B2CE2A
:10078000CAFDCFD4CABE210D0A00000052756E20EA
:1007900054696D652043616C63756C6174696F6E3B
:1007A000204F4E0D0A00000052756E2054696D6591
:1007B0002043616C63756C6174696F6E204F4646AF
:1007C0000D0A0000BC0100202DE9F041964C9AB0C2
:1007D000A57D207DA8427DD90421206801EBC501BB
:1007E00019AB405810AA11A900F020FA11A98FA046
:1007F00009F014F800270DF1180833E0208B0121CF
:10080000B940084217D022218AA009F007F83846DB
:1008100000F012FB011988A0243108F0FFFF22210B
:1008200084A008F0FBFF384600F006FB204424308B
:1008300048F827000CE0384600F0FEFA2044416AF0
:1008400048F82710E07D08B37CA000BF08F0E6FF61
:100850009DF84000401E874202D07AA008F0DEFFDB
:100860007F1CFFB29DF840008742C7D376A008F0F6
:10087000D5FFFFF7E6FD607D0B2814D2DFE800F01E
:10088000080D31384048525E6B7888006FA0DDE774
:10089000206850F83500804704E0206850F8351093
:1008A000069888470646FFF7DCFD9DF8640001289E
:1008B0007DD067A008F0B2FF94F8EC0000280DD0BE
:1008C000D4F8F0100A20B1FBF0F200FB1212B1FBD9
:1008D000F0F100E002E05FA008F0A0FF1AB0BDE870
:1008E000F081206850F83520DDE906019047D9E70E
:1008F000206806AE50F8353096E807009847D1E7F3
:10090000206806AE50F8355096E80F00A847C9E7B2
:100910000A980090206806AE50F8355096E80F000F
:10092000A847BFE7DDE90A01CDE90001206806AE6E
:1009300050F8355096E80F00A847B3E70AAB06AE6B
:1009400093E807008DE80700206850F8355096E8D6
:100950000F00A847A6E70AAE96E80F008DE80F0043
:10096000206806AE50F8355096E80F00A84799E782
:100970000BAE96E80F0001AE86E80F000A980090D3
:10098000206806AE50F8355096E80F00A84789E772
:100990000CAE96E80F0002AE86E80F00DDE90A0112
:1009A000CDE90001206806AE50F8355000E003E0C4
:1009B00096E80F00A84775E7E07D314618B12DA0F5
:1009C00008F02CFF78E72EA0FAE72DE9F0412E4D34
:1009D0002888010483D52D49C0B2134F00260E5438
:1009E000B9682A48884704000FD02848FFF73EFC22
:1009F000012801D0040014D0012C09D0022C09D008
:100A0000032C09D0042C0CD108E0F868804708E0DA
:100A10001FA004E021A002E023A000E025A008F030
:100A2000FDFE2E805BE70000240000200D0A2573E8
:100A30002800000025630000257300003058255869
:100A4000000000002C00000029000000256C64005C
:100A50003B0D0A0046756E6374696F6E2052756EA9
:100A60002054696D653A25642E2531646D730D0A35
:100A7000000000003D305825583B0D0A00000000E2
:100A80003D256C753B0D0A0018010020B0030020C5
:100A9000BAAFCAFDB4EDCEF3210D0A00B2CECAFD45
:100AA000B4EDCEF3210D0A00B2CECAFDCCABB6E058
:100AB000210D0A00CEB4D5D2B5BDC6A5C5E4B5C4D6
:100AC000BAAFCAFD210D0A0002780B789A4201D014
:100AD0000120704712B1401C491CF5E70020704707
:100AE00002780A700278002A02D0401C491CF7E7FD
:100AF0007047002102781AB1491CC9B2401CF9E7BD
:100B0000084670470246012000E05043491EC9B222
:100B1000FBD270472DE9F0410E4600244FF00A0841
:100B20002746014634600A78A2F13003092B14D914
:100B300003782D2B01D02B2B00D174B1A2F14103EE
:100B4000052B0AD9582A05D012F0FF0F17D0012023
:100B5000BDE8F081012C02D0F9E7412A01D34FF022
:100B6000100802782D2A04D02B2A04D0641CE4B289
:100B700003E0022700E00127401C491CD3E705469B
:100B8000B8F1100F01D084B112E0032C01D2022081
:100B9000DEE72878302802D16878582801D0032071
:100BA000D6E7A41EE4B2AD1C01E00420D0E70CB1EE
:100BB000641EE4B2287884463038092801D8844677
:100BC00001E0ACF1370C21464046FFF79BFF31684E
:100BD0000CFB0010306015F8011F0029E7D1022F2F
:100BE00001D1404230600020B2E730B500251570D9
:100BF0000BE000BF01F8014B1478401C641CE4B208
:100C000014709C4201D3012030BD0478202C01D007
:100C1000002CEFD10D70002030BD00BF10F8011F77
:100C2000202901D10028F9D1C8B270472DE9FF4F22
:100C3000002582B09A4604462F462E464FF0010BFF
:100C4000A9462A46A84615E0202910D002F07F03C5
:100C5000052B0CD202B9802202F07F03042B01D1B4
:100C60002A290AD1521C0DF80310D2B201E0852ABC
:100C700004D0401C01780029E6D162B102F07F0265
:100C8000A8A10DF802806846FFF71EFF38B10121C8
:100C90008AF8001000224FF0000C234614E08AF876
:100CA0000080F7E713F8010F0CF1010C0CF0FF0CBA
:100CB000202801D02A2807D11846FFF7AEFF2828A0
:100CC00002D02A2800D067461878282801D00028AA
:100CD000E8D10FB13C44641C00273946207888B124
:100CE000282804D0292806D022280FD010E079B96E
:100CF0006D1CEDB20CE059B925B16D1E15F0FF0564
:100D000001D00CE00127012E32D039E049B1002199
:100D10004DB12C280FD020281FD028281DD07AB103
:100D200017E00121F4E7202820D0039B18700398D6
:100D3000401C03901AE0521C4FF0010BD2B20CE0A1
:100D4000B9F1050F05D20DF8090009F1010000F015
:100D5000FF090BF1010000F0FF0B012D06D1BBF1E3
:100D6000020F03D1761C4FF0030BF6B2641CB5E7FB
:100D70000DF809806BA16846FFF7A6FE00B90026B2
:100D8000049806700399384681F8008006B0BDE8E3
:100D9000F08FF0B504460020074606460546237846
:100DA0002C2B03D0292B04D01BB103E015B901274C
:100DB00000E015B31EB1222B2BD0F7B92FE0A3F121
:100DC000300CBCF1090F19D92D2B17D02B2B15D0B6
:100DD000A3F1610CBCF1050F10D9A3F1410CBCF1DA
:100DE000050F0BD9582B09D0782B07D0222B0CD00C
:100DF000202B1DD02C2B1BD0FF260CE05FB9612BC4
:100E000000D3203B01F8013B12E027B9012635460B
:100E10000EE0002567B100230B701670F0BD3DB1E8
:100E20005C2B02D1401CC0B2641C237801F8013B4A
:100E3000401CC0B2641CB2E7024610B50020014657
:100E40003A4B05E05C18491CA47EC9B22044C0B2EC
:100E50009142F7D310BD2DE9F04100248846334D6F
:100E6000B5B0214623466A18491CC9B293760A29AF
:100E7000F9D302E010F8011F91B101782829F9D1C6
:100E8000461C012733AA69463046FFF782FF064415
:100E90009DF8CC0038B1012823D0FF2838D10AE0D2
:100EA000012035B054E69DF8000080B334A96846AF
:100EB000FFF730FE08B10220F3E72046FFF7BCFF42
:100EC000284434994162288B07FA04F18843288327
:100ED000042029198876641CE4B20A2C18D903204E
:100EE000DFE76846FFF705FE00F1010C2046FFF73B
:100EF000A3FF411968462431FFF7F2FD288B07FA5A
:100F000004F108432883281980F81AC0E3E7FFE7B3
:100F10003078292801D00028B4D188F8004000207A
:100F2000BFE70000766F6964000000002400002025
:100F3000704730B595B02821684608F047FE142167
:100F40000AA808F043FE18210FA808F03FFE092068
:100F5000012100904FF48030002404910691CDE9E6
:100F600001040225CDE907504FF4E01009906846CE
:100F700006F0AFFA0F20CDE90A056802CDE90C4072
:100F800002210AA80E9406F066FCA80311900F95A2
:100F90000FA806F0ADFD15B030BD06F093F9FFF7D0
:100FA000C8FF00F019F80B4841684820884700F056
:100FB0008BF8002001F057FC032002F093FB01F0B6
:100FC00000FC00F06FFE00BF00F074FE00F0FEFEBB
:100FD000FAE70000240000202DE9F04385B000244A
:100FE00034480094019402940394816941F04001D3
:100FF0008161816901F040010491816941F0100132
:101000008161816901F010010491816941F004015D
:101010008161816901F004010491816941F0080155
:101020008161816901F008010491816941F0200129
:1010300081618069204F00F0200004900122FF218F
:10104000384606F0B7FFDFF874904FF4807800223E
:101050004146484606F0AEFFFF2001250326CDE9B4
:101060000005CDE902466946384606F037FE6F03B3
:10107000CDE9007469461248029406F02FFE022062
:101080008DE831006946484606F028FECDE9007437
:1010900069460C48029406F021FECDF800800396C4
:1010A000CDE901546946484606F018FE05B0BDE892
:1010B000F0830000001002400018014000080140C9
:1010C000001001400014014010B586B000243948DA
:1010D00000940194029403940494354905940160AA
:1010E0004FF6FF71C0E901146421C0E90314846163
:1010F00002F0CFFB08B1FFF71BFF4FF480500090C8
:1011000069462C4804F097FA08B1FFF711FF0494E0
:1011100004A92848059405F01CF908B1FFF708FF59
:10112000244802F016FC06B010BD08B5016822483C
:10113000B1F1804F14D01E4A914220D1C16941F0D3
:101140000201C161C069002200F00200009002218A
:101150001D2007F07EFC1D20BDE8084007F097BC6D
:10116000C16941F00101C161C069002200F00100C4
:10117000009002211C2007F06CFC1C20ECE708BD4D
:1011800001680D48B1F1804F0AD0094A91420DD152
:10119000C16921F00201C1615FF01D0007F084BC4C
:1011A000C16921F00101C1611C20F7E7704700000F
:1011B0000004004070020020001002407047DA492D
:1011C0000A685206FCD5D84AC1B2121D1160704798
:1011D000D74910B5D54AC1E90020002088600C220B
:1011E000C860C1E904028861C861084605F070F969
:1011F000002803D0BDE81040FFF79ABE10BDCC48D0
:1012000010B54030C84901604FF4E1314160002120
:1012100081600C22C160C0E904128161C16105F0E6
:1012200057F9002803D0BDE81040FFF781BE10BD7C
:1012300038B5BF48403000680068C043800622D4FB
:10124000BB484FF47A7301226946403005F0D5FA65
:10125000B84801880A0416D44B049DF800304FF0BA
:10126000000204D50A2B0DD141F4004112E00D2BF0
:101270000ED0C1F30D04B04D491C89B22B5501802D
:10128000C72900D90280AA48403005F0ADFE38BD1C
:1012900041F480410180F6E7A54910B58031A74AA5
:1012A000C1E90020002088600C22C860C1E9040266
:1012B0008861C861084605F00BF9002803D0BDE835
:1012C0001040FFF735BE10BD9B4910B540399C4A10
:1012D000C1E90020002088600C22C860C1E9040236
:1012E0008861C861084605F0F3F8002803D0BDE81E
:1012F0001040FFF71DBE10BD2DE9F04385B000245E
:1013000000940194029403940546884E03688D4826
:10131000022103224FF00409B34231D1C36943F4DF
:101320008013C361C36903F480130493836943F09A
:1013300010038361836903F010030493836943F00E
:10134000200383618069039200F020000490C802AA
:10135000CDE9000169467C4806F0C0FCCDE9009467
:1013600069467A48029406F0B9FC0122032135202F
:1013700007F06FFB352007F08AFB05B0BDE8F0836E
:10138000DFF8A4C1DFF8C8814FF480676FF0200652
:10139000634529D1836943F480438361836903F4FE
:1013A00080430493836943F004038361806900F000
:1013B000040004907810CDE900010120CDE902027B
:1013C0006946404606F08AFCCDE90074694640460D
:1013D000029406F083FC2868066000220321252081
:1013E00007F037FB25202AE0DFF850C163452ED1F6
:1013F000C36943F40033C361C36903F40033049346
:10140000836943F0040383618069CDE9009100F0B2
:101410000400CDE903206946404606F05FFC082041
:10142000CDE9000469464046029406F057FC28685E
:10143000066001220321262007F00BFB262007F07F
:1014400026FB2868C16841F02001C16095E7DFF8FC
:10145000F0C0634591D1C36943F48023C361C3697C
:1014600003F480230493836943F008038361806954
:10147000CDE9007100F00800CDE90320354F694641
:10148000384606F02BFCF814CDE9000469463846CE
:10149000029406F023FC286806600122032127201D
:1014A00007F0D7FA2720CAE710B502681F48254978
:1014B00082420DD1C86920F48010C8618914224885
:1014C00006F0F3FC0421214806F0EFFC352026E06D
:1014D000154B1F489A4209D18A6922F480428A61D9
:1014E0004FF4C06106F0E1FC252018E0134B9A424E
:1014F00008D1CA6922F40032CA610C2106F0D5FC79
:1015000026200CE00E4882420DD1C86920F48020CC
:10151000C8614FF440610F4806F0C7FC2720BDE8C2
:10152000104007F0C1BA10BD003801400050004023
:10153000B002002018010020B00300200044004049
:10154000004800400010024000100140001401401B
:1015500000080140000C01407047FEE7FEE7FEE78F
:10156000FEE770477047704705F0CABE254807F090
:10157000EDB870B5244D2868C068C043C0073CD1A1
:1015800022490888224E002401280FD121480278E0
:10159000521CD2B20270042A08D90C800470B088A0
:1015A000052802D30120B07103E0B480B07901288E
:1015B00010D1088870B918480178491CC9B2017067
:1015C000C82907D9047040220021306801F045F98C
:1015D000B480B47111490888012808D110480278F4
:1015E000521CD2B20270032A01D90C800470286800
:1015F000446229680A20C862E86029686FF0010027
:10160000086170BD2C0200207002002078010020CB
:101610004C01002074010020200100207A010020EC
:10162000750100200E4808B5816941F00101816112
:10163000816901F001010091C16941F08051C161EE
:10164000C06900F080500090052007F0F5F90548CA
:10165000416821F0E06141F00071416008BD000087
:10166000001002400000014010B50B460146144630
:10167000184608F066FA204610BD70B586B0002501
:101680000C460646049507F010FC50B9E20A6005C6
:1016900000D0521CCDE9026204A96846009507F00B
:1016A00051FC07F010FC06B0002070BDF8B50746ED
:1016B000002015460E460446009007F0F6FBA8B140
:1016C00016E0201D854203D930190068009004E01F
:1016D0002A1B3119684608F034FA39190023012011
:1016E000009A07F0F7FA00B1FEE7241DAC42E8D3F8
:1016F00007F0E9FB2846F8BD30B589B001281AD0BB
:10170000022831D003284ED0042865D0052873D094
:10171000062846D1052206A9D54808F034F85C21F0
:10172000D4A008F003FA002867D05C21D1A008F00B
:10173000FDF9401CA3E0D5A007F096FE5C21CDA0EA
:1017400008F0F4F928B15C21CAA008F0EFF9401CB8
:1017500000E0C8A0044605F0D9FD22210091014611
:10176000CE4B2246CEA017E0D9A007F0FFFE5C21A9
:10177000C0A008F0DBF928B15C21BEA008F0D6F9C2
:10178000401C00E0BBA0044605F0C0FD27210091ED
:101790000146C24B2246D2A008F040F8322005F0A4
:1017A000CCFD09B030BDDAA007F05EFF5C21B1A02E
:1017B00008F0BCF928B15C21AEA008F0B7F9401CD4
:1017C00000E0ACA0044605F0A1FD2C2100910146EB
:1017D000B24B2246D2A0DFE7052206A9DC4807F07B
:1017E000D2FF5C21A3A008F0A1F938B15C21A1A02F
:1017F00008F09CF9401C02E014E03FE09DA0044684
:1018000005F084FD9DF819100DF1080C9DF81C5091
:101810009DF81B309DF81A208CE82E009DF81820AA
:10182000302122E0052206A9CA4807F0ACFF5C215E
:1018300090A008F07BF928B15C218EA008F076F921
:10184000401C00E08BA0044605F060FD9DF81910D7
:101850000DF1080C9DF81C509DF81B309DF81A20C6
:101860008CE82E009DF818203421CDE900120146A5
:101870008A4B2246B84807F0D1FF92E77DA0044684
:1018800005F044FD9DF819100DF1080C9DF81C5051
:101890009DF81B309DF81A208CE82E009DF818202A
:1018A0003821E2E77CB504465C2172A008F03EF9DD
:1018B00028B15C216FA008F039F9401C00E06DA050
:1018C000054605F023FD22784121CDE90012734B36
:1018D00001460B332A46A1A007F0A0FF5C2165A0BA
:1018E00008F024F928B15C2162A008F01FF9401C1F
:1018F00000E060A0054605F009FD0146627842203F
:10190000CDE90002654B2A460B33A0A007F086FF05
:101910007CBD01280AD002280DD0032810D004284D
:1019200013D101221146104601F0D9BA0122114605
:10193000104601F06BB801220021104601F08CB96D
:1019400001221146104601F0FBBB704738B59B4899
:101950008079002878D09A499A4801F0DAFD40B1A0
:10196000012822D0022837D003284CD0042860D088
:1019700078E05C213FA008F0D9F828B15C213DA0B7
:1019800008F0D4F8401C00E03AA0044605F0BEFC84
:101990006421424B009101461E3322468AA007F083
:1019A0003DFF8748FFF77EFF5CE05C2131A008F037
:1019B000BDF828B15C212FA008F0B8F8401C00E069
:1019C0002CA0044605F0A2FC01466C20334B00908D
:1019D0001E33224687A043E05C2126A008F0A6F82B
:1019E00028B15C2123A008F0A1F8401C00E021A050
:1019F000044605F08BFC01466E20284B00901E33F8
:101A0000224687A02CE05C211AA008F08FF828B1AC
:101A10005C2118A008F08AF8441C00E015A405F029
:101A200075FC014670201D4B00901E33224687A096
:101A300016E05C210FA008F079F830B15C210DA010
:101A400008F074F8401C01E010E00AA0044605F01C
:101A50005DFC7221114B009101461E33224686A087
:101A600007F0DCFEBDE8384001F03CBD38BD0000A9
:101A7000A80100202E2E5C5372635C544553545CC5
:101A80006170705F746573742E63000074657374A5
:101A9000313131313131200D0A000000329E000811
:101AA0005B256C645D5B2538735D5B2538735D5B1E
:101AB000252D33645D5B494E464F5D3A20B2E2CA44
:101AC000D4343835CDA8B5C031B7A2CBCD0D0A007E
:101AD000746573743232323232320D0A0000000003
:101AE0005B256C645D5B2538735D5B2538735D5BDE
:101AF000252D33645D5B494E464F5D3A20B2E2CA04
:101B0000D4343835CDA8B5C032B7A2CBCD0D0A003C
:101B1000746573743333333333200D0A00000000CF
:101B20005B256C645D5B2538735D5B2538735D5B9D
:101B3000252D33645D5B494E464F5D3A20B2E2CAC3
:101B4000D4343835CDA8B5C033B7A2CBCD0D0A00FB
:101B50008001002094010020E0A200085B256C6455
:101B60005D5B2538735D5B2538735D5B252D3364C4
:101B70005D5B494E464F5D3A2061646472657373E4
:101B80003A20253032580D0A000000005B256C64B5
:101B90005D5B2538735D5B2538735D5B252D336494
:101BA0005D5B494E464F5D3A2066756E6374696FA2
:101BB0006E3A20253032580D0A0000004C010020FA
:101BC0005C010020540100205B256C645D5B2538BE
:101BD000735D5B2538735D5B252D33645D5B494E1A
:101BE000464F5D3A20BDE2CEF6B0FCB3C9B9A60DB2
:101BF0000A0000005B256C645D5B2538735D5B2526
:101C000038735D5B252D33645D5B4552524F5D3A01
:101C100020D6A1B8F1CABDB4EDCEF30D0A00000084
:101C20005B256C645D5B2538735D5B2538735D5B9C
:101C3000252D33645D5B4552524F5D3A20D6A1D0CD
:101C4000A3D1E9B4EDCEF30D0A0000005B256C646E
:101C50005D5B2538735D5B2538735D5B252D3364D3
:101C60005D5B4552524F5D3A20B4D3BBFAB5D8D62E
:101C7000B7B4EDCEF30D0A005B256C645D5B2538CF
:101C8000735D5B2538735D5B252D33645D5B455269
:101C9000524F5D3A20B9A6C4DCC2EBB4EDCEF30DD1
:101CA0000A0000000121F8480422017042700C383B
:101CB0000170704738B5F5488079002874D0F44930
:101CC000F44801F026FC40B1012821D0022835D08B
:101CD000032849D004285CD073E05C21EEA007F013
:101CE00025FF28B15C21ECA007F020FF401C00E09C
:101CF000E9A0044605F00AFB362100910146EB4BB2
:101D00002246EBA007F08AFDE148FFF7CBFD58E043
:101D10005C21E1A007F00AFF28B15C21DEA007F0FA
:101D200005FF401C00E0DCA0044605F0EFFA014688
:101D30003E200090DD4B2246E8A040E05C21D6A08A
:101D400007F0F4FE28B15C21D3A007F0EFFE401CA1
:101D500000E0D1A0044605F0D9FA014640200090E9
:101D6000D24B2246E8A02AE05C21CBA007F0DEFEA1
:101D700028B15C21C8A007F0D9FE441C00E0C6A42D
:101D800005F0C4FA014642200090C84B2246E9A063
:101D900015E05C21C0A007F0C9FE30B15C21BEA0F7
:101DA00007F0C4FE401C01E00FE0BBA0044605F0B4
:101DB000ADFA442100910146BC4B2246E8A007F051
:101DC0002DFDBDE8384001F08DBB38BD70B505F084
:101DD0009DFAAD4C00250C3C6168401A40F6B831C4
:101DE00088420FD3207801280CD105F08FFA60606B
:101DF000607800F0D5FB6078401C10F0FF00607048
:101E000000D0657005F082FAA168401A40F6AC5126
:101E100088420CD305F07AFAA060A07800F075FB38
:101E2000A078401C10F0FF00A07000D0A57070BD1D
:101E30002DE9FF41954C0D46964F216800260A7802
:101E40002A70216849786970397949060B0E216832
:101E500091F802C063451ED05C218FA007F066FE9A
:101E600028B15C218CA007F061FE451C00E08AA52A
:101E700005F04CFA2368BA88D4219B788DE80E00CF
:101E80008A4B014612332A46C04807F0C7FC01209E
:101E900004B0BDE8F08143887B48012B03D0022BBE
:101EA00007D063B111E000EB8200097900F8041C4F
:101EB00041E000EB8200097900F8031C3BE000EBF5
:101EC000820313F8032C082A0BD05C2172A007F0C0
:101ED0002DFE002831D05C216FA007F027FE401CAA
:101EE0002CE0CA78120223F8022C2B78097900EB37
:101EF00083000A4320F8022C5C2167A007F016FE3D
:101F000028B15C2164A007F011FE401C00E062A033
:101F1000074605F0FBF9014620682B78E524027995
:101F2000C07803920094CDE90130604B3A461233F9
:101F3000974807F073FC3046AAE757A0044605F01F
:101F4000E5F90146E920594B00901233224691A051
:101F500007F064FC02209BE738B50B464B4904466A
:101F600000200A6812781A700D686D785D706388B9
:101F7000454C012B0CD0022B11D05C2146A007F060
:101F8000D5FD98B15C2144A007F0D0FD401C0EE0C7
:101F9000096804EB8202097902F8041C38BD09685B
:101FA00004EB8202097902F8031C38BD3AA004460A
:101FB00005F0ACF94FF480713C4B0091014626339B
:101FC000224674A007F02AFC022038BDFEB52F4D32
:101FD00002460C4628682F4E002701782170286899
:101FE0004078607030794006030E286890F802C08F
:101FF00063451ED05C2128A007F098FD28B15C2124
:1020000025A007F093FD401C00E023A0044605F046
:102010007DF92B680146B2889B7840F213108DE859
:102020000D00224B22463B33584807F0F7FB0120B6
:10203000FEBD5288144D32B1012A21D0022A20D08F
:10204000032A1FD037E105EB810212F8031C042993
:10205000F8D1C178090222F8021C2278007905EB38
:102060008202014322F8021C5C210BA007F05EFDF6
:1020700028B15C2108A007F059FD461CA2E09FE0B2
:10208000B1E0E1E011E10000300100204C0100204E
:102090005C010020540100202E2E5C5372635C61B1
:1020A00070705F6D61737465722E6300639E0008CB
:1020B0005B256C645D5B2538735D5B2538735D5B08
:1020C000252D33645D5B494E464F5D3A20BDE2CE1F
:1020D000F6B0FCB3C9B9A60D0A0000005B256C641C
:1020E0005D5B2538735D5B2538735D5B252D33643F
:1020F0005D5B4552524F5D3A20D6A1B8F1CABDB4DE
:10210000EDCEF30D0A0000005B256C645D5B2538A5
:10211000735D5B2538735D5B252D33645D5B4552D4
:10212000524F5D3A20D6A1D0A3D1E9B4EDCEF30D44
:102130000A0000005B256C645D5B2538735D5B25E0
:1021400038735D5B252D33645D5B4552524F5D3ABC
:1021500020B4D3BBFAB5D8D6B7B4EDCEF30D0A0090
:102160005B256C645D5B2538735D5B2538735D5B57
:10217000252D33645D5B4552524F5D3A20B9A6C4AC
:10218000DCC2EBB4EDCEF30D0A0000009CA4000805
:1021900054A400085B256C645D5B2538735D5B258A
:1021A00038735D5B252D33645D5B494E464F5D3A68
:1021B00020C3BBD3D0CFE0B9D8C3FCC1EE0D0A0019
:1021C000AFF22C1605F0A2F80146207840F21B135E
:1021D00005EB800232F8022CCDE900300292F94B77
:1021E0003246F9489FE005EB810212F8031C0729EB
:1021F00061D1C178090222F8021C2278007905EB2E
:102200008202014322F8021C5C21AFF2741007F035
:102210008DFC30B15C21AFF2801007F087FC461CCA
:1022200001E0AFF28C1605F071F821784FF491734C
:1022300005EB810232F8022CCDE900310292014611
:10224000E04B3246E1486EE005EB810212F8031CD8
:10225000052930D1C178090222F8021C22780079C0
:1022600005EB8202014322F8021C5C21AFF2D81078
:1022700007F05CFC30B15C21AFF2E41007F056FCD3
:10228000461C01E0AFF2F01605F040F821784FF45B
:10229000947305EB810232F8022CCDE900310292F1
:1022A0000146C84B3246CA483DE005EB810212F8B0
:1022B000031C06290CD05C21AFF2242007F036FC69
:1022C000A8B35C21AFF2302007F030FC441C31E0B1
:1022D000C178090222F8021C2278007905EB8202FB
:1022E000014322F8021C5C21AFF2542007F01EFCCF
:1022F00030B15C21AFF2602007F018FC401C01E017
:10230000AFF26C20064605F001F821784FF4977380
:1023100005EB810232F8022CCDE900310292014630
:10232000A84B3246AB4807F079FA3846FEBDFFE7C6
:10233000AFF29C2404F0EAFF01464FF49970A14BE0
:1023400022460090AFF2B41007F068FA0220EDE7E1
:10235000FEB5A14C02460D462068A04F002601782C
:10236000297020684078687020683B7990F802C036
:10237000634520D05C21AFF2E02007F0D7FB30B1FD
:102380005C21AFF2EC2007F0D1FB451C01E0AFF27D
:10239000F82504F0BBFF23680146BA889B784FF408
:1023A000A1708DE80D00874B2A4615338C4807F045
:1023B00035FA0120BAE752888A4C22B1012A2CD082
:1023C000022A55D05AE004EB810111F8032C012AAE
:1023D00054D1007921F8020C5C21AFF2443007F0AF
:1023E000A5FB30B15C21AFF2503007F09FFB471CDA
:1023F00001E0AFF25C3704F089FF014628784FF422
:10240000A57304EB800232F8022CCDE900306D4B4D
:10241000029215333A4674A062E004EB810111F890
:10242000032C022A2AD1007921F8020C5C21AFF298
:10243000983007F07BFB30B15C21AFF2A43007F09D
:1024400075FB401C01E0AFF2B030074604F05EFFC0
:1024500029784FF4A87304EB810232F8022CCDE9FD
:102460000031584B0292014615333A466EA037E0D0
:1024700004EB810111F8032C032A0DD05C21AFF28B
:10248000E83007F053FB00282ED05C21AFF2F83083
:1024900007F04CFB441C29E0007921F8020C5C2178
:1024A000AFF20C4007F042FB30B15C21AFF21840B4
:1024B00007F03CFB401C01E0AFF22440074604F06B
:1024C00025FF0146287840F2551304EB800232F8CC
:1024D000022CCDE900303B4B029215333A4662A004
:1024E00007F09CF9304621E7AFF2544404F00EFFA8
:1024F0004FF4AD71334B0091153322460146AFF2D4
:102500006C3007F08BF9022010E73EB5DD218DF825
:1025100000103449092311F820208DF801200022F1
:102520008DF80220022201EB80008DF803208DF847
:10253000043041780723092918D2DFE801F0170594
:10254000080B0D11130F15008DF8052011E08DF803
:1025500005300EE008210AE0062108E0052106E02A
:10256000032104E0042102E0012100E010218DF8A4
:10257000051040886A46010A8DF806108DF807009C
:102580000020072112F8013B491E1844C0B2C9B20D
:10259000F8D28DF808000921684607F042F83EBDE0
:1025A000104901EB80014A78411C092A09D2DFE871
:1025B00002F099057B7E838B8F8794000122002196
:1025C00077E08FE09E9E000884A300083CA30008EB
:1025D00010A40008C8A300084C01002054010020EA
:1025E0009CA40008300100205B256C645D5B2538ED
:1025F000735D5B2538735D5B252D33645D5B494EF0
:10260000464F5D3A20B5B1C7B0B4D3BBFAB5D8D602
:10261000B72025642020C8CBCCE5BAECCDE2D6B5F6
:10262000CEAA2564200D0A005B256C645D5B25380D
:10263000735D5B2538735D5B252D33645D5B494EAF
:10264000464F5D3A20B5B1C7B0B4D3BBFAB5D8D6C2
:10265000B72025642020C9F9D2F4B4ABB8D0C6F7AE
:102660002564200D0A0000005B256C645D5B253845
:10267000735D5B2538735D5B252D33645D5B494E6F
:10268000464F5D3A20B5B1C7B0B4D3BBFAB5D8D682
:10269000B720256420BAECCDE2B4ABB8D0C6F7259C
:1026A00064200D0A000000000122114601E0012211
:1026B0000221401C00F0AAB9C8B2012200210AE0A0
:1026C000C8B20122114606E0C8B20122022102E08E
:1026D000C8B20122032100F033BDC8B2012200219B
:1026E00000F0BABA704700007FB500203D4E8DF86B
:1026F0000C008DF80800012203A93046FEF7B4FF54
:102700009DF80C00384DAA2839D05C2137A007F07D
:102710000DFA28B15C2135A007F008FA441C00E04E
:1027200032A404F0F3FD01462B200090344B2246E6
:10273000344807F073F8AA208DF8080001213046CC
:10274000FEF79BFF012202A93046FEF7AFFF0124EE
:102750008DF8084021462846FEF78FFF012202A986
:102760002846FEF7A3FF8DF80840274C012120469C
:10277000FEF783FF012202A92046FEF797FF012200
:1027800003A92846FEF770FF204D9DF80C005C2140
:10279000287016A007F0CAF928B15C2113A007F031
:1027A000C5F9441C00E011A404F0B0FD01462A78EC
:1027B0003A20CDE90002124B224615A007F02EF870
:1027C0007FBD10B5FEF780FC4FF4E134204606F0E3
:1027D0000FFE204606F08EFE204606F00DFFBDE8F7
:1027E000104081E700F0070800E807082E2E5C5330
:1027F00072635C6170705F736C6176652E6300005C
:10280000C39E0008ECA4000800E007083401002083
:102810005B256C645D5B2538735D5B2538735D5BA0
:10282000252D33645D5B494E464F5D3A20B5B1C7F7
:10283000B0B4D3BBFAB5D8D6B7CEAAD7B4CCACCE49
:10284000AA202564200D0A0004E000BF11F8013B16
:1028500000F8013B521EF9D2704701E000F8011B5D
:10286000521EFBD2704770B504466648664E002182
:1028700050F8240006EB84054200E868FFF7EDFFFE
:1028800060480021083050F82420A868FFF7E5FFD1
:1028900001203119087470BD10B55A4B5A4C0022F2
:1028A00053F82030114604EB800005E0C46834F88A
:1028B000114004B1521C491C8B42F7D8642042439A
:1028C000B2FBF3F0C0B210BD2DE9F0414E4E04460C
:1028D000002530190F46007C10B931682046884722
:1028E0004FF0FF327FB3474B1B1D53F82410B7FB4B
:1028F000F1F0B7FBF1FC01FB1C7101B1401C414937
:1029000051F82410491E21D406EB8406D6F80C7029
:1029100037F811C0BCF1000F05D00025854213D156
:10292000002285B208E06D1CF8E700BFF76801EBF4
:10293000020C521C27F81C508242F7D353F8240093
:102940004843BDE8F08101E0491EE1D51046F8E7B3
:1029500070B52D4A13181B7C9BB12A4B083353F8D2
:1029600020308B421AD9274B1B1D53F82030B1FB66
:10297000F3F102EB8003D86830F811200020044600
:1029800008E011688847012070BDDD680E18401C02
:1029900025F816409042F8DB002070BD022070BD83
:1029A000002905D0184A02EB80029268891ACFE705
:1029B000704710B50446FFF787FF411C05D0124948
:1029C00001EB84018968084410BD002010BD2DE989
:1029D000F0418846164605461146FFF775FF044646
:1029E000401CAED00848324600EB85074146B86827
:1029F0002044FFF729FF41462846FFF7D1FFB8687A
:102A000020449EE7D89E0008380100202DE9F041BF
:102A100088B0DFF8B0818DF8140002208DF8150021
:102A2000080A8DF81600100A8DF818008DF8171096
:102A30008DF8192098F8070016460F46062530B184
:102A4000012809D0022811D003280ED113E029460D
:102A500005A800F005FD03E0294605A800F00CFDDF
:102A6000044698F8070003280AD0A3E0294605A8E1
:102A700000F00DFDF4E7294605A800F015FDEFE78D
:102A8000200A8DF81A0050488DF81B409DF814104C
:102A900001709DF81510417047808680C48007251D
:102AA0005C214AA007F042F828B15C2147A007F05A
:102AB0003DF8401C00E045A0064604F027FC014616
:102AC0009DF814203C20CDE90002494B324649A034
:102AD00006F0A4FE5C213DA007F028F828B15C2197
:102AE0003AA007F023F8401C00E038A0064604F0A6
:102AF0000DFC01469DF815203D20CDE900023C4B20
:102B0000324647A006F08AFE5C2130A007F00EF89E
:102B100028B15C212DA007F009F8401C00E02BA093
:102B2000064604F0F3FB9DF817309DF816203E2171
:102B30008DE80E0001462E4B3246444806F06EFEEC
:102B40005C2122A006F0F2FF28B15C211FA006F054
:102B5000EDFF401C00E01DA0064604F0D7FB9DF8E9
:102B600019309DF818203F218DE80E000146204BBA
:102B70003246374806F052FE5C2114A006F0D6FF1C
:102B800028B15C2111A006F0D1FF401C00E00FA08D
:102B9000064604F0BBFB01469DF81B009DF81A2079
:102BA000CDE9032040208DE83100114B3246294801
:102BB00006F034FE691C05A806F031FC08B0BDE83B
:102BC000F08100004C010020540100202E2E5C53A7
:102BD00072635C6D6F646275736D61737465725C52
:102BE00066756E63646973635F6D2E630000000039
:102BF000E49E00085B256C645D5B2538735D5B2596
:102C000038735D5B252D33645D5B494E464F5D3AFD
:102C10002061646472657373203A2025640D0A0094
:102C20005B256C645D5B2538735D5B2538735D5B8C
:102C3000252D33645D5B494E464F5D3A2066756EC7
:102C400063203A2025640D0A00000000E4A5000876
:102C500040A5000884A500082DE9F04188B00F4682
:102C60008DF8140003208DF81500080A8DF8160061
:102C7000100A8DF818008DF8171016468DF81920D7
:102C800006255C21F9A006F051FF28B15C21F7A0D0
:102C900006F04CFF441C00E0F4A404F037FB0146AE
:102CA0009DF814201C20CDE90002FA4B2246FAA020
:102CB00006F0B4FD5C21EDA006F038FF28B15C21E0
:102CC000EAA006F033FF401C00E0E8A0044604F050
:102CD0001DFB01469DF815201D20CDE90002ED4B9E
:102CE0002246F8A006F09AFD5C21E0A006F01EFF47
:102CF00028B15C21DDA006F019FF401C00E0DBA03C
:102D0000044604F003FB01469DF817309DF8162099
:102D10001E208DE80D00DF4B2246F54806F07EFDB3
:102D20005C21D2A006F002FF28B15C21CFA006F002
:102D3000FDFE441C00E0CDA404F0E8FA01469DF835
:102D400019309DF818201F208DE80D00D14B224628
:102D5000E84806F063FDDFF8A08398F8070030B17B
:102D6000012809D0022811D003280ED113E02946EA
:102D700005A800F075FB03E0294605A800F07CFBE0
:102D8000044698F8070003280AD0A1E0294605A8C0
:102D900000F07DFBF4E7294605A800F085FBEFE78E
:102DA000200A8DF81A00D5488DF81B409DF81410A4
:102DB00001709DF81510417047808680C4800725FA
:102DC0005C21AAA006F0B2FE28B15C21A7A006F003
:102DD000ADFE461C00E0A5A604F098FA9DF814206C
:102DE0003921CDE900120146AA4B3246AAA006F0CD
:102DF00015FD5C219DA006F099FE28B15C219BA0E9
:102E000006F094FE401C00E098A0064604F07EFA0E
:102E10009DF815203A21CDE9001201469D4B32461E
:102E2000A8A006F0FBFC5C2190A006F07FFE28B174
:102E30005C218EA006F07AFE401C00E08BA00646C6
:102E400004F064FA9DF817309DF816203B218DE8B8
:102E50000E0001468F4B3246A54806F0DFFC5C2190
:102E600082A006F063FE28B15C2180A006F05EFE21
:102E7000461C00E07DA604F049FA9DF819309DF843
:102E800018203C218DE80E000146824B32469948BD
:102E900006F0C4FC5C2175A006F048FE28B15C2158
:102EA00072A006F043FE401C00E070A0064604F04D
:102EB0002DFA9DF81B109DF81A20CDE903213D2124
:102EC0008DE832000146734B32468D4806F0A6FC71
:102ED000691C05A806F0A3FA08B0BDE8F0812DE949
:102EE000F04188B0DFF810828DF8140006208DF8CC
:102EF0001500080A8DF81600100A8DF818008DF8D4
:102F000017108DF8192098F8070016460F46062569
:102F100030B1012809D0022811D003280ED113E0C6
:102F2000294605A800F09CFA03E0294605A800F010
:102F3000A3FA044698F8070003280AD0F6E02946C9
:102F400005A800F0A4FAF4E7294605A800F0ACFAB9
:102F5000EFE7200A8DF81A0068488DF81B409DF8AD
:102F6000141001709DF81510417047808680C48050
:102F700007255C213DA006F0D9FD28B15C213BA0CE
:102F800006F0D4FD401C00E038A0064604F0BEF96F
:102F900001469DF814207420CDE900023D4B3246D5
:102FA00017333DA006F03AFC5C2130A006F0BEFDD0
:102FB00028B15C212DA006F0B9FD401C00E02BA03B
:102FC000064604F0A3F901469DF815207520CDE9C9
:102FD0000002304B324617333AA006F01FFC5C214A
:102FE00022A006F0A3FD28B15C2120A006F09EFDE2
:102FF000401C00E01DA0064604F088F99DF817303B
:103000009DF8162076218DE80E00224B01461733DD
:103010003246374806F002FC5C2114A006F086FD1B
:1030200028B15C2111A006F081FD401C00E00FA03A
:10303000064604F06BF99DF819309DF818207721A9
:103040008DE80E00134B014617333246294806F02F
:10305000E5FB5C2105A006F069FD28B15C2103A019
:1030600006F064FD401C4FE04CE000002E2E5C5347
:1030700072635C6D6F646275736D61737465725CAD
:10308000686F6C6472656769737465725F6D2E63D7
:1030900000000000FB9E00085B256C645D5B25382A
:1030A000735D5B2538735D5B252D33645D5B494E35
:1030B000464F5D3A2061646472657373203A20253F
:1030C000640D0A005B256C645D5B2538735D5B25D0
:1030D00038735D5B252D33645D5B494E464F5D3A29
:1030E0002066756E63203A2025640D0A00000000FA
:1030F000D0A6000828A600084C010020540100209A
:103100006CA60008AFF29C00064604F0FFF80146EA
:103110009DF81B009DF81A20CDE9032078208DE84A
:103120003100054B3246054806F078FB691C05A8BE
:1031300006F075F9D0E60000129F00086CA60008A2
:103140002DE9F04188B00F468DF8140004208DF869
:103150001500080A8DF81600100A8DF818008DF871
:10316000171016468DF8192006255C2196A006F04A
:10317000DDFC28B15C2194A006F0D8FC441C00E0E2
:1031800091A404F0C3F801469DF814202020CDE955
:103190000002974B224697A006F040FB5C218AA0D4
:1031A00006F0C4FC28B15C2187A006F0BFFC401CDF
:1031B00000E085A0044604F0A9F801469DF815201A
:1031C0002120CDE900028A4B224695A006F026FB7D
:1031D0005C217DA006F0AAFC28B15C217AA006F053
:1031E000A5FC401C00E078A0044604F08FF80146DE
:1031F0009DF817309DF8162022208DE80D007C4B9D
:103200002246924806F00AFB5C216FA006F08EFC75
:1032100028B15C216CA006F089FC441C00E06AA483
:1032200004F074F801469DF819309DF81820232009
:103230008DE80D006E4B2246854806F0EFFADFF868
:10324000148298F8070030B1012809D0022811D063
:1032500003280ED113E0294605A800F001F903E088
:10326000294605A800F008F9044698F80700032845
:103270000AD0A1E0294605A800F009F9F4E729469B
:1032800005A800F011F9EFE7200A8DF81A0072483E
:103290008DF81B409DF8141001709DF815104170B9
:1032A00047808680C48007255C2147A006F03EFC4D
:1032B00028B15C2144A006F039FC461C00E042A67F
:1032C00004F024F89DF814203C21CDE900120146B9
:1032D000474B324647A006F0A1FA5C213AA006F01F
:1032E00025FC28B15C2138A006F020FC401C00E041
:1032F00035A0064604F00AF89DF815203D21CDE9D9
:10330000001201463A4B324645A006F087FA5C218E
:103310002DA006F00BFC28B15C212BA006F006FCCA
:10332000401C00E028A0064603F0F0FF9DF817308F
:103330009DF816203E218DE80E0001462C4B3246AA
:10334000424806F06BFA5C211FA006F0EFFB28B1A3
:103350005C211DA006F0EAFB461C00E01AA603F063
:10336000D5FF9DF819309DF818203F218DE80E00FB
:1033700001461F4B3246364806F050FA5C2112A037
:1033800006F0D4FB28B15C210FA006F0CFFB401C57
:1033900000E00DA0064603F0B9FF9DF81B109DF854
:1033A0001A20CDE9032140218DE832000146104B5F
:1033B00032462A4806F032FA691C05A806F02FF8B2
:1033C00008B0BDE8F08100002E2E5C5372635C6D86
:1033D0006F646275736D61737465725C696E70752C
:1033E0007472656769737465725F6D2E63000000A7
:1033F0002A9F00085B256C645D5B2538735D5B2547
:1034000038735D5B252D33645D5B494E464F5D3AF5
:103410002061646472657373203A2025640D0A008C
:103420005B256C645D5B2538735D5B2538735D5B84
:10343000252D33645D5B494E464F5D3A2066756EBF
:1034400063203A2025640D0A00000000D0A6000881
:1034500028A600084C010020540100206CA600089A
:10346000002203E010F8013B1A44D2B2491E89B28F
:10347000F8D25042C0B270470246002003E000BFBD
:1034800012F8013B5840491E89B2F9D2704710B575
:1034900002460020114B03E012F8014B4440185D36
:1034A000491E89B2F8D210BDF0B500250C4EFF239D
:1034B0001A4606F5807705E010F8014B5440325D5E
:1034C0005A403B5D491E89B2F6D2A8184FF6FF71EB
:1034D00001EA0020184480B2F0BD00003EA10008BF
:1034E0003E9F000810B58D4C402200212068FFF758
:1034F000B4F90822002104F10800FFF7AEF9082210
:10350000002104F11000FFF7A8F90020A080A071AD
:1035100010BD2DE9FF5F8B46814600273E465C21AA
:103520007FA006F003FB28B15C217DA006F0FEFA27
:10353000401C00E07AA0044603F0E8FE01463B2070
:1035400000907F4B22467FA006F068F9734C4FF045
:10355000000AA088411F3C2907D3A4F804A084F8DE
:1035600006A0012004B0BDE8F09FC5B25C216CA0AC
:1035700006F0DCFA28B15C2169A006F0D7FA401CFD
:1035800000E067A0804603F0C1FE0146A288442007
:10359000CDE900026A4B424676A006F03FF9E07999
:1035A00030B1012809D0022810D0032820D112E020
:1035B000291D2068FFF754FF03E0291D2068FFF74D
:1035C0005BFF06462168281D0F5C11E0291D20685D
:1035D000FFF75DFFF5E7AF1EB9B22068FFF764FFA4
:1035E00006462068691E415CC05D01EB002087B281
:1035F0005C214BA006F09AFA28B15C2148A006F0A5
:1036000095FA401C00E046A0804603F07FFE01468C
:10361000592003958DE8C100494B4246614806F0A8
:10362000FDF8A4F804A084F806A0BE4258D1216891
:1036300099F800200878824217D05C2138A006F063
:1036400075FA28B15C2136A006F070FA441C00E03F
:1036500033A403F05BFE642100910146384B2246FF
:1036600051A006F0DBF803207CE7487899F80110B8
:10367000814217D05C212AA006F058FA28B15C21BB
:1036800027A006F053FA441C00E025A403F03EFEF8
:1036900001466B2000902A4B224651A006F0BEF84E
:1036A00004205FE7022806D0032809D004280CD0A4
:1036B000062813D10EE059464846FEF749FE0DE0B4
:1036C00059464846FEF7B4FB08E059464846FEF71F
:1036D0007DFC03E059464846FEF73EFC002041E7EA
:1036E00002203FE710B5044640210020FFF761F9B2
:1036F0000A49002208608A808A71CC7108B10020D2
:1037000010BD062010BD10B5044C00202168FFF745
:1037100047F90020A080A07110BD00004C010020DE
:103720002E2E5C5372635C6D6F646275736D617392
:103730007465725C70726F746F636F6C2E630000DF
:103740003EA200085B256C645D5B2538735D5B25DC
:1037500038735D5B252D33645D5B494E464F5D3AA2
:1037600020D6F7BBFABDE2CEF6B0FCB3CCD0F22047
:103770000D0A00005B256C645D5B2538735D5B257D
:1037800038735D5B252D33645D5B494E464F5D3A72
:1037900020B5B1C7B0CAFDBEDDB3A4B6C82025644C
:1037A0000D0A000018A700085B256C645D5B2538D6
:1037B000735D5B2538735D5B252D33645D5B45521E
:1037C000524F5D3A20B7B5BBD8B5D8D6B7D3EBB713
:1037D000A2CBCDB5D8D6B7B2BBCDB3D2BB0D0A0004
:1037E0005B256C645D5B2538735D5B2538735D5BC1
:1037F000252D33645D5B4552524F5D3A20B7A2CB15
:10380000CDC3FCC1EED3EBB7B5BBD8C3FCC1EEB2A0
:10381000BBCDB3D2BB0D0A00F0B50268F64BF74D35
:10382000F74EF84FF84C4FF0804C984209D0A04228
:1038300007D0604505D0A84203D0B04201D0B842BD
:1038400004D122F0700E4A6842EA0E02984209D072
:10385000A04207D0604505D0A84203D0B04201D0B5
:10386000B84203D122F44075CA682A434D6922F058
:1038700080022A4302608A68C2620A6882629842B1
:1038800001D0A04201D10969016301214161F0BD6C
:10389000704710B5040003D094F83D0010B107E064
:1038A000012010BD002084F83C002046FDF73DFCBF
:1038B000022084F83D00211D2068FFF7ADFF0120A4
:1038C00084F83D00002010BD704710B5044602206A
:1038D00084F83D002068016A41F21112114207D1BB
:1038E000016A9210114203D1016821F001010160C7
:1038F0002046FDF745FC002084F83D0084F83C009C
:1039000010BD022180F83D1001688A6802F00702AC
:10391000062A03D00A6842F001020A60012180F8F9
:103920003D1000207047022180F83D1001680A6AAE
:1039300041F211131A4207D10A6A9B101A4203D1AD
:103940000A6822F001020A60012180F83D1000207F
:1039500070470168CA6842F00102CA600068816865
:1039600001F00701062903D0016841F0010101605F
:10397000002070470168CA6822F00102CA6000682E
:10398000016A41F21112114207D1016A92101142EB
:1039900003D1016821F001010160002070477047E8
:1039A00010B5406A012180F83D10FFF7F8FF10BD07
:1039B000704710B5406A012180F83D10FFF7F8FF0D
:1039C00010BD704710B5406A012180F83D10FFF727
:1039D000F8FF10BD70B5044690F83D0002281BD0DA
:1039E00094F83D00012804D101B9A2B9022084F85D
:1039F0003D00236A85489862236A8548D862AFF201
:103A00005F00236A18632568134605F12C02206ABB
:103A100004F0BBFB08B1012070BD2068C16841F40F
:103A20008071C1602068816801F00701062903D018
:103A3000016841F001010160002070BD10B504462D
:103A40000068C16821F48071C160206A04F0F8FB4D
:103A50002068016A41F21112114207D1016A9210E5
:103A6000114203D1016821F001010160012084F8B5
:103A70003D00002010BD704710B5040003D094F83D
:103A80003D0010B107E0012010BD002084F83C008B
:103A90002046FFF7F0FF022084F83D00211D20683A
:103AA000FFF7BAFE012084F83D00002010BD7047EA
:103AB00010B50446022084F83D002068016A41F2F6
:103AC0001112114207D1016A9210114203D101680B
:103AD00021F0010101602046FFF7E9FF002084F892
:103AE0003D0084F83C0010BD10B501F01F0301211A
:103AF000046A99408C430462016A9A40114301624E
:103B000010BD10B5044600680122FFF7EDFF3A49E9
:103B10002068884202D03C49884203D1416C41F47C
:103B2000004141642068816801F00701062903D043
:103B3000016841F001010160002010BD10B504468C
:103B400000680022FFF7D0FF2B4841F211122168D4
:103B50009310814202D02C48814209D1086A104258
:103B600006D1086A184203D1486C20F4004048642A
:103B70002068016A114206D1016A194203D1016825
:103B800021F001010160002010BD10B5026804465B
:103B900031B1042908D0082925D00C2908D126E004
:103BA000D06840F0020002E0D06840F00400D0602D
:103BB00001222068FFF798FF0F492068884202D051
:103BC0001149884203D1416C41F4004141642068AD
:103BD000816801F00701062903D0016841F0010165
:103BE0000160002010BDD06840F00800DFE7D06819
:103BF00040F01000DBE70000002C01400004004012
:103C000000080040000C004000340140C5390008A5
:103C1000B339000810B50268044631B1042908D050
:103C200008292FD00C2908D130E0D06820F00200FC
:103C300002E0D06820F00400D06000222068FFF786
:103C400053FFF74841F2111321689A10814202D0C4
:103C5000F448814209D1086A184206D1086A104224
:103C600003D1486C20F4004048642068016A19427E
:103C700006D1016A114203D1016821F001010160FE
:103C8000002010BDD06820F00800D5E7D06820F0F3
:103C90001000D1E7704710B5446A012184F83D1047
:103CA000626A824201D121770EE0A16A814201D18C
:103CB000022008E0E16A814201D1042003E0216B87
:103CC000814201D1082020772046FFF7E3FF002042
:103CD000207710BD704710B5446A012184F83D106B
:103CE000626A824201D121770EE0A16A814201D14C
:103CF000022008E0E16A814201D1042003E0216B47
:103D0000814201D1082020772046FFF7E3FF002001
:103D1000207710BD2DE9F041044690F83D0017468C
:103D20000D46022856D094F83D00012805D10FB960
:103D3000002B71D1022084F83D00AFF26500AFF294
:103D4000A901AFF2A33635B1042D16D0082D44D009
:103D50000C2D24D153E0626A9062606AC162606A8D
:103D6000394606632268606A343204F00EFA98BB62
:103D70002068C16841F4007110E0A26A9062A06AF4
:103D8000C162A06A394606632268A06A383204F02C
:103D9000FCF908BB2068C16841F48061C160012260
:103DA00029462068FFF7A0FE9D492068884202D07E
:103DB0009C49884203D1416C41F400414164206830
:103DC000816801F00701062903D0016841F0010173
:103DD00001600020BDE8F0811EE0E26A9062E06AC6
:103DE000C162E06A394606632268E06A3C3204F048
:103DF000CCF988B92068C16841F40061CEE7226B34
:103E00009062206BC162206B394606632268206B8A
:103E1000403204F0BAF908B10120DBE72068C1683C
:103E200041F48051BAE770B5044600680D0006D031
:103E3000042D0AD0082D38D00C2D0DD13BE0C168DF
:103E400021F40071C160606A04E0C16821F48061FE
:103E5000C160A06A04F0F4F9002229462068FFF747
:103E600043FE6F4B41F2111120688A10984202D034
:103E70006C4B984209D1036A0B4206D1036A134284
:103E800003D1436C23F4004343642068036A0B426C
:103E900006D1016A114203D1016821F001010160DC
:103EA000012084F83D00002070BDC16821F400614C
:103EB000C160E06ACEE7C16821F48051C160206B27
:103EC000C8E7704710B5040003D094F83D0010B166
:103ED00007E0012010BD002084F83C002046FFF7D9
:103EE000F0FF022084F83D00211D2068FFF794FCBC
:103EF000012084F83D00002010BD704710B5044635
:103F0000022084F83D002068016A41F2111211423A
:103F100007D1016A9210114203D1016821F0010119
:103F200001602046FFF7E9FF002084F83D0084F897
:103F30003C0010BD10B5044600680122FFF7D4FD17
:103F400037492068884202D03649884203D1416C03
:103F500041F4004141642068816801F007010629AD
:103F600003D0016841F001010160002010BD10B5CF
:103F7000044600680022FFF7B7FD294841F21112FC
:103F800021689310814202D02648814209D1086AF3
:103F9000104206D1086A184203D1486C20F4004050
:103FA00048642068016A114206D1016A194203D1AE
:103FB000016821F001010160012084F83D0000202A
:103FC00010BD10B50268044631B1042908D0082993
:103FD0002AD00C2908D12BE0D06840F0020002E082
:103FE000D06840F00400D06001222068FFF77CFD1B
:103FF0000B492068884202D00A49884203D1416CAB
:1040000041F4004141642068816801F007010629FC
:1040100003D0016841F001010160002010BD0000E3
:10402000002C014000340140D06840F00800DAE77D
:10403000D06840F01000D6E710B50268044631B1F0
:10404000042908D008292FD00C2908D130E0D068E5
:1040500020F0020002E0D06820F00400D0600022CE
:104060002068FFF741FDF74841F2111321689A10CB
:10407000814202D0F448814209D1086A184206D12F
:10408000086A104203D1486C20F40040486420685C
:10409000016A194206D1016A114203D1016821F077
:1040A000010101600020B9E7D06820F00800D5E7E1
:1040B000D06820F01000D1E72DE9F041044690F8D7
:1040C0003D0017460D46022856D094F83D000128C1
:1040D00005D10FB9002B70D1022084F83D00AFF25A
:1040E0000940AFF24D41AFF2477635B1042D16D0FD
:1040F000082D43D00C2D24D152E0626A9062606A90
:10410000C162606A394606632268606A343204F02C
:104110003CF890BB2068C16841F4007110E0A26ACD
:104120009062A06AC162A06A394606632268A06AEA
:10413000383204F02AF800BB2068C16841F480617D
:10414000C160012229462068FFF7CEFCBD492068E6
:10415000884202D0BC49884203D1416C41F40041FD
:1041600041642068816801F00701062903D00168D5
:1041700041F00101016000202CE61EE0E26A90623D
:10418000E06AC162E06A394606632268E06A3C324E
:1041900003F0FBFF88B92068C16841F40061CFE7F4
:1041A000226B9062206BC162206B394606632268E5
:1041B000206B403203F0E9FF08B101200AE62068D5
:1041C000C16841F48051BBE770B5044600680D003A
:1041D00006D0042D0AD0082D38D00C2D0DD13BE08F
:1041E000C16821F40071C160606A04E0C16821F413
:1041F0008061C160A06A04F023F80022294620688B
:10420000FFF772FC8F4B41F2111120688A1098421F
:1042100002D08D4B984209D1036A0B4206D1036A42
:10422000134203D1436C23F4004343642068036AC0
:104230000B4206D1016A114203D1016821F001014C
:104240000160012084F83D00002070BDC16821F4A8
:104250000061C160E06ACEE7C16821F48051C160AD
:10426000206BC8E7704710B5040003D094F83D00F8
:1042700010B107E00120D1E6002084F83C00204680
:10428000FFF7F0FF022084F83D00211D2068FFF7B2
:10429000C3FA012084F83D000020BFE6704710B546
:1042A0000446022084F83D002068016A41F21112A0
:1042B000114207D1016A9210114203D1016821F025
:1042C000010101602046FFF7E9FF002084F83D006E
:1042D00084F83C00A2E610B5044600680122FFF70E
:1042E00003FC2068816801F00701062903D00168FA
:1042F00041F001010160002090E610B5044600681D
:104300000022FFF7F1FB2068016A41F2111211420D
:1043100007D1016A9210114203D1016821F0010115
:10432000016000207AE610B50268044631B1042924
:1043300008D008291AD00C2908D11BE0D06840F019
:10434000020002E0D06840F00400D0600122206842
:10435000FFF7CAFB2068816801F00701062903D036
:10436000016841F001010160002057E6D06840F08B
:104370000800EAE7D06840F01000E6E710B50268F0
:10438000044631B1042908D008291ED00C2908D1CF
:104390001FE0D06820F0020002E0D06820F00400A6
:1043A000D06000222068FFF79FFB2068016A41F27D
:1043B0001112114207D1016A9210114203D1016812
:1043C00021F001010160002028E6D06820F00800FB
:1043D000E6E7D06820F01000E2E7704710B5446AC5
:1043E000012184F83D10626A824201D121770EE0FA
:1043F000A16A814201D1022008E0E16A814201D133
:10440000042003E0216B814201D10820207720465F
:10441000FFF7E3FF0020207700E6704710B5446AFD
:10442000012184F83D10626A824201D1217712E0B5
:10443000A16A814201D102200CE0E16A814205D1EA
:10444000042007E0002C014000340140216B814230
:1044500001D1082020772046FFF7DFFF00202077DA
:10446000DCE52DE9F041044690F83D000E460228B7
:1044700049D094F83D00012805D10AB9002B61D13B
:10448000022084F83D00AFF26B00AFF2AF05AFF64B
:10449000EF2136B1042E15D0082E35D00C2E22D1A6
:1044A00044E0676AB862606AC562606A0163216855
:1044B000606A343103F069FEB8BB2068C16841F41A
:1044C00000710FE0A76AB862A06AC562A06A0163C2
:1044D0002168A06A383103F058FE30BB2068C168FB
:1044E00041F48061C160012231462068FFF7FCFA87
:1044F0002068816801F00701062903D0016841F0B6
:1045000001010160002065E4E76AB862E06AC56203
:10451000E06A01632168E06A3C3103F036FE20B9AD
:104520002068C16841F40061DCE70BE0276BB862EA
:10453000206BC562206B01632168206B403103F062
:1045400024FE08B1012045E42068C16841F480518F
:10455000C8E770B5044600680D0006D0042D0AD0E7
:10456000082D27D00C2D0DD12AE0C16821F400714F
:10457000C160606A04E0C16821F48061C160A06A22
:1045800003F05EFE002229462068FFF7ADFA20689E
:10459000016A41F21112114207D1016A92101142CF
:1045A00003D1016821F001010160012084F83D0080
:1045B000002070BDC16821F40061C160E06ADFE7DE
:1045C000C16821F48051C160206BD9E7704770B594
:1045D0000D46040003D094F83D0010B107E001201F
:1045E00070BD002084F83C002046FFF7EFFF02205A
:1045F00084F83D00211D2068FFF70EF9206801684E
:1046000021F0080101602068016829430160012050
:1046100084F83D00002070BD704710B504460220AC
:1046200084F83D002068016A41F21112114207D15D
:10463000016A9210114203D1016821F00101016069
:104640002046FFF7E9FF002084F83D0084F83C0095
:10465000E4E410B50446006801220021FFF744FAA3
:10466000012204212068FFF73FFAFE4920688842B2
:1046700002D0FD49884203D1416C41F400414164BC
:104680000020CBE410B50446002200681146FFF775
:104690002BFA002204212068FFF726FAF14841F2A4
:1046A000111221689310814202D0EF48814209D152
:1046B000086A104206D1086A184203D1486C20F4F7
:1046C000004048642068016A114206D1016A19421B
:1046D00003D1016821F00101016000209EE410B5C2
:1046E00004460068C16841F00201C1602068C168E9
:1046F00041F00401C160012200212068FFF7F4F9B4
:10470000012204212068FFF7EFF9D649206888428A
:1047100002D0D549884203D1416C41F40041416443
:1047200000207BE410B504460068C16821F0020156
:10473000C1602068C16821F00401C16000221146F7
:104740002068FFF7D1F9002204212068FFF7CCF997
:10475000C44B41F2111120688A10984202D0C24B1A
:10476000984209D1036A0B4206D1036A134203D16E
:10477000436C23F4004343642068036A0B4206D170
:10478000016A114203D1016821F00101016000209A
:1047900044E470472DE9F0410D46040003D094F83D
:1047A0003D0010B107E00120E6E4002084F83C0061
:1047B0002046FFF7EEFF022084F83D002068816864
:1047C00044F2070291438160211D2068FFF724F81D
:1047D000226890689169166A2B68AF69034340F2BA
:1047E0000330814341EA0721A868EF6908434FF687
:1047F000FC418843E96840EA0720014328692F6AA1
:10480000000140EA0730084369686D6926F0220616
:1048100046EA051529439360226890612068016289
:10482000012084F83D000020A6E4704710B504463E
:10483000022084F83D002068016A41F21112114201
:1048400007D1016A9210114203D1016821F00101E0
:1048500001602046FFF7E9FF002084F83D0084F85E
:104860003C0020E410B50446006891B1042904D04E
:1048700001220021FFF738F9206801225FF00401CE
:10488000FFF732F92068016841F001010160002062
:1048900009E401220021F3E710B504460068D9B10C
:1048A000042904D000221146FFF71EF920680022D7
:1048B0005FF00401FFF718F92068016A41F2111254
:1048C000114207D1016A9210114203D1016821F00F
:1048D000010101600020CEE400221146EAE710B594
:1048E0000446006889B104294FF0010216D0002166
:1048F000FFF7FAF8012204212068FFF7F5F8206895
:10490000C16841F00201C1600BE001220021FFF704
:10491000EBF82068C16841F0020106E00421FFF7CE
:10492000E3F82068C16841F00401C16020680168B3
:1049300041F00101016000209DE410B504460068CB
:1049400041B304294FF000022DD00021FFF7CCF82D
:10495000002204212068FFF7C7F82068C16821F011
:104960000201C1602068C16821F00401C1602068B3
:10497000016A41F21112114207D1016A92101142EB
:1049800003D1016821F001010160012084F83D009C
:10499000002070E400221146FFF7A6F82068C168E5
:1049A00021F00201E2E70421FFF79EF8DAE72DE9A2
:1049B000F047044690F83D00089F9946022875D0BC
:1049C00094F83D00012808D112B1B9F1000F01D1CE
:1049D000002F6AD1022084F83D00AFF2BF50AFF241
:1049E0000365224E21B104291DD03C2979D13FE035
:1049F000616A3B468862606AC562606A06632168D4
:104A0000606A343103F0C1FB58BB2068C16841F4CF
:104A10000071C1602068016841F00101016001225C
:104A2000002120681AE0A16A3B464A468862A06AD3
:104A3000C562A06A06632168A06A383103F0A5FB4D
:104A400078B92068C16841F48061C160206801685C
:104A500041F001010160012204212068FFF744F8C0
:104A60003FE022E0002C014000340140A139000861
:104A7000616A80463B468862606AC562606A066316
:104A80002168606A343103F080FB70B9A16A3B464B
:104A90004A46C1F82880A06AC562A06A06632168F8
:104AA000A06A383103F071FB10B10120BDE8F08736
:104AB0002068016841F001010160012200212068A5
:104AC000FFF712F8012204212068FFF70DF8206893
:104AD000C16841F40071C1602068C16841F480611F
:104AE000C1600020E2E710B50446006879B30429EC
:104AF0004FF0000237D00021FEF7F6FF002204211C
:104B00002068FEF7F1FF2068C16821F40071C160E0
:104B10002068C16821F48061C160606A03F090FB85
:104B2000D4F8280003F08CFB2068016A41F21112CE
:104B3000114207D1016A9210114203D1016821F09C
:104B400001010160012084F83D0000200DE4FFE731
:104B500000221146FEF7C8FF2068C16821F40071E9
:104B6000C160606ADEE70421FEF7BEFF2068C1680D
:104B700021F48061C160D3E77047704770B5044687
:104B8000006801694FF00005C943890715D4C16861
:104B9000C943890711D4E91E0161012020772068EB
:104BA00080698007204602D0FFF737FC04E0FFF75A
:104BB000E4FF2046FFF78EF8257720680169C94396
:104BC000490717D4C168C943490713D46FF00401DA
:104BD0000161022020772068806910F4407F204620
:104BE00002D0FFF71AFC04E0FFF7C7FF2046FFF7EB
:104BF00071F8257720680169C943090716D4C1688F
:104C0000C943090712D46FF008010161042020771D
:104C10002068C0698007204602D0FFF7FEFB04E051
:104C2000FFF7ABFF2046FFF755F8257720680169AD
:104C3000C943C90617D4C168C943C90613D46FF064
:104C400010010161082020772068C06910F4407FBE
:104C5000204602D0FFF7E1FB04E0FFF78EFF20467D
:104C6000FFF738F8257720680169C943C90708D1DB
:104C7000C168C943C90704D1891E01612046FEF7F6
:104C8000A0FE20680169C943090609D4C168C94367
:104C9000090605D46FF080010161204601F0ACFBEC
:104CA00020680169C943490609D4C168C943490656
:104CB00005D46FF0400101612046FFF75DFF2068D9
:104CC0000169C94389060BD4C168C943890607D461
:104CD0006FF0200101612046BDE8704001F0EDBA9F
:104CE00070BD30B5026A22F480520262046A4268E2
:104CF000C3690D6823F4E64343EA05238D6824F471
:104D0000005444EA0534FE4DA84202D0FD4DA842AD
:104D100004D14D6922F4804242EA85124260C361A7
:104D200049680164046230BDF0B5026A22F4807201
:104D30000262026A4368C46922F4007224F07305B7
:104D40000C68F04E2C438D6842EA0522EC4DA842D7
:104D500001D0B04206D1CF6822F4006242EA0722B5
:104D600022F48062A84201D0B04207D14D6923F4F9
:104D7000405343EA05138D6943EA05134360C46158
:104D80004968C1630262F0BDF0B5026A22F0100208
:104D90000262026A436884690D6824F4E64444EAC6
:104DA00005248D6822F0200242EA0512D44DD54E2A
:104DB000A84201D0B04206D1CF6822F0800242EA78
:104DC000071222F04002A84201D0B04207D14D693B
:104DD00023F4406343EA85038D6943EA8503436016
:104DE0008461496881630262F0BDF0B5026A22F015
:104DF00001020262036A42688469C24E24F07305AC
:104E00000C682C4323F002058B682B43BC4DA84251
:104E100001D0B04205D123F00807CB683B4323F013
:104E20000403A84201D0B04205D14D6922F440727A
:104E300015438A692A434260846149684163036279
:104E4000F0BD70B5044690F83C0001280DD0012556
:104E500084F83C50022084F83D0042B1042A0AD074
:104E6000082A0CD00C2A11D10DE0022070BD206858
:104E7000FFF7BBFF0AE02068FFF786FF06E0206827
:104E8000FFF752FF02E02068FFF72BFF84F83D5048
:104E9000002084F83C0070BD70B5046A24F0010461
:104EA00004628469056A964EB0420ED0954EB042B7
:104EB0000BD0B0F1804F08D0934EB04205D0934E46
:104EC000B04202D0924EB04203D124F00304144306
:104ED00001E044F001041A0724F0F00444EA1262ED
:104EE00025F00A0301F00A0119438261016270BDD5
:104EF0002DE9F041044690F83C000D4601283AD0D7
:104F0000012684F83C60022084F83D0092B3042A14
:104F100043D02068082A52D0D5E90027E968036AFF
:104F200023F480530362D0F81CC0036A2CF4407C45
:104F30004CEA07274FF6FF7C27F470470CEA013153
:104F40003943770323F4005307EA02321A43C1615D
:104F500002622068C16921F44061C1612068C169B1
:104F6000AA6841EA0221C16184F83D60002084F80A
:104F70003C0019E401E0022016E4D5E90012EB68D8
:104F80002068FFF789FF2068816921F00C018161A9
:104F900020688169AA6811430FE0D5E90012EB6827
:104FA000206800F07BFC2068816921F44061816108
:104FB00020688169AA6841EA02218161D4E7D5E9C4
:104FC000002C2F7B016A21F480710162C169036AA0
:104FD00021F0030141EA0C0121F0F00C39074FF4F4
:104FE00000774CEA116123F4007307EA02221A43A6
:104FF000C16102622068C16921F00C01C1612068B1
:10500000C169AA681143AEE770B5044690F83C0048
:105010000D4601280DD0012684F83C60022084F85A
:105020003D0042B1042A18D0082A2AD00C2A4DD1BA
:1050300039E0022070BD2068FFF7D7FE2068816943
:1050400041F0080181612068816921F004018161DA
:10505000206881692A69114311E02068FFF794FEF6
:105060002068816941F4006181612068816921F4CF
:1050700080618161206881692A6941EA0221816138
:1050800024E02068FFF750FE2068C16941F0080164
:10509000C1612068C16921F00401C1612068C16952
:1050A0002A69114311E02068FFF71BFE2068C169DF
:1050B00041F40061C1612068C16921F48061C1616E
:1050C0002068C1692A6941EA0221C16184F83D6012
:1050D000002084F83C0070BDF0B51E4687B00D4638
:1050E0000446B2426ED094F83C00012820D001273B
:1050F00084F83C70022084F83D002868009009E0A4
:10510000002C014000340140000400400008004031
:10511000000C004068680190A8680290E86803905D
:1051200028690590686906902AB1042A0CD107E025
:10513000022007B0F0BD69462068FFF756FE03E085
:1051400069462068FFF720FE16B1042E34D114E022
:105150001835206895E80E00FFF79EFE20688169EB
:1051600021F00C0181612068816821F0700181606B
:105170002068816841F0500113E01835206895E8F7
:105180000E0000F08BFB2068816921F44061816191
:105190002068816821F0700181602068816841F099
:1051A000600181602068816821F0070181602068CA
:1051B000816841F00601816084F83D70002084F828
:1051C0003C00B6E70120B4E7704710B5406A012102
:1051D00080F83D10FFF7F8FFB8E410B5406A0121F0
:1051E00080F83D10FFF7C8FCB0E42DE9F047044615
:1051F00090F83D00089D9C4616468946022843D0FB
:1052000094F83D00012806D1BCF1000F00D1D5BBB8
:10521000022084F83D000127F948FA49FA4A07EBD1
:105220001523B6F5006F3BD009DCB6F5807F10D0B2
:10523000B6F5007F18D0B6F5806F5ED125E0B6F5E3
:10524000805F38D0B6F5005F40D0B6F5804F54D1BE
:1052500047E0226AED499162226AED49D162216AF2
:1052600008632268206A09E0D4F82480C8F828106E
:10527000616ACA62616A08632268606A61464C3288
:1052800002F083FFC0B3012010E4D4F82880C8F8EE
:105290002810A16ACA62A16A08632268A06AEDE7C1
:1052A000D4F82C80C8F82810E16ACA62E16A086361
:1052B0002268E06AE2E7D4F83080C8F82810216B51
:1052C000CA62216B08632268206BD7E7626BD14901
:1052D0009162626BD049D162616B08632268606B36
:1052E000CCE7A26BCD499162A26BCD49D162A16B93
:1052F00008632268A06BC1E7FFE7216849EA05005F
:1053000088642068C1683143C16084F83D70002022
:10531000BAE770B5044600200D46B1F5006F22D003
:1053200009DCB5F5807F10D0B5F5007F0FD0B5F55D
:10533000806F11D115E0B5F5805F16D0B5F5005F2F
:1053400015D0B5F5804F07D113E0206A00E0606A00
:1053500002F076FF002803D12168CA68AA43CA6018
:1053600070BDA06AF4E7E06AF2E7206BF0E7606BDB
:10537000EEE7A06BECE72DE9F047044690F83D001E
:10538000089D9C4616468946022845D094F83D0063
:10539000012806D1BCF1000F00D1E5BB022084F842
:1053A0003D009748012707EB1523AFF68F71AFF645
:1053B000D372B6F5006F3BD009DCB6F5807F10D014
:1053C000B6F5007F18D0B6F5806F5ED125E0B6F552
:1053D000805F38D0B6F5005F40D0B6F5804F54D12D
:1053E00047E0226A89499162226A8949D162216A29
:1053F00008632168206A09E0D4F82480C8F82810DE
:10540000616ACA62616A08632168606A62464C31F7
:1054100002F0BBFEC0B3012036E7D4F82880C8F8FC
:105420002810A16ACA62A16A08632168A06AEDE730
:10543000D4F82C80C8F82810E16ACA62E16A0863CF
:105440002168E06AE2E7D4F83080C8F82810216BC0
:10545000CA62216B08632168206BD7E7626B6D49D4
:105460009162626B6C49D162616B08632168606B09
:10547000CCE7A26B69499162A26B6949D162A16BC9
:1054800008632168A06BC1E7FFE7216849EA0500CE
:1054900088642068C1683143C16084F83D70002091
:1054A000F2E670B5044600200D46B1F5006F22D03B
:1054B00009DCB5F5807F10D0B5F5007F0FD0B5F5CC
:1054C000806F11D115E0B5F5805F16D0B5F5005F9E
:1054D00015D0B5F5804F07D113E0206A00E0606A6F
:1054E00002F0AEFE002803D12168CA68AA43CA6050
:1054F00070BDA06AF4E7E06AF2E7206BF0E7606B4A
:10550000EEE7A06BECE790F83C20012A0CD00122DA
:1055100000F83C2F0223437050F83C3C5961427024
:1055200000210170084670470220704710B584685A
:1055300042EA032224F47F440A43224382604BE67A
:10554000F0B5044690F83C0094460D4601280BD077
:10555000012684F83C60022084F83D00686800273A
:1055600020B1012815D107E00220F0BD2068816834
:1055700021F47F4181600CE0E96829B184F83D6045
:1055800084F83C700120F0BD2B69AA682068FFF701
:10559000CDFFBCF1000F09D0BCF1040F11D0BCF15C
:1055A000080F1AD0BCF10C0F3FD121E02868002869
:1055B0002068816902D041F080010CE021F0800177
:1055C00009E0286800282068816902D041F4004180
:1055D00001E021F40041816127E02868002820686B
:1055E000C16902D041F080011EE021F080011BE082
:1055F000286800282068C16914D041F4004113E0F4
:10560000A1390008D73C0008973C0008C5390008BC
:10561000B3390008BD620008AB620008DB51000826
:10562000CB51000821F40041C16184F83D6084F849
:105630003C700020F0BD70B5044690F83C00012895
:1056400017D0012584F83C50022084F83D002068E2
:10565000826822F0770222F47F4282600868502834
:1056600030D00DDC20284DD005DC98B310283BD17C
:1056700048E0022070BD302844D0402834D139E0C1
:10568000602828D0702806D0B0F5805F2CD0B0F507
:10569000005F29D10AE0CB68D1E901212068FFF73A
:1056A00045FF2068816841F0770109E0CB68D1E9C6
:1056B00001212068FFF73AFF2068816841F48041AA
:1056C000816011E0CA684968206800F00AF9502139
:1056D000206807E016E0CA684968206800F012F9FF
:1056E0006021206800F0F5F884F83D50002084F82F
:1056F0003C0070BDCA684968206800F0F2F840219B
:105700002068EFE7226801461046EBE70268506820
:1057100020F08000084350600020704710B50368F7
:105720009A6822F070044A68224322F007040A684B
:1057300022439A604A6812F00F0F30D11211082AE2
:105740002DD2DFE802F02C2C2C2C0B2127040B6926
:10575000D1E902210068FFF7E9FE20E00A68052A86
:1057600010D00268136A146A24F0010414620268FB
:105770009469096924F0F00444EA01119161006818
:1057800003620CE0012027E50A698968006800F0DF
:10579000A8F804E00A698968006800F0B3F80020FE
:1057A0001AE570B5044690F83C00012812D0012596
:1057B00084F83C50022084F83D002046FFF7AEFFFD
:1057C00001004FF0000007D084F83D5084F83C0001
:1057D000012070BD022070BD2168CA6822F040021D
:1057E000CA602168CA6822F48042CA6084F83D50C9
:1057F00084F83C00002070BD70B5044690F83C0071
:10580000012812D0012584F83C50022084F83D0084
:105810002046FFF783FF01004FF0000007D084F817
:105820003D5084F83C00012070BD022070BD21680D
:10583000CA6842F04002CA602168CA6822F4804205
:10584000CA6084F83D5084F83C00002070BD0246D8
:10585000002041B1042909D008290AD00C2901D11E
:105860001068006C70471068406B70471068806B60
:1058700070471068C06B704790F83D00704790F813
:105880003D00704790F83D00704790F83D0070472C
:1058900090F83D00704790F83D00704730B5046ABD
:1058A00024F0100404628469056A24F4407444EA14
:1058B000022222F470444FF6FF7202EA03322243BE
:1058C000A02425F0A00304EA0111194382610162BA
:1058D00030BD826822F070020A4342F00701816005
:1058E000704710B5036A046A24F0010404628469F5
:1058F00024F0F00444EA021423F00A020A4384610B
:10590000026269E410B5036A23F01003036283693D
:10591000046A23F4704343EA023224F0A00343EA0A
:1059200001118261016257E4704770B588B00E467C
:10593000040004D094F83D00002518B107E00120D0
:1059400008B070BD84F83C502046FFF7EDFF022000
:1059500084F83D00211D2068FDF75EFFB3683168C3
:1059600003222068FFF798FA2068816921F00C0172
:105970008161206881697268114381612068416892
:1059800041F0800141602068816821F070018160F0
:105990002068816841F0400181602068816821F0C1
:1059A000070181602068816841F0040181607020F6
:1059B000059504950695039502950090F068019071
:1059C00069462068FFF7E0F92068416821F070011E
:1059D00041602068416841F050014160012084F835
:1059E0003D000020ACE7704710B50446022084F863
:1059F0003D002068016A41F21112114207D1016A8B
:105A00009210114203D1016821F00101016020468A
:105A1000FFF7E9FF002084F83D0084F83C0010BD4A
:105A200010B50446006801220021FEF75DF82068E9
:105A3000816801F00701062903D0016841F00101E6
:105A40000160002010BD10B5044600220068114618
:105A5000FEF74AF82068016A41F21112114207D19B
:105A6000016A9210114203D1016821F00101016025
:105A7000002010BD10B504460068C16841F0020165
:105A8000C160012200212068FEF72EF8206881689D
:105A900001F00701062903D0016841F0010101600E
:105AA000002010BD10B50446002200681146FEF724
:105AB0001BF82068C16821F00201C1602068016AFA
:105AC00041F21112114207D1016A9210114203D121
:105AD000016821F001010160002010BD70B504468D
