:020000040800F2
:10000000C0130020450100084F2B0008812900087B
:100010004D2B0008B1070008E12F00080000000088
:10002000000000000000000000000000B92B0008E4
:10003000A10A000800000000512B0008BB2B00089B
:100040005F0100085F0100085F0100085F01000810
:100050005F0100085F0100085F0100085F01000800
:100060005F0100085F0100085F0100085F010008F0
:100070005F0100085F0100085F0100085F010008E0
:100080005F0100085F0100085F0100085F010008D0
:10009000D52F00085F0100085F0100085F0100081C
:1000A0005F0100085F0100085F0100085F010008B0
:1000B000692C00085F0100085F0100085F0100086B
:1000C0005F0100085F0100085F0100085F01000890
:1000D0005F010008BD2F0008C92F00085F0100085C
:1000E0005F0100085F0100085F0100085F01000870
:1000F0005F0100085F0100085F0100085F01000860
:100100005F0100085F0100085F0100085F0100084F
:100110006D2D00085F0100085F0100085F01000805
:100120005F0100085F0100085F0100085F0100082F
:10013000DFF80CD000F0CCFA00480047393900084D
:10014000C01300200648804706480047FEE7FEE748
:10015000FEE7FEE7FEE7FEE7FEE7FEE7FEE7FEE777
:10016000212C000831010008202A04DB203A21FA62
:1001700002F00021704721FA02F3D040C2F12002C0
:100180009140084319467047D2B201E000F8012BB4
:10019000491EFBD270470022F6E710B513460A4607
:1001A00004461946FFF7F0FF204610BD2DE9FE4F2B
:1001B000804681EA0300C00F0C46009021F0004108
:1001C00023F00045B8EB0200A94105D24046214684
:1001D00090461C460B46024623F00040104347D091
:1001E000270DC7F30A00C3F30A510290401A019089
:1001F00040286BDAC3F3130040F4801B009892464A
:1002000020B10023D2EB030A63EB0B0B0198594694
:10021000C0F14002504600F03DF906460D465046FA
:100220005946019A00F045F910EB0800614100249D
:1002300087EA115284EAE7731A4340D0009A62B306
:10024000019A012A4FEA075215DC001B61EB0201FB
:100250004FF0004202EA0752CDE90042001C41F58E
:10026000801132462B4600F045F903B0BDE8F08F0F
:1002700040462146F9E7001B61EB0201001C41F5F5
:10028000801300185B412018A2F5001747EB03010B
:1002900040EAD570B6196D4111E06D084FEA360697
:1002A00045EAC0754FEA0752001B61EB0201001CD2
:1002B00041F5801149084FEA30000019514132469A
:1002C0002B4603B0BDE8F04F00F005B900980122BD
:1002D00040000023D0EB020263EBE073009821465C
:1002E0004FEAE074B8EB000061EB0401E9E783F04A
:1002F00000435BE781F0004158E72DE9FE4F81EABA
:10030000030404F0004421F0004100944FF0000B7E
:1003100023F0004350EA01045ED052EA03045BD0AC
:10032000C3F30A54C1F30A552C44A4F2F3340194E4
:10033000A0FB0254C1F3130141F48011C3F3130372
:1003400043F4801301FB024400FB034E840A970A26
:1003500044EA815447EA8357A4FB076802958D0A53
:1003600005FB07854FEA932C04FB0C542705029DDF
:100370004FEA065847EA1637B5EB08056EEB070C4F
:10038000870E920E47EA811742EA8312A7FB020109
:10039000B6EB0B0164EB00042B0D43EA0C335E1843
:1003A00044EB1C50DA465146E7FB0201C5F3130447
:1003B0004FEA0B3343EA14534FEA0432019C43EAF9
:1003C0000603A4F10C040294009CCDE900B400F0F3
:1003D00091F803B0BDE8F08F00200146F9E720F066
:1003E0000040C10DC0F3160040F400007F2901DA7F
:1003F00000207047962903DCC1F19601C840704780
:1004000096398840704730B50B46014600202022BF
:10041000012409E021FA02F59D4205D303FA02F511
:10042000491B04FA02F52844151EA2F10102F1DC71
:1004300030BD2DE9F05F0546002092469B46884678
:100440000646814640241BE0284641464746224650
:10045000FFF78AFE53465A46C01A914110D31146FF
:100460001846224600F016F82D1A67EB01084F4691
:1004700022460120002100F00DF817EB00094E4143
:10048000201EA4F10104DFDC484631462A464346DB
:10049000BDE8F09F202A04DB203A00FA02F1002098
:1004A00070479140C2F1200320FA03F319439040B2
:1004B0007047202A06DBCB17203A41FA02F043EAC4
:1004C000E07306E041FA02F3D040C2F1200291400D
:1004D00008431946704710B5141E73F1000408DA7A
:1004E000401C41F1000192185B411A4301D120F0F8
:1004F000010010BD2DE9F04D92469B4611B1B1FAB5
:1005000081F202E0B0FA80F220329046FFF7C2FF9B
:1005100004460F4640EA0A0041EA0B0153465A4698
:10052000084313D0114653EA010019D0C8F1400224
:100530005046FFF719FE05460E46504659464246BC
:10054000FFF7A8FF084305D0012004E02046394604
:10055000BDE8F08D0020054346EAE0762C433743A2
:100560000A986305E40AA0EB08000022FD0A44EAA9
:1005700047540A3002D500200146E9E70105101969
:100580006941DDE9084500196941BDE8F04DA2E780
:100590002DE9F04D81EA030404F0004B21F0004501
:1005A00014464FF0000A23F0004150EA050220D023
:1005B00054EA01021DD0C5F30A570246C5F31303DE
:1005C000C1F31300C1F30A5640F4801543F48013BD
:1005D000A7EB0608101BD64608F2FD3873EB0500A2
:1005E00002D308F1010801E092185B41B8F1000F55
:1005F00003DA00200146BDE8F08D00204FF48011A1
:10060000064684460EE0171B73EB050705D3121B45
:1006100063EB050306434CEA010C49084FEA30003E
:1006200092185B4150EA0107EDD152EA030012D063
:1006300082EA040083EA0501084305D0101BAB41A0
:1006400006D20122002306E000224FF0004302E020
:100650006FF0010253101AEB06004CEB085110EB3F
:100660000A0041EB0B01BDE8F04DFFF734BFC1F3C9
:100670000A52C1F3130140F2FF3341F480119A4250
:1006800002DA00200146704740F233439A42A2F258
:10069000334202DC5242FFF767BDFFF7FBBE0000AA
:1006A00030B5041E71F1000404DB4FF000444042F9
:1006B00064EB0101141E73F1000405DB1C464FF0CE
:1006C0000043524263EB0403994208BF904230BD9D
:1006D000064C074D06E0E06840F0010394E807008F
:1006E00098471034AC42F6D3FFF726FD643B000870
:1006F000843B000870B5044600688168C943C90797
:100700001CD1816821F00101816001F073F9054677
:100710000FE000BF01F06EF9401B022809D9A06A62
:1007200040F01000A062E06A40F00100E0620120A9
:1007300070BD20688068C043C007EBD0002070BD4A
:10074000F8B500260446009600688168C943C907C9
:1007500028D0816841F00101816013481349006885
:10076000B0FBF1F000E0401E00900028FBD101F04A
:1007700041F9054611E000BF01F03CF9401B022899
:100780000BD9A06A40F01000A062E06A40F00100BE
:10079000E06284F824600120F8BD20688068C043CE
:1007A000C007E9D10020F8BD5C00002040420F00E6
:1007B000FEE7000010B58AB0044600200121039036
:1007C0000490CDE90601CDE9081005900090019054
:1007D00002906946204600F043FC10B106A002F0EA
:1007E0000FFC0221204600F0C5FB002802D006A025
:1007F00002F006FC0AB010BDBFAAC6F443414ECABF
:10080000A7B0DC0D0A000000BFAAC6F4B9D2C6F03A
:10081000D6D0B6CFD4CAD0EDCAA7B0DC0D0A00003E
:1008200030B515460A4689B001460020CDE90210D0
:100830000490CDE9050204466B4602E01C54401CBE
:1008400080B29042FAD32B4800788DF800008DF8E2
:10085000041029A002F0D4FB9DF8001032A002F091
:10086000CFFB284602F0BDFB0546014638A002F04A
:10087000C7FB25B1012D10D0022D2BD114E03E482D
:100880000088010A8DF801108DF802003BA002F0EB
:10089000B7FB9DF8021047A01AE0544800788DF885
:1008A00001008DF8024015E051480068FFF797FD00
:1008B000C4B250488DF801400068FFF790FD8DF8F4
:1008C000020021464CA002F09BFB9DF8021058A0AC
:1008D00002F096FB644B6A4602A9644800F05CFB98
:1008E00008B163A000E068A002F08AFB09B0002014
:1008F00030BD00002A00002063616E2073656E64C5
:10090000206D7367207374646964203E3E206D79A6
:1009100020737464696420B1EAD7BC2049443D2542
:1009200078200D0A0000000063616E2073656E641C
:10093000206D7367207374646964203E3E20736584
:100940006E736F7220747970652025640D0A000043
:1009500063616E2073656E64206D736720737464C9
:100960006964203E3E2076616C75652074797065FF
:100970002025640D0A0000000400002063616E2041
:1009800073656E64206D7367207374646964203EC0
:100990003E2076616C7565206164632074786D65B6
:1009A000737361676520646174615B315D3D2564CB
:1009B0000D0A000063616E2073656E64206D7367BD
:1009C000207374646964203E3E2076616C756520F6
:1009D0006164632074786D65737361676520646119
:1009E00074615B325D3D25640D0A0000200000202B
:1009F0001C0000201800002063616E2073656E6487
:100A0000206D7367207374646964203E3E207661B4
:100A10006C7565206932632074786D6573736167E6
:100A20006520646174615B315D3D25640D0A0000E1
:100A300063616E2073656E64206D736720737464E8
:100A40006964203E3E2076616C75652069326320C2
:100A500074786D65737361676520646174615B327E
:100A60005D3D25640D0A0000340000209400002044
:100A700063616E2073656E642064617461206572C9
:100A8000726F720D0A00000063616E2073656E6400
:100A9000206461746120737563636573730D0A006C
:100AA0007047000010B50A4800F0EAF90A2108482A
:100AB00000F04EF9064800F08BF880B24FF4A571B3
:100AC0004843040B024800F03BFA204610BD0000EA
:100AD00064000020F8B50024009490F824202546F6
:100AE000012A12D0012280F824204A681F23072AF5
:100AF0000DD20668776B521E02EB820293409F4331
:100B00000B6893401F43776319E00220F8BD066825
:100B10000D2A0AD2376BD21F02EB820293409F4309
:100B20000B6893401F43376309E0F76A0D3A02EB05
:100B3000820293409F430B6893401F43F7620A6809
:100B4000072306680A2A0AD3F7680A3A02EB420228
:100B500093409F438B6893401F43F76008E03769D9
:100B600002EB420293409F438B6893401F433761DF
:100B70000A68102A01D0112A20D1124B02689A4229
:100B800017D193681B0219D4936843F40003936050
:100B90000968102912D10C490C4A0968B1FBF2F11D
:100BA00001EB8101490000E0491E00910029FBD1C1
:100BB00004E0816A41F020018162012480F8245020
:100BC0002046F8BD002401405C00002040420F0098
:100BD0000068C06C704700002DE9F04104004FF040
:100BE00000057FD0A06A002628B9E66284F8246058
:100BF000204600F081F82046FFF77CFDA16AC90677
:100C000000D420B1A06A40F01000A0626AE0A16A9E
:100C100021F4885141F00201A162334923688B42DB
:100C2000E16904D1B1F5402F01D14FF40021277BB8
:100C30004FF4807C41EA470261680A43A16861453C
:100C400008D0012906D0002194F814E0BEF1010F6C
:100C500002D00AE06146F7E7C7B1A76A47F020076C
:100C6000A762E76A47F00107E7625F6827F4694710
:100C70000F435F60236899681C4F394011439960A6
:100C8000A16861450BD0012909D00CE0DFF860E0D4
:100C9000A7690EEB47370F4347F40061E5E7218A68
:100CA0000D05A5F580152168CB6A23F470032B434D
:100CB000CB62216889680F4B1940914208D1E662E6
:100CC000A16A21F0020141F00101A162BDE8F081B9
:100CD000A06A20F0020040F01000A062E06A40F03C
:100CE0000100E0620120F1E7003C0140FDF7E1FF77
:100CF00000E0FFFFFE0E1FFF00B585B00021009150
:100D000001910291039100680E49884218D10E4862
:100D1000816941F400718161816901F4007104917C
:100D2000816941F0040181618069694600F0040035
:100D300004900120009003200190044800F058FD29
:100D400005B000BD00240140001002400008014031
:100D50002DE9F84300260D460446009600F04AFEB1
:100D6000804620688168C90508D5A06A40F0200047
:100D7000A06284F824600120BDE8F8834168C905B9
:100D800003D4C06A10F4700F26D0022000F0D0FE09
:100D900038490968B1FBF0F72068036936490B420E
:100DA0004FEA61014FEAA1121BD1C3684FEA611CEF
:100DB00013EA0C0F15D103690B4221D1C068104210
:100DC0001ED114201FE0681C06D045B300F012FEAF
:100DD000A0EB0800A84222D8206800688007F2D55E
:100DE0002AE003690B4202D1C168114206D00269B0
:100DF00022490A4206D1C068084203D1542002E0C9
:100E0000292000E0FC204743009813E0681C0ED026
:100E10002DB100F0EFFDA0EB0800A84207D9A06AB1
:100E200040F00400A06284F824600320A4E7009846
:100E3000401C0090B842E9D321686FF012000860AE
:100E4000A06A40F40070A06220688068C0F342404D
:100E500007280CD1207B50B9A06A20F48070A062D2
:100E6000A06AC00403D4A06A40F00100A062002080
:100E700082E700005C00002024499224499224006B
:100E800070B5044690F8240001280DD0012084F8A4
:100E900024002046FFF754FC02004FF0000005D06C
:100EA00084F82400104670BD022070BDA16A40F293
:100EB0000123994341F48071A1621F4D23681F49AA
:100EC000AB4218D10E6816F4702F14D0A66A46F4FF
:100ED0008016A6620E68760505D5A66A26F4005629
:100EE00046F48056A662A66AF6040AD5E66A26F09B
:100EF0000606E66206E0A66A26F48016A6625E682A
:100F0000E9E7E06284F824006FF0020018602068CE
:100F10008368C3F34243072B05D1A84208D109686F
:100F200011F4702F04D0816841F480118160B9E719
:100F3000816841F4A001F9E7002801400424014040
:100F400010B5044690F82400012807D0012084F849
:100F500024002046FFF7CEFB10B107E0022010BDB1
:100F6000A16A21F4885141F00101A162002184F8B5
:100F7000241010BD90F82020012A07D0022A05D0A5
:100F8000416A41F480214162012070470068426952
:100F90000A43426100207047F0B590F82050046881
:100FA000A468012D05D0022D03D0416A41F48021AF
:100FB00053E014F0406F01D1E5004BD5C4F3016458
:100FC000022C03D9416A41F4000146E00125A54005
:100FD0001D608D684FF4C0739DB1CE6835434E6877
:100FE00045EAC605066803EB0417F5514FF4C275D0
:100FF000076805EB04150E697E51097D012905D0AE
:1010000009E00E88CD6845EA4655EBE701684E5980
:1010100046F480764E511179D2F805504FF4C676D9
:1010200041EA0525016806EB04168D511178D2F8C6
:1010300001204FF4C47541EA0221026805EB041552
:101040005151006803EB0411425842F00102425032
:101050000020F0BD416A41F4001141620120F0BD61
:1010600010B590F820300268012B07D0022B05D074
:10107000416A41F480214162012010BDD2F8000292
:1010800040F00100C2F80002087D00F01F030120BB
:101090009840D2F81C328343C2F81C32CB69B3B9F2
:1010A000D2F80C328343C2F80C328C894B6864F35B
:1010B0001F434C6902EBC404C4F840320C890B682E
:1010C00064F31F434C6902EBC404C4F84432CB6997
:1010D000012B16D1D2F80C320343C2F80C320C8823
:1010E0004B6864F31F434C6902EBC404C4F84032FC
:1010F0000C89CB6864F31F434C6902EBC404C4F849
:1011000044328B69002BD2F804320FD053EA00032B
:10111000C2F804320B69002BD2F8143208D0034312
:10112000C2F81432096A012904D008E08343EFE7CA
:101130008343F5E7D2F81C120143C2F81C12D2F81F
:10114000000220F00100C2F80002002010BD70472C
:1011500030B590F82040012C05D0022C03D0416A14
:1011600041F480215DE00468002955D02469A4077A
:1011700054D04FF4D874056804EB01142D5915F0C0
:101180000405956005682D594ED0ED085560056839
:101190002C5904F00204D4604FF4DA74056804EBAF
:1011A00001142D5905F00F05156105682D59C5F37A
:1011B0000725956105682C59240C54614FF4DC72A5
:1011C000046802EB0112A4581C700468A458240A95
:1011D0005C700468A458240C9C700468A258120E19
:1011E000DA704FF4DE72046802EB0112A4581C712D
:1011F0000468A458240A5C710468A458240C9C71E7
:101200000468A258120EDA71006881B1016941F0D8
:1012100020010161002030BDE468A8E7416A41F483
:1012200000114162012030BD6D0D1560AFE7C1684E
:1012300041F02001C160EDE72DE9F05F054600684F
:1012400000244669D0F804908768D0F80CB0D0F834
:1012500010A0D0F81880F10748D0F90714D0012168
:101260008160B80703D5284600F011FA0CE0780732
:1012700002D54FF4006407E0380702D54FF48054DC
:1012800002E0284600F002FAF80516D529684FF466
:1012900080708860B80503D5284600F0FAF90CE0A4
:1012A000780502D544F4005407E0380502D544F42B
:1012B000804402E0284600F0EBF9F80316D52968CF
:1012C0004FF480308860B80303D5284600F0E3F976
:1012D0000CE0780302D544F4004407E0380302D55B
:1012E00044F4803402E0284600F0D4F9300707D5F2
:1012F0005FEACB6004D52968102044F40074C8600C
:1013000070074FF0080707D55FEA0B7004D528680F
:10131000C760284600F05AF9B00706D52868C068AB
:10132000800702D0284600F053F9700607D55FEA1F
:10133000CA6004D52968102044F480640861B006AE
:1013400007D55FEA0A7004D528680761284600F0CF
:101350006DF9F00606D528680069800702D0284696
:1013600000F065F9B00308D55FEAC96005D52968C2
:1013700010204860284600F05BF9F00307D55FEACB
:10138000097004D528684760284600F085F93004C4
:1013900046D55FEA497040D5F00504D55FEAC870CC
:1013A00001D044F00104B00504D55FEA887001D58E
:1013B00044F00204700504D55FEA487001D544F09A
:1013C0000404300529D518F0700F26D008F07000FD
:1013D000402815D006DC102809D020280AD0302853
:1013E00016D10AE050280ED0602811D10EE044F04A
:1013F00008040DE044F010040AE044F0200407E083
:1014000044F0400404E044F0800401E044F48074BB
:101410002868816921F07001816129680420486091
:10142000002C05D0686A204368622846FFF78FFECB
:10143000BDE8F09F70B5040003D094F8200010B10F
:1014400004E0012070BD204600F082F820680168A9
:1014500021F00201016000F0CDFA0546052604E006
:1014600000F0C8FA401B0A2811D82068406880079D
:10147000F6D42068016841F00101016000F0BAFA79
:1014800005460BE000F0B6FA401B0A2806D9606A50
:1014900040F40030606284F82060D2E72068406841
:1014A000C007EFD0207E0128206801683DD021F0E0
:1014B00080010160607E01282068016838D021F039
:1014C00040010160A07E01282068016833D021F02E
:1014D00020010160E07E0128206801682ED041F0E3
:1014E00010010160207F01282068016829D021F0C7
:1014F00008010160607F01282068016824D021F084
:1015000004010160D4E902010843D4E90412114343
:1015100008436168491E08432168C8610020606271
:10152000012084F82000002070BD41F08001C0E758
:1015300041F04001C5E741F02001CAE721F0100168
:10154000CFE741F00801D4E741F00401D9E70000FA
:1015500010B586B0002100910191029103910068BD
:10156000174988422AD11748C16941F00071C16109
:10157000C16901F000710491816941F00401816148
:101580008069114C00F0040004904FF4006000905A
:101590006946204600F02CF9A0140090022001902A
:1015A000032003906946204600F022F900221146EC
:1015B000142000F08BFA142000F07AFA06B010BD67
:1015C0000064004000100240000801407047000025
:1015D00070B58AB00021089109910191029103919F
:1015E00008AB01AA0591FFF7B3FD002812D1002432
:1015F00008AD094E05E0295D315508A001F000FD58
:10160000641C0598A042F6D806A001F0F9FC064932
:10161000012008700AB070BD220000202530325829
:10162000200000000D0A00002100002070477047D4
:101630007047000070B5044690F82000012804D0DF
:10164000606A40F40020606218E0022084F8200004
:101650002068016821F00101016000F0CBF9054626
:101660000EE000BF00F0C6F9401B0A2808D9606AE6
:1016700040F400306062052084F82000012070BD35
:1016800020684068C007EDD1606270BD7047704748
:101690007047704770477047704700002DE9F05F52
:1016A00090F821100024022903D004218163012431
:1016B00085E001680A6822F00E020A6001680A6883
:1016C00022F001020A603F4E3E4FB215DFF8F4C02F
:1016D000DFF8F090DFF8ECA0DFF8E8B0DFF8E4E046
:1016E0000168783F13011502ACF1640CA9F15009AF
:1016F000AAF13C0AABF1280BAEF1140E4FF480189E
:10170000B14227D9B9420ED0614512D049451DD00A
:10171000514518D0594518D0714501D1424615E0C0
:10172000294EB14201D1012210E0274E1436B142B8
:1017300001D110220AE0244E2836B14206D0224AB6
:101740003C32914201D11A4600E02A461E49091F47
:101750000A602BE0B94213D0614517D0494522D029
:1017600051451DD059451DD0714501D142461AE061
:10177000B14202D14FF0807215E0134EB14201D157
:10178000012210E0104E1436B14201D110220AE0BD
:101790000D4E2836B14206D00B4A3C32914201D15F
:1017A0001A4600E02A46074980394A60012180F83C
:1017B0002110002180F82010416B01B1884720469C
:1017C000BDE8F09F800002400804024070B5044666
:1017D00000F010F90546601C02D00448007804446B
:1017E00000F008F9401BA042FAD370BD5000002061
:1017F0002DE9F84FDFF8C891002409F1040A0AF135
:10180000040B23460F270BF1040ED1E00125A54060
:1018100006EA0502AA4276D1DFF8A8C14E68A6EB17
:101820000C0866452BD00DDC032E34D005DC36B316
:10183000012E19D0022E2FD11BE0112E16D0122E00
:101840002AD119E0B8F5881F19D006DCB8F5803F19
:1018500015D0B8F5801F1FD111E0B8F5001F0ED0CC
:10186000B8F5041F18D10AE0CB6815E0CB681B1D42
:1018700012E0CB6808330FE0CB680C330CE08B68C8
:101880002BB1012B4FF0080303D0456104E0042382
:1018900002E0056100E00023FF2A01D8064601E0CE
:1018A00000F104064FEA840501D9A5F12005D6F818
:1018B000008007FA05FC28EA0C0803FA05F548EA57
:1018C0000508C6F800804D68ED0070D53E4DAE6944
:1018D00046F00106AE61AD6924F0030605F001058E
:1018E00000953A4D06EB050CDCF80850A607360FBC
:1018F00007FA06F825EA0805DFF8D480404503D149
:101900004FF0000825E052E0DFF8C880404502D1E2
:101910004FF001081DE0DFF8C080404502D14FF0D4
:10192000020816E0DFF8B480404502D14FF003080A
:101930000FE0DFF8AC80404502D14FF0040808E02A
:10194000DFF8A080404502D14FF0050801E04FF0DC
:10195000060808FA06F848EA0508CCF808804D6839
:10196000D9F80060ED034D4601D5164300E09643DB
:101970002E604D68DAF80060AD03554601D5164378
:1019800000E096432E604D68DBF80060ED025D4696
:1019900001D5164300E096432E604D68DEF80060E6
:1019A000AD02754601D5164300E096432E60641CD7
:1019B0000A681646E2407FF429AFBDE8F88F0000C0
:1019C000000401400000111000100240000001401E
:1019D00000080140000C01400010014000140140CB
:1019E00000180140001C01400AB101617047090460
:1019F000FBE70000014880687047000050000020AD
:101A000002488168027811448160704750000020CC
:101A1000074810B5016841F010010160032000F093
:101A200075F8002000F006F800F024F8002010BD42
:101A30000020024070B50D4D04464FF47A712878AD
:101A4000B1FBF0F00A490968B1FBF0F000F0CCFB03
:101A500048B9102C07D200222146501E00F036F85B
:101A600000206C6070BD012070BD0000500000209F
:101A70005C0000200C4808B5816941F001018161DA
:101A8000816901F001010091C16941F08051C1619A
:101A9000C06900F0805000900448416821F0E06186
:101AA00041F00071416008BD00100240000001409B
:101AB000002809DB00F01F0201219140400980004D
:101AC00000F1E020C0F8001170470000F0B40E4BA8
:101AD0001B680C46C3F30223C3F10705042D00D98C
:101AE0000425191D072901D2002300E0DB1E012671
:101AF00006FA05F1491E214099409E40761E164087
:101B00003143F0BC01F08CBA0CED00E0064900F066
:101B1000070208684FF6FF03184040EA0220034A14
:101B200010430860704700000CED00E00000FA056B
:101B300010B52CA401461DCC86B08DE81D002DA04B
:101B40002D4C00680490002004292FD00BDC0129C3
:101B50002FD0022928D100F071F96168C1F38131D9
:101B6000491C49001EE0082920D010291CD16168B9
:101B70002268D20118D5C1F38342C9031DF80200BF
:101B800009D5616804AAC1F34041515C1B4AB2FB0C
:101B9000F1F1484301E01A4948436168490203D41E
:101BA00040000321B0FBF1F006B010BD00F056F983
:101BB000FAE7226AC2F30121012903D1920701D574
:101BC000C803F1E7022905D1626A920702D549F6F6
:101BD0004040E9E70329E7D121688903E4D54FF2C2
:101BE0002440E1E702030405060708090A0B0C0D6F
:101BF0000E0F1010010200000010024000127A00C7
:101C000000093D002DE9F84305460078354CC00732
:101C100054D0E0690026C00008D4E06940F080504C
:101C2000E061E069012600F0805000902E480168D4
:101C3000C90512D40168804641F480710160FFF744
:101C4000D9FE074605E000BFFFF7D4FEC01B64289D
:101C500023D8D8F80000C005F6D5206A10F44070EB
:101C600021D0A98801F4407181421CD0206A1F490B
:101C7000012220F440700A6000220A602062C0073E
:101C800011D0FFF7B7FE074641F2883808E000BFE1
:101C9000FFF7B0FEC11B414502D90320BDE8F88320
:101CA000206A8007F4D5206A696820F440700843F0
:101CB00020621EB1E06920F08050E0612878800742
:101CC00005D56068A96820F4404008436060287822
:101CD000C00605D56068696920F48000084360602B
:101CE0000020DBE700100240007000404004424248
:101CF0002DE9F0470F46050061D0434E306800F0F3
:101D00000700B84209D2306820F00700384330603D
:101D1000306800F00700B84251D128683B4C810779
:101D200012D5400703D5606840F4E0606060287811
:101D3000000703D5606840F4605060606068A9687F
:101D400020F0F000084360602878C00728D0686859
:101D5000012810D02168022810D0890700292EDA26
:101D6000616821F0030101436160FFF743FE804693
:101D700041F288390DE021688903EFE78901EDE739
:101D8000FFF738FEA0EB0801494502D90320BDE862
:101D9000F0876068696800F00C00B0EB810FEFD14C
:101DA000306800F00700B8420BD9306820F0070017
:101DB00038433060306800F00700B84201D001209D
:101DC000E5E72878400705D56068E96820F4E06019
:101DD000084360602878000706D56068296920F408
:101DE000605040EAC100606000F038F86168084A5D
:101DF000C1F30311515CC8400649086006480068F9
:101E0000FFF718FE0020C2E7002002400010024049
:101E10004C3B00085C0000205400002004480549A9
:101E200000684968044AC1F30221515CC840704708
:101E30005C000020001002405C3B0008044805499B
:101E400000684968044AC1F3C221515CC840704728
:101E50005C000020001002405C3B000812A185B02D
:101E60000FC98DE80F0014A0144A0068049051684F
:101E7000134801F00C03042B10D0082B0ED1C1F332
:101E80008343C9031DF803000AD5516804AAC1F3AE
:101E90004041515C0A4A5043B0FBF1F005B0704735
:101EA00008494843FAE70000020304050607080949
:101EB0000A0B0C0D0E0F1010010200000010024062
:101EC00000127A0000093D002DE9F84F040070D09F
:101ED0002078C04DC00749D06868C0F38100012850
:101EE00007D06868C0F38100022809D16868C00380
:101EF00006D52868800339D560680028E7D035E02A
:101F00006068B0F5803F0BD010B1B0F5A02F11D0B4
:101F1000286820F480302860286820F4802002E0BF
:101F2000286840F480302860606890B1FFF762FD57
:101F300006460AE0286840F480202860F0E700BFE9
:101F4000FFF758FD801B642873D828688003F7D5F5
:101F50000CE0FFF74FFD064605E000BFFFF74AFD26
:101F6000801B6428F0D828688003F7D420789A4E24
:101F700080074FF001094FF0000839D5686810F06C
:101F80000C0F07D06868C0F38100022809D1686887
:101F9000C00306D42868800714D52069012808D119
:101FA00010E02069B0B1C6F80090FFF723FD0746A6
:101FB00005E00AE1FFF71EFDC01B0228C4D828680F
:101FC0008007F7D52868616920F0F80040EAC10071
:101FD00028600DE0C6F80080FFF70CFD074604E01E
:101FE000FFF708FDC01B022823D828688007F7D414
:101FF000207800072CD57948A169D9B1C0F80090A4
:10200000FFF7F8FC074604E0FFF7F4FCC01B0228CA
:102010000FD8686A8007F7D571484FF4FA51006805
:10202000B0FBF1F0009000BF0098411E0091FAD281
:102030000EE080E0C0F80080FFF7DCFC074604E01B
:10204000FFF7D8FCC01B022875D8686A8007F7D450
:102050002078400760D5E8690027C00008D4E86907
:1020600040F08050E861E869012700F0805000905E
:102070005C480168C90513D40168834641F4807146
:102080000160FFF7B7FC824606E000BFFFF7B2FC35
:10209000A0EB0A0064284ED8DBF80000C005F5D597
:1020A000E06801280AD008B1052813D0286A20F07A
:1020B00001002862286A20F0040002E0286A40F04B
:1020C00001002862E06841F2883B98B1FFF792FC7A
:1020D00082460BE0286A40F004002862EEE700BF69
:1020E000FFF788FCA0EB0A0159455AD8286A8007F7
:1020F000F6D50CE0FFF77EFC824605E0FFF77AFCA0
:10210000A0EB0A0159454CD8286A8007F6D41FB1C4
:10211000E86920F08050E861E06988B36968C1F33C
:102120008101022944D00228C6F8608004D0FFF75C
:1021300061FC044638E034E0FFF75CFC074604E04D
:10214000FFF758FCC01B02282BD828688001F7D461
:10215000206AB0F5803F05D16868A16820F400309E
:1021600008436860D4E908010843696821F47411E0
:1021700008436860C6F86090FFF73CFC044606E040
:1021800025E000BFFFF736FC001B022809D82868AD
:102190008001F7D51BE000BFFFF72CFC001B0228D5
:1021A00002D90320BDE8F88F28688001F4D40EE03E
:1021B0000128F7D06868226A00F48031914204D186
:1021C000616A00F47010884201D00120EAE7002023
:1021D000E8E7000000100240000042428004424252
:1021E0005C0000200070004010B5401EB0F1807F00
:1021F00001D3012010BD4FF0E02460610F21601772
:1022000000F00EFF0020A06107202061002010BD1B
:102210007047704770B590F83C20012A19D001240E
:1022200000F83C4F0222427050F83C3C5A689D68CE
:1022300022F070060A684968324325F08005294378
:102240005A6050F83C2C916044700021017008469F
:1022500070BD022070BD10B5040003D094F83D009D
:1022600010B107E0012010BD002084F83C0020469A
:1022700000F00CF8022084F83D00211D206800F0D9
:10228000F9FC012084F83D00002010BD08B500686D
:10229000B0F1804F12D10A48C16941F00101C1611A
:1022A000C069002200F00100009011461C20FFF7D9
:1022B0000DFCBDE808401C20FFF7FABB08BD00007C
:1022C0000010024070B5044690F83C00012817D079
:1022D000012584F83C50022084F83D002068826883
:1022E00022F0770222F47F4282600868502830D0C2
:1022F0000DDC20284DD005DC98B310283BD148E0F8
:10230000022070BD302844D0402834D139E0602804
:1023100028D0702806D0B0F5805F2CD0B0F5005FD3
:1023200029D10AE0CB68D1E90121206800F0E8FC5E
:102330002068816841F0770109E0CB68D1E901218B
:10234000206800F0DDFC2068816841F480418160F4
:1023500011E0CA684968206800F0E4FC5021206858
:1023600007E016E0CA684968206800F0ECFC6021CC
:10237000206800F0CFFC84F83D50002084F83C0039
:1023800070BDCA684968206800F0CCFC4021206814
:10239000EFE7226801461046EBE7704770B5044648
:1023A000006801694FF00005C943890715D4C16869
:1023B000C943890711D4E91E0161012020772068F3
:1023C00080698007204602D0FFF7E7FF04E000F0B5
:1023D00098F8204600F096F8257720680169C943EF
:1023E000490717D4C168C943490713D46FF00401E2
:1023F0000161022020772068806910F4407F204628
:1024000002D0FFF7CAFF04E000F07BF8204600F09E
:1024100079F8257720680169C943090716D4C1688E
:10242000C943090712D46FF0080101610420207725
:102430002068C0698007204602D0FFF7AEFF04E0A5
:1024400000F05FF8204600F05DF82577206801690C
:10245000C943C90617D4C168C943C90613D46FF06C
:1024600010010161082020772068C06910F4407FC6
:10247000204602D0FFF791FF04E000F042F820462A
:1024800000F040F8257720680169C943C90708D1E1
:10249000C168C943C90704D1891E0161204600F003
:1024A00032F820680169C943090609D4C168C943E3
:1024B000090605D46FF0800101612046FFF7A8FEF0
:1024C00020680169C943490609D4C168C94349065E
:1024D00005D46FF040010161204600F015F8206836
:1024E0000169C94389060BD4C168C943890607D469
:1024F0006FF0200101612046BDE87040FFF789BE02
:1025000070BD7047704770477047000010B5C16BD1
:1025100004460BA000F074FD0020E0630C488442E8
:1025200003D101220B4900F06DF909484030844283
:1025300005D1BDE810400122074900F063B910BD84
:1025400055415254204572726F723A25780D0A0037
:102550003C0100203A0000204600002070B50268CF
:1025600004461068D168536910F00F0F50D003F083
:10257000010501F4907635435DD0C20705D0CA0548
:1025800003D5E26B42F00102E263420705D5DA07A8
:1025900003D0E26B42F00202E263820705D5DA075C
:1025A00003D0E26B42F00402E263020705D5DA07CA
:1025B00003D0E26B42F00802E263E26B002A33D000
:1025C000800604D5880602D5204600F0EBFB206883
:1025D0004069E16BC0F38010090700D428B320469E
:1025E00000F0D2FB2068416949061AD5416921F003
:1025F00040014161606BA0B11B494163606BFFF713
:102600004DF8002810D0606B416BBDE87040084762
:10261000830610D58B060ED52046BDE8704000F02D
:10262000C1BB2046FFF772FF70BD2046FFF76EFF6B
:102630000020E06370BD030606D50B0604D52046D6
:10264000BDE8704000F056BC4006F3D54806F1D511
:10265000D168204621F04001D160202184F8391052
:1026600000F08DF970BD0000792D000870B50400F0
:1026700004D094F83900002510B106E0012070BDA7
:1026800084F83850204600F023F8242084F83900DC
:102690002068C16821F40051C160204600F0CEFBE3
:1026A0002068016921F4904101612068416921F0AD
:1026B0002A0141612068C16841F40051C160E563AD
:1026C000202084F8390084F83A00002070BD000012
:1026D000F0B585B000240094019402940394444919
:1026E000424D03680E1502200322AB4226D1CB696E
:1026F00043F40023CB61CB6903F4002304938B697B
:1027000043F010038B6189693A4D01F01001CDE966
:102710000321CDE9006069462846FFF769F8E8140F
:10272000CDE90004694628460294FFF761F80022CB
:1027300011463420FFF7CAF9342028E02E4F2F4DE0
:10274000BB4228D18B6943F480438B618B6903F4CE
:10275000804304938B6943F004038B61896903927E
:1027600001F0040104916915CDE90010694628467D
:10277000FFF73EF8CDE90064694628460294FFF76A
:1027800037F8002211462520FFF7A0F92520FFF792
:102790008FF905B0F0BD1A4EB342FAD1CB6943F4BC
:1027A0000033CB61CB6903F4003304938B6943F0AE
:1027B00004038B618969039201F0040104910421EF
:1027C000CDE9001069462846FFF712F80820CDE948
:1027D0000004694628460294FFF70AF800221146D1
:1027E0002620FFF773F92620D1E70000004C0040B7
:1027F0000010024000100140003801400008014074
:102800000044004090F83A30202B22D1F9B1F2B1C7
:1028100090F83830012B1CD081628285C28500215E
:10282000C163222280F83A2080F838100168CA6813
:1028300042F48072CA6001684A6942F001024A614A
:102840000068C16841F02001C1600020704701208C
:10285000704702207047000010B5044615488442B6
:1028600008D11548007801F0FBF8012212491148FF
:10287000FFF7C8FF0F484030844209D10F48007865
:1028800001F014F90B4801220C494030FFF7BAFF60
:102890000848403884420CD10948C07801F020F93A
:1028A000074904480122C91CBDE810404038FFF721
:1028B000A9BF10BD3C0100203A00002046000020C6
:1028C000000000202DE9F843044690F839001F4627
:1028D00016460D46202850D1A5B19EB194F8380077
:1028E00001284AD0012084F838004FF00008C4F8CD
:1028F0003C80212084F83900FFF77CF8A6848146CB
:10290000E68426E00120BDE8F883E08C401EE084E8
:10291000A0684B46B0F5805F4FF000024FF0800199
:102920002046009703D000F016FBE8B90DE000F058
:1029300012FBC8B928882168C0F3080048602069E4
:1029400008B16D1C05E0AD1C03E0216815F8010B12
:102950004860E08C0028D8D14B4600224021204618
:10296000009700F0F8FA08B10320CCE7202084F8A3
:10297000390084F838800020C5E70220C3E770479B
:10298000FEE700000B4800B5816985B041F0040105
:1029900081618069694600F0040004900220009083
:1029A00001200190029003900348FEF721FF05B03B
:1029B00000BD0000001002400008014030B585B0A5
:1029C000002002900D48816941F010018161806909
:1029D0004FF4007400F0100004900120CDE9004095
:1029E000074D039069462846FEF702FF0022214664
:1029F0002846FEF7F9FF05B030BD00000010024088
:102A0000001001403EB500241048009401940E4986
:102A100002940160891581600473047502250561C3
:102A20004FF460214460C161FEF7D6F80120CDE982
:102A30000040694605480294FEF74CF86946034891
:102A40000195FEF747F83EBD0024014064000020D8
:102A50000C480B494FF4A02201602821416000215D
:102A60008160C0E903124FF48012426101760122B5
:102A700042768176C17601774177FEF7DBBC0000B4
:102A8000006400409400002070B586B0002418480F
:102A90000094019402940394816941F010018161D2
:102AA000816901F010010491816941F004018161A3
:102AB000816901F004010491816941F04001816163
:102AC00080690C4E00F040004FF4806504900022B5
:102AD00029463046FEF788FF01200095CDE9010424
:102AE0000220039069463046FEF782FE06B070BDB4
:102AF000001002400018014010B586B000241248B2
:102B0000009401940294039404944FF0804105943E
:102B1000016043F67F61C0E9011440F27F41C0E9E2
:102B200003148461FFF797FB4FF4805000906946CF
:102B30000548FFF7C7FB049404A903480594FFF771
:102B400069FB06B010BD0000BC000020FEE7704726
:102B500070470000164810B5816986B041F0080141
:102B600081618069134C00F008000490C02000903F
:102B70001120019001200290032003906946204615
:102B8000FEF736FE002240212046FEF72DFF0021F1
:102B9000491CC9B21429FBD3012280212046FEF72B
:102BA00023FF0020401CC0B21428FBD306B010BD88
:102BB00000100240000C01407047FEF721BF30B505
:102BC00095B028216846FDF7E6FA14210AA8FDF71A
:102BD000E2FA18210FA8FDF7DEFA01210804CDE979
:102BE00000100024029402250491CDE907504FF40F
:102BF000E01009906846FFF767F90F20CDE90A0554
:102C00006802CDE90C4002210AA80E94FFF770F883
:102C1000A80311900F950FA8FEF7F4FF15B030BD73
:102C20000D48016841F00101016041680B4A114003
:102C3000416001680A4A11400160016821F4802165
:102C40000160416821F4FE0141604FF41F01816081
:102C50000449C00308607047001002400000FFF8FC
:102C6000FFFFF6FE08ED00E00148FFF797BB00000C
:102C7000BC000020F0B502681C4B1D4D1D4E1E4FC0
:102C80001E4C4FF0804C984209D0A04207D06045BE
:102C900005D0A84203D0B04201D0B84204D122F0FE
:102CA000700E4A6842EA0E02984209D0A04207D04C
:102CB000604505D0A84203D0B04201D0B84203D14C
:102CC00022F44075CA682A434D6922F080022A43E3
:102CD00002608A68C2620A688262984201D0A04299
:102CE00001D10969016301214161F0BD002C01405E
:102CF0000004004000080040000C00400034014087
:102D000010B5846842EA032224F47F440A43224334
:102D1000826010BD826822F070020A4342F007010F
:102D20008160704710B5036A046A24F001040462EC
:102D3000846924F0F00444EA021423F00A020A43EE
:102D40008461026210BD10B5036A23F010030362B0
:102D50008369046A23F4704343EA023224F0A00337
:102D600043EA01118261016210BD00000148FFF7D2
:102D7000F5BB0000FC00002010B5406A0021C185B1
:102D8000C184FFF7C3FB10BD0168CA6822F49072CA
:102D9000CA6001684A6922F001024A61202180F874
:102DA0003A10704710B590F83A10222901D002204D
:102DB00010BD8168B1F5805F11D0016900290168FB
:102DC0001FD0496801F07F03816A4A1C82620B7040
:102DD000C18D491E0904090CC18518D02BE0026978
:102DE000816A002A0268526805D0D2B20A80816ADC
:102DF000491C8162ECE7C2F308020A80816A891CDF
:102E0000F7E74A68816A4B1C83620A70E0E7016851
:102E1000CA6822F02002CA600168CA6822F480727F
:102E2000CA6001684A6922F001024A61202180F8E3
:102E30003A10FFF711FD002010BD00002DE9F04110
:102E4000044600680169E26821F4405111430161C0
:102E50002169A0680843616908432168CA6841F292
:102E60000C639A430243CA6020684169A26921F455
:102E70004071114341611E49206864253226884211
:102E800002D1FEF7DBFF01E0FEF7C8FF00EBC00157
:102E900001EB001160686FF018078000B1FBF0F2E1
:102EA000B2FBF5F2B1FBF0F37A4303EB8202B1FB24
:102EB000F0F306EB0212B2FBF5F2B3FBF5F302F00E
:102EC000F00202EB0312B1FBF0F3B1FBF0F0B0FB48
:102ED000F5F0784303EB800006EB0010B0FBF5F053
:102EE000216800F00F0010448860BDE8F081000008
:102EF0000038014090F83910212901D00220704794
:102F00008168B1F5805F016A0BD04A1C02620268D9
:102F100009785160C18C491E0904090CC1840ED086
:102F200017E009880268C1F30801516001690029AE
:102F3000016A02D0491C0162ECE7891CFBE70168C9
:102F4000CA6822F08002CA600068C16841F040018E
:102F5000C160002070472DE9F041984617460E46A3
:102F60000446069D1DE0681C1BD02DB1FEF742FDF6
:102F7000A0EB0800A84214D92068C16821F4D071E0
:102F8000C1602068416921F001014161202084F87D
:102F9000390084F83A00002084F838000320BDE8A6
:102FA000F0812068006836EA000004D00020B842B2
:102FB000D9D00020F3E70120F9E700000148FFF72E
:102FC000CDBA00003C0100200148FFF7C7BA00005D
:102FD0007C0100200148FEF72FB90000940000207A
:102FE000FEE7012807D0022807D0072805D00828C7
:102FF00003D0002070470220704701207047000076
:103000000FB4054B10B503A9044A029800F0EAF882
:1030100010BC5DF814FB000021390008600000209E
:103020000907090E002804DB00F1E02080F80014F5
:10303000704700F00F0000F1E02080F8141D704789
:1030400002E008C8121F08C1002AFAD17047704771
:10305000002001E001C1121F002AFBD170470000CF
:103060002DE9FF5F82B00021DDE90430020DDDF8BB
:1030700040B0034318D044F61050A2F2FF3242434E
:103080001514119801281FD0A5EB0B00401C5FEA16
:10309000000A4FF000064E4FDFF83891B046504618
:1030A00015D5CAF1000413E0119801244AA30128A0
:1030B00001D16FEA0B010298119AC0E90031C0E911
:1030C000024206B0BDE8F09FCBF10000DFE7044606
:1030D0000021404A491842EB0450CDE9001012E0AB
:1030E000E00707D032463B4640464946FDF705F922
:1030F0008046894632463B4610461946FDF7FDF8A4
:1031000006460F466410002CEAD1DDE90401DDE932
:103110000023BAF1000F06DAFDF7EFF842464B46FE
:10312000FDF7EBF805E0FDF733FA42464B46FDF7B5
:103130002FFA04460E460022284BFDF7B1FA03D8B9
:103140004FF0FF30014607E00022254B2046314674
:10315000FDF72CF8FDF78BFA102409E0002C0ADBB0
:103160000A220023FDF765F9039B30321A55641ECD
:1031700050EA0102F2D1641C039AC4F11103144411
:10318000119A012A03D0012208430DD10AE0084315
:1031900004D000204FF0110B119072E7A3EB0B0548
:1031A0006D1E0DE05B4504DD4FF0000205F10105E9
:1031B00004E003DA4FF00002A5F10105002AECD08B
:1031C00002981199C0E90231C0E9004579E7000091
:1031D000000014400000F03F300000000000F04309
:1031E0000000E03F2DE9FF4F95B09B46894606461B
:1031F00000250FE2252877D100242746F84A01212F
:10320000059400E0044316F8013F203B01FA03F067
:103210001042F7D130782A2811D06FF02F03307880
:10322000A0F13002092A16D8059A44F0020402EBF4
:10323000820203EB42021044761C0590EFE759F836
:10324000042B0592002A03DA504244F400540590FE
:1032500044F00204761C30782E2816D116F8010F9F
:1032600044F004042A280DD06FF02F023078A0F12A
:103270003003092B09D807EB870302EB4303C71878
:10328000761CF3E759F8047B761C30786C280FD055
:1032900006DC4C2817D068280DD06A2814D104E029
:1032A000742810D07A280FD10DE044F400140AE0FD
:1032B00044F4801401E044F440147278824202D154
:1032C00004F58014761C761C307866280BD013DC4D
:1032D000582877D009DC002875D04528F6D0462834
:1032E000F4D047281AD19DE118E0632835D064282E
:1032F00079D0652812D195E1702873D008DC672851
:10330000F1D069286FD06E280DD06F2806D1B5E0B6
:1033100073282CD0752875D0782874D05A46179900
:1033200090476D1C75E1C4F30250022809D00328B0
:103330000DD0D9F8001004280DD00D6009F1040952
:1033400067E1D9F80010EA17C1E90052F6E7D9F8A9
:1033500000100D80F2E70D70F0E719F8041B8DF8EE
:10336000001000208DF80100EA46012003E059F822
:1033700004AB4FF0FF3061074FF0000102D40DE0C5
:1033800008F101018846B9420FDA8045F8DB1AF8E6
:1033900008100029F4D108E008F1010188468142B3
:1033A000FADB1AF808100029F6D105985B46A0EB65
:1033B000080721463846179A00F094FA284400EB93
:1033C000080507E04DE029E10DE01AF8010B5A4627
:1033D00017999047B8F10108F7D25B462146384665
:1033E000179A13E142E00A220092C4F302524FF00E
:1033F000000A022A08D059F804CB032A4FEAEC71DC
:103400000AD00DE029E02AE009F1070121F00702C6
:10341000F2E802C1914609E00FFA8CFC4FEAEC7128
:10342000042A03D14FFA8CFC4FEAEC71002907DA29
:103430000A460021DCF1000C61EB02012D2202E0C2
:10344000220504D52B228DF80420012203E0E20797
:1034500001D02022F7E7904659E00A2102E010222D
:103460000DE010214FF0000A00910BE010224FF008
:10347000000A44F004040827009203E008224FF0F9
:10348000000A0092C4F30252022A05D059F804CB74
:103490000021032A08D009E009F1070121F0070201
:1034A000F2E802C1914605E01FFA8CFC042A01D122
:1034B0000CF0FF0C4FF00008220728D5702806D02A
:1034C000009B83F0100353EA0A0305D00EE040226C
:1034D0008DF80420012208E05CEA010206D03022C7
:1034E0008DF804208DF8050002229046009B83F0A1
:1034F000080353EA0A030AD15CEA010201D1620718
:1035000005D530228DF804204FF001087F1E582881
:1035100004D034A003900EA802900DE036A0F9E785
:1035200053466046009AFCF784FF84460398825C09
:103530000298401E029002705CEA0100F0D10298ED
:1035400006A9081A00F1200A600702D524F4803485
:1035500000E00127574502DDA7EB0A0000E000204C
:1035600000EB0A01009005984144401A0590E003E1
:1035700006D45B462146179A059800F0B3F9054436
:10358000002706E001A85A46C05D179990476D1CB8
:103590007F1C4745F6DBE0030CD55B462146179AB6
:1035A000059800F09FF9054404E030205A46179929
:1035B00090476D1C0099481E00900029F5DC08E03A
:1035C000029802995A460078491C0291179990472F
:1035D0006D1CBAF10001AAF1010AF1DC65E10000FD
:1035E00009280100303132333435363738396162D9
:1035F000636465660000000030313233343536379D
:1036000038394142434445460000000000F058F973
:103610000544761C307800287FF4ECAD19B02846BC
:10362000BDE8F08F620700D4062709F1070222F0F7
:10363000070CFCE80223E14603F000485FEA080CAF
:1036400002D00FF2702C0DE05FEA045C02D50FF29D
:10365000682C07E05FEAC47C02D00FF2602C01E026
:10366000AFF2700C4FF0FF3823F00043CDF850C09C
:1036700065280CD006DC452809D046281DD04728EF
:103680003DD13DE0662818D067287ED138E0002182
:10369000112F01DB112000E0781CCDE9000106A903
:1036A0000EA8FFF7DDFCDDE90F010E9A0391002162
:1036B000009207F1010A04914DE04FF0004000979D
:1036C000CDE9011006A90EA8FFF7CAFCDDE90F023B
:1036D00003920E9B11990022DDF80CA00093049236
:1036E00011B9791C00EB010AB7EB0A0004D4C0F150
:1036F000FF3007F1010A0490AAEB0700019044E0B3
:10370000012F00DA01270021112F01DD112000E037
:103710003846CDE9000106A90EA8FFF7A1FCDDE9B6
:103720000F010E9A0391002104910092BA462107DD
:103730000CD40399514500DA8A46BAF1010F05DD30
:10374000009AAAF10101515C302908D0B84202DA8E
:1037500010F1040F06DA0121CDE9011015E0AAF1FC
:103760000101E9E7002805DC049901440491AAEB72
:10377000000102E0411C514500DD8A460499401ACF
:10378000401C01904FF000400290200704D40198A3
:10379000504501DBCDF8048000208DF84F000298E1
:1037A0000DF14F07B0F1004F25D02B200E9002985D
:1037B0004FF0020800280CDA404202902D200E90B3
:1037C00007E00A210298FCF71EFE3031029007F84C
:1037D000011DB8F10001A8F10108F2DC02980028EF
:1037E000EFD1791E0E980870307800F0200040F07C
:1037F000450007F8020D12A8C01B00F10708149835
:10380000007800B1012000EB0A01019801EBE071A2
:1038100005984144401A401E0590E00306D45B46DB
:103820002146179A059800F05DF805441498007831
:1038300018B15A46179990476D1CE00324D55B4692
:103840002146179A059800F04DF805441CE00498AD
:10385000002807DBDDE90301884203DD0098405CB6
:10386000179901E0179930205A469047049805F1BE
:103870000105401C04900198401E019004D12E20A7
:103880005A46179990476D1CBAF10001AAF1010A36
:10389000DDDC05E017F8010B5A46179990476D1CBF
:1038A000B8F10001A8F10108F4DC5B462146179A43
:1038B0000598ABE62D0000002B0000002000000062
:1038C0002DE9F041044600251E461746880404D41D
:1038D00005E039462020B0476D1C641EF9D5284606
:1038E000BDE8F0812DE9F041044600251E469046D2
:1038F000C80301D5302700E02027880404D505E05F
:1039000041463846B0476D1C641EF9D52846BDE8CF
:10391000F08100000148FDF78DBE000094000020FA
:1039200013B50A23012269460248FEF7CBFF00982F
:103930001CBD00003C010020FEF76AF8FFF73FF9CC
:10394000FFF7A2F8FFF73AF8FFF782F8FFF75AF807
:103950002B482A494FF4E13500240160C0E90154A5
:103960000C26C460C0E904468461C461FEF77EFE93
:103970002348244940300160C0E90154C460C0E9D3
:1039800004468461C461FEF771FEFFF7B5F81C4878
:103990001D4940380160C0E90154C460C0E90446D3
:1039A0008461C461FEF762FEFFF7D4F8FEF7EAFF18
:1039B0001348A838FCF7FEFE144C0620144DE08096
:1039C0000320287000F036F80D480122E11C403831
:1039D000FEF718FFFFF79EFF0EA0FFF711FB40F266
:1039E000DC5600BFFDF75EF8A0802A780821E08849
:1039F000FCF716FF3046FDF7E9FEF3E7003801401B
:103A00003C01002000440040004C00400000002029
:103A10002A0000203D3D3D3D3D3D3D47415441573D
:103A20004159205354415254203D3D3D3D3D0D0AE6
:103A300000000000012202490248FEF7E3BE000038
:103A40003A0000203C0100200448D0E90110081A87
:103A5000FF2801D90120704700207047380000205E
:103A600010B50246FFF7F0FF10B14FF0FF3010BD68
:103A70000649074C4868C3B2401CE25448600D2A0E
:103A800002D10878401C0870002010BD38000020CA
:103A9000BC0100200448D0E90110081AFF2801D910
:103AA00001207047002070474400002010B50246F6
:103AB000FFF7F0FF10B14FF0FF3010BD0649074C83
:103AC0004868C3B2401CE25448600D2A02D108780D
:103AD000401C0870002010BD44000020BC020020E3
:103AE00070B51849A1F1080422788854521CD2B24A
:103AF00022700A281FD1082A1DD101F108000A7876
:103B000002704B7843708A788270CD78C5700979DD
:103B1000017161700120A0704FF6FF7000EA032070
:103B2000024309484FF48061C82A01D2002200E014
:103B30000122FDF759FF2078082801D300202070CA
:103B400070BD0000080000200018014000000000C7
:103B5000000000000102030406070809000000003D
:103B600001020304843B0008000000206400000000
:103B700040300008E83B0008640000205C130000AF
:103B800050300008000000000000000000000000AD
:103B90000000000000000000000000000000000025
:103BA0000000000000000000000000000000000510
:103BB0000000000000000500000000000000000000
:103BC00000000000000000000000000000000000F5
:103BD00000000000010000001000000000000000D4
:083BE0000024F40000000000C5
:0400000508000131BD
:00000001FF
