:020000040000FA
:030000000200E318
:0300130002120BCB
:03001B000212CE00
:03003300021117A0
:03003B0002126747
:03004B000211E5BA
:03006300020FB2D7
:03006B00020FF78A
:0300730002132A4B
:03007B00021087E9
:100083000211A700000080FB120113B90003020054
:10009300CDE4900F0078C179048002F0A3D8FCD995
:1000A300FA9012C0AA82AB8390011678B0790180CE
:1000B30015E493A3AC82AD838A828B83F0A3AA82D7
:1000C300AB838C828D83D8E9D9E775825475832FEE
:1000D30074001200F575828675830074001200F5B2
:1000E30075D0007581BF75100075110F759F0002E3
:1000F300008BC09FF59FE473D09F22D083D082C032
:100103009FE493C0E0740193C0E0740293F59F22CF
:10011300790122FF00000000000000000000000041
:10012300C2010000000000000080C054E3253DA28E
:10013300E73BB60AD7233CACC5A738000020C20072
:1001430000C8C10100C8420000C842CDCCCC3D006C
:100153000020410000A040CEC2CAAAB6C8B4ABB8C2
:10016300D0C6F7A3ACCEC2B6C8A3BA2564A1E62C09
:1001730020CAAAB6C8A3BA256425250D0A000A0019
:100183000000303132333435363738394142434455
:10019300454600286E756C6C20706F696E746572CD
:1001A30029003F3F3F000000807F0000803FF902AD
:1001B3001550B743BA5100E7DB2E100000000800CA
:1001C30000001200FEB029001200FE552A001200A2
:1001D300FEB62A001200FED52B001200FE622C0090
:1001E3001200FEFA2C001200FEED32001200FEFE99
:1001F30032001200FE1A33001200FE2533001200F3
:10020300FE1032001200FE7533001200FEAF330001
:100213001200FE3034001200FE3534001200FE35A9
:1002230033001200FE5533001200FE8A3200120022
:10023300FE9A32001200FEC632001200FE40300069
:100243001200FE6F30001200FE8530001200FE9C8B
:1002530030001200FEB330001200FEDF3000120047
:10026300FE0331001200FE1431001200FE1D3100A6
:100273001200FE2631001200FE3B31001200FE5038
:1002830031001200FE6F31001200FE0E2D0012002D
:10029300FE1B2E001200FEE023001200FE0C2400C1
:1002A3001200FE8024001200FEFF24001200FE6CE8
:1002B30025001200FEA525001200FE3C26001200B8
:1002C300FE2B28001200FEF02E001200FE1A2F0053
:1002D3001200FEE533001200FE1234001200FE820B
:1002E30031001200FEAC31001200FE911300120027
:1002F300FEAF1800E4936670130874019366700CE4
:1003030008740293667005087403936622C008C3D9
:10031300E096F50808A3E096420808A3E096420891
:1003230008A3E0964208A2D265D033E5087001D352
:10033300D00822C3E4939608740193960874029339
:1003430096087403939622080808E630E711120B07
:1003530086120362080808C64480C61818182218B3
:100363001818E9799EC608CAC608CBC608CCC6C306
:1003730070207996CACBCC7019798ECBCC70137957
:1003830086CC700EF9802ACA33CACB33CBCC33CC9C
:10039300331930E7F2CCCBCA3350147004EA30E09F
:1003A3000DE4CA3ACACB3BCBCC3CCC500209C3E9DF
:1003B30013C6CC182313C6CB18C6CA18C6F9221203
:1003C300040220F01430E72B74FFFCFBFA747F80E7
:1003D30022E4FCFBFA7480801AB48008BC00F2BBF0
:1003E30000EF800F50EBF9E4C39AFAE49BFBE49C23
:1003F300FCE499C6CC18C6CB18C6CA18C6F922E4C1
:10040300C9C608CAC608CBC6D3330308CCC63392C1
:10041300F0C3947F402E94184019C9B90704CACB7E
:10042300CC225025C309CA33CACB33CBCC33CC330C
:10043300D9F422F4600DC9CCC313CB13CBCA13CAAE
:10044300D9F6CC22E4FCFBFA2214FCFBFA22E6C325
:100453003318461846184622E7C333194719471974
:100463004722181818E6084608700AE608C33370CE
:1004730005E633F4220822191919E7094709700A16
:10048300E709C3337005E733F4220922E608460877
:10049300C3134608336002E633F422E7094709C36E
:1004A300134709336002E733F42212048F602512E5
:1004B300049E6020120451700302045B080808E7DD
:1004C3006670101819E766700A1819E76670041841
:1004D30019E76622F42212048F601C12049E60172F
:1004E300120451700712045B7001D322C0D01204AE
:1004F3005B7006D0D0B322C32233D0D0501430E087
:10050300F6C3E7960809E7960809E7960809E79608
:10051300B32220E0D5E6970809E6970809E697088D
:1005230009E697B32212048F601B12049E60161211
:100533000451700712045B600CB322C0D012045B39
:100543007005D0D022C32233D0D0501330E0EBC398
:10055300E7960809E7960809E7960809E79622202F
:10056300E0E4E6970809E6970809E6970809E6979D
:10057300220012048F604F12049E6012E7548066BB
:10058300F6120465701112045B703B090909F4F655
:1005930018F618F618F62212047A70151204510888
:1005A300080860EAE6447FF618768018E4F618F641
:1005B30022120451601612045B7012E4F608F60866
:1005C300F608E65480F609090918181822EAC0E06B
:1005D300EBC0E0ECC0E0EDC0E0E687F0A4FBACF0DC
:1005E30008E687F0A42CFCE435F0FA1809E687F056
:1005F300A42C4B60027401CA35F0FCE433FB09E61A
:1006030087F0D2F7A42CCB35F0FC1908E687F0A4C9
:100613002BCC35F0FBE433FD0819E687F0D2E7A4D1
:100623002C4ACB35F0CD3400FC09E687F0D2E7A4A1
:100633002DCC35F0FDE433FA0918E687F0D2F7A4A0
:100643002CCD35F0CA3400FC08E687F0D2E7D2F7A8
:10065300A42ACC35F07A7E20E70B0ACB33CBCD33FB
:10066300CDCC33CC33CB3350147004ED30E00ED209
:10067300F1E4CD3DCDCC3CCC3B5005DA05C2F1EBEA
:10068300547FC63308E63392F0FBE73309E733C3FD
:100693009A502D2B70190C0D4C4D70151806E60849
:1006A300C333700D20F10AA2F013F6E418800B4057
:1006B30024E4F630F002768018F618F618F6802453
:1006C300D33B14501074FFA2F013F6187680E4188D
:1006D300F618F6800FA2F013F618E63303F618ECBB
:1006E300F618EDF6D0E0FDD0E0FCD0E0FBD0E0FA68
:1006F3002212049E604612048F603DE9687008F67A
:1007030018F618F618F622748067F71207280909F5
:1007130009748067F72212048F601D12049E70050E
:10072300191919801A120465701F12047AC3700311
:10073300E6673319191940071818182208080874AE
:10074300FFF618F618F618F62212047A6017120448
:100753005B702192F01204517019501720F01408A5
:100763000808090909E7F61819E7F61819E7F6184A
:1007730019E7F62212045160E6E869701F0808E6DB
:100783002480F608E436F618547FB47F0CE65480D0
:100793006007F6E418F618F622181822E9C6CC0802
:1007A300C6CD08C6CE08C6CFC0E0E8C0E0EAC0E0C8
:1007B300EBC0E009E9F809E7FA09E7FBE6F918E60F
:1007C300F8C3EC98ED99EE9AEBC2E7F5F0EFC2E7C8
:1007D30095F0500E600CEBCFFBEACEFAE9CDF9E8C9
:1007E300CCF8EAA2E7D2E7FAEB33FB13F5F0EEA27B
:1007F300E7D2E7FEEF33FFC5F013A2E730E601B31C
:1008030013C5F0C3C0E0C0F07F00C39BFB605B94E3
:1008130018600C401AD0E023F9D0E0F80208F78AF8
:10082300F0E9486003D2F0E4AFF0FAF9F8803BEB6B
:1008330030E40D89F0EA6003D2F0E4AFF0F9CAF8CE
:10084300EB30E30D88F0EF6002D2F0AFF0E4CAC9F9
:10085300F8EB54076014FBC3EA13FAE913F9E8133E
:10086300F8EF135002D2E0FFDBEDD0E0C0E030E759
:1008730039C3E49FFFF5F0EC98FC42F0ED99FD429B
:10088300F0EE9AFE42F0D0E0F9D0E0F8E5F0607ABD
:10089300E923F9EE20E742D8028067C3EF33FFEC88
:1008A30033FCED33FDEE33FE80EAEC28FCED39FD3D
:1008B300EE3AFED0E023F9D0E0F84002801BC3EE0D
:1008C30013FEED13FDEC13FCEF135002D2E0FF080F
:1008D300B800067F7F74FF802EEF3350178CF02013
:1008E300F00260100CBC000C0DBD00080EBE00042D
:1008F30008E860DFE933E813FFEE2313FE4F4D4CA6
:100903008008E95480FFE4FEFDFCEE33EF33F4701E
:1009130004FCFD7E80D0E0FBD0E0FAD0E0F8D0E02C
:10092300CFC618CEC618CDC618CCC6F92212048F6E
:1009330070041818182212049E700D74FFF618190B
:10094300F61819F61819F622E7548066F6120451C0
:10095300700F12045B70F014F608F608F608F680C0
:10096300D112045B700CF608F608768008E6447F23
:1009730080EC12047D700C12046860BFE65480F6AC
:10098300E480BB120468700519191980A5E8697021
:100993000C763F18768018F618F6E8F922E6CDC0F3
:1009A300E018ECC0E0E633CD33CDD313F6E719FC02
:1009B300E7191933CC33C3947F400ECD9D502408DF
:1009C300E65480F6E418F6800FF4043D145014083E
:1009D300E6447FF6187680E418F618F6D0E0FCD0EB
:1009E300E0FD22CCD313CCFD18E4C6CBC0E018E461
:1009F300C6CAC0E00808ED08C633E613F618E433A8
:100A0300C675F003C3CA97CA09CB97CB199C400498
:100A13007D08802EBD0003020AD916B6FF0506061F
:100A2300081618C3CA33CACB33CB33CA27CA09CB78
:100A330037CB193CC37D08803E187D0820E75CC690
:100A430033C6CA33CACB33CB33DDF1D5F0EB30E752
:100A53007BCA97CA09CB974ACB199C406F4B702529
:100A6300E620E0218066187D08C3CA97CA09CB97A0
:100A7300CB199CD3C633C6CA33CACB33CB3350C985
:100A8300DDE7D5F0E1D3E4C636C608C636C608C6E8
:100A930036C608C636C61818188031C3CA97CA099D
:100AA300CB97CB199CB34097C633C6CA33CACB3353
:100AB300CB33DD34D5F02EC6A2E0C640C8CA27CA60
:100AC30009CB37194A70BECB3CB480B90808E6336A
:100AD30008E633601F181818D0E0FAD0E0FBD0E026
:100AE300FCD0E0FD22187D08CA27CA09CB37CB19F1
:100AF3003CD3808013F618E4B67F11F618B6FF0EC8
:100B0300F618C60470D20808768080CAF618F6185C
:100B1300F680C5E4CFC0E0E4CEC0E0E4CDC0E0E4BD
:100B2300CCC0E075F020C3E633F608E633F608E6FA
:100B330033F608E633F6181818EC33FCED33FDEE04
:100B430033FEEF33FFC3EC9709ED9709EE9709EFF7
:100B530097191919400FFFEC97FC09ED97FD09EE62
:100B630097FE191906D5F0BEECF709EDF709EEF774
:100B730009EFF7191919D0E0FCD0E0FDD0E0FED061
:100B8300E0FF22181818E4C396F608E496F608E482
:100B930096F608E496F622E0F608A3E0F608A3E04A
:100BA300F608A3E0F622E6F008A3E6F008A3E6F0D1
:100BB30008A3E6F022E0FAA3E0FBA3E0FCA3E0FD38
:100BC30022EAF0A3EBF0A3ECF0A3EDF022CAC0E01D
:100BD300E6F0A308DAFAD0E0FA22CAC0E0E0A3C53F
:100BE30082CCC582C583CDC583F0A3C582CCC58223
:100BF300C583CDC583DAE6D0E0CA22C3E498F8E41E
:100C030099F9120C3F8026C3E49AFAE49BFBE9208E
:100C1300E7E9120C3FE498F8E499F922C3E498F861
:100C2300E499F9120C3FE498F8E499F9C3E49AFAC9
:100C3300E49BFB22EB20E7CFE920E7E0B90010BB00
:100C43000008E88AF084F8AAF022E4FBC8FA22EB51
:100C530070227B10C833C8C933C9335007C39AC342
:100C6300DBF280069A50012ADBEAC833F4C8C933A1
:100C7300F4C9FA2275F008E4C833C8C933C933C9C3
:100C83009AC99B5004C92AC93BD5F0ECFBC833F47D
:100C9300C8E4C9FA22700422600D18C6C333C6081B
:100CA300C633C6D5E0F41822251010AF08F510405E
:100CB3000215118008F51040021511D2AF22C0D0E1
:100CC300251010AF08F510500205118008F51050DB
:100CD300020511D2AFD0D0222510F58210AF08F54E
:100CE30010400215118008F51040021511D2AF858E
:100CF300118322C5822510C582C583351110AF0724
:100D0300F5118582108007F511858210D2AFC58356
:100D1300222510F582E43511F58322C5822510C5FD
:100D230082C5833511C58322E4732510C582C0E0D3
:100D3300E51134FFC583C0E0E510C3958224F810A4
:100D4300AF08858311858210800885831185821001
:100D5300D2AFCEF0A3E520F0A37808E608F0A3DE37
:100D6300FAEFF0A3E58124FAF8E608F0A3E608F029
:100D7300A3E608F0A30808E608F0A3E608F0A31525
:100D8300811581D0E0FED0E0F8158115811581E849
:100D9300C0E0EEC0E022851183851082E0A3FEE06F
:100DA300A3F5207808E0A3F608DFFAE0A3FFE0A3A9
:100DB300C0E0E0A3C0E0E0A3C0E0E0A3C0E0E0A3A4
:100DC300C0E010AF088582108583118008858210EA
:100DD300858311D2AFD083D0820200FBC0D025100F
:100DE300C582C0E0E51134FFC583C0E0E510C395BB
:100DF3008224F310AF0885831185821080088583D0
:100E030011858210D2AFC8F0A3E9F0A3EAF0A3EBF7
:100E1300F0A37908E709F0A3D8FAECF0A3EDF0A367
:100E2300EEF0A3EFF0A3D0E0F0A3D0E0F0A3D0E086
:100E3300F0A3E520F0A3E5F0F0A32285118385104C
:100E430082E0C0E0A3E0F9A3E0FAA3E0FBA3780803
:100E5300E0F608A3DFFAE0FCA3E0FDA3E0FEA3E0D5
:100E6300FFA3E0C0E0A3E0C0E0A3E0F5D0A3E0F57A
:100E730020A3E0A3F5F010AF0885831185821080CD
:100E830008858311858210D2AFD082D083D0E0F859
:100E9300D0E032740280027401C0E0F404120CDB6F
:100EA300D0E0120BD02274028000CCC0E0EDC0E091
:100EB300E510C39CCCAD1150011D10AF068C108DF5
:100EC3001180068C108D11D2AF120BDDD0E0FDD056
:100ED300E0FC22D083D082ECC0E0EDC0E0EEC0E0C5
:100EE300EFC0E0E493A3FCE493A3FDE493A3FEE447
:100EF30093A3FFEF4E4D4C6015120F52EC24FFFCF1
:100F0300ED34FFFDEE34FFFEEF34FFFF80E5E493A5
:100F1300A3FCE493A3FDE493A3FEE493A3FFEF4EAA
:100F23004D4C6015120F8FEC24FFFCED34FFFDEEEA
:100F330034FFFEEF34FFFF80E5D0E0FFD0E0FED0CA
:100F4300E0FDD0E0FCE493A3C0E0E493C0E022C062
:100F5300E0C0F088F0120336A8F040071202F7A8A9
:100F6300F0701AA3A3A3A3120336A8F0A3A3A3A309
:100F73004013D0F0D0E0D0E0D0E0020F3CA3A3A315
:100F8300A3A3A3A3A3A3A3D0F0D0E022C0E0C0F007
:100F930088F01202F7A8F0A3A3A3A3700BD0F0D09C
:100FA300E0D0E0D0E0020F3CA3A3D0F0D0E022C019
:100FB300E074F2120DDFC2DBC2C4900FFDE0240126
:100FC300F0A3E03400F0900FFDE064A17004A3E00F
:100FD30064077015900FFD7400F0A37400F0900F78
:100FE300FC7401F01201F58006900FFC7400F07F91
:100FF30001020E3EC0E074F1120DDFC2C5E5896047
:101003007E7E008074750801750900EE7808120C65
:1010130098E508AF08E5895F605EEEF87900E8754A
:10102300F002A4C8AAF075F000A42AFA75F002E948
:10103300A42AF974FF28F582740F39F583E0F8A325
:10104300E0F9E849602EEEF87900E875F002A4C8EB
:10105300AAF075F000A42AFA75F002E9A42AF9743B
:10106300FF28F582740F39F583E0F8A3E0F5838850
:1010730082120D2BEFF452890EEEC3940840867F43
:1010830002020E3EC0E074F1120DDFC2EBE58A608E
:101093007E7E008074750801750900EE7808120CD5
:1010A30098E508AF08E58A5F605EEEF87900E875B9
:1010B300F002A4C8AAF075F000A42AFA75F002E9B8
:1010C300A42AF9740F28F582741039F583E0F8A384
:1010D300E0F9E849602EEEF87900E875F002A4C85B
:1010E300AAF075F000A42AFA75F002E9A42AF974AB
:1010F3000F28F582741039F583E0F8A3E0F58388AF
:1011030082120D2BEFF4528A0EEEC3940840867FB1
:1011130002020E3EC0E074F1120DDFC2E8E58B60FF
:101123007E7E008074750801750900EE7808120C44
:1011330098E508AF08E58B5F605EEEF87900E87527
:10114300F002A4C8AAF075F000A42AFA75F002E927
:10115300A42AF9741F28F582741039F583E0F8A3E3
:10116300E0F9E849602EEEF87900E875F002A4C8CA
:10117300AAF075F000A42AFA75F002E9A42AF9741A
:101183001F28F582741039F583E0F8A3E0F583880E
:1011930082120D2BEFF4528B0EEEC3940540867F23
:1011A30002020E3EC0E074F2120DDFA2AFE433FE82
:1011B300C2AFE5E9A2E65020901029E0F8A3E0F9D8
:1011C300E849600E901029E0F8A3E0F583888212C5
:1011D3000D2B759B0053E9BFEEA2E092AF7F010296
:1011E3000E3EC0E074F2120DDF90102BE0F8A3E086
:1011F300F9E849600E90102BE0F8A3E0F5838882AC
:10120300120D2B7F01020E3EC0E0C0D0E8C0E0E922
:10121300C0E0C082C083E5C1C0E09010AEE0F879C1
:1012230000742D28F582741039F583D0E0F0901006
:10123300ADE0F89010AEE0687006E5959010AFF061
:101243009010AEE024019010AEF0C394804006905D
:1012530010AE7400F0D083D082D0E0F9D0E0F8D0A3
:10126300D0D0E032C0E0C0D0E8C0E0C008C009C0C0
:1012730082C083901130E0F8901131E068700B5315
:101283009AFB9011327401F08031C2E9901130E081
:10129300F50874012508901130F075090074B02524
:1012A30008F58274103509F583E0F5C1901130E03B
:1012B300C3948040069011307400F0D083D082D064
:1012C30009D008D0E0F8D0D0D0E032C0E0C0D0E8F8
:1012D300C0E0E9C0E0C082C083E5F9C0E09011B48A
:1012E300E0F87900743328F582741139F583D0E07E
:1012F300F09011B3E0F89011B4E0687006E59590B2
:1013030011B5F09011B4E024019011B4F0C39480AE
:1013130040069011B47400F0D083D082D0E0F9D0AD
:10132300E0F8D0D0D0E032C0E0C0D0E8C0E0C008E0
:10133300C009C082C083901236E0F8901237E0688B
:10134300700B539AF79012387401F08031C2EA900F
:101353001236E0F50874012508901236F07509007D
:1013630074B62508F58274113509F583E0F5F99013
:101373001236E0C3948040069012367400F0D08396
:10138300D082D009D008D0E0F8D0D0D0E03274F0C9
:10139300120D2D74FD120CAB7402120D14E9F08AB8
:1013A300088B098C0A8D0B7415120D14E0FEA3E053
:1013B300FF851082851183E4F0A3F08E828F83A3CF
:1013C300AA82AB83901353780C120B9A7808790C8A
:1013D3001204AD70188E828F837469121870746E44
:1013E300F0A37466F0A30A0AAB8302180B7808799A
:1013F300081204AD60118E828F83746E121870749C
:1014030061F0A3746E80DD901357780C120B9A78F9
:1014130008790C1204D950030214BB9012D0780C33
:10142300120B9A7808790C1204AD600302150F743D
:1014330017120D14E0700302155185108285118374
:10144300C082C0837413120D141222AED083D082D3
:10145300121849502C851082851183C3E094FCA394
:10146300E094FFA2D265D03340177402120D14E446
:10147300122382F97413120D14C3E098F0A3E099B8
:10148300F07413120D141218667418120D14E07010
:101493000302154E7417120D14E402155090135BDA
:1014A300780C120B9A7808790C1209308510828512
:1014B3001183E0240A1223BF90135F780C120B9A56
:1014C3007808790C1204D940D49012FC780C120BD2
:1014D3009A7808790C1204D940030214329012FC52
:1014E300780C120B9A7808790C1209301223B68003
:1014F300D890135B780C120B9A7808790C12057448
:10150300851082851183E024F6121869901363789D
:101513000C120B9A7808790C12052840D4901357B3
:10152300780C120B9A7808790C12052840030214E0
:10153300329012FC780C120B9A7808790C1205740D
:1015430085108285118312186680D27401F07402AB
:10155300120D14E060077A007B0002165D12185525
:10156300507D8E828F837430F0EAFEEBFF7413128A
:101573000D14E0FCA3E0FDEC4D70087418120D147B
:10158300E0600B8E828F83742EF0A30EAF837A00FC
:101593007B0080118E828F83743012189174131222
:1015A3000D14121866EA24FF1AEB34FFFB85108230
:1015B30085118312183D500B7413120D141222B2AD
:1015C3004970D185108285118374FFC39CF874FF21
:1015D3009DF9121849500302172B7A0102155B85F6
:1015E30010828511831222AEC3E498FAE499FB803A
:1015F3006985080C85090D850A0E850B0F780C1279
:1016030003C2AC0CE50D3395E0F50EF50F780C1223
:10161300034A7808790C1206F49012FC780C120B2A
:101623009A7808790C120574EC12188BEAF8EBF926
:10163300E824010AE93400FBE849701E7413120D13
:10164300141222B24970087418120D14E0600B8E44
:10165300828F83742EF0A30EAF837413120D1412B2
:10166300183D508D901300780C120B9A7808790C62
:101673001204D9400302172B7C01EE24FFF8EF3448
:10168300FFF97415120D14E0F508A3E0F50988823B
:101693008983E0642E6010E02CF0643A70077430A4
:1016A300F07C0180027C00E8FAE9FBEA24FF18EBF6
:1016B30034FFF9C3E5089AE5099B40D2ECA2E05058
:1016C300677402120D14E06036EEF8EF800A121808
:1016D30028E824FF18E934FFF9C3E50898E50999D8
:1016E3005018121815E0642E70E4E824FEF582E920
:1016F30034FFF583121822F980D71223B6801E8E89
:10170300828F83A3AE82AF83EEF8EF8006121815A3
:10171300121822F9C3E50898E5099940F0741512E7
:101723000D141222CD7431F07417120D14E07005EC
:10173300801A1EAF83EE24FFF582EF34FFF583E0BA
:10174300643060EEE0642E70031EAF837402120DEA
:1017530014E0700302180712188DA3A983121855F9
:101763008E828F835014742DF00EE9FF85108285CD
:1017730011831222F612187E8006742BF00EE9FFF5
:101783007C007D00EE240AFEEF3400FFEC24010C04
:10179300ED3400FD12182F120C37EA12188B1218B1
:1017A3002F120C371218984970E2C3EC9402ED1211
:1017B300225F40D8ECFAEDFBC3E49CF8E49DF9EE1C
:1017C30028F582EF39F583E0C0E0C3E49AF8E49B9F
:1017D300F9EE28F8EF39F9E82CF8E93DF9E824F5B2
:1017E300F582E934FFF583D0E0F0EC24FF1CED34FF
:1017F300FFFDC3EC9401ED12225F50BCEE24F6FE14
:10180300EF34FFFFEEFAEFFB7403120CC17F080203
:101813000D99E824FFFAE934FFFB8A828B832212B5
:10182300182818EB22E088828983F02285108285AC
:1018330011831223037A0A7B0022C3E09AA3E09B5D
:10184300A2D265D03322C3E098A3E099A2D265D097
:101853003322851082851183C3A3E09400A2D2654D
:10186300D03322E024FFF0A3E034FFF022F0EAFEBD
:10187300EBFF8E828F8322A3E03400F985108285EB
:101883001183E8F0A3E9F02224308E828F83F0A342
:10189300AE82AF83228510828511831218A222E8BB
:1018A300F0A3E9F0851082851183E02274F0120D14
:1018B3002D74B0120CAB85108285118312236874CA
:1018C30018120D14ECF0A3EDF0740F120D14E4F0E4
:1018D300A380227460120D1412229E7404120D143C
:1018E300E0F97418120D141222CD120D2B740F127D
:1018F3000D14122267F01222E1FA1223A1120D1421
:10190300EAF074256A6010E070C9740F120D1412A6
:10191300229E745002180D1222E16425701985105D
:1019230082851183E024010812187A7460120D1461
:1019330012229E792580AB740E120D14E4F0740DFF
:10194300120D14E4F0740C120D14E4F07405120D6E
:1019530014E4F0741E120D14A882A9837402120DEC
:101963001480157405120D14E070077405120D141C
:10197300EAF085108285118312189E122295122394
:1019830028FA24E060DD24FD601724F860DD24FEDE
:10199300600624FD600F8011740C120D14E00480A6
:1019A300D0740D80F5740E80F1122328642A705BC5
:1019B3007462120D14122333FB8A828B83E0FCA31F
:1019C300E0FD740A120D14ECF0A3EDF0EA24020A10
:1019D3000AEB3400FB7462120D14122360740A12B2
:1019E3000D1412185B501F740A120D1412229EC399
:1019F300E49AFAE49BFB740A120D14122368740C24
:101A0300120D14E004F012187F804A740A120D14A8
:101A1300E4F0A3802D740A120D141222B275F00A99
:101A2300A4F8AAF075F00AE9A42AF9E50828F8E46D
:101A330039F9E824D0F8E934FFF9740A120D1412C5
:101A430023C6122382F5838882E0F50874D0250823
:101A5300C3940A40C0740C120D14E06007740E1294
:101A63000D14E4F01222E1642E6003021AFA8510C9
:101A730082851183E0240108A3E03400F912189849
:101A83001222D2E0642A702C7462120D141222E71F
:101A9300F8A3E0F988828983E0FEA3E0FFE824024B
:101AA3000808E93400F97462120D1412231B12237F
:101AB300C6F080477E007F00851082851183122245
:101AC300F074D02508C3940A5031EE75F00AA4FED1
:101AD300A8F075F00AEFA428FFE5082EF8E43FF913
:101AE300E824D0FEE934FFFF851082851183E024CA
:101AF30001F812187A80C17EFF7FFF7A0085108279
:101B0300851183122290851082851183E0FBA3E067
:101B1300F5838B82E024B4600824E4600524FC7020
:101B2300040A12187F1222E1FB1223A1120D14EBF7
:101B3300F0700302210524BB7003021FCB24FE7047
:101B430003021FAD24EF7003021CF724F570030298
:101B53001BFC147003021D9C147003021FCB147032
:101B630003021FC9147003021FAD24FE7003021D7C
:101B73009C24FB6024147003021CE7147003021CF2
:101B8300F724FD7003021C3524FE7003021CF724A6
:101B9300FD7003021CF70221117462120D1412234B
:101BA3005A120D14121885EAA2E0740F5033120D65
:101BB30014E0FCA3E0FD3395E0FE7406120D14124D
:101BC300233BECF0A3EDF0A3EEF0A3F07462120D4F
:101BD30014122342120D1412231BE8F0A3E9021876
:101BE300F8120D141222AE7406120D14122333F5DB
:101BF300838A82E8F0A3E980D27462120D1412235F
:101C03003BE0C0E0741E120D14D0E0F07462120DBC
:101C130014122342120D1412231B121885741F125F
:101C23000D14A882A9837412120D14E8F0A3E9021B
:101C330021287462120D1412235A120D14121885DE
:101C43007406120D1412235A120D14E02402FAA37F
:101C5300E03400FB7462120D141223607402120D3F
:101C630014121885E849700C7402120D147440F0B4
:101C7300A37413F012225D50047E107F27740812A0
:101C83000D14E4F0A380087408120D14122267F0F7
:101C93007402120D141222AE88828983A3AA82AB26
:101CA300837402120D1412236888828983E0600A08
:101CB3007408120D141222B740CD7402120D1412BF
:101CC300227E7412120D141218857408120D141248
:101CD30022F6F97412120D14E028F8A3E039F9740E
:101CE30002021C2B740D120D14E06008EE4F7004F9
:101CF3007E017F007462120D1412235A120D141206
:101D030023AE120D14E0647070387406120D1412B1
:101D13002350120D14122389120D14E024021223EE
:101D230012120D1412231B121885901367120BB88D
:101D3300741A120D14120BC47405120D14E4F0027C
:101D43001E2CEAA2E07406501B120D141222CD12AF
:101D53000BB87414120D14120BC47406120D14E094
:101D630024048012120D14122350120D141223890D
:101D7300120D14E02402122312120D1412231B124B
:101D830023AE120D14E0646F700590136B809EE018
:101D93006475709690132B80947462120D14122341
:101DA3005A120D14121885EAA2E074065016120D89
:101DB300141222CD7808120B9A7406120D14E02423
:101DC30004F8801B120D141222F0A3E0F5093395D9
:101DD300E0F50AF50B7406120D14E024020808124C
:101DE3002313120D14122396120D147808120BA943
:101DF3009012D0780812031040217405120D147448
:101E03002DF07414120D147808120B9A7808120B23
:101E1300897414120D147808120BA990132B120B4A
:101E2300B8741A120D14120BC4744F120D14A88235
:101E3300A9837402120D141218857412120D141250
:101E43002399120D147808120B9AE5084509450ADF
:101E5300450B60097411120D14740180067411127C
:101E63000D14E4F0EE4F7008E0A2E04003021F20DF
:101E73007402120D141222C7120D14122399120D9B
:101E830014780C120B9A741A120D147808120B9A08
:101E9300780C7908120B16742F2508F58274133504
:101EA30009F583E0C0E07402120D141222CDD0E0D4
:101EB300F07414120D14780C120B9A741A120D1478
:101EC3007808120B9A780C7908120B167414120DF9
:101ED30014780C120BA97414120D147808120B9AAF
:101EE300E5084509450A450B708612225D502E749C
:101EF3000E120D14E060267405120D14E06004D276
:101F0300F08002C2F0740A120D14122270800E7453
:101F130002120D1412237A120D141222DA74021211
:101F23000D1412227E744F120D14C082C0837402EA
:101F3300120D1412229ED083D082E582C39AFAE551
:101F4300839BFBC3EA9EEB1222C040C3740D120DA8
:101F530014E070030221297411120D14E0A2E04071
:101F6300030221297404120D14E064786005E0640F
:101F730058701E121828E824FF18E934FFF9740278
:101F8300120D1412237A120D141222CD7430022171
:101F930028E0646F60030221297402120D141223D6
:101FA3002E6430700302212980D47408120D147436
:101FB30001F0A3E4F07404120D14E024FEF0EE4FDC
:101FC300700F7E018012E4F07408120D14E4F0A384
:101FD300F012225D50047E067F007462120D14120B
:101FE300235A120D141218857406120D141222CDE1
:101FF300780C120B9A7406120D14E02404122312A7
:10200300120D14122396120D14780C120BA99012B0
:10201300D07808120B9A780C79081205285022748C
:1020230005120D14742DF07414120D147808120B8C
:102033009AE50BB2E7F50B7414120D147808120B22
:10204300A9740A120D141222AE741E120D14E58225
:1020530028F8E58339F97402120D14121885740DEA
:10206300120D14E0F5087808120E9A7409120D1473
:10207300E0F5087808120E9A7404120D14120EA9D2
:102083008E088F097808120E96740A120D14E0F95F
:10209300741A120D14120BB81202EB7406120CC14F
:1020A3007412120D14122368740E120D14E060766C
:1020B3007405120D14E06004D2F08002C2F0740AB9
:1020C300120D141222707412120D14C082C0837484
:1020D30002120D141222AED083D082E0C398F8A36B
:1020E300E099F9C3E89EE91222C0503A7402120D36
:1020F300141222C7120D1412237A120D141222DAAB
:1021030080C485108285118312228712187E74027F
:10211300120D14744FF0A37413F07412120D14748F
:1021230052F0A37413F07412120D14C082C083749E
:1021330002120D141222AED083D082E0C398FEA304
:10214300E099FF740A120D141222B7500A74081290
:102153000D14E4F0A380307405120D14E06004D272
:10216300F08002C2F0740A120D14E0C39EF8A3E0DB
:102173009FF9A2F0E433FAE89AF8E99400F97408B5
:10218300120D14E8F0A3E9F0740C120D14E0702B97
:1021930080197460120D141222A4120D141222CD90
:1021A300120D2B740F120D141223BC7408120D148C
:1021B30012236E120D1412185B50D77405120D14EE
:1021C300E060507460120D1412229E7405120D14F7
:1021D300E0F97418120D141222CD120D2B802C74F9
:1021E30060120D1412229E7402120D141222E7F9CA
:1021F3007418120D141222CD120D2B7402120D1429
:102203001222907402120D14121885740F120D14F9
:102213001223BCEE24FF1EEF34FFFFC312225F50D4
:10222300BE740C120D14E070030218F97408120D39
:102233001412236E120D1412185B50030218F97452
:1022430060120D141222A4120D141222CD120D2BA2
:10225300740F120D141223BC80D2C3EF9400A2D2C8
:1022630065D03322E02401F0A3E0340022A2F0E49D
:1022730033F8E098FEA3E09400FF22122282221298
:102283002287F922E024FFF8A3E034FF22E01222A0
:1022930095222401F8A3E03400F922E0FAA3E0FB3D
:1022A30022E0FAA3E0FB79207418221223032212FE
:1022B3002303E822C3E09EA3E01222C0229FA2D2FE
:1022C30065D033221222827402221222D122E0F834
:1022D300A3E0F5838882221222D17430F022851084
:1022E300828511831222EB22122309E0221222EBB0
:1022F300F50822122303C3E498F8E4992212230970
:10230300E0F8A3E0F922E0F8A3E0F583888222F85D
:10231300A3E03400F974622212231F22E0FAA3E03F
:10232300F5838A822285108285118312231FE0227E
:1023330012231FE0FAA3E0221222EB1222D222126E
:1023430022EB2402F8A3E03400F974622212230082
:10235300E8FAE9FB741422122300740622E0FCA3BA
:10236300E0F5838C82EAF0A3EBF022E024FFF0A3F4
:10237300E034FFF0740822E8F0A3E9F074022212BB
:1023830018A6F8A3E022EAF0A3EBF0A3E4F0A3F08D
:1023930074062212231FE8F0A3E9F07414228510B7
:1023A30082851183E02401081223D4E8F0A3E9F025
:1023B300740422851082851183E02401F0A3E034A4
:1023C30000F0221218A22401F81223D4E8F0A3E9A2
:1023D30022A3E03400F985108285118322EBC31315
:1023E300FBEA13FA80100000000000000000000068
:1023F300000000000000EAF8EBF9E824FFFAE934F2
:10240300FFFBE84970E00200FB74F7120D2DE9FEB3
:1024130079007F80802553F4DFC29543FE2053F477
:10242300BFD29643FE407A017B0012029753F4BF5A
:10243300C29643FE4075F002EF84FFEFC394014060
:102443000EEF5E60D153F4DFD29543FE2080CF536D
:10245300F4DFD29543FE2053F4DF53FEDF53F6DF60
:1024630053F7BF53F4BFD29643FE40E5905420F98F
:1024730053F4BFC29643FE407F01020D9974F712D5
:102483000D2DE9FE75080053F4DFD29543FE20536A
:10249300F4DF53FEDF53F6DF53F7BF7880801D531D
:1024A300F4BFD29643FE40A2955003E8420853F48A
:1024B300BFC29643FE4075F002E884F8E8C3940176
:1024C30050DD53F4DFEE7004780180027800E8A257
:1024D300E0929543FE2053F4BFD29643FE407A0127
:1024E3007B0012029753F4BFC29643FE4053F4DFBE
:1024F300D29543FE20A9087F01020D99C082C083B3
:1025030053F4BFD29643FE407A017B0012029753E5
:10251300F4DFC29543FE207A017B0012029753F445
:10252300BFC29643FE407A027B0012029753F4BF68
:10253300D29643FE407A017B0012029753F4DFD216
:102543009543FE207A017B0012029753F4BFC29693
:1025530043FE407A027B0012029753F4DFC2954395
:10256300FE20D083D0820200FBC082C08353F4DFFD
:10257300D29543FE2053F4BFC29643FE40780080B9
:102583001153F4BFD29643FE4053F4BFC29643FEA9
:102593004008E8C3940940E91202A9D083D082021B
:1025A30000FB74F2120D2D8A0A8B0B8C0C8D0D8996
:1025B300097508001202AFE509600514600E801664
:1025C300790312029DE92508F508800A79051202AC
:1025D3009DE92508F50853F4DF53FEDF53F6DF5377
:1025E300F7BF7E007F008008EE2401FEEF3400FF7A
:1025F300C3EE94FFEF94FF500B7A0A7B001202970D
:10260300A29540E4A2955002050879011202A3E9BC
:10261300850A82850B83A3F079011202A3E9850A57
:1026230082850B83F079001202A3E9850C82850D64
:1026330083F0A9087F06020D9974F0120D2D74DE44
:10264300120CAB7404120D14EAF0A3EBF0ECFEEDE4
:10265300FF9012D4120BB8741E120D14120BC490F7
:1026630012D8120BB8741A120D14120BC49012DC88
:10267300120BB87416120D14120BC49012E0120B45
:10268300B87412120D14120BC49012E4120BB87426
:102693000E120D14120BC47404120D14E0F8A3E00F
:1026A300F5838882120BB8851082851183120BC4BF
:1026B3008E828F837808120B9A9012E0780C120B9B
:1026C3009A7808790C1205749012E8780C120B9A18
:1026D3007808790C1207197406120D147808120B76
:1026E300A97416120D147808120B9A85108285119D
:1026F30083780C120B9A7808790C12057485108272
:10270300851183780C120B9A7808790C120574C022
:1027130008C009C00AC00B741A120D14780C120BEE
:102723009A8510828511837808120B9A780C7908A0
:10273300120574D00BD00AD009D0087808790C128E
:102743000719741E120D14780C120B9A7808790C61
:10275300120719740A120D147808120BA9740612C1
:102763000D147808120B9A9012EC780C120B9A78CD
:1027730008790C120719C008C009C00AC00B740EEF
:10278300120D147808120B9A851082851183780C28
:10279300120B9A7808790C1205747412120D1478BE
:1027A3000C120B9A7808790C120719D00FD00ED09F
:1027B3000DD00C780C7908120574740A120D147874
:1027C30008120B9A780C79081207199012F07808FE
:1027D300120B9A780C79081204D950089012F478E5
:1027E3000C120B9A9012F87808120B9A780C79084D
:1027F30012052850089012F8780C120B9A740612DE
:102803000D14120BB88E828F83120BC47404120D35
:1028130014E0F8A3E0F5838882780C120BA97422E4
:10282300120CC17F08020D9974F0120D2D74F3126E
:102833000CAB740B120D14EAF0A3EBF07409120D38
:1028430014ECF0A3EDF07E00740B120D14E0F8A36A
:10285300E0F58388827400F0A37400F07409120D0C
:1028630014E0F8A3E0F58388827400F0A37400F009
:102873007901851082851183AC82AD837405120DB5
:1028830014AA82AB831202B5E92EFE790085108269
:10289300851183AC82AD837401120D14AA82AB83BC
:1028A3001202B5E92EFE60061202AF0229A67405D4
:1028B300120D14E0F508A3E0F509E4F50AF50B7829
:1028C300081203657405120D147808120BA974011C
:1028D300120D14E0F508A3E0F509E4F50AF50B7809
:1028E300081203657401120D147808120BA9740100
:1028F300120D14AC82AD837405120D14AA82AB833E
:102903001202BB7401120D147808120B9A9012FC78
:10291300780C120B9A7808790C12057490130078CE
:102923000C120B9A7808790C1207199012FC780C88
:10293300120B9A7808790C12093078081203C274C2
:102943000B120D14E0F8A3E0F5838882E508F0A3E9
:10295300E509F07405120D147808120B9A9012FC15
:10296300780C120B9A7808790C120574901300787E
:102973000C120B9A7808790C1207199012FC780C38
:10298300120B9A7808790C12093078081203C27472
:1029930009120D14E0F8A3E0F5838882E508F0A39B
:1029A300E509F0740D120CC17F08020D9974F7123A
:1029B3000D2DE9FEEAF8EBF9E8FAE9FB740B2E8A30
:1029C300828B83F0900F07E0F8A3E0F5838882A35E
:1029D300A3A3A3A3E0600678617988800478417992
:1029E30088E88A828B83A3F0E98A828B83A3A3F08E
:1029F300900F00E08A828B83A3A3A3F0900F07E0DC
:102A0300F8A3E0F5838882A3A3E0F8A3E0F98A8220
:102A13008B83A3A3A3A3E8F0A3E9F08A828B83A308
:102A2300A3A3A3A3A3ECF0A3EDF0900F07E0F8A3F7
:102A3300E0F5838882E0F8A3E0F98A828B83A3A37D
:102A4300A3A3A3A3A3A3E8F0A3E9F0790A7F010258
:102A53000D9974F2120D2DECFEEDFF8908A908EA19
:102A6300FCEBFD7A097B0F1201C5E9FB7A00803488
:102A73008A0A750B00EE250AF582EF350BF583E024
:102A8300C0E08B0A750B008A0C750D00E50C250A56
:102A9300F8E50D350BF9E82409F582E9340FF583E0
:102AA300D0E0F00AEAC3950840C6E5082BF97F0693
:102AB300020D9974F7120D2D7E7C7F0F1202731293
:102AC30002137901EEFAEFFB12025B8E828F83E031
:102AD300C2E7F08E828F83E0640570538E828F830A
:102AE300E0F97A7D7B0F12025B8E828F83A3E0A2D3
:102AF300E55004D2F08002C2F0A2F0E492E090121A
:102B0300C8F07880790F88828983A3E0A2E7400325
:102B1300022BCA8E828F83A3A3A3E0FA900F00E057
:102B23006A6003022BCA7401900F01F0022BCA8E54
:102B3300828F83E024F59012C5F08E828F83E0F9B3
:102B43007A7D7B0F12025B8E828F83A3E0A2E55016
:102B530004D2F08002C2F0A2F0E492E09012C8F036
:102B63008E828F83A3A3A3A3A3A3A3A3E0F8A3E0CD
:102B7300F99012C1E8F0A3E9F09012C67486F0A3AD
:102B8300740FF09012C5E0F83395E0F99012C6E0A7
:102B930028F8A3E039F988828983E09012C9F08884
:102BA300828983A3E0A2E750128E828F83A3E0542D
:102BB300DF6441700674019012CAF08E828F83A382
:102BC300A3A3E09012C0F01202191202797F01024E
:102BD3000D9974F4120D2DEAFEEBFF12023DE96428
:102BE30001700479018073120219900F07EEF0A3AC
:102BF300EFF09012C67400F0A37400F07401900F0C
:102C030002F09012D07808120B9A900F03780812F2
:102C13000BA9900F07E0F8A3E0F5838882A3A3A391
:102C2300A3E0F9120243900F07E0F8A3E0F58388CD
:102C330082E0FAA3E0FB120249900F07E0F8A3E059
:102C4300F5838882A3A3E0FAA3E0FB12024F7AD1B3
:102C53007B0112027F12021379007F04020D997423
:102C6300F4120D2DEAFEEBFF8C0A8D0B8908900FF1
:102C730002E07003120267E508C3946750058508F4
:102C8300098003750967850908120285120273A971
:102C930008AC0AAD0BEEFAEFFB1201CBE9F97A09A6
:102CA3007B0F120255120279120261E9900F07E0BD
:102CB300F8A3E0F5838882A3A3A3A3A3E0601C7415
:102CC30000900F01F07A4A7B02120231900F01E06B
:102CD3006004740080027401FE80027E00900F0283
:102CE300E0700312026DEE7007900F00E02401F014
:102CF300EEF97F04020D99C082C0837401900F0224
:102D0300F0120267D083D0820200FB74F4120D2DFF
:102D13008A088B098C0A8D0B53F1FE43F30C53F293
:102D2300F375868075C4807808120ED60000000003
:102D33000C000000B0040000812D60090000892D03
:102D4300C0120000912D80250000992D403800000D
:102D5300A12D004B0000A92D80700000B12D00961D
:102D63000000B92D00E10000C12D002C0100C92D88
:102D730000C20100D12D00840300D92DE12D75C2BD
:102D83003B75C505805E75C23B75C506805675C229
:102D93003B75C507804E75C23B75C508804675C235
:102DA300D875C508803E75C23B75C509803675C2A6
:102DB300D875C509802E75C23B75C50A802675C2B4
:102DC300D875C50A801E75C23B75C50B801675C2C2
:102DD300D875C50B800E75C2D875C50C800675C233
:102DE3003B75C50A75C402438640D2AA75C10090DB
:102DF30010AD7400F09010AE7400F09011307400B8
:102E0300F09011317400F09010AF7400F090113213
:102E13007400F07F04020D9974F7120D2D90113098
:102E2300E0F8901131E0C398501F901130E0F87929
:102E330000901131E0FE7F00E8C39EF8E99FF9E8B6
:102E430024FFF8E934FFF98037901131E0F8790075
:102E5300C3E498F8E499F9901130E0FE7F00E82E7E
:102E6300F8E93FF9E8247FF8E93400F9C3E89CE97D
:102E73009D5004D2F08002C2F0A2F0E433F879004E
:102E8300E84960067A007B00805E78007900801252
:102E9300901131E02401F0439A04E82401F8E93465
:102EA30000F9C3E89CE99D503B8A828B83E0C0E034
:102EB300901131E0FE7F0074B02EF58274103FF55F
:102EC30083D0E0F08A828B83A3AA82AB83901132F2
:102ED3007400F0901131E0C3947F40B490113174C9
:102EE30000F080B3E8FAE9FB7F01020D99C082C0CC
:102EF30083E9F8790080108A828B83E029F98A823A
:102F03008B83A3AA82AB83E8FC74FF2CF8EC70E7F5
:102F1300D083D0820200FBC082C08390123B74C274
:102F2300F0A374D0F090123D741AF090123974BD6E
:102F3300F0A374C2F090123E7401F07A397B12123E
:102F430001D7E9640160F41201E3D083D082020067
:102F5300FB74FC120CAB1202071202CD1201E91230
:102F630001EF1201FBE99012BFF09012BFE0640180
:102F730070F07402120D14AC82AD8385108285113A
:102F830083AA82AB831202C17402120D14120EA91A
:102F93007402120D14120EA97A047B131202017427
:102FA30004120CC17508807509007808120E967C0E
:102FB300007D007A3F7B121202D37402120CC1907F
:102FC300123F74CCF09012407401F09012417408D7
:102FD300F09012427402F09012437401F085108253
:102FE300851183E0F8A3E0F9E8901244F0901245CC
:102FF3007402F07402120D14E0F8A3E0F9E89012E1
:1030030046F0901241E0F97A3F7B121202C7E99031
:103013001247F0901241E02401F97C3F7D127AF3CC
:103023007BB41201DDE9790112021F7A647B00127D
:10303300023779011202251201EF022F65C082C007
:1030430083906189E04460F090619074D5F0906161
:10305300FA7409F09061B27415F09061AE7400F0E7
:103063001202797900D083D0820200FBC082C08330
:1030730075F005E9A424D490618FF0D083D0820247
:1030830000FBC082C083EA906174F0E4EBFA9061C4
:1030930075F0D083D0820200FBC082C083EA9061C6
:1030A30072F0E4EBFA906173F0D083D0820200FBFC
:1030B30074F6120D2D75E1EE7591FD78008013887D
:1030C30008750900EA2508F582EB3509F583E0F573
:1030D300D908E8C39940E87F02020D99C082C083F2
:1030E3008011E5D98A828B83F08A828B83A3AA829B
:1030F300AB8319E9C3940150E9D083D0820200FB6A
:1031030075E1E9E591A2E150FA7591FD79000200BC
:10311300FB75E1EC75E1E30200FB75E1EF75E1ECB2
:103123000200FBC082C0839061A3E0C2E6F0539A21
:10313300FED083D0820200FBC082C0839061A3E0F3
:10314300D2E6F0439A01D083D0820200FBC082C052
:1031530083A2AFE433F8C2AF901029EAF0A3EBF0F7
:10316300E8A2E092AFD083D0820200FBC082C0838A
:10317300906193E0542270F8D083D0820200FBC0A8
:1031830082C0838A828B83123207E9F08A828B831F
:10319300E02401FCA3E03400FD8A828B83ECF0A3DE
:1031A300EDF0D083D0820200FB74F6120D2D74FE75
:1031B300120CAB851082851183EAF0A3EBF0ECFAD5
:1031C300EDFB740C120D14E0F508A3E0F509780883
:1031D300120E967402120D148582088583097808ED
:1031E300120E967CDF7D021202F17404120CC1856B
:1031F3001082851183123207E4F07402120CC17F2E
:1032030002020D99E0F8A3E0F58388822274F61296
:103213000D2D7582FE7583FE120CF675820C758377
:1032230001120D1EA882A983851082851183E8F0FF
:10323300A3E9F08510828511838582088583097847
:1032430008120E96EAFCEBFD7404120D14AA82AB6D
:10325300831202E57402120CC17402120D14AA82C5
:10326300AB831202D9EAFCEBFD7402120D14AA829D
:10327300AB8312029192F0758202758301120CF6F0
:10328300A2F07F02020D99C082C083790012020D61
:10329300D083D0820200FBEBC313FBEA13FAEAF8F4
:1032A300EBF9E824FFFAE934FFFBE8496012000078
:1032B300000000000000000000000000000080DEAD
:1032C3000200FB74F7120D2DEAFEEBFFEEF8EFF9A7
:1032D300E824FFFEE934FFFFE84960097AE87B034D
:1032E30012023180E77F01020D9943EBE053EBEFCC
:1032F30053EBF743EB04C2BC0200FBC082C0834321
:10330300EB0853EBFC43EB10D2BC900FFC7400F0C2
:10331300D083D0820200FB53EBF753EBEFC2BC0226
:1033230000FBC082C083900FFCE0F9D083D08202FF
:1033330000FBE914600B14600C14600D14600E8024
:103343000ED290800AD2918006D2938002D2940248
:1033530000FBE914600B14600C14600D14600E8004
:103363000EC290800AC2918006C2938002C2940268
:1033730000FBC082C08312022B53F4FEC29043FEB3
:103383000153F4FDC29143FE0253F4F7C29343FE8B
:103393000853F4EFC29443FE109012CC120BB812F0
:1033A300028B120213D083D0820200FBE5C6548045
:1033B300F853BEFBE59DA2E550FAE59DA2E240F479
:1033C300007401697007744948F5C68005E9700205
:1033D30088C6E5C6F8E59EFAE86A70F943BE0402BA
:1033E30000FB74F7120D2D7409120D14E0F8A3E01D
:1033F300F98A828B838003ECF0A3E8FEE9FFEE24D5
:10340300FF18EF34FFF9EE4F70ED7F01020D99C005
:1034130082C0838A828B838001A3E070FCE582C330
:103423009AFAE5839BFBD083D0820200FBD2AF02E2
:0734330000FBC2AF0200FB29
:04000005000000E314
:00000001FF
