:020000040800F2
:1000000058040020450100080B0E00082F0D0008C1
:10001000090E0008B1010008B30F0008000000003D
:100020000000000000000000000000000F0E0008AB
:10003000B3010008000000000D0E0008110E0008BA
:100040005F0100085F0100085F0100085F01000810
:100050005F0100085F0100085F0100085F01000800
:100060005F0100085F0100085F0100085F010008F0
:100070005F0100085F0100085F0100085F010008E0
:100080005F0100085F0100085F0100085F010008D0
:100090005F0100085F0100085F0100085F010008C0
:1000A0005F0100085F0100085F0100085F010008B0
:1000B000B10E00085F0100085F0100085F01000841
:1000C0005F0100085F0100085F0100085F01000890
:1000D0005F0100085F0100085F0100085F01000880
:1000E0005F0100085F0100085F0100085F01000870
:1000F0005F0100085F0100085F0100085F01000860
:100100005F0100085F0100085F0100085F0100084F
:100110005F0100085F0100085F0100085F0100083F
:100120005F0100085F0100085F0100085F0100082F
:10013000DFF80CD000F02AF800480047F50F00085F
:10014000580400200648804706480047FEE7FEE7BF
:10015000FEE7FEE7FEE7FEE7FEE7FEE7FEE7FEE777
:10016000690E000831010008D2B201E000F8012B4D
:10017000491EFBD270470022F6E710B513460A4627
:1001800004461946FFF7F0FF204610BD064C074D08
:1001900006E0E06840F0010394E807009847103457
:1001A000AC42F6D3FFF7C8FF20100008401000084B
:1001B000FEE77047704700002DE9F84FDFF8C8915F
:1001C000002409F1040A0AF1040B23460F270BF15E
:1001D000040ED1E00125A54006EA0502AA4276D127
:1001E000DFF8A8C14E68A6EB0C0866452BD00DDCE5
:1001F000032E34D005DC36B3012E19D0022E2FD1B8
:100200001BE0112E16D0122E2AD119E0B8F5881F46
:1002100019D006DCB8F5803F15D0B8F5801F1FD186
:1002200011E0B8F5001F0ED0B8F5041F18D10AE090
:10023000CB6815E0CB681B1D12E0CB6808330FE0DC
:10024000CB680C330CE08B682BB1012B4FF008030B
:1002500003D0456104E0042302E0056100E00023CF
:10026000FF2A01D8064601E000F104064FEA8405A2
:1002700001D9A5F12005D6F8008007FA05FC28EA87
:100280000C0803FA05F548EA0508C6F800804D6831
:10029000ED0070D53E4DAE6946F00106AE61AD6928
:1002A00024F0030605F0010500953A4D06EB050C18
:1002B000DCF80850A607360F07FA06F825EA080505
:1002C000DFF8D480404503D14FF0000825E052E02C
:1002D000DFF8C880404502D14FF001081DE0DFF88B
:1002E000C080404502D14FF0020816E0DFF8B4802C
:1002F000404502D14FF003080FE0DFF8AC804045E5
:1003000002D14FF0040808E0DFF8A080404502D198
:100310004FF0050801E04FF0060808FA06F848EA31
:100320000508CCF808804D68D9F80060ED034D460B
:1003300001D5164300E096432E604D68DAF8006060
:10034000AD03554601D5164300E096432E604D6837
:10035000DBF80060ED025D4601D5164300E09643F0
:100360002E604D68DEF80060AD02754601D516437B
:1003700000E096432E60641C0A681646E2407FF453
:1003800029AFBDE8F88F0000000401400000111003
:10039000001002400000014000080140000C014034
:1003A000001001400014014000180140001C0140F1
:1003B0000AB1016170470904FBE700000148806849
:1003C0007047000004000020024881680278114450
:1003D0008160704704000020074810B5016841F0B3
:1003E00010010160032000F075F8002000F006F80D
:1003F00000F024F8002010BD0020024070B50D4D23
:1004000004464FF47A712878B1FBF0F00A49096884
:10041000B1FBF0F000F0CCFA48B9102C07D2002262
:100420002146501E00F036F800206C6070BD01209F
:1004300070BD000004000020100000200C4808B52A
:10044000816941F001018161816901F0010100913F
:10045000C16941F08051C161C06900F080500090D5
:100460000448416821F0E06141F00071416008BD3D
:100470000010024000000140002809DB00F01F02CC
:10048000012191404009800000F1E020C0F80011F6
:1004900070470000F0B40E4B1B680C46C3F30223F8
:1004A000C3F10705042D00D90425191D072901D220
:1004B000002300E0DB1E012606FA05F1491E21405B
:1004C00099409E40761E16403143F0BC00F072BD4C
:1004D0000CED00E0064900F0070208684FF6FF0344
:1004E000184040EA0220034A1043086070470000A9
:1004F0000CED00E00000FA052DE9F0470F4605007D
:1005000061D0434E306800F00700B84209D230682D
:1005100020F0070038433060306800F00700B84230
:1005200051D128683B4C810712D5400703D560683C
:1005300040F4E06060602878000703D5606840F40C
:10054000605060606068A96820F0F0000843606057
:100550002878C00728D06868012810D021680228B0
:1005600010D0890700292EDA616821F003010143C8
:100570006160FFF723FF804641F288390DE0216872
:100580008903EFE78901EDE7FFF718FFA0EB08010A
:10059000494502D90320BDE8F0876068696800F02A
:1005A0000C00B0EB810FEFD1306800F00700B842CB
:1005B0000BD9306820F0070038433060306800F015
:1005C0000700B84201D00120E5E72878400705D5AB
:1005D0006068E96820F4E0600843606028780007FC
:1005E00006D56068296920F4605040EAC100606067
:1005F00000F018F86168084AC1F30311515CC84063
:100600000649086006480068FFF7F8FE0020C2E7C8
:1006100000200240001002401010000810000020CE
:100620000800002012A185B00FC98DE80F0014A0AA
:10063000144A006804905168134801F00C03042B1D
:1006400010D0082B0ED1C1F38343C9031DF803005A
:100650000AD5516804AAC1F34041515C0A4A50438B
:10066000B0FBF1F005B0704708494843FAE70000D5
:1006700002030405060708090A0B0C0D0E0F1010E3
:10068000010200000010024000127A0000093D0043
:100690002DE9F84F040070D02078C04DC00749D034
:1006A0006868C0F38100012807D06868C0F3810042
:1006B000022809D16868C00306D52868800339D5A7
:1006C00060680028E7D035E06068B0F5803F0BD067
:1006D00010B1B0F5A02F11D0286820F48030286028
:1006E000286820F4802002E0286840F480302860E8
:1006F000606890B1FFF762FE06460AE0286840F4A1
:1007000080202860F0E700BFFFF758FE801B6428B8
:1007100073D828688003F7D50CE0FFF74FFE064634
:1007200005E000BFFFF74AFE801B6428F0D8286868
:100730008003F7D420789A4E80074FF001094FF0DC
:10074000000839D5686810F00C0F07D06868C0F34E
:100750008100022809D16868C00306D42868800790
:1007600014D52069012808D110E02069B0B1C6F87D
:100770000090FFF723FE074605E00AE1FFF71EFEA3
:10078000C01B0228C4D828688007F7D5286861698B
:1007900020F0F80040EAC10028600DE0C6F80080B3
:1007A000FFF70CFE074604E0FFF708FEC01B022817
:1007B00023D828688007F7D4207800072CD57948FB
:1007C000A169D9B1C0F80090FFF7F8FD074604E031
:1007D000FFF7F4FDC01B02280FD8686A8007F7D521
:1007E00071484FF4FA510068B0FBF1F0009000BF7F
:1007F0000098411E0091FAD20EE080E0C0F800801F
:10080000FFF7DCFD074604E0FFF7D8FDC01B022818
:1008100075D8686A8007F7D42078400760D5E86902
:100820000027C00008D4E86940F08050E861E8691A
:10083000012700F0805000905C480168C90513D47E
:100840000168834641F480710160FFF7B7FD82467D
:1008500006E000BFFFF7B2FDA0EB0A0064284ED807
:10086000DBF80000C005F5D5E06801280AD008B122
:10087000052813D0286A20F001002862286A20F099
:10088000040002E0286A40F001002862E06841F2BA
:10089000883B98B1FFF792FD82460BE0286A40F052
:1008A00004002862EEE700BFFFF788FDA0EB0A0115
:1008B00059455AD8286A8007F6D50CE0FFF77EFD27
:1008C000824605E0FFF77AFDA0EB0A0159454CD8B6
:1008D000286A8007F6D41FB1E86920F08050E861EB
:1008E000E06988B36968C1F38101022944D0022814
:1008F000C6F8608004D0FFF761FD044638E034E0BC
:10090000FFF75CFD074604E0FFF758FDC01B022817
:100910002BD828688001F7D4206AB0F5803F05D134
:100920006868A16820F4003008436860D4E90801D1
:100930000843696821F4741108436860C6F8609040
:10094000FFF73CFD044606E025E000BFFFF736FD5B
:10095000001B022809D828688001F7D51BE000BFDA
:10096000FFF72CFD001B022802D90320BDE8F88FF9
:1009700028688001F4D40EE00128F7D06868226A64
:1009800000F48031914204D1616A00F47010884211
:1009900001D00120EAE70020E8E700000010024053
:1009A00000004242800442421000002000700040DB
:1009B00010B5401EB0F1807F01D3012010BD4FF073
:1009C000E02460610F21601700F0F4FA0020A061BC
:1009D00007202061002010BD7047704770B590F867
:1009E0003C20012A19D0012400F83C4F0222427019
:1009F00050F83C3C5A689D6822F070060A684968C5
:100A0000324325F0800529435A6050F83C2C916010
:100A1000447000210170084670BD022070BD10B501
:100A2000040003D094F83D0010B107E0012010BD90
:100A3000002084F83C00204600F00CF8022084F8E6
:100A40003D00211D206800F039FA012084F83D00A6
:100A5000002010BD08B50068B0F1804F12D10A48DF
:100A6000C16941F00101C161C069002200F00100CB
:100A7000009002211C20FFF70DFDBDE808401C205E
:100A8000FFF7FABC08BD0000001002400168CA6808
:100A900042F00102CA600068816801F0070106297E
:100AA00003D0016841F0010101600020704770B57A
:100AB000044690F83C00012817D0012584F83C50EA
:100AC000022084F83D002068826822F0770222F438
:100AD0007F4282600868502830D00DDC20284DD03D
:100AE00005DC98B310283BD148E0022070BD3028C7
:100AF00044D0402834D139E0602828D0702806D06E
:100B0000B0F5805F2CD0B0F5005F29D10AE0CB684A
:100B1000D1E90121206800F017FA2068816841F0CE
:100B2000770109E0CB68D1E90121206800F00CFAD7
:100B30002068816841F48041816011E0CA68496899
:100B4000206800F013FA5021206807E016E0CA6818
:100B50004968206800F01BFA6021206800F0FEF967
:100B600084F83D50002084F83C0070BDCA68496894
:100B7000206800F0FBF940212068EFE72268014679
:100B80001046EBE7704770B50446006801694FF006
:100B90000005C943890715D4C168C943890711D421
:100BA000E91E0161012020772068806980072046C6
:100BB00002D0FFF7E7FF04E000F098F8204600F0CD
:100BC00096F8257720680169C943490717D4C16899
:100BD000C943490713D46FF0040101610220207753
:100BE0002068806910F4407F204602D0FFF7CAFFDA
:100BF00004E000F07BF8204600F079F825772068C3
:100C00000169C943090716D4C168C943090712D449
:100C10006FF008010161042020772068C069800717
:100C2000204602D0FFF7AEFF04E000F05FF8204658
:100C300000F05DF8257720680169C943C90617D41B
:100C4000C168C943C90613D46FF0100101610820BF
:100C500020772068C06910F4407F204602D0FFF75B
:100C600091FF04E000F042F8204600F040F82577BC
:100C700020680169C943C90708D1C168C943C907C8
:100C800004D1891E0161204600F032F82068016914
:100C9000C943090609D4C168C943090605D46FF0E0
:100CA000800101612046FFF797FE20680169C94372
:100CB000490609D4C168C943490605D46FF040010B
:100CC0000161204600F032F820680169C9438906B5
:100CD0000BD4C168C943890607D46FF020010161B4
:100CE0002046BDE87040FFF778BE70BD7047704782
:100CF00070B50068B0F1804F13D10A4C20884008CD
:100D0000208001D180202080074D0122FF2128462C
:100D1000FFF74EFB21882846BDE870400022FFF710
:100D200047BB70BD00000020001801407047FEE77F
:100D300030B585B0002418480094019402940394BF
:100D4000816941F040018161816901F040010491B4
:100D5000816941F010018161816901F01001049104
:100D6000816941F00401816180690C4D00F004004B
:100D700004900122FF212846FFF71AFBFF20009074
:100D80000120CDE901040320039069462846FFF7BE
:100D900013FA05B030BD00000010024000180140F9
:100DA00010B586B00024174800940194029403946F
:100DB00004944FF080410594016040F60F61C0E952
:100DC000011441F28731C0E903148461FFF727FE63
:100DD00008B1FFF7EFF94FF48050009069460948D9
:100DE000FFF765FE08B1FFF7E5F9049404A905488B
:100DF0000594FFF7F3FD002801D0FFF7DBF906B0FB
:100E000010BD000014000020FEE7704770477047D7
:100E1000FFF7DABA30B58FB028216846FFF7ABF993
:100E200014210AA8FFF7A7F901210804CDE9001051
:100E30000024029402250491CDE907504FF4E010FC
:100E400009906846FFF724FC0F20CDE90A054FF40E
:100E5000A060CDE90C4068020E9002210AA8FFF7BD
:100E60004BFB0FB030BD00000D48016841F001019F
:100E7000016041680B4A1140416001680A4A114013
:100E80000160016821F480210160416821F4FE01C4
:100E900041604FF41F0181600449C003086070473E
:100EA000001002400000FFF8FFFFF6FE08ED00E032
:100EB0000148FFF768BE000014000020F0B502688A
:100EC0001C4B1D4D1D4E1E4F1E4C4FF0804C98422A
:100ED00009D0A04207D0604505D0A84203D0B04257
:100EE00001D0B84204D122F0700E4A6842EA0E02E4
:100EF000984209D0A04207D0604505D0A84203D04F
:100F0000B04201D0B84203D122F44075CA682A43E6
:100F10004D6922F080022A4302608A68C2620A6830
:100F20008262984201D0A04201D109690163012186
:100F30004161F0BD002C0140000400400008004069
:100F4000000C00400034014010B5846842EA0322DE
:100F500024F47F440A432243826010BD826822F059
:100F600070020A4342F007018160704710B5036ABE
:100F7000046A24F001040462846924F0F00444EA61
:100F8000021423F00A020A438461026210BD10B504
:100F9000036A23F0100303628369046A23F4704335
:100FA00043EA023224F0A00343EA011182610162A4
:100FB00010BDFEE70907090E002804DB00F1E02060
:100FC00080F80014704700F00F0000F1E02080F876
:100FD000141D704702E008C8121F08C1002AFAD188
:100FE00070477047002001E001C1121F002AFBD1A9
:100FF00070470000FFF7F0F9FFF70CFFFFF798FECE
:10100000FFF7CEFE0148FFF741FDFEE71400002088
:1010100000000000000000000102030406070809A8
:10102000401000080000002014000000D40F000849
:10103000541000081400002044040000E40F0008CD
:10104000000100000100000010000000000000008E
:041050000024F40084
:0400000508000131BD
:00000001FF
