:020000040800F2
:100000009806002045010008431C0008631A0008F8
:10001000411C00086D0200081D20000800000000BF
:10002000000000000000000000000000471C000865
:100030009502000800000000451C0008491C00084B
:100040005F0100085F0100085F0100085F01000810
:100050005F0100085F0100085F0100085F01000800
:100060005F0100085F0100085F01000889020008C5
:100070005F0100085F0100085F0100085F010008E0
:100080005F0100085F0100085F0100085F010008D0
:100090005F0100085F0100085F0100085F010008C0
:1000A0005F0100085F0100085F0100085F010008B0
:1000B000FD1C0008091D00085F0100085F01000821
:1000C0005F0100085F0100085F0100085F01000890
:1000D0005F010008651F0008851F0008C11F000898
:1000E0005F0100085F0100085F0100085F01000870
:1000F0005F0100085F0100085F0100085F01000860
:100100005F0100085F0100085F0100085F0100084F
:100110005F010008151D00085F0100085F0100086D
:100120005F0100085F0100085F0100085F0100082F
:10013000DFF80CD000F02AF800480047A92000089A
:10014000980600200648804706480047FEE7FEE77D
:10015000FEE7FEE7FEE7FEE7FEE7FEE7FEE7FEE777
:10016000B51C000831010008D2B201E000F8012BF3
:10017000491EFBD270470022F6E710B513460A4627
:1001800004461946FFF7F0FF204610BD064C074D08
:1001900006E0E06840F0010394E807009847103457
:1001A000AC42F6D3FFF7C8FFB8220008D8220008F7
:1001B00070B5044600688168C943C9071CD18168CD
:1001C00021F00101816000F093FD05460FE000BFC2
:1001D00000F08EFD401B022809D9A06A40F01000F3
:1001E000A062E06A40F00100E062012070BD20687A
:1001F0008068C043C007EBD0002070BDF8B5002672
:100200000446009600688168C943C90728D0816800
:1002100041F001018160134813490068B0FBF1F01F
:1002200000E0401E00900028FBD100F061FD054673
:1002300011E000BF00F05CFD401B02280BD9A06A52
:1002400040F01000A062E06A40F00100E06284F833
:1002500024600120F8BD20688068C043C007E9D150
:100260000020F8BD1000002040420F00FEE710B54E
:100270000022134604E0845C521C23449BB2D2B299
:100280008A42F8D3D8B210BD014800F005BB000087
:10029000D40000207047704710B50A4800F0EAF912
:1002A0000A21084800F04EF9064800F08BF880B2A9
:1002B0004FF4A5714843040B024800F03BFA204676
:1002C00010BD0000A4000020F8B50024009490F8B0
:1002D00024202546012A12D0012280F824204A68D1
:1002E0001F23072A0DD20668776B521E02EB82028B
:1002F00093409F430B6893401F43776319E00220AC
:10030000F8BD06680D2A0AD2376BD21F02EB8202B3
:1003100093409F430B6893401F43376309E0F76A9C
:100320000D3A02EB820293409F430B6893401F43B8
:10033000F7620A68072306680A2A0AD3F7680A3AA6
:1003400002EB420293409F438B6893401F43F76048
:1003500008E0376902EB420293409F438B68934069
:100360001F4337610A68102A01D0112A20D1124B8D
:1003700002689A4217D193681B0219D4936843F418
:10038000000393600968102912D10C490C4A0968CE
:10039000B1FBF2F101EB8101490000E0491E00913F
:1003A0000029FBD104E0816A41F02001816201242F
:1003B00080F824502046F8BD0024014010000020A1
:1003C00040420F000068C06C704700002DE9F0410A
:1003D00004004FF000057FD0A06A002628B9E6622D
:1003E00084F82460204600F081F82046FFF7E0FE04
:1003F000A16AC90600D420B1A06A40F01000A06232
:100400006AE0A16A21F4885141F00201A1623349F6
:1004100023688B42E16904D1B1F5402F01D14FF43B
:100420000021277B4FF4807C41EA470261680A4340
:10043000A168614508D0012906D0002194F814E094
:10044000BEF1010F02D00AE06146F7E7C7B1A76A23
:1004500047F02007A762E76A47F00107E7625F6895
:1004600027F469470F435F60236899681C4F394040
:1004700011439960A16861450BD0012909D00CE0B6
:10048000DFF860E0A7690EEB47370F4347F40061E0
:10049000E5E7218A0D05A5F580152168CB6A23F4CF
:1004A00070032B43CB62216889680F4B194091423E
:1004B00008D1E662A16A21F0020141F00101A162C6
:1004C000BDE8F081A06A20F0020040F01000A062B8
:1004D000E06A40F00100E0620120F1E7003C0140E9
:1004E000FDF7E1FF00E0FFFFFE0E1FFF00B585B046
:1004F0000021009101910291039100680E49884208
:1005000018D10E48816941F400718161816901F45B
:1005100000710491816941F004018161806969463B
:1005200000F0040004900120009003200190044892
:1005300000F0D6FA05B000BD0024014000100240D2
:10054000000801402DE9F84300260D4604460096B8
:1005500000F0CEFB804620688168C90508D5A06AF6
:1005600040F02000A06284F824600120BDE8F883F8
:100570004168C90503D4C06A10F4700F26D0022068
:1005800000F058FC38490968B1FBF0F720680369AE
:1005900036490B424FEA61014FEAA1121BD1C368F1
:1005A0004FEA611C13EA0C0F15D103690B4221D1EC
:1005B000C06810421ED114201FE0681C06D045B34D
:1005C00000F096FBA0EB0800A84222D82068006843
:1005D0008007F2D52AE003690B4202D1C1681142BB
:1005E00006D0026922490A4206D1C068084203D1F6
:1005F000542002E0292000E0FC204743009813E04B
:10060000681C0ED02DB100F073FBA0EB0800A842CF
:1006100007D9A06A40F00400A06284F82460032097
:10062000A4E70098401C0090B842E9D321686FF01D
:1006300012000860A06A40F40070A0622068806820
:10064000C0F3424007280CD1207B50B9A06A20F4A7
:100650008070A062A06AC00403D4A06A40F00100C8
:10066000A062002082E700001000002024499224AC
:100670004992240070B5044690F8240001280DD05A
:10068000012084F824002046FFF7B8FD02004FF057
:10069000000005D084F82400104670BD022070BD13
:1006A000A16A40F20123994341F48071A1621F4D78
:1006B00023681F49AB4218D10E6816F4702F14D06E
:1006C000A66A46F48016A6620E68760505D5A66A67
:1006D00026F4005646F48056A662A66AF6040AD5A9
:1006E000E66A26F00606E66206E0A66A26F48016AA
:1006F000A6625E68E9E7E06284F824006FF0020019
:10070000186020688368C3F34243072B05D1A842D1
:1007100008D1096811F4702F04D0816841F4801168
:100720008160B9E7816841F4A001F9E70028014040
:100730000424014010B5044690F82400012807D095
:10074000012084F824002046FFF732FD10B107E0B5
:10075000022010BDA16A21F4885141F00101A1627B
:10076000002184F8241010BD2DE9F05F90F82110CD
:100770000024022903D004218163012485E001685B
:100780000A6822F00E020A6001680A6822F001027B
:100790000A603F4E3E4FB215DFF8F4C0DFF8F0902C
:1007A000DFF8ECA0DFF8E8B0DFF8E4E00168783FBC
:1007B00013011502ACF1640CA9F15009AAF13C0A2D
:1007C000ABF1280BAEF1140E4FF48018B14227D9CB
:1007D000B9420ED0614512D049451DD0514518D0BF
:1007E000594518D0714501D1424615E0294EB14214
:1007F00001D1012210E0274E1436B14201D110225E
:100800000AE0244E2836B14206D0224A3C329142B8
:1008100001D11A4600E02A461E49091F0A602BE052
:10082000B94213D0614517D0494522D051451DD05A
:1008300059451DD0714501D142461AE0B14202D15D
:100840004FF0807215E0134EB14201D1012210E049
:10085000104E1436B14201D110220AE00D4E283656
:10086000B14206D00B4A3C32914201D11A4600E017
:100870002A46074980394A60012180F82110002169
:1008800080F82010416B01B188472046BDE8F09FF9
:1008900080000240080402402DE9F05FC16B0A6845
:1008A00001680B68046C4FF0040808FA04F8844DE2
:1008B000844E854FDFF814C2DFF81492DFF814A2DB
:1008C000DFF814B2DFF814E218EA020F65D05FEA2D
:1008D000437862D50A68920603D40A6822F00402BB
:1008E0000A60DFF8F0814FF48062016808F11408B3
:1008F00013011402414524D9A9420DD0B1420FD0B1
:10090000B9421AD0614515D0494515D0514501D19C
:10091000120312E0594501D104220EE0714501D1C4
:1009200040220AE06D4D1435A94206D06B4A2832A8
:10093000914201D11A4600E022466749091F0A6028
:1009400029E0A94213D0B14215D0B94220D0614567
:100950001BD049451BD0514502D14FF4800217E00E
:10096000414502D14FF0806212E0594501D1042285
:100970000EE0714501D140220AE0584D1435A942DC
:1009800006D0564A2832914201D11A4600E022464A
:100990004B4908394A60C16A71E04FF0020808FA11
:1009A00004F818EA020F70D05FEA83786DD50A6800
:1009B000920606D40A6822F00A020A60012180F831
:1009C0002110DFF810814FF40072016808F114085B
:1009D00013011402414524D9A9420DD0B1420FD0D0
:1009E000B9421AD0614515D0494515D0514501D1BC
:1009F000120312E0594501D102220EE0714501D1E6
:100A000020220AE0354D1435A94206D0334A283257
:100A1000914201D11A4600E022462F49091F0A607F
:100A200029E0A94213D0B14215D0B94220D0614586
:100A30001BD049451BD0514502D14FF4001217E09D
:100A4000414502D14FF0007212E0594501D1022216
:100A50000EE0714501D120220AE0204D1435A94253
:100A600006D01E4A2832914201D11A4600E02246A1
:100A7000134908394A60002180F82010816A002952
:100A80001CD0BDE8F05F0847FFE70825A5401542E8
:100A900014D01A0712D50A6822F00E020A6090F8E4
:100AA0004020C36B012101FA02F25A60816380F891
:100AB0002110002180F82010016BE0E7BDE8F09FD5
:100AC000080002401C000240300002404400024086
:100AD000580002406C000240080402401C0402401E
:100AE0002DE9F84FDFF8C891002409F1040A0AF152
:100AF000040B23460F270BF1040ED1E00125A5407E
:100B000006EA0502AA4276D1DFF8A8C14E68A6EB34
:100B10000C0866452BD00DDC032E34D005DC36B333
:100B2000012E19D0022E2FD11BE0112E16D0122E1D
:100B30002AD119E0B8F5881F19D006DCB8F5803F36
:100B400015D0B8F5801F1FD111E0B8F5001F0ED0E9
:100B5000B8F5041F18D10AE0CB6815E0CB681B1D5F
:100B600012E0CB6808330FE0CB680C330CE08B68E5
:100B70002BB1012B4FF0080303D0456104E004239F
:100B800002E0056100E00023FF2A01D8064601E0EB
:100B900000F104064FEA840501D9A5F12005D6F835
:100BA000008007FA05FC28EA0C0803FA05F548EA74
:100BB0000508C6F800804D68ED0070D53E4DAE6961
:100BC00046F00106AE61AD6924F0030605F00105AB
:100BD00000953A4D06EB050CDCF80850A607360FD9
:100BE00007FA06F825EA0805DFF8D480404503D166
:100BF0004FF0000825E052E0DFF8C880404502D100
:100C00004FF001081DE0DFF8C080404502D14FF0F1
:100C1000020816E0DFF8B480404502D14FF0030827
:100C20000FE0DFF8AC80404502D14FF0040808E047
:100C3000DFF8A080404502D14FF0050801E04FF0F9
:100C4000060808FA06F848EA0508CCF808804D6856
:100C5000D9F80060ED034D4601D5164300E09643F8
:100C60002E604D68DAF80060AD03554601D5164395
:100C700000E096432E604D68DBF80060ED025D46B3
:100C800001D5164300E096432E604D68DEF8006003
:100C9000AD02754601D5164300E096432E60641CF4
:100CA0000A681646E2407FF429AFBDE8F88F0000DD
:100CB000000401400000111000100240000001403B
:100CC00000080140000C01400010014000140140E8
:100CD00000180140001C0140C2680A4201D0416175
:100CE0007047016170470AB1016170470904FBE771
:100CF00001488068704700000400002002488168B5
:100D0000027811448160704704000020074810B544
:100D1000016841F010010160032000F079F8002023
:100D200000F006F800F024F8002010BD002002407A
:100D300070B50D4D04464FF47A712878B1FBF0F090
:100D40000A490968B1FBF0F000F0D0FB48B9102C5B
:100D500007D200222146501E00F03AF800206C60B5
:100D600070BD012070BD00000400002010000020B4
:100D70000E4808B5816941F001018161816901F086
:100D800001010091C16941F08051C161C06900F069
:100D900080500090052000F03BF80548416821F0A4
:100DA000E06141F00071416008BD000000100240A8
:100DB00000000140002809DB00F01F0201219140E2
:100DC0004009800000F1E020C0F8001170470000E9
:100DD000F0B40E4B1B680C46C3F30223C3F10705A6
:100DE000042D00D90425191D072901D2002300E094
:100DF000DB1E012606FA05F1491E214099409E405E
:100E0000761E16403143F0BC01F012B90CED00E043
:100E1000064900F0070208684FF6FF03184040EA51
:100E20000220034A10430860704700000CED00E008
:100E30000000FA0510B52CA401461DCC86B08DE843
:100E40001D002DA02D4C00680490002004292FD0F7
:100E50000BDC01292FD0022928D100F071F961683B
:100E6000C1F38131491C49001EE0082920D0102916
:100E70001CD161682268D20118D5C1F38342C9032D
:100E80001DF8020009D5616804AAC1F34041515C14
:100E90001B4AB2FBF1F1484301E01A49484361683B
:100EA000490203D440000321B0FBF1F006B010BDAD
:100EB00000F056F9FAE7226AC2F30121012903D1B1
:100EC000920701D5C803F1E7022905D1626A9207AA
:100ED00002D549F64040E9E70329E7D121688903B3
:100EE000E4D54FF22440E1E70203040506070809B0
:100EF0000A0B0C0D0E0F1010010200000010024032
:100F000000127A0000093D002DE9F84305460078FB
:100F1000354CC00754D0E0690026C00008D4E06911
:100F200040F08050E061E069012600F080500090C0
:100F30002E480168C90512D40168804641F48071C9
:100F40000160FFF7D5FE074605E000BFFFF7D0FEC2
:100F5000C01B642823D8D8F80000C005F6D5206A45
:100F600010F4407021D0A98801F4407181421CD056
:100F7000206A1F49012220F440700A6000220A60A2
:100F80002062C00711D0FFF7B3FE074641F2883850
:100F900008E000BFFFF7ACFEC11B414502D90320AA
:100FA000BDE8F883206A8007F4D5206A696820F4D8
:100FB0004070084320621EB1E06920F08050E0617B
:100FC0002878800705D56068A96820F44040084368
:100FD00060602878C00605D56068696920F48000E3
:100FE000084360600020DBE7001002400070004012
:100FF000400442422DE9F0470F46050061D0434EC0
:10100000306800F00700B84209D2306820F00700CD
:1010100038433060306800F00700B84251D128688A
:101020003B4C810712D5400703D5606840F4E0606F
:1010300060602878000703D5606840F46050606005
:101040006068A96820F0F000084360602878C00755
:1010500028D06868012810D02168022810D089079C
:1010600000292EDA616821F0030101436160FFF776
:101070003FFE804641F288390DE021688903EFE7A1
:101080008901EDE7FFF734FEA0EB0801494502D9DD
:101090000320BDE8F0876068696800F00C00B0EBE1
:1010A000810FEFD1306800F00700B8420BD93068EB
:1010B00020F0070038433060306800F00700B84285
:1010C00001D00120E5E72878400705D56068E96888
:1010D00020F4E060084360602878000706D5606867
:1010E000296920F4605040EAC100606000F038F8DF
:1010F0006168084AC1F30311515CC84006490860A1
:1011000006480068FFF714FE0020C2E700200240F6
:1011100000100240A022000810000020080000205B
:101120000448054900684968044AC1F30221515C3A
:10113000C84070471000002000100240B022000894
:101140000448054900684968044AC1F3C221515C5A
:10115000C84070471000002000100240B022000874
:1011600012A185B00FC98DE80F0014A0144A0068C1
:1011700004905168134801F00C03042B10D0082B85
:101180000ED1C1F38343C9031DF803000AD551688A
:1011900004AAC1F34041515C0A4A5043B0FBF1F04C
:1011A00005B0704708494843FAE700000203040508
:1011B000060708090A0B0C0D0E0F101001020000A3
:1011C0000010024000127A0000093D002DE9F84F9E
:1011D000040070D02078C04DC00749D06868C0F3C3
:1011E0008100012807D06868C0F38100022809D176
:1011F0006868C00306D52868800339D56068002870
:10120000E7D035E06068B0F5803F0BD010B1B0F5A5
:10121000A02F11D0286820F480302860286820F49E
:10122000802002E0286840F480302860606890B137
:10123000FFF75EFD06460AE0286840F4802028603B
:10124000F0E700BFFFF754FD801B642873D82868BF
:101250008003F7D50CE0FFF74BFD064605E000BF25
:10126000FFF746FD801B6428F0D828688003F7D478
:1012700020789A4E80074FF001094FF0000839D5C9
:10128000686810F00C0F07D06868C0F3810002286E
:1012900009D16868C00306D42868800714D520697E
:1012A000012808D110E02069B0B1C6F80090FFF71E
:1012B0001FFD074605E00AE1FFF71AFDC01B0228E3
:1012C000C4D828688007F7D52868616920F0F8003D
:1012D00040EAC10028600DE0C6F80080FFF708FD75
:1012E000074604E0FFF704FDC01B022823D8286846
:1012F0008007F7D4207800072CD57948A169D9B1A7
:10130000C0F80090FFF7F4FC074604E0FFF7F0FC9C
:10131000C01B02280FD8686A8007F7D571484FF4C0
:10132000FA510068B0FBF1F0009000BF0098411E38
:101330000091FAD20EE080E0C0F80080FFF7D8FC00
:10134000074604E0FFF7D4FCC01B022875D8686A82
:101350008007F7D42078400760D5E8690027C000EF
:1013600008D4E86940F08050E861E869012700F09E
:10137000805000905C480168C90513D40168834619
:1013800041F480710160FFF7B3FC824606E000BFC4
:10139000FFF7AEFCA0EB0A0064284ED8DBF8000093
:1013A000C005F5D5E06801280AD008B1052813D09A
:1013B000286A20F001002862286A20F0040002E078
:1013C000286A40F001002862E06841F2883B98B149
:1013D000FFF78EFC82460BE0286A40F0040028628A
:1013E000EEE700BFFFF784FCA0EB0A0159455AD88D
:1013F000286A8007F6D50CE0FFF77AFC824605E004
:10140000FFF776FCA0EB0A0159454CD8286A800703
:10141000F6D41FB1E86920F08050E861E06988B334
:101420006968C1F38101022944D00228C6F86080AE
:1014300004D0FFF75DFC044638E034E0FFF758FCC9
:10144000074604E0FFF754FCC01B02282BD828688D
:101450008001F7D4206AB0F5803F05D16868A168A3
:1014600020F4003008436860D4E908010843696843
:1014700021F4741108436860C6F86090FFF738FCE7
:10148000044606E025E000BFFFF732FC001B0228FF
:1014900009D828688001F7D51BE000BFFFF728FCBA
:1014A000001B022802D90320BDE8F88F28688001BC
:1014B000F4D40EE00128F7D06868226A00F4803185
:1014C000914204D1616A00F47010884201D0012079
:1014D000EAE70020E8E70000001002400000424276
:1014E00080044242100000200070004010B5401EF1
:1014F000B0F1807F01D3012010BD4FF0E024606186
:101500000F21601700F094FD0020A06107202061EA
:10151000002010BD70477047704770B504460068E2
:1015200001694FF00005C943890715D4C168C94353
:10153000890711D4E91E01610120207720688069A4
:101540008007204602D0FFF7E7FF04E000F098F89C
:10155000204600F096F8257720680169C9434907BD
:1015600017D4C168C943490713D46FF0040101615E
:10157000022020772068806910F4407F204602D046
:10158000FFF7CAFF04E000F07BF8204600F079F88E
:10159000257720680169C943090716D4C168C94382
:1015A000090712D46FF00801016104202077206838
:1015B000C0698007204602D0FFF7AEFF04E000F0CC
:1015C0005FF8204600F05DF8257720680169C9437F
:1015D000C90617D4C168C943C90613D46FF01001F6
:1015E0000161082020772068C06910F4407F204600
:1015F00002D0FFF791FF04E000F042F8204600F02F
:1016000040F8257720680169C943C90708D1C16836
:10161000C943C90704D1891E0161204600F032F890
:1016200020680169C943090609D4C168C94309068C
:1016300005D46FF0800101612046FFF76BFF206841
:101640000169C943490609D4C168C943490605D49B
:101650006FF040010161204600F015F82068016933
:10166000C94389060BD4C168C943890607D46FF002
:10167000200101612046BDE87040FFF74CBF70BDFE
:1016800070477047704770477047000070B5026838
:1016900004461068D168536910F00F0F50D003F062
:1016A000010501F4907635435DD0C20705D0CA0527
:1016B00003D5E26B42F00102E263420705D5DA0787
:1016C00003D0E26B42F00202E263820705D5DA073B
:1016D00003D0E26B42F00402E263020705D5DA07A9
:1016E00003D0E26B42F00802E263E26B002A33D0DF
:1016F000800604D5880602D5204600F027FB206826
:101700004069E16BC0F38010090700D428B320467C
:1017100000F00EFB2068416949061AD5416921F0A5
:1017200040014161606BA0B11B494163606BFFF7F1
:101730001BF8002810D0606B416BBDE87040084773
:10174000830610D58B060ED52046BDE8704000F00C
:10175000FDBA2046FFF798FF70BD2046FFF794FFC3
:101760000020E06370BD030606D50B0604D52046B5
:10177000BDE8704000F092BB4006F3D54806F1D5B5
:10178000D168204621F04001D160202184F8391031
:1017900000F066F970BD0000211D000870B504005E
:1017A00004D094F83900002510B106E0012070BD86
:1017B00084F83850204600F023F8242084F83900BB
:1017C0002068C16821F40051C160204600F00AFB86
:1017D0002068016921F4904101612068416921F08C
:1017E0002A0141612068C16841F40051C160E5638C
:1017F000202084F8390084F83A00002070BD0000F1
:10180000F0B585B0002400940194029403945C4DDB
:1018100003685C48022103220426AB422DD1C36930
:1018200043F48013C361C36903F480130493836991
:1018300043F010038361836903F010030493836909
:1018400043F0200383618069039200F0200004903C
:10185000C802CDE9000169464B48FFF741F9CDE9DF
:101860000064694649480294FFF73AF90322114699
:101870003520FFF7ADFA35202AE0464DDFF810C1DC
:101880002F15634528D1836943F4804383618369BD
:1018900003F480430493836943F004038361806904
:1018A000039200F0040004906815CDE90001694638
:1018B0002846FFF715F9CDE90074694628460294D9
:1018C000FFF70EF9002203212520FFF781FA2520DA
:1018D000FFF770FA05B0F0BDDFF8BCC0634525D155
:1018E000C36943F40033C361C36903F40033049351
:1018F000836943F0040383618069CDE9006100F0EE
:101900000400CDE9032069462846FFF7E9F80820DE
:10191000CDE90004694628460294FFF7E1F8012268
:1019200003212620FFF754FA2620D1E71B4DAB42B6
:10193000D0D1C36943F48023C361C36903F4802316
:101940000493836943F0080383618069CDE90071E2
:1019500000F00800CDE90320114D69462846FFF745
:10196000BFF8E814CDE90004694628460294FFF761
:10197000B7F8022203212720FFF72AFA2720A7E73A
:1019800000500040001002400010014000140140CF
:101990000038014000080140004400400048004079
:1019A000000C014070472DE9F843044690F83900D7
:1019B0001F4616460D46202850D1A5B19EB194F879
:1019C000380001284AD0012084F838004FF0000880
:1019D000C4F83C80212084F83900FFF789F9A684F7
:1019E0008146E68426E00120BDE8F883E08C401EB5
:1019F000E084A0684B46B0F5805F4FF000024FF0E6
:101A000080012046009703D000F079FAE8B90DE094
:101A100000F075FAC8B928882168C0F3080048604A
:101A2000206908B16D1C05E0AD1C03E0216815F8C4
:101A3000010B4860E08C0028D8D14B4600224021A1
:101A40002046009700F05BFA08B10320CCE7202085
:101A500084F8390084F838800020C5E70220C3E705
:101A60007047FEE73EB500241148009401940294AB
:101A70000E498460016004730475012505614FF40B
:101A800060214460C161FEF7A1FC08B1FEF703FCD0
:101A900007200094CDE9015069460548FEF714FC83
:101AA000002801D0FEF7F7FB3EBD000000240140F6
:101AB000A40000202DE9F04786B000243F480094A0
:101AC000019402940394816941F04001816181692C
:101AD00001F040010491816941F010018161816947
:101AE00001F010010491816941F004018161816973
:101AF00001F004010491816941F00801816181696B
:101B000001F008010491816941F02001816180693F
:101B10002B4F00F0200004900122FF213846FFF7F0
:101B2000E2F8DFF8A0A04FF480780022414650464A
:101B3000FFF7D9F8FF2001250326CDE90005CDE9FF
:101B4000024669463846FEF7CBFF6F03CDE90074C5
:101B5000DFF87490694648460294FEF7C1FF022000
:101B60008DE8310069465046FEF7BAFFCDE90074B2
:101B7000164F694638460294FEF7B2FFCDF8008052
:101B80000396CDE9015469465046FEF7A9FF680265
:101B9000CDE90005CDE9024669464846FEF7A0FFBB
:101BA00040F60100CDE90005CDE902466946384618
:101BB000FEF796FF06B0BDE8F08700000010024077
:101BC00000180140000801400010014000140140CD
:101BD0000C4810B50A4901604FF4E1314160002121
:101BE00081600C22C160C0E904128161C161FFF70C
:101BF000D5FD002803D0BDE81040FEF74CBB10BD5A
:101C000000440040180200200C4810B50A49016049
:101C10004FF4E1314160002181600C22C160C0E9D4
:101C200004128161C161FFF7B9FD002803D0BDE84E
:101C30001040FEF730BB10BD0048004058020020A5
:101C4000FEE7704770477047FFF758B830B595B05A
:101C500028216846FEF78FFA14210AA8FEF78BFAAE
:101C600018210FA8FEF787FA0920012100904FF4F0
:101C70008030002404910691CDE901040225CDE9CC
:101C800007504FF4E01009906846FFF79FFA0F20C5
:101C9000CDE90A056802CDE90C4002210AA80E949C
:101CA000FFF7A8F9A80311900F950FA8FFF72CF9DB
:101CB00015B030BD0D48016841F001010160416877
:101CC0000B4A1140416001680A4A114001600168F5
:101CD00021F480210160416821F4FE0141604FF44C
:101CE0001F0181600449C003086070470010024072
:101CF0000000FFF8FFFFF6FE08ED00E00148FFF7E7
:101D00000CBC0000180100200148FFF706BC0000D1
:101D1000580100200148FFF7B9BC000098010020DD
:101D200010B5406A0021C185C184FFF7ADFC10BD2C
:101D30000168CA6822F49072CA6001684A6922F098
:101D400001024A61202180F83A10704710B590F8DE
:101D50003A10222901D0022010BD8168B1F5805FC0
:101D600011D00169002901681FD0496801F07F0383
:101D7000816A4A1C82620B70C18D491E0904090CDC
:101D8000C18518D02BE00269816A002A0268526876
:101D900005D0D2B20A80816A491C8162ECE7C2F3A5
:101DA00008020A80816A891CF7E74A68816A4B1C2D
:101DB00083620A70E0E70168CA6822F02002CA6004
:101DC0000168CA6822F48072CA6001684A6922F018
:101DD00001024A61202180F83A10FFF7E3FD00205C
:101DE00010BD00002DE9F041044600680169E26879
:101DF00021F44051114301612169A06808436169E0
:101E000008432168CA6841F20C639A430243CA60DE
:101E100020684169A26921F44071114341611E4962
:101E2000206864253226884202D1FFF789F901E053
:101E3000FFF776F900EBC00101EB001160686FF06D
:101E400018078000B1FBF0F2B2FBF5F2B1FBF0F342
:101E50007A4303EB8202B1FBF0F306EB0212B2FB12
:101E6000F5F2B3FBF5F302F0F00202EB0312B1FB63
:101E7000F0F3B1FBF0F0B0FBF5F0784303EB80003A
:101E800006EB0010B0FBF5F0216800F00F001044E5
:101E90008860BDE8F08100000038014090F83910FA
:101EA000212901D0022070478168B1F5805F016A65
:101EB0000BD04A1C0262026809785160C18C491E2D
:101EC0000904090CC1840ED017E009880268C1F327
:101ED0000801516001690029016A02D0491C0162B0
:101EE000ECE7891CFBE70168CA6822F08002CA603F
:101EF0000068C16841F04001C160002070472DE9D1
:101F0000F041984617460E460446069D1DE0681CA3
:101F10001BD02DB1FEF7ECFEA0EB0800A84214D9AF
:101F20002068C16821F4D071C1602068416921F046
:101F300001014161202084F8390084F83A00002032
:101F400084F838000320BDE8F0812068006836EA94
:101F5000000004D00020B842D9D00020F3E70120CF
:101F6000F9E700000148FFF791BB0000D80100200D
:101F7000034A0146002012680A4200D0012070473F
:101F8000004400400148FFF781BB00001802002018
:101F900030B50B460446094D0CE04020FFF7E8FF42
:101FA0000128FAD1207828604020FFF7E1FF0128BE
:101FB000FAD1641C5B1EDBB2EFD230BD044400409A
:101FC000014800F003B800005802002030B5104866
:101FD00002681168C9438B060E490DD4D36843F0DB
:101FE0001003D36003685C680B4D4A78AC54521CF4
:101FF0004A706FF020021A6000680268D243D2066D
:1020000005D4C26822F01002C2600120087030BD01
:10201000D80100200000002018000020FEE700008A
:10202000014A024900F023B8912000081400002062
:102030000907090E002804DB00F1E02080F80014F5
:10204000704700F00F0000F1E02080F8141D704789
:1020500002E008C8121F08C1002AFAD17047704771
:10206000002001E001C1121F002AFBD170472DE9B9
:10207000F04116460F460446002503E03946B047B6
:10208000641C6D1C20780028F8D12846BDE8F0813A
:1020900013B54FF6FF73012269460248FFF783FC30
:1020A00000981CBD1802002088B0FEF72FFEFFF735
:1020B000D9FCFFF7CBFDFFF7FDFCFFF789FDFFF72C
:1020C000A3FD6C480068C16841F02001C1606A4806
:1020D0000068C16841F02001C1600022F02167481A
:1020E000FEF701FE012251026548FEF7FCFD0022C9
:1020F00040F601016348FEF7F6FD63A0FFF790FF8D
:10210000654CDFF898914FF0020A4FF0DD0B00228A
:1021100008215A48FEF7E7FD99F800000128F6D19A
:102120004FF00008267947464546012E02D0022E80
:1021300016D02AE0E07A217B303800EB80026FF085
:102140002F0000EB4202114401F0FF08217D627D67
:10215000303901EB810100EB41001044C7B214E0BB
:10216000A0790C2818D0607BE17B303800EBC002EE
:1021700002EB001001EB8000A17B4FF6F05201EB67
:10218000810102EB4101084485B220216846FDF738
:10219000F2FF012E0BD022E0607BA17B303800EBF8
:1021A00080026FF02F0000EB42000844ECE70120B2
:1021B00009218DF804108DF800B08DF801008DF81C
:1021C00005008DF802A08DF806808DF803A08DF82B
:1021D000077008216846FEF74AF88DF80800207954
:1021E000022818D109208DF8040006208DF805007A
:1021F0008DF800B0280A8DF801A08DF806008DF842
:1022000002A08DF803A08DF8075008216846FEF75C
:102210002EF88DF8080009216846FFF7B9FE1E4D1B
:102220000120803585F800B06870A87085F803A09B
:102230000920287105206871FEF72EF8000AA871A0
:10224000FEF72AF8E87108212846FEF710F82872F0
:1022500009212846FFF79CFE01210848FEF73CFDB6
:10226000002189F8001089F8011080210A48FDF743
:1022700082FF4CE7D80100205802002000180140DE
:10228000001001400014014048656C6C6F20776FAE
:10229000726C64210D0A000018000020000000206C
:1022A0000000000000000000010203040607080906
:1022B0000000000001020304D822000800000020F2
:1022C0001800000050200008F0220008180000202C
:1022D00080060000602000080000000001000000EF
:1022E00010000000000000000024F40000000000C6
:0400000508000131BD
:00000001FF
