:020000040000FA
:030000000200E318
:030013000213AB2A
:03001B000214725A
:030033000212AD09
:03003B0002140BA1
:03004B000213831A
:0300630002113E49
:03006B00021183FC
:030073000214D2A2
:03007B0002121856
:1000830002134200000080FB120113B900030200B7
:10009300CDE4900F0078C179048002F0A3D8FCD995
:1000A300FA9012C0AA82AB8390011678A0790180DE
:1000B30015E493A3AC82AD838A828B83F0A3AA82D7
:1000C300AB838C828D83D8E9D9E77582EA75832A5D
:1000D30074001200F575828675830074001200F5B2
:1000E30075D0007581BF75100075110F759F0002E3
:1000F300008BC09FF59FE473D09F22D083D082C032
:100103009FE493C0E0740193C0E0740293F59F22CF
:10011300790122FF0000000000000000000000BB86
:10012300F0D1E6B4ABB8D0C6F7A3ACBAECCDE2B924
:10013300E228BBF0D1E629CAFDD7D6C1BFA3BA25B1
:10014300646D560D0A00B80B0000000000004A0160
:10015300000000C201000100000000002041000077
:10016300A040010000000A0000006D4EC641393076
:100173000000FFFFFF7F30313233343536373839F3
:1001830041424344454600286E756C6C20706F698C
:100193006E74657229003F3F3F000000803FF90203
:1001A3001550B743BA5100E7DB2E100000000800DA
:1001B30000001200FE3B25001200FEE025001200A5
:1001C300FE4126001200FE6027001200FEED27000C
:1001D3001200FE8528001200FE3830001200FE4B8C
:1001E30030001200FE6930001200FE74300012006D
:1001F300FEA52E001200FE862A001200FEB02A0081
:100203001200FE8A2F001200FE962F001200FE84B9
:1002130030001200FEC730001200FE4A3100120007
:10022300FE4F31001200FEE62F001200FE0F3000D9
:100233001200FE1B2F001200FE2B2F001200FE5D8A
:100243002F001200FE102C001200FE3F2C001200A3
:10025300FE552C001200FE6A2C001200FE7F2C00BB
:100263001200FEAB2C001200FECF2C001200FEE0A9
:100273002C001200FEE92C001200FEF22C001200EA
:10028300FE072D001200FE1C2D001200FE3C2D0067
:100293001200FE9928001200FEAA29001200FE4F48
:1002A3002D001200FE972D001200FEB12D0012004A
:1002B300FEFD30001200FE2C31001200FE182E004D
:1002C3001200FE412E001200FE3915001200FE112D
:1002D3001A00E066701008A3E066700A08A3E066DF
:1002E300700408A3E06622E4936670130874019314
:1002F30066700C0874029366700508740393662293
:10030300C3E7960809E7960809E7960809E796A25E
:10031300D265D03322C3E49396087401939608748C
:10032300029396087403939622080808E630E711AF
:10033300120C50120344080808C64480C618181843
:1003430022181818E9799EC608CAC608CBC608CC75
:10035300C6C370207996CACBCC7019798ECBCC707A
:10036300137986CC700EF9802ACA33CACB33CBCC2F
:1003730033CC331930E7F2CCCBCA3350147004EAD0
:1003830030E00DE4CA3ACACB3BCBCC3CCC5002099B
:10039300C3E913C6CC182313C6CB18C6CA18C6F9AB
:1003A300221203E420F01430E72B74FFFCFBFA74F1
:1003B3007F8022E4FCFBFA7480801AB48008BC00BE
:1003C300F2BB00EF800F50EBF9E4C39AFAE49BFB16
:1003D300E49CFCE499C6CC18C6CB18C6CA18C6F967
:1003E30022E4C9C608CAC608CBC6D3330308CCC6A1
:1003F3003392F0C3947F402E94184019C9B907046F
:10040300CACBCC225025C309CA33CACB33CBCC3396
:10041300CC33D9F422F4600DC9CCC313CB13CBCAAC
:1004230013CAD9F6CC22E4FCFBFA2214FCFBFA2211
:10043300E6C33318461846184622E7C3331947194B
:1004430047194722181818E6084608700AE608C331
:10045300337005E633F4220822191919E70947090D
:10046300700AE709C3337005E733F4220922E6086B
:100473004608C3134608336002E633F422E709470C
:1004830009C3134709336002E733F422120471608E
:10049300251204806020120433700302043D08080F
:1004A30008E76670101819E766700A1819E766708E
:1004B300041819E76622F422120471601C120480E6
:1004C3006017120433700712043D7001D322C0D0A9
:1004D30012043D7006D0D0B322C32233D0D05014BF
:1004E30030E0F6C3E7960809E7960809E796080996
:1004F300E796B32220E0D5E6970809E6970809E6D0
:10050300970809E697B322120471601B12048060F6
:1005130016120433700712043D600CB322C0D012CC
:10052300043D7005D0D022C32233D0D0501330E025
:10053300EBC3E7960809E7960809E7960809E796E3
:100543002220E0E4E6970809E6970809E6970809F8
:10055300E6972200120471604F1204806012E75480
:100563008066F6120447701112043D703B090909B5
:10057300F4F618F618F618F62212045C7015120435
:100583003308080860EAE6447FF618768018E4F634
:1005930018F622120433601612043D7012E4F608B2
:1005A300F608F608E65480F609090918181822EA2D
:1005B300C0E0EBC0E0ECC0E0EDC0E0E687F0A4FBF8
:1005C300ACF008E687F0A42CFCE435F0FA1809E651
:1005D30087F0A42C4B60027401CA35F0FCE433FBB2
:1005E30009E687F0D2F7A42CCB35F0FC1908E6878F
:1005F300F0A42BCC35F0FBE433FD0819E687F0D2E9
:10060300E7A42C4ACB35F0CD3400FC09E687F0D2C1
:10061300E7A42DCC35F0FDE433FA0918E687F0D2D0
:10062300F7A42CCD35F0CA3400FC08E687F0D2E7F6
:10063300D2F7A42ACC35F07A7E20E70B0ACB33CB52
:10064300CD33CDCC33CC33CB3350147004ED30E009
:100653000ED2F1E4CD3DCDCC3CCC3B5005DA05C206
:10066300F1EB547FC63308E63392F0FBE73309E737
:1006730033C39A502D2B70190C0D4C4D7015180661
:10068300E608C333700D20F10AA2F013F6E41880D4
:100693000B4024E4F630F002768018F618F618F6CC
:1006A3008024D33B14501074FFA2F013F618768005
:1006B300E418F618F6800FA2F013F618E63303F6E3
:1006C30018ECF618EDF6D0E0FDD0E0FCD0E0FBD05E
:1006D300E0FA221204806046120471603DE96870FA
:1006E30008F618F618F618F622748067F712070A48
:1006F300090909748067F722120471601D120480CE
:100703007005191919801A120447701F12045CC36B
:100713007003E667331919194007181818220808D7
:100723000874FFF618F618F618F62212045C601720
:1007330012043D702192F01204337019501720F007
:1007430014080808090909E7F61819E7F61819E75C
:10075300F61819E7F62212043360E6E869701F08F9
:1007630008E62480F608E436F618547FB47F0CE6D6
:1007730054806007F6E418F618F622181822E9C622
:10078300CC08C6CD08C6CE08C6CFC0E0E8C0E0EAB4
:10079300C0E0EBC0E009E9F809E7FA09E7FBE6F98D
:1007A30018E6F8C3EC98ED99EE9AEBC2E7F5F0EF93
:1007B300C2E795F0500E600CEBCFFBEACEFAE9CD21
:1007C300F9E8CCF8EAA2E7D2E7FAEB33FB13F5F04A
:1007D300EEA2E7D2E7FEEF33FFC5F013A2E730E660
:1007E30001B313C5F0C3C0E0C0F07F00C39BFB603F
:1007F3005B9418600C401AD0E023F9D0E0F80208AB
:10080300D98AF0E9486003D2F0E4AFF0FAF9F8804E
:100813003BEB30E40D89F0EA6003D2F0E4AFF0F98A
:10082300CAF8EB30E30D88F0EF6002D2F0AFF0E4EA
:10083300CAC9F8EB54076014FBC3EA13FAE913F9C6
:10084300E813F8EF135002D2E0FFDBEDD0E0C0E095
:1008530030E739C3E49FFFF5F0EC98FC42F0ED99E3
:10086300FD42F0EE9AFE42F0D0E0F9D0E0F8E5F078
:10087300607AE923F9EE20E742D8028067C3EF33B9
:10088300FFEC33FCED33FDEE33FE80EAEC28FCEDA8
:1008930039FDEE3AFED0E023F9D0E0F84002801BA8
:1008A300C3EE13FEED13FDEC13FCEF135002D2E085
:1008B300FF08B800067F7F74FF802EEF3350178C3C
:1008C300F020F00260100CBC000C0DBD00080EBE41
:1008D300000408E860DFE933E813FFEE2313FE4F5B
:1008E3004D4C8008E95480FFE4FEFDFCEE33EF330A
:1008F300F47004FCFD7E80D0E0FBD0E0FAD0E0F899
:10090300D0E0CFC618CEC618CDC618CCC6F9221271
:100913000471700418181822120480700D74FFF605
:100923001819F61819F61819F622E7548066F61204
:100933000433700F12043D70F014F608F608F6083D
:10094300F680D112043D700CF608F608768008E6AE
:10095300447F80EC12045F700C12044A60BFE654BB
:1009630080F6E480BB12044A700519191980A5E8C2
:1009730069700C763F18768018F618F6E8F922E6C7
:10098300CDC0E018ECC0E0E633CD33CDD313F6E7AA
:1009930019FCE7191933CC33C3947F400ECD9D5016
:1009A3002408E65480F6E418F6800FF4043D14504E
:1009B3001408E6447FF6187680E418F618F6D0E0BB
:1009C300FCD0E0FD22CCD313CCFD18E4C6CBC0E0B1
:1009D30018E4C6CAC0E00808ED08C633E613F618E3
:1009E300E433C675F003C3CA97CA09CB97CB199CE6
:1009F30040047D08802EBD0003020ABB16B6FF0526
:100A03000606081618C3CA33CACB33CB33CA27CA60
:100A130009CB37CB193CC37D08803E187D0820E7FE
:100A23005CC633C6CA33CACB33CB33DDF1D5F0EB67
:100A330030E77BCA97CA09CB974ACB199C406F4BC7
:100A43007025E620E0218066187D08C3CA97CA098D
:100A5300CB97CB199CD3C633C6CA33CACB33CB335C
:100A630050C9DDE7D5F0E1D3E4C636C608C636C6BD
:100A730008C636C608C636C61818188031C3CA97C2
:100A8300CA09CB97CB199CB34097C633C6CA33CA9E
:100A9300CB33CB33DD34D5F02EC6A2E0C640C8CA73
:100AA30027CA09CB37194A70BECB3CB480B90808B2
:100AB300E63308E633601F181818D0E0FAD0E0FBDD
:100AC300D0E0FCD0E0FD22187D08CA27CA09CB3745
:100AD300CB193CD3808013F618E4B67F11F618B611
:100AE300FF0EF618C60470D20808768080CAF6187E
:100AF300F618F680C5080808EAC0E0EBC0E086F007
:100B0300E7A4FA180986F0E7A42AFA180986F0E799
:100B1300A42AFA180986F0E7A42AFA1986F0E7A4AA
:100B2300FBE5F02AFA190886F0E7A42BFBE5F03A77
:100B3300FA190886F0E7A42BFBE5F03AFA1818092E
:100B430086F0E7A4C5F02BFBE43AFA1908E7C5F0F1
:100B5300C6A426F6E5F03BFBE43AFA1886F0E7A4D0
:100B6300F6E5F00826F6E43B08F6E43A08F6D0E0AA
:100B7300FBD0E0FA22E4CFC0E0E4CEC0E0E4CDC095
:100B8300E0E4CCC0E075F020C3E633F608E633F6C4
:100B930008E633F608E633F6181818EC33FCED33A1
:100BA300FDEE33FEEF33FFC3EC9709ED9709EE97A4
:100BB30009EF97191919400FFFEC97FC09ED97FD01
:100BC30009EE97FE191906D5F0BEECF709EDF70902
:100BD300EEF709EFF7191919D0E0FCD0E0FDD0E0EA
:100BE300FED0E0FF22120C53181818120B78120CC7
:100BF3003F19191922120C3F191919080808E61888
:100C0300181820E7E0120B78120C53181818220951
:100C13000909E719191920E7DC080808E618181864
:100C230020E703020B78120C53181818120B7812D2
:100C33000C53181818120C3F19191922E4C397F70B
:100C430009E497F709E497F709E497F722181818C6
:100C5300E4C396F608E496F608E496F608E496F6F6
:100C6300226016080808C6C313C618C613C618C6DA
:100C730013C618C613C6D5E0EA22E026F608A3E099
:100C830036F608A3E036F608A3E036F622C3E0C63C
:100C930096F608A3E0C696F608A3E0C696F608A360
:100CA300E0C696F622E647F60809E647F60809E69F
:100CB30047F60809E647F622E0F608A3E0F608A39C
:100CC300E0F608A3E0F622E6F008A3E6F008A3E6C0
:100CD300F008A3E6F022CAC0E0E6F0A308DAFAD0EF
:100CE300E0FA22CAC0E0E0A3C582CCC582C583CDA9
:100CF300C583F0A3C582CCC582C583CDC583DAE69F
:100D0300D0E0CA22C3E498F8E499F9120D4880268A
:100D1300C3E49AFAE49BFBE920E7E9120D48E4985F
:100D2300F8E499F922C3E498F8E499F9120D48E438
:100D330098F8E499F9C3E49AFAE49BFB22EB20E7E1
:100D4300CFE920E7E0B90010BB0008E88AF084F897
:100D5300AAF022E4FBC8FA22EB70227B10C833C846
:100D6300C933C9335007C39AC3DBF280069A5001D3
:100D73002ADBEAC833F4C8C933F4C9FA2275F00888
:100D8300E4C833C8C933C933C99AC99B5004C92AB3
:100D9300C93BD5F0ECFBC833F4C8E4C9FA227004AC
:100DA30022600D18C6C333C608C633C6D5E0F4188F
:100DB30022251010AF08F510400215118008F51018
:100DC30040021511D2AF22C0D0251010AF08F51084
:100DD300500205118008F51050020511D2AFD0D092
:100DE300222510F58210AF08F51040021511800876
:100DF300F51040021511D2AF85118322C58225104B
:100E0300C582C583351110AF07F5118582108007A0
:100E1300F511858210D2AFC583222510F582E43502
:100E230011F58322C5822510C582C5833511C5837B
:100E330022E4732510C582C0E0E51134FFC583C0E9
:100E4300E0E510C3958224F8F8E4C5A885831185ED
:100E53008210C5A8E8CEF0A3E520F0A37808E60841
:100E6300F0A3DEFAEFF0A3E58124FAF8E608F0A395
:100E7300E608F0A3E608F0A30808E608F0A3E608EE
:100E8300F0A315811581D0E0FED0E0F8158115811E
:100E93001581E8C0E0EEC0E022851183851082E071
:100EA300A3FEE0A3F5207808E0A3F608DFFAE0A3A9
:100EB300FFE0A3C0E0E0A3C0E0E0A3C0E0E0A3C084
:100EC300E0E0A3C0E0E4C5A8858210858311C5A82E
:100ED300D083D0820200FBC0D02510C582C0E0E5DC
:100EE3001134FFC583C0E0E510C3958224F310AF2E
:100EF300088583118582108008858311858210D22D
:100F0300AFC8F0A3E9F0A3EAF0A3EBF0A37908E7F5
:100F130009F0A3D8FAECF0A3EDF0A3EEF0A3EFF001
:100F2300A3D0E0F0A3D0E0F0A3D0E0F0A3E520F05D
:100F3300A3E5F0F0A322851183851082E0C0E0A32E
:100F4300E0F9A3E0FAA3E0FBA37808E0F608A3DF47
:100F5300FAE0FCA3E0FDA3E0FEA3E0FFA3E0C0E012
:100F6300A3E0C0E0A3E0F5D0A3E0F520A3E0A3F560
:100F7300F0E4C5A8858311858210C5A8D082D083EB
:100F8300D0E0F8D0E032740280027401C0E0F404CF
:100F9300120DE4D0E0120CD9227404800474028090
:100FA30000CCC0E0EDC0E0E510C39CCCAD11500116
:100FB3001D10AF068C108D1180068C108D11D2AFD1
:100FC300120CE6D0E0FDD0E0FC22D083D082C5F045
:100FD300E493A3C5F0C395F0F5F0E493A3C395F0B0
:100FE3004005E5F0048001E475F002A42582F58252
:100FF300E5F03583F583E493A3C0E0E493C0E022F6
:10100300D083D082CCC0E0E493A3600612102D14E9
:1010130070FAE493A3600612104C1470FAD0E0FC4B
:10102300E493A3C0E0E493C0E022C0E0E493A3D33D
:101033009C5010E493A3C39C400AD0E0D0E0D0E0DE
:10104300021020A3A3A3D0E022C0E0E493A36C701A
:1010530009D0E0D0E0D0E0021020A3A3D0E022D05A
:1010630083D082ECC0E0EDC0E0EEC0E0EFC0E0E48E
:1010730093A3FCE493A3FDE493A3FEE493A3FFEF04
:101083004E4D4C60151210DEEC24FFFCED34FFFDD9
:10109300EE34FFFEEF34FFFF80E5E493A3FCE4931B
:1010A300A3FDE493A3FEE493A3FFEF4E4D4C601521
:1010B30012111BEC24FFFCED34FFFDEE34FFFEEFB9
:1010C30034FFFF80E5D0E0FFD0E0FED0E0FDD0E0CC
:1010D300FCE493A3C0E0E493C0E022C0E0C0F08846
:1010E300F0120318A8F040071202EAA8F0701AA33E
:1010F300A3A3A3120318A8F0A3A3A3A34013D0F0A0
:10110300D0E0D0E0D0E00210C8A3A3A3A3A3A3A37D
:10111300A3A3A3D0F0D0E022C0E0C0F088F0120275
:10112300EAA8F0A3A3A3A3700BD0F0D0E0D0E0D043
:10113300E00210C8A3A3D0F0D0E022C0E074F21202
:101143000EDAC2DBC2C4900FFDE02401F0A3E03449
:1011530000F0900FFDE064A17004A3E06407701534
:10116300900FFD7400F0A37400F07401900FFCF075
:101173001201E580067400900FFCF07F01020F3925
:10118300C0E074F1120EDAC2C5E5897003021213CE
:101193007E008076750801750900EE7808120DA1AE
:1011A300AF08E5895F6062EEF87900E875F002A4A4
:1011B300C8AAF075F000A42AFA75F002E9A42AF986
:1011C300E82486F582E93410F583E064007004A313
:1011D300E06400602EEEF87900E875F002A4C8AA76
:1011E300F075F000A42AFA75F002E9A42AF9E824BC
:1011F30086F582E93410F583E0F8A3E0F58388826D
:10120300120E34EFF45589F5890EEEC39408408429
:101213007F02020F39C0E074F1120EDAC2EBE58AE5
:1012230070030212A87E008076750801750900EE2E
:101233007808120DA1AF08E58A5F6062EEF87900C5
:10124300E875F002A4C8AAF075F000A42AFA75F0B4
:1012530002E9A42AF9E82496F582E93410F583E03B
:1012630064007004A3E06400602EEEF87900E87572
:10127300F002A4C8AAF075F000A42AFA75F002E9F6
:10128300A42AF9E82496F582E93410F583E0F8A35B
:10129300E0F5838882120E34EFF4558AF58A0EEE58
:1012A300C3940840847F02020F39C0E074F1120E28
:1012B300DAC2E8E58B700302133D7E008076750881
:1012C30001750900EE7808120DA1AF08E58B5F6088
:1012D30062EEF87900E875F002A4C8AAF075F00090
:1012E300A42AFA75F002E9A42AF9E824A6F582E90A
:1012F3003410F583E064007004A3E06400602EEE14
:10130300F87900E875F002A4C8AAF075F000A42AE1
:10131300FA75F002E9A42AF9E824A6F582E9341063
:10132300F583E0F8A3E0F5838882120E34EFF455D9
:101333008BF58B0EEEC3940540847F02020F39C0F8
:10134300E074F2120EDAA2AFE492E0FEC2AFE5E976
:10135300A2E650229010B0E064007004A3E06400A1
:10136300600E9010B0E0F8A3E0F5838882120E348B
:10137300759B0053E9BFEEA2E092AF7F01020F39E4
:10138300C0E074F2120EDA9010B2E064007004A3AD
:10139300E06400600E9010B2E0F8A3E0F583888269
:1013A300120E347F01020F39C0E0C0D0E8C0E0E97B
:1013B300C0E0EAC0E0C082C083E5C1C0E09011355F
:1013C300E0790024B4F582E93410F583D0E0F0909D
:1013D3001134E0FA901135E06A7006E59590113604
:1013E300F0901135E02401901135F0C3948040064C
:1013F3007400901135F0D083D082D0E0FAD0E0F9B8
:10140300D0E0F8D0D0D0E032C0E0C0D0EAC0E0C035
:1014130008C009C082C0839011B7E0FA9011B8E008
:101423006A700B539AFB74019011B9F08031C2E9D1
:101433009011B7E0F508740125089011B7F075090C
:1014430000E5082437F582E5093411F583E0F5C199
:101453009011B7E0C39480400674009011B7F0D0A8
:1014630083D082D009D008D0E0FAD0D0D0E032C007
:10147300E0C0D0E8C0E0E9C0E0EAC0E0C082C083D9
:10148300E5F9C0E090123BE0790024BAF582E93433
:1014930011F583D0E0F090123AE0FA90123BE06A43
:1014A3007006E59590123CF090123BE024019012F7
:1014B3003BF0C394804006740090123BF0D083D07D
:1014C30082D0E0FAD0E0F9D0E0F8D0D0D0E032C05A
:1014D300E0C0D0EAC0E0C008C009C082C083901257
:1014E300BDE0FA9012BEE06A700B539AF774019054
:1014F30012BFF08031C2EA9012BDE0F508740125F5
:10150300089012BDF0750900E508243DF582E50950
:101513003412F583E0F5F99012BDE0C394804006E0
:1015230074009012BDF0D083D082D009D008D0E0EF
:10153300FAD0D0D0E03274F0120E3674FD120DB42E
:101543007402120E1DE9F08A088B098C0A8D0B7444
:1015530015120E1DE0FCA3E0FD851082851183E4C6
:10156300F0A3F0901347780C120CBB7808790C1297
:1015730004BB50030216179012F7780C120CBB78B9
:1015830008790C12048F600302166B7417120E1D78
:10159300E070030216AD851082851183C082C0837B
:1015A3007413120E1D12241DD083D0821219A15060
:1015B3002C851082851183C3E094FCA3E094FFA2E1
:1015C300D265D03340177402120E1DE41224DDF9E4
:1015D3007413120E1DC3E098F0A3E099F074131274
:1015E3000E1D1219DF7418120E1DE070030216AAE5
:1015F3007417120E1DE40216AC90134B780C120CE8
:10160300BB7808790C120912851082851183E024B6
:101613000A12251A90134F780C120CBB7808790C18
:101623001204BB40D4901307780C120CBB780879D2
:101633000C1204BB400302158E901307780C120C96
:10164300BB7808790C12091212251180D890134B1C
:10165300780C120CBB7808790C120556851082851C
:101663001183E024F61219E2901353780C120CBB89
:101673007808790C12050A40D4901347780C120CA1
:10168300BB7808790C12050A400302158E901307E4
:10169300780C120CBB7808790C12055685108285DC
:1016A30011831219DF80D27401F07402120E1DE04F
:1016B30060077A007B000217AB1219B2506D121942
:1016C300D0120E1DE0FEA3E0FFEE7001EF70087470
:1016D30018120E1DE0600B742E8C828D83F0A30C08
:1016E300AD837A007B0080091219D0120E1D1219E6
:1016F300DFEA24FF1AEB34FFFB8510828511831286
:101703001995500C7413120E1DE07002A3E070D8EB
:1017130085108285118374FFC39EF874FF9FF912AD
:1017230019A1500302187A7A0180898510828511E4
:101733008312241DC3E498FAE499FB806B85080C9B
:1017430085090D850A0E850B0F780C1203A4AE0CC8
:10175300E50D3395E0F50EF50F780C12032C7808A0
:10176300790C1206D6901307780C120CBB78087903
:101773000C120556EE1219C3EAF8EBF97401280AA4
:10178300E439FBE87001E9701F7413120E1DE07059
:1017930002A3E070087418120E1DE0600B742E8C07
:1017A300828D83F0A30CAD837413120E1D12199551
:1017B300508B90130B780C120CBB7808790C120425
:1017C300BB400302187A7E01EC24FFF8ED34FFF9E5
:1017D3007415120E1DE0F508A3E0F50988828983CC
:1017E300E0642E6010E02EF0643A70077430F07EEF
:1017F3000180027E00E8FAE9FBEA24FF18EB34FFDC
:10180300F9C3E5089AE5099B40D2EE7001E46067ED
:101813007402120E1DE06036ECF8ED800A12198096
:10182300E824FF18E934FFF9C3E50898E50999505E
:101833001812196DE0642E70E4E824FEF582E93491
:10184300FFF58312197AF980D7122511801E8C8235
:101853008D83A3AC82AD83ECF8ED800612196D1273
:10186300197AF9C3E50898E5099940F07415120E41
:101873001D1219AD7431F07417120E1DE07005803E
:101883001A1CAD83EC24FFF582ED34FFF583E0648D
:101893003060EEE0642E70031CAD837402120E1DE3
:1018A300E070030219551219C5A3A9831219B25086
:1018B30018742D8C828D83F00CE9FD8510828511BF
:1018C300831224471219ED800A742B8C828D83F0C6
:1018D3000CE9FD7E007F00EC240AFCED3400FDEEF4
:1018E30024010EEF3400FF121987120D40EA12197A
:1018F300C3121987120D401219FA7002A3E070DFA8
:10190300C3EE940212196440D6EEFAEFFBC3E49ED1
:10191300F8E49FF9EC28F582ED39F583E0C0E0C3E4
:10192300E49AF8E49BF9EC28F8ED39F9EE28F8EF9E
:1019330039F974F528F58274FF39F583D0E0F01294
:1019430023CAEE940112196450C3EC24F6FCED345F
:10195300FFFDECFAEDFB7403120DCA7F08020E9C27
:10196300C3EF9400A2D265D03322E824FFFAE9340E
:10197300FFFB8A828B832212198018EB22E0888274
:101983008983F0228510828511831224B57A0A7B1C
:101993000022C3E09AA3E09BA2D265D03322C3E026
:1019A30098A3E099A2D265D03322E012243F228586
:1019B3001082851183C3A3E09400A2D265D03322A1
:1019C30024308C828D83F0A3AC82AD832274308C5F
:1019D300828D83F0A3AC82AD83741322E024FFF0E5
:1019E300A3E034FFF022A3E03400F98510828511CF
:1019F30083E8F0A3E9F022851082851183121A048B
:101A030022E8F0A3E9F0851082851183E02274F0C7
:101A1300120E3674B0120DB4851082851183122410
:101A2300C37418120E1DECF0A3EDF0740F120E1D0B
:101A3300E4F0A380227460120E1D12240D740412AC
:101A43000E1DE0F97418120E1D1219AD120E347426
:101A53000F120E1D1223D4F012247AFA1224FC1250
:101A63000E1DEAF074256A6010E070C9740F120E3F
:101A73001D12240D745002195B12247A6425701907
:101A8300851082851183E02401081219E97460121C
:101A93000E1D12240D792580AB740E120E1DE4F079
:101AA300740D120E1DE4F0740C120E1DE4F0740597
:101AB300120E1DE4F0741E120E1DA882A983740277
:101AC300120E1D800E7405120E1DE0602685108215
:101AD300851183121A00122404122467FA121003C8
:101AE300000520C81A23081B2BF61A2DFF1A300CE9
:101AF3001B101B7405120E1DEAF080D1740C120E1C
:101B03001DE00480F4740D80F5740E80F1122467D7
:101B1300642A705B7462120E1D122472FB8A828B1C
:101B230083E0FCA3E0FD740A120E1DECF0A3EDF0BC
:101B3300EA24020A0AEB3400FB7462120E1D12241B
:101B4300BB740A120E1D1219B8501F740A120E1D0F
:101B530012240DC3E49AFAE49BFB740A120E1D12BD
:101B630024C3740C120E1DE004F01219EE804C74A1
:101B73000A120E1DE4F0A3802F740A120E1D122404
:101B83001DE875F00AA4F8AAF075F00AE9A42AF989
:101B9300E82508F8E93400F974D028F874FF39F916
:101BA300740A120E1D1225211224DDF5838882E0AA
:101BB300F50874D02508C3940A40BE740C120E1D98
:101BC300E06007740E120E1DE4F012247A642E6096
:101BD30003021C5D851082851183E0240108A3E0C4
:101BE3003400F91219FA1219AEE0642A702C7462E7
:101BF300120E1D122480F8A3E0F988828983E0FE87
:101C0300A3E0FFE824020808E93400F97462120E25
:101C13001D12245A122521F080447E007F001224D5
:101C23007AF50874D02508C3940A5032EE75F00A89
:101C3300A4FEAAF075F00AEFA42AFFEE2508F8EF38
:101C43003400F974D028FE74FF39FF8510828511A2
:101C530083E02401F81219E980C47EFF7FFF7A0034
:101C63008510828511831223FF851082851183E0FD
:101C7300FBA3E0F5838B82E012100300034C8B1C63
:101C8300688C1C6C8B1C8F1C0A1219EE12247AFBB5
:101C93001224FC120E1DEBF012100300100076222A
:101CA300453221470D2158311E63321D64DE1E6506
:101CB3003221662B21670D2169DE1E6ED21C6F1F38
:101CC3001E70311E736B1D75311E78311E82227496
:101CD30062120E1D1224A8120E1D1219F4EA6035A9
:101CE300740F120E1DE0FCA3E0FD3395E0FE7406B5
:101CF300120E1D122489ECF0A3EDF0A3EEF0A3F075
:101D03007462120E1D122490120E1D12245AE8F052
:101D1300A3E9021A5A740F120E1D12241D7406121F
:101D23000E1D122472F5838A82E8F0A3E980D07431
:101D330062120E1D122489E0C0E0741E120E1DD023
:101D4300E0F07462120E1D122490120E1D12245A1A
:101D53001219F4741F120E1DA882A9837412120E95
:101D63001DE8F0A3E90222997462120E1D1224A841
:101D7300120E1D1219F47406120E1D1224A8120E4F
:101D83001DE02402FAA3E03400FB7462120E1D125C
:101D930024BB7402120E1D1219F4E87001E9700CD1
:101DA3007402120E1D7434F0A37413F012196350ED
:101DB300047E107F277408120E1DE4F0A3800874BC
:101DC30008120E1D1223D4F07402120E1D12241DCC
:101DD30088828983A3AA82AB837402120E1D122404
:101DE300C388828983E0600A7408120E1D122421BD
:101DF30040CD7402120E1D1223ED7412120E1D1229
:101E030019F47408120E1D122447F97412120E1DD0
:101E1300E028F8A3E039F97402021D61740D120E73
:101E23001DE0600AEE7001EF70047E017F007462B2
:101E3300120E1D1224A8120E1D122509120E1DE0EA
:101E43006470703C7406120E1D12249E120E1D1235
:101E530024E4120E1DE02402122451120E1D12243A
:101E63005A1219F49013577808120CBB741A120EF5
:101E73001D7808120CCA7405120E1DE4F0021F7BB4
:101E8300EA60217406120E1D1219AD7808120CBBFC
:101E93007414120E1D7808120CCA7406120E1DE07B
:101EA300240480147406120E1D12249E120E1D1299
:101EB30024E4120E1DE02402122451120E1D1224DA
:101EC3005A122509120E1DE0646F700590135B8092
:101ED30096E06475708E901313808C7462120E1DDD
:101EE3001224A8120E1D1219F4EA60187406120EB9
:101EF3001D1219AD780C120CBB7406120E1DE024D2
:101F030004F8801F7406120E1D122480F50CA3E042
:101F1300F50D3395E0F50EF50F7406120E1DE02452
:101F2300020808122452120E1D1224F1120E1D78FB
:101F33000C120CCA9012F77808120CBB7808790CB3
:101F430012030350217405120E1D742DF074141224
:101F53000E1D7808120CBB7808120C537414120E61
:101F63001D7808120CCA9013137808120CBB741A4C
:101F7300120E1D7808120CCA744F120E1DA882A9E6
:101F8300837402120E1D1219F47412120E1D122400
:101F9300F4120E1DC082C0839012F77808120CBB96
:101FA300D083D08278081202D560097411120E1DF5
:101FB300740180067411120E1DE4F0EE7001EF70CF
:101FC30006E070030220827402120E1D12243112E5
:101FD3000E1D1224F4120E1D780C120CBB741A126F
:101FE3000E1D7808120CBB780C7908120B78E508E3
:101FF3002423F582E5093413F583E0C0E07402126B
:102003000E1D1219ADD0E0F07414120E1D780C12CF
:102013000CBB741A120E1D7808120CBB780C7908CD
:10202300120B787414120E1D780C120CCA7414124D
:102033000E1DC082C0839012F77808120CBBD083A8
:10204300D08278081202D56003021FCA12196350A6
:102053002E740E120E1DE060267405120E1DE06034
:1020630004D2F08002C2F0740A120E1D1223DD8026
:102073000E7402120E1D1224D5120E1D1224377473
:1020830002120E1D1223ED744F120E1DC082C08367
:102093007402120E1D12240DD083D082E582C39ADE
:1020A300FAE5839BFBC3EA9EEB12242A40C3740D1B
:1020B300120E1DE0700302229A7411120E1DE070BD
:1020C3000302229A7404120E1DE064786005E06432
:1020D30058701E121980E824FF18E934FFF97402BE
:1020E300120E1D1224D5120E1D1219AD74300222C8
:1020F30099E0646F600302229A7402120E1D122487
:102103006D6430700302229A80D47408120E1D7419
:1021130001F0A3E4F07404120E1DE024FEF0EE704F
:1021230001EF70147E0180177404120E1DE4F07425
:1021330008120E1DE4F0A3F012196350047E067F0B
:10214300007462120E1D1224A8120E1D1219F474CB
:1021530006120E1D1219AD780C120CBB7406120E6A
:102163001DE02404122451120E1D1224F1120E1D1F
:10217300780C120CCA9012F77808120CBB780C7901
:102183000812050A50227405120E1D742DF07414E2
:10219300120E1D7808120CBBE50BB2E7F50B741495
:1021A300120E1D7808120CCA740A120E1D12241D79
:1021B300741E120E1DE58228F8E58339F9740212A4
:1021C3000E1D1219F4740D120E1DE0F50878081295
:1021D3000F8D7409120E1DE0F5087808120F8D7427
:1021E30004120E1D120FA08E088F097808120F8992
:1021F300740A120E1DE0F9741A120E1D7808120CDF
:10220300BBAA08AB09AC0AAD0B1202C97406120DC6
:10221300CA7412120E1D1224C3740E120E1DE06036
:10222300767405120E1DE06004D2F08002C2F074D1
:102233000A120E1D1223DD7412120E1DC082C083FA
:102243007402120E1D12241DD083D082E0C398F8AD
:10225300A3E099F9C3E89EE912242A503A740212C2
:102263000E1D122431120E1D1224D5120E1D12241E
:102273003780C48510828511831223F61219ED74F9
:1022830002120E1D7443F0A37413F07412120E1D88
:102293007446F0A37413F07412120E1DC082C0832F
:1022A3007402120E1D12241DD083D082E0C398FE47
:1022B300A3E099FF740A120E1D122421500A740818
:1022C300120E1DE4F0A380327405120E1DE06004AB
:1022D300D2F08002C2F0740A120E1DE0C39EF8A36E
:1022E300E09FF9A2F0E492E0FAE8C39AF8E99400D7
:1022F300F97408120E1DE8F0A3E9F0740C120E1D18
:10230300E0702B80197460120E1D122413120E1D1F
:102313001219AD120E34740F120E1D122517740804
:10232300120E1D1224C9120E1D1219B850D77405AE
:10233300120E1DE060507460120E1D12240D740500
:10234300120E1DE0F97418120E1D1219AD120E347F
:10235300802C7460120E1D12240D7402120E1D12B5
:102363002480F97418120E1D1219AD120E34740262
:10237300120E1D1223FF7402120E1D1219F4740F94
:10238300120E1D1225171223CA12196550C4740C9C
:10239300120E1DE07003021A5B7408120E1D122444
:1023A300C9120E1D1219B85003021A5B7460120E83
:1023B3001D122413120E1D1219AD120E34740F12B6
:1023C3000E1D12251780D2EE24FF1EEF34FFFFC32C
:1023D30022E02401F0A3E0340022A2F0E492E0F82A
:1023E300E0C398FEA3E09400FF221223F1221223FC
:1023F300F6F922E024FFF8A3E034FF22E0122404DC
:10240300222401F8A3E03400F922E0FAA3E0FB223E
:10241300E0FAA3E0FB79207418221224B522C3E06A
:102423009EA3E012242A229FA2D265D03322122334
:10243300F174022212243E7430F022E0F8A3E0F596
:10244300838882221224B5C3E498F8E49922F8A37E
:10245300E03400F974622212245E22E0FAA3E0F56C
:10246300838A822285108285118312245EE02212E0
:10247300245EE0FAA3E0228510828511831224846E
:102483002212243EE02212248412243F22122484A6
:102493002402F8A3E03400F97462221224AEE8FAAD
:1024A300E9FB7414221224AE74062212243E122471
:1024B300B522E0F8A3E0F922E0FCA3E0F5838C82E7
:1024C300EAF0A3EBF022E024FFF0A3E034FFF07482
:1024D3000822E8F0A3E9F0740222121A08F8A3E034
:1024E30022EAF0A3EBF0A3E4F0A3F0740622122493
:1024F3005EE8F0A3E9F0741422851082851183E06D
:1025030024010812252FE8F0A3E9F07404228510B2
:1025130082851183E02401F0A3E03400F022121A33
:10252300042401F812252FE8F0A3E922A3E03400E4
:10253300F98510828511832274F7120E36E9FEEABB
:10254300F8EBF9E8FAE9FB740B2E8A828B83F0909F
:102553000F07E0F8A3E0F5838882A3A3A3A3A3E076
:10256300600678617988800478417988E88A828B6B
:1025730083A3F0E98A828B83A3A3F0900F00E08A00
:10258300828B83A3A3A3F0900F07E0F8A3E0F58366
:102593008882A3A3E0F8A3E0F98A828B83A3A3A391
:1025A300A3E8F0A3E9F08A828B83A3A3A3A3A3A345
:1025B300ECF0A3EDF0900F07E0F8A3E0F583888239
:1025C300E0F8A3E0F98A828B83A3A3A3A3A3A3A325
:1025D300A3E8F0A3E9F0790A7F01020E9C74F212DA
:1025E3000E36ECFEEDFF8908A908EAFCEBFD7A093B
:1025F3007B0F1201B5E9FB7A0080348A0A750B0060
:10260300EE250AF582EF350BF583E0C0E08B0A7502
:102613000B008A0C750D00E50C250AF8E50D350B4A
:10262300F9E82409F582E9340FF583D0E0F00AEAEA
:10263300C3950840C6E5082BF97F06020E9C74F784
:10264300120E367E7C7F0F12027B12021B7901EE83
:10265300FAEFFB1202638E828F83E0C2E7F08E8271
:102663008F83E0640570538E828F83E0F97A7D7BDC
:102673000F1202638E828F83A3E0A2E55004D2F08F
:102683008002C2F0A2F0E492E09012C8F078807960
:102693000F88828983A3E0A2E740030227558E8235
:1026A3008F83A3A3A3E0FA900F00E06A60030227DD
:1026B300557401900F01F00227558E828F83E02419
:1026C300F59012C5F08E828F83E0F97A7D7B0F122D
:1026D30002638E828F83A3E0A2E55004D2F08002CE
:1026E300C2F0A2F0E492E09012C8F08E828F83A32E
:1026F300A3A3A3A3A3A3A3E0F8A3E0F99012C1E8C3
:10270300F0A3E9F09012C67486F0A3740FF0901250
:10271300C5E0F83395E0F99012C6E028F8A3E03954
:10272300F988828983E09012C9F088828983A3E0C3
:10273300A2E750128E828F83A3E054DF64417006B8
:1027430074019012CAF08E828F83A3A3A3E0901228
:10275300C0F01202211202817F01020E9C74F41256
:102763000E36EAFEEBFF120245E9640170047901BB
:102773008073120221900F07EEF0A3EFF09012C6C0
:102783007400F0A37400F07401900F02F09012F73C
:102793007808120CBB900F037808120CCA900F072D
:1027A300E0F8A3E0F5838882A3A3A3A3E0F91202D0
:1027B3004B900F07E0F8A3E0F5838882E0FAA3E0EB
:1027C300FB120251900F07E0F8A3E0F5838882A380
:1027D300A3E0FAA3E0FB1202577AC17B011202873E
:1027E30012021B79007F04020E9C74F4120E36EA67
:1027F300FEEBFF8C0A8D0B8908900F02E070031229
:10280300026FE508C39467500585080980037509BD
:102813006785090812028D12027BA908AC0AAD0B69
:10282300EEFAEFFB1201BBE9F97A097B0F12025DA5
:10283300120281120269E9900F07E0F8A3E0F58321
:102843008882A3A3A3A3A3E0601C7400900F01F0EC
:102853007A4A7B02120239900F01E060047400800F
:10286300027401FE80027E00900F02E070031202E8
:1028730075EE7007900F00E02401F0EEF97F04027B
:102883000E9CC082C0837401900F02F012026FD0BD
:1028930083D0820200FB74F4120E368A088B098CF3
:1028A3000A8D0B53F1FE43F30CE5F353F2F3E5F218
:1028B30075868075C4807808121062000000000CD1
:1028C300000000B00400001029600900001829C0AE
:1028D30012000020298025000028294038000030FC
:1028E30029004B0000382980700000402900960021
:1028F30000482900E100005029002C01005829005C
:10290300C201006029008403006829702975C23B55
:1029130075C505805E75C23B75C506805675C23B9D
:1029230075C507804E75C23B75C508804675C2D80C
:1029330075C508803E75C23B75C509803675C2D81A
:1029430075C509802E75C23B75C50A802675C2D828
:1029530075C50A801E75C23B75C50B801675C2D836
:1029630075C50B800E75C2D875C50C800675C23B44
:1029730075C50A75C402438640D2AA75C1007400A6
:10298300901134F07400901135F074009011B7F089
:1029930074009011B8F07400901136F07400901127
:1029A300B9F07F04020E9C74F7120E369011B8E052
:1029B300C0E09011B7E0FED0E0C39E501F9011B766
:1029C300E0F879009011B8E0FE7F00E8C39EF8E9D3
:1029D3009FF974FF28F874FF39F980369011B8E035
:1029E300F87900C3E498F8E499F99011B7E07F000F
:1029F30028F8EF39F9747F28F8740039F9C3E89C93
:102A0300E99D5004D2F08002C2F0A2F0E492E0F813
:102A13007900740068700374006960067A007B00B3
:102A2300805C7800790080129011B8E02401F043B3
:102A33009A04E82401F8E93400F9C3E89CE99D50BD
:102A4300398A828B83E0C0E09011B8E07F0024379D
:102A5300F582EF3411F583D0E0F08A828B83A3AA49
:102A630082AB8374009011B9F09011B8E0C3947FE6
:102A730040B674009011B8F080B5E8FAE9FB7F0125
:102A8300020E9CC082C083E9FC790080108A828B8D
:102A930083E029F98A828B83A3AA82AB83ECFD743A
:102AA300FF2DFCED70E7D083D0820200FBC082C013
:102AB3008390100174C2F0A374D0F0741A901003C1
:102AC300F0900FFF74CCF0A374BDF0740190100468
:102AD300F07AFF7B0F1201C7E9640160F41201D39E
:102AE300D083D0820200FB12020F1201FD1201D922
:102AF3001201DF1201EBE9901085F0901085E0647C
:102B03000170F01202098A0A8B0B850A08850B09EA
:102B130085080A85090BE50A75F00AA4C50AAAF017
:102B230075F000A42AFA75F00AE50BA42AF50B78D0
:102B33000A120F897ACC7B121201F17402120DCAA8
:102B4300750A80750B00780A120F897C007D007A64
:102B5300057B101202B17402120DCA74CC901005D9
:102B6300F07401901006F07407901007F074019050
:102B73001008F07403901009F0A808E875F00AA48F
:102B8300C8AAF075F000A42AFA75F00AE509A42A88
:102B9300F9E990100AF075F00AE508A490100BF01B
:102BA300901007E0F97A057B101201F7E990100CF9
:102BB300F0AA08AB09E4FCFD1202A59012F3120F70
:102BC3009C9012F77808120CBBAA08AB09AC0AADAB
:102BD3000B1202AB7404120DCA8A088B09AA08AB44
:102BE3000912023F901007E02401F97C057D107A59
:102BF300F37BB41201CD79011202277A647B0012B0
:102C0300023F790112022D1201DF022AF6C082C0AF
:102C130083906189E04460F074D5906190F0740909
:102C23009061FAF074159061B2F074009061AEF0A7
:102C33001202817900D083D0820200FBC082C0835C
:102C430075F005E9A424D490618FF0D083D082027B
:102C530000FBC082C083EA906174F0EB906175F071
:102C6300D083D0820200FBC082C083EA906172F0FD
:102C7300EB906173F0D083D0820200FB74F6120EE6
:102C83003675E1EE7591FD7C0080138C08750900A3
:102C9300EA2508F582EB3509F583E0F5D90CECC399
:102CA3009940E87F02020E9CC082C0838011E5D95F
:102CB3008A828B83F08A828B83A3AA82AB8319E9EE
:102CC300C3940150E9D083D0820200FB75E1E9E5AA
:102CD30091A2E150FA7591FD79000200FB75E1ECD8
:102CE30075E1E30200FB75E1EF75E1EC0200FBC067
:102CF30082C0839061A3E0C2E6F0539AFED083D0F2
:102D0300820200FBC082C0839061A3E0D2E6F0435D
:102D13009A01D083D0820200FBC082C083A2AFE4B9
:102D230092E0FCC2AF9010B0EAF0A3EBF0ECA2E0AB
:102D330092AFD083D0820200FBC082C083906193A4
:102D4300E0542270F8D083D0820200FB74F0120E9C
:102D53003690130F7808120CBB901317780C120CD3
:102D6300BB7808790C120AF890131B7808120C7DB3
:102D730090130F7808120CCA90131F780C120CBB17
:102D83007808790C120B78AA0CAB0DAC0EAD0F7F43
:102D930008020E9C74F4120E368A088B098C0A8D75
:102DA3000B90130F7808120CCA7F04020E9C74F068
:102DB300120E3674FC120DB4851082851183EAF06D
:102DC300A3EBF0A3ECF0A3EDF07414120E1D78083E
:102DD300120CBB12029F8A0C8B0D8C0E8D0F85106B
:102DE300828511837808120C909013037808120CD3
:102DF3007D780C7908120C1285108285118378086E
:102E0300120C7DAA08AB09AC0AAD0B7404120DCAEF
:102E13007F08020E9C74F7120E368A828B83122E61
:102E23009CE9F08A828B83E02401FCA3E03400FD5B
:102E33008A828B83ECF0A3EDF07F01020E9C74F683
:102E4300120E3674FE120DB4851082851183EAF0DA
:102E5300A3EBF0ECFAEDFB740C120E1DE0F508A3E6
:102E6300E0F5097808120F897402120E1D85820895
:102E73008583097808120F897CBD7D021202CF7405
:102E830004120DCA851082851183122E9CE4F074FE
:102E930002120DCA7F02020E9CE0F8A3E0F58388BC
:102EA300822274F6120E367582FE7583FE120DFFB2
:102EB30075820C758301120E27A882A9838510825F
:102EC300851183E8F0A3E9F085108285118385825B
:102ED300088583097808120F89EAFCEBFD74041254
:102EE3000E1DAA82AB831202C37402120DCA7402AE
:102EF300120E1DAA82AB831202B7EAFCEBFD740229
:102F0300120E1DAA82AB8312029975820275830188
:102F1300120DFF7F02020E9CC082C0837900120251
:102F230015D083D0820200FBEBC313FBEA13FAEA4A
:102F3300F8EBF974FF28FA74FF39FB740068700327
:102F4300740069601200000000000000000000002F
:102F5300000000000080D80200FB74F7120E36EA6E
:102F6300FEEBFFEEF8EFF974FF28FE74FF39FF74F0
:102F73000068700374006960097AE87B0312023900
:102F830080E17F01020E9C43F20143F30153FDFEF6
:102F93000200FB74F0120E36120203C28D75B69056
:102FA300A28D50FCE5BAF50CE4F50DF50EF50FE531
:102FB300BBF508E4C508F509E4F50AF50B780C79C7
:102FC30008120CA89012FB7808120CBB780C790835
:102FD300120AF8740F780C120C64AA0CAB0D7F085C
:102FE300020E9CC082C083E9120FCD01030830FAA0
:102FF3002FFE2F02300630D290800AD2918006D263
:10300300938002D294D083D0820200FBC082C0831B
:10301300E9120FCD01033130233027302B302F300D
:10302300C290800AC2918006C2938002C294D08368
:10303300D0820200FB43EBE0E5EB53EBEF53EBF7FE
:1030430043EB04C2BC0200FBC082C08343EB0853C2
:10305300EBFCE5EB43EB10D2BC7400900FFCF0D01B
:1030630083D0820200FB53EBF753EBEFC2BC0200A9
:10307300FBC082C083900FFCE0F9D083D0820200B2
:10308300FB74F4120E3612023353F4FEC29043FE65
:103093000153F4FDC29143FE0253F4F7C29343FE7E
:1030A3000853F4EFC29443FE109012FF7808120CF9
:1030B300BBAA08AB09AC0AAD0B12029312021B7F29
:1030C30004020E9C748055C6FA53BEFBE59DA2E52F
:1030D30050FAE59DA2E240F4007401697007744957
:1030E3004AF5C68005E970028AC6E5C6FAE59EFB85
:1030F300EA6B70F943BE040200FB74F7120E3674D8
:1031030009120E1DE0F8A3E0F98A828B838003EC99
:10311300F0A3E8FEE9FF74FF2E1874FF3FF9EE7089
:1031230001EF70EB7F01020E9CC082C0838A828B09
:10313300838001A3E070FCE582C39AFAE5839BFBDD
:10314300D083D0820200FBD2AF0200FBC2AF0200E9
:01315300FB80
:04000005000000E314
:00000001FF
