:020000040800F2
:1000000068130020A101000819320008AB010008A4
:10001000ED310008B9090008FD6C0008000000007F
:10002000000000000000000000000000B301000814
:10003000150A000800000000B70100083960000838
:10004000BB010008BB010008BB010008BB010008A0
:10005000BB010008BB010008230A0008690A000868
:10006000770A0008850A0008930A0008BB01000807
:10007000BB010008BB010008BB010008BB01000870
:10008000BB010008BB010008BB010008BB01000860
:10009000BB010008BB010008BB010008A10A000861
:1000A00000000000BB010008BB010008BB01000804
:1000B000696200087962000889620008BB010008D3
:1000C000BB010008BB010008BB010008BB01000820
:1000D000BB010008456A0008BB010008BB0100081D
:1000E000310A000819380008BB010008BB010008EC
:1000F000BB01000800F002F800F042F80AA090E806
:10010000000C82448344AAF10107DA4501D100F0D2
:1001100037F8AFF2090EBAE80F0013F0010F18BF5D
:10012000FB1A43F0010318472C8900004C8900009A
:10013000103A24BF78C878C1FAD8520724BF30C813
:1001400030C144BF04680C607047000000230024E5
:1001500000250026103A28BF78C1FBD8520728BFD7
:1001600030C148BF0B607047642900F08380782954
:1001700000F0BC80002070471FB51FBD10B510BD3A
:1001800000F002FB1146FFF7F7FF06F0AFFE00F0AC
:1001900020FB03B4FFF7F2FF03BC06F0B8FD00003C
:1001A0000948804709480047FEE7FEE7FEE7FEE70B
:1001B000FEE7FEE7FEE7FEE7FEE7FEE70448054947
:1001C000054A064B7047000005620008F50000086C
:1001D0006807002068130020680F0020680F0020C7
:1001E000704700000FB4044910B503AA029800F04C
:1001F000B1FA10BC5DF814FB300000200FB41CB540
:10020000074B06AA7B4469460090059800F089FADE
:100210000020694600F098FA1CBC5DF814FB000051
:100220004105000070B5044685690068C10601D526
:10023000302600E02026C00707D070BDD4E9012198
:1002400030469047206A401C20626D1EF6D570BD76
:1002500070B5044685690078C00707D170BDD4E940
:10026000012120209047206A401C20626D1EF6D597
:1002700070BD00002DE9F041064600241068752984
:10028000314616A510D0AFF30080002802DA4042B4
:1002900013A507E031688A0701D512A502E04907D6
:1002A00004D511A5012401E0AFF3008000210A224A
:1002B00006F1240709E0B0FBF2FCB0FBF2F302FB0D
:1002C0001C00303078541846491C0028F3D12346CE
:1002D0002A463046BDE8F04100F0C4B900000000F5
:1002E0002D0000002B0000002000000070B5044627
:1002F0000D4621461068AFF300802188090502D51C
:100300000F4A7A4402E00E4A7A440E32002104F188
:10031000240305E000F00F060009965D5E54491CB9
:100320000028F7D120780023000704D5702D02D0D3
:1003300009B1022311322046BDE8704000F092B9A5
:10034000128700002DE9F05F894604464FF0000A4D
:10035000DFF874B1FB44C0F820A02046E16888476C
:10036000002874D0252806D0D4E901219047206ABE
:10037000401C2062F1E700265F462046E16888477E
:100380002028054607DB312D05D2781910F8200CFE
:1003900008B10643F1E7B00701D526F00406C4F81A
:1003A0001CA00027C4F818A02A2D09D0284606F062
:1003B000A7FC38B304EB8708303DC8F8185019E0A3
:1003C00059F8041B204604EB87029161E1688847D5
:1003D000012F054618D1E069002820DA26F0200612
:1003E0001DE0D8F8180000EB800005EB4000303825
:1003F000C8F818002046E1688847054606F080FCEA
:100400000028EED1012F0AD02E2D08D12046E16818
:1004100088477F1C0546022F46F02006C4DBA069F2
:10042000002803DA404246F00106A061F00701D03F
:1004300026F010066C2D0BD0682D09D04C2D39D02C
:100440006A2D35D0742D35D07A2D33D016E038E0B2
:10045000E1682F4620468847B842054609D16C2FEF
:1004600026D04FF48060E168064320468847054661
:1004700004E06C2F1AD04FF4807006430DB3A5F141
:100480004100192802D8203546F400664A4629461C
:10049000204626604E46FFF767FE80B101280BD04C
:1004A000F61D26F0070000F1080956E74020E4E7B2
:1004B0008020D8E70020D6E706F104094DE728465A
:1004C00052E7206ABDE8F09FE8860000032A40F268
:1004D000308010F0030C00F0158011F8013BBCF1E6
:1004E000020F624498BF11F801CB00F8013B38BFFE
:1004F00011F8013BA2F1040298BF00F801CB38BF0C
:1005000000F8013B11F0030300F02580083AC0F029
:10051000088051F8043B083A51F804CBA0E80810D1
:10052000F5E7121D5CBF51F8043B40F8043BAFF304
:100530000080D20724BF11F8013B11F801CB48BF5E
:1005400011F8012B24BF00F8013B00F801CB48BF94
:1005500000F8012B704710B5203AC0F00B80B1E8CD
:100560001850203AA0E81850B1E81850A0E81850E8
:10057000BFF4F5AF5FEA027C24BFB1E81850A0E8F1
:10058000185044BF18C918C0BDE810405FEA827C0B
:1005900024BF51F8043B40F8043B08BF7047D20722
:1005A00028BF31F8023B48BF11F8012B28BF20F8C3
:1005B000023B48BF00F8012B704702F0FF0343EAFB
:1005C000032242EA024200F002B84FF0000204297E
:1005D000C0F0128010F0030C00F01B80CCF1040C72
:1005E000BCF1020F18BF00F8012BA8BF20F8022BA6
:1005F000A1EB0C0100F00DB85FEAC17C24BF00F84C
:10060000012B00F8012B48BF00F8012B70474FF079
:10061000000200B5134694469646203922BFA0E852
:100620000C50A0E80C50B1F12001BFF4F7AF09075E
:1006300028BFA0E80C5048BF0CC05DF804EB89004F
:1006400028BF40F8042B08BF704748BF20F8022B92
:1006500011F0804F18BF00F8012B704770477047AA
:10066000704770472DE9F0470D469946924604467B
:1006700000F124080168880604D5E06921F0100122
:10068000216000E00120A84201DD471B00E00027B7
:10069000A1697A1902EB0900081AA0612078C00646
:1006A00002D42046FFF7BEFD002608E0D4E9012170
:1006B0001AF806009047206A401C761C20624E45BE
:1006C000F4DB2078C0060AD52046FFF7ABFD06E034
:1006D000D4E9012130209047206A401C2062381E56
:1006E000A7F10107F4DC07E0D4E9012118F80500BF
:1006F0009047206A401C2062281EA5F10105F3DC0A
:100700002046FFF7A5FD2078000602D50220BDE8AF
:10071000F0870120FBE7000001694A1C02610878AC
:10072000704700B58FB0CDE9013100210591054931
:100730007944CDE9031011466846FFF703FE0FB078
:1007400000BD0000E5FFFFFF0A6802F8010B0A6028
:1007500070470000074B70B50D467B44FFF7E1FF83
:100760000446284600F008F810B14FF0FF3070BD85
:10077000204670BD73670000007B00F0800070476A
:1007800000487047080700207546FFF7F9FFAE469E
:1007900005006946534620F00700854618B020B58D
:1007A000FFF70CFDBDE820404FF000064FF00007BA
:1007B0004FF000084FF0000B21F00701AC46ACE809
:1007C000C009ACE8C009ACE8C009ACE8C0098D4676
:1007D000704710B50446AFF300802046BDE81040D6
:1007E000FFF7D7BC0021014A117070475C00002060
:1007F00010B50446012C01D103F0AAFB0148047096
:1008000010BD00001900002000B585B01648FFF7A4
:10081000E9FF164805F091FA03F01AFE0020009057
:10082000034603225021019002A800F07FF9002026
:100830000090034603225121019002A800F076F9AE
:1008400000200090034602462E21019002A800F0ED
:100850006DF900200090034602462F21019002A866
:1008600000F064F905B000BDA8010020E0050020FB
:1008700072B603480078401C0149087070470000B8
:100880000E00002004480078401E03490870084606
:10089000007800B962B670470E00002008B5134812
:1008A000007840B900F052FC05F0CCFB03F0F8FAF8
:1008B00000F050F801E005F021FC4FF0FF30052377
:1008C0000622072100900A4805F0D4FA03F0E2FD61
:1008D0000648007840B901200449087000F007F983
:1008E000012801D100F06AF808BD00000C000020CA
:1008F000E00500201CB500200090034601220321E2
:100900000190114800F012F90020009003460122E6
:10091000182101900D4800F009F9002000900346CD
:100920000122082101900A4800F000F9012106483F
:1009300000F0AEFA0121054800F0AAFA00210448AF
:1009400000F0A6FA1CBD00008401002090010020E8
:100950009C01002000B585B000F0C9F8012811D134
:1009600000200090034603220B21019002A800F012
:10097000DDF800200090034603220C21019002A81C
:1009800000F0D4F8002000900123032212210190EE
:1009900002A800F0CBF800200090034603220821B3
:1009A000019002A800F0C2F800F094FA00F07EFA7C
:1009B00000F086FA05B000BD00BFFEE710B50B4899
:1009C000007890B90A490B4805F0F4FC4FF47A71AD
:1009D000084805F0BBFD074805F0C2FD01E005F041
:1009E00083FD024800780028F9D010BD0D000020DA
:1009F0004D360008EC01002010B50246002003E04F
:100A000013780344D8B2521C0B1EA1F10104E1B2C9
:100A1000F6D110BD704710B50446204600F064FAC8
:100A200010BD10B503F094FA012000F081FA10BD5A
:100A300010B503F08DFA4FF4806000F079FA4FF4AE
:100A4000006000F075FA4FF4805000F071FA4FF436
:100A5000005000F06DFA4FF4804000F069FA4FF456
:100A6000004000F065FA10BD10B503F071FA0220E5
:100A700000F05EFA10BD10B503F06AFA042000F031
:100A800057FA10BD10B503F063FA082000F050FAD1
:100A900010BD10B503F05CFA102000F049FA10BD4B
:100AA00010B503F055FA202000F042FA402000F083
:100AB0003FFA802000F03CFA4FF4807000F038FAE2
:100AC0004FF4007000F034FA10BD30B50346002535
:100AD000002408E01878904202D11D46284630BD17
:100AE0005B1C601CC4B28C42F4DB0020F7E70020E2
:100AF000704700000246002111E00B4850F8310019
:100B000090420AD8084B481C53F83000904204D950
:100B1000184600EBC10000797047481CC1B2152986
:100B2000EBD300BFFEE70000688900082DE9FC4711
:100B300005460C4616461F46DDE90A890620B0EB3D
:100B4000241F07D33B46324621462846CDE900897B
:100B500000F002F8BDE8FC872DE9F04387B00446B9
:100B60000E4615461F46DDE90E982670701C10B91A
:100B700007B0BDE8F083207800F00F010120884025
:100B80006080207800F0F00078B94748606000BFCE
:100B90004648006840F00100444908600846006883
:100BA00000F00100019000BF4EE0207800F0F0005E
:100BB00010280FD13E48606000BF3C48006840F0FC
:100BC00002003A4908600846006800F002000190FF
:100BD00000BF39E0207800F0F00020280FD1354820
:100BE000606000BF3148006840F004002F49086091
:100BF0000846006800F00400019000BF24E020785F
:100C000000F0F00030280FD12B48606000BF27486B
:100C1000006840F00800254908600846006800F0B8
:100C20000800019000BF0FE02448606000BF1F482B
:100C3000006840F020001D4908600846006800F088
:100C40002000019000BF00BF6088029084F80A90E5
:100C5000CDF810900220059015B90020039017E000
:100C6000032D02D10320039012E0022D09D1012FA0
:100C700002D11220039001E002200390CDF81880E9
:100C800006E0012F02D11120039001E00120039022
:100C9000012D03D14146204600F0C7F802A9606843
:100CA00000F054F900BF63E7000002401C38024026
:100CB0000004024000080240000C02400014024000
:100CC0002DE9F04385B004460D4616461F464FF009
:100CD00000084FF0060917B905B0BDE8F083608839
:100CE0000090012D02D14448019006E0022D02D16E
:100CF0004248019001E042480190A07A029002200F
:100D000003906946606800F021F9052E0ED2DFE8F5
:100D100006F00304070A0E0000BF4FF0030809E0C5
:100D20004FF0020806E04FF0010803E000BF4FF06B
:100D3000000800BF00BF6088B0F5807F3DD012DCA6
:100D4000102834D008DC012825D0022826D0042819
:100D500027D008283DD127E020282BD040282AD0B2
:100D6000802836D128E0B0F5805F2CD009DCB0F5C2
:100D7000007F23D0B0F5806F23D0B0F5006F28D16D
:100D800020E0B0F5005F1FD0B0F5804F1DD0B0F56A
:100D9000004F1ED11AE04FF006091BE04FF0070983
:100DA00018E04FF0080915E04FF0090912E04FF084
:100DB0000A090FE000BF00BF00BF00BF4FF01709D6
:100DC00008E000BF00BF00BF00BF00BF4FF0280910
:100DD00000E000BF00BF207800F00F00094941F893
:100DE000207000224146484600F0DEF9484600F0F7
:100DF000CEF900BF70E700000000111000002110C4
:100E0000000031100002002010B504460CB16068EB
:100E100000B900BF94F90000401C00B910BD618802
:100E2000606800F07BF900BFF8E770B504460D4636
:100E30000CB1606800B900BF94F90000401C00B913
:100E400070BDEAB26188606800F06CF900BFF7E736
:100E50002DE9F04104460D4616461F4694F9000060
:100E60000621B1EB201F05D33B46324629462046DA
:100E7000FFF726FFBDE8F08110B5044694F90000A5
:100E80000621B1EB201F02D32046FFF7BDFF10BDA6
:100E900070B504460D4694F900000621B1EB201F01
:100EA00003D329462046FFF7C0FF70BD03484068C2
:100EB00040F001000149486070470000002004E054
:100EC0000348406840F00400014948607047000052
:100ED000002004E00348406840F0020001494860F7
:100EE00070470000002004E031B5002400F020F934
:100EF000044600BF00F01CF9001B00998842F9D39A
:100F000038BD000070B504460025002C05DD02E068
:100F10006410681CC5B2012CFAD1044850F82500B1
:100F200018B1024951F82500804770BD0002002029
:100F300010B5044604480068204020B1024804600F
:100F40002046FFF7DFFF10BD1404014078B50346CB
:100F5000002200240020CAE0012696400D6805EA20
:100F60000604002C71D04D68022D02D04D68122D60
:100F700013D1D60803F1200555F826005507EE0ECB
:100F80000F25B540A8435607F60E0D69B540284316
:100F9000D60803F1200545F82600186856000325F9
:100FA000B540A8430D7905F003055600B540284328
:100FB00018604D68012D08D04D68022D05D04D6890
:100FC000112D02D04D68122D13D1986856000325BB
:100FD000B540A8435600CD68B5402843986058688E
:100FE00001259540A8430D79C5F300159540284388
:100FF0005860D86856000325B540A84356008D6850
:10100000B5402843D8604D6805F08055B5F1805F44
:101010006CD100BF394D2D6845F00105374E356064
:1010200035462D6805F00105009500BF00BF344D21
:10103000960855F8260095072E0F0F25B540A843B2
:10104000304DAB4202D1002515E04FE02E4DAB42B2
:1010500001D101250FE02D4DAB4201D102250AE05F
:101060002B4DAB4201D1032505E02A4DAB4201D106
:10107000042500E005259607360FB5402843204D8E
:10108000960845F82600244D2868A0434D6805F4CD
:101090008035B5F5803F00D120431F4D28602D1DC0
:1010A0002868A0434D6805F40035B5F5003F00D130
:1010B0002043194D2D1D28602D1D2868A0434D6823
:1010C00005F48015B5F5801F00D12043124D083579
:1010D00028602D1D2868A0434D6805F40015B5F55E
:1010E000001F00D120430C4D0C352860521C0D68A8
:1010F000D540002D7FF430AF78BD0000203802408D
:1011000008000140000002400004024000080240C4
:10111000000C0240001002400004014042694A40B5
:10112000426170470AB1816101E00B04836170473D
:1011300001480068704700003C0000200248006839
:10114000401C0149086070473C00002010B5032096
:1011500000F068F8002000F005F800F017F8002013
:1011600010BD000070B50446074800684FF47A715E
:10117000B0FBF1F5284601F00DFD00222146501E7E
:1011800000F012F8002070BD34000020704700BF4E
:1011900000F01F02012191404209920002F1E02279
:1011A000C2F8001100BF70472DE9F05F80460D4680
:1011B0001646002702F0A0F8074639462A4633466D
:1011C00001F00700C0F1070ABAF1040F02D94FF08D
:1011D000040A01E0C0F1070AD14600F1040ABAF19D
:1011E000070F02D24FF0000A01E0A0F1030AD44633
:1011F0004FF0010A0AFA09FAAAF1010A0AEA020AF8
:101200000AFA0CFA4FF0010B0BFA0CFBABF1010BD5
:101210000BEA030B4AEA0B042146404602F074F83D
:10122000BDE8F09F00BF00F00702064B19684FF6BB
:10123000FF031940044B0B4343EA0221014B1960A1
:1012400000BF70470CED00E00000FA0501208102AC
:1012500091FAA1F1B1FA81F1014A42F821007047F7
:1012600000000E420120410291FAA1F1B1FA81F190
:10127000014A42F82100704700000E420020102170
:1012800091FAA1F1B1FA81F1014A42F821007047C7
:1012900000000E420D4A126822F0030202430B4B7B
:1012A0001A600B4A126842F00402094B1A600129C5
:1012B00001D130BF02E040BF20BF20BF044A126806
:1012C00022F00402024B1A607047000000700040D8
:1012D00010ED00E0F8B5044600260025207800F067
:1012E000010000287ED0207800F0010000B100BF8E
:1012F00000276A48006800F0805070B900BF674856
:10130000006840F08050654908600846006800F0B9
:101310008050009000BF00BF01276148006800F4C2
:101320008070B0B95E48006840F480705C49086025
:10133000FFF7FEFE064606E0FFF7FAFE801B642874
:1013400001D90320F8BD5648006800F480700028D9
:10135000F2D052482438006800F0C045606800F0C0
:10136000C040A8420DD0606800F44030B0F5403F66
:1013700007D14A482438006800F4003008B1012041
:10138000E0E746481030006800F44035002D59D0A1
:10139000606800F44030A84254D0207800F001008A
:1013A00078B33E481030006820F440350121C8056C
:1013B00090FAA0F0B0FA80F03A4A02EB8000C0F850
:1013C000801600214FF4000090FAA0F0B0FA80F0EF
:1013D00002EB8000C0F8801630481030056005F43C
:1013E000807000E057E060B1FFF7A2FE064609E01A
:1013F000FFF79EFE801B41F28831884202D903200C
:10140000A0E71FE04020C10091FAA1F1B1FA81F1FB
:1014100008430121B1EB601F03D120482438006844
:1014200002E01E48103000684021CA0092FAA2F281
:10143000B2FA82F2114301F01F02012191400840EB
:101440000028D5D000BF00BF606800F44030B0F580
:10145000403F0BD111482438006820F0C04061683B
:1014600001F0C04108430D492439086000BF0B4812
:1014700010300068616801F44031084307491031B9
:10148000086000BF012F05D10448006820F080509B
:101490000249086000BF002054E7000024380240E1
:1014A000007000400000474270B504460D4600261B
:1014B000B348006800F00100A84218D200BF012D17
:1014C00005D1AF48006840F00400AD490860AC4861
:1014D000006820F001002843A949086000BF0846C1
:1014E000006800F00100A84201D0012070BD207802
:1014F00000F00200022807D1A248006820F0F000A6
:10150000A16808439F490860207800F00100002886
:101510007BD06068022821D12020010391FAA1F13B
:10152000B1FA81F108430121B1EB601F03D1954865
:101530000838006802E093482C30006820210A0334
:1015400092FAA2F2B2FA82F2114301F01F020121D3
:101550009140084000286CD10120C7E7606803284B
:1015600020D12020010591FAA1F1B1FA81F10843BF
:101570000121B1EB601F03D182480838006802E006
:1015800080482C30006820210A0592FAA2F2B2FAB3
:1015900082F2114301F01F02012191400840A8BBD3
:1015A0000120A3E76068012820D12020022191FAC0
:1015B000A1F1B1FA81F108430121B1EB601F03D120
:1015C00070480838006802E06E482C30006820211E
:1015D000022292FAA2F2B2FA82F2114301F01F0241
:1015E00001219140084088B901207FE720200101B6
:1015F00091FAA1F1B1FA81F108430121B1EB601F29
:1016000005D160480838006804E069E011E05D48F1
:101610002C30006820210A0192FAA2F2B2FA82F27A
:10162000114301F01F0201219140084008B9012037
:101630005CE75448006820F00300616808435149A2
:101640000860FFF775FD06466068022810D108E0C3
:10165000FFF76EFD801B41F28831884201D90320DB
:1016600044E74848006800F00C000828F0D137E053
:101670006068032810D108E0FFF75AFD801B41F293
:101680008831884201D9032030E73E48006800F0E5
:101690000C000C28F0D123E06068012810D108E08C
:1016A000FFF746FD801B41F28831884201D90320B3
:1016B0001CE73448006800F00C000428F0D10FE06B
:1016C00008E0FFF735FD801B41F28831884201D9DF
:1016D00003200BE72B48006800F00C000028F0D135
:1016E0002748006800F00100A84218D900BF012D6A
:1016F00005D12348006840F00400214908602048D3
:10170000006820F0010028431D49086000BF08461A
:10171000006800F00100A84201D00120E6E6207830
:1017200000F00400042807D11648006820F4E060A7
:10173000E168084313490860207800F00800082891
:1017400008D11048006820F46050216940EAC100C7
:101750000C49086000F04EF80A49096801F0F001F0
:10176000F02292FAA2F2B2FA82F2D140064A515C19
:10177000C840064908600020FFF7F4FC0020B5E6E9
:10178000003C024008380240157B0008340000206D
:1017900001480068704700003400002000B5FFF7E2
:1017A000F7FF0749096801F4E0614FF4E06292FA3B
:1017B000A2F2B2FA82F2D140024A515CC84000BDA6
:1017C00008380240257B000800B5FFF7E1FF074914
:1017D000096801F460514FF4605292FAA2F2B2FA31
:1017E00082F2D140024A515CC84000BD0838024034
:1017F000257B0008F0B500210023002400220025ED
:101800000020254E316801F00C067EB3042E04D072
:10181000082E04D00C2E2AD103E020483AE02048BC
:1018200038E001F470164FF4701797FAA7F7B7FA7B
:1018300087F7FE401B4FBB5D01F440064FF44007A5
:1018400097FAA7F7B7FA87F7FE40741C124E36686E
:1018500006F4803626B1124E5E43B6FBF4F203E086
:101860000E4E5E43B6FBF4F2104613E000E000BFFC
:10187000094E361F366806F460464FF4604797FA03
:10188000A7F7B7FA87F726FA07F56E1C0127B740C6
:10189000F80300BF00BFF0BD083802400024F40088
:1018A00000127A000C7B0008F8B504460025207869
:1018B00000F00100002879D0F748006800F00C0023
:1018C00008280CD0F448006800F00C000C282BD13C
:1018D000F148006800F48030B0F5803F24D120202A
:1018E000010391FAA1F1B1FA81F108430121B1EBB1
:1018F000601F03D1E8480838006802E0E6482C3051
:10190000006820210A0392FAA2F2B2FA82F211438D
:1019100001F01F020121914008400028CBD06068EF
:10192000002843D10120F8BD00BF6068012808D11C
:10193000D9480838006840F48030D7490839086031
:101940002DE0606868B9D4480838006820F4803019
:10195000D149083908600846006820F480200860F2
:101960001DE0606805280DD1CB480838006840F4B8
:101970008020C949083908600846006840F4803072
:1019800008600CE0C4480838006820F48030C24980
:10199000083908600846006820F48020086000BF0D
:1019A000606860B3FFF7C4FB054607E052E0FFF74D
:1019B000BFFB401B642801D90320B4E720200103AA
:1019C00091FAA1F1B1FA81F108430121B1EB601F55
:1019D00003D1B1480838006802E0AF482C300068F5
:1019E00020210A0392FAA2F2B2FA82F2114301F024
:1019F0001F020121914008400028D8D02AE0FFF7BB
:101A000097FB054606E0FFF793FB401B642801D9CE
:101A1000032088E72020010391FAA1F1B1FA81F1B6
:101A200008430121B1EB601F03D19B4808380068CF
:101A300002E099482C30006820210A0392FAA2F2B1
:101A4000B2FA82F2114301F01F02012191400840D5
:101A50000028D8D1207800F00200022845D18E4815
:101A6000006800F00C0004280AD08B48006800F0E1
:101A70000C000C283BD18848006800F48030A8BBDB
:101A80002020022191FAA1F1B1FA81F1084301214C
:101A9000B1EB601F03D180480838006802E07E483F
:101AA0002C3000682021022292FAA2F2B2FA82F2CD
:101AB000114301F01F0201219140084020B1E0686C
:101AC000012801D001202EE77348001F006820F490
:101AD000F8504FF4F85292FAA2F2B2FA82F2216967
:101AE000914008436C49091F08607DE0FFE7E0680A
:101AF000F0B3012090FAA0F1B1FA81F1674A42F8FF
:101B00002100FFF715FB054606E0FFF711FB401B20
:101B1000022801D9032006E72020022191FAA1F131
:101B2000B1FA81F108430121B1EB601F03D15A489A
:101B30000838006802E058482C3000682021022252
:101B400092FAA2F2B2FA82F2114301F01F020121CD
:101B5000914008400028D8D04F48001F006820F46A
:101B6000F8504FF4F85292FAA2F2B2FA82F200E080
:101B700006E02169914008434749091F086033E0A6
:101B80000020012191FAA1F1B1FA81F1434A42F812
:101B90002100FFF7CDFA054606E0FFF7C9FA401B22
:101BA000022801D90320BEE62020022191FAA1F1EA
:101BB000B1FA81F108430121B1EB601F03D136482E
:101BC0000838006802E034482C30006820210222E6
:101BD00092FAA2F2B2FA82F2114301F01F0201213D
:101BE000914008400028D8D1207800F0100010283B
:101BF00073D12948006800F00C0000286ED1202025
:101C0000010191FAA1F1B1FA81F108430121B1EB8F
:101C1000601F03D120480838006802E01E482C30BD
:101C2000006820210A0192FAA2F2B2FA82F211436C
:101C300001F01F0201219140084018B1A06908B9C4
:101C4000012070E61449091F206A096801F4604107
:101C5000884225D9206A01F089FD08B1012062E699
:101C60000D48001F006820F46040216A08430A49BB
:101C7000091F08600846006820F07F404FF07F424F
:101C800092FAA2F2B2FA82F2E16991400843024963
:101C9000091F086023E000000838024000004742A6
:101CA000FC48006820F46040216A0843F949086054
:101CB0000846006820F07F404FF07F4292FAA2F27F
:101CC000B2FA82F2E16991400843F2490860206A61
:101CD00001F04CFD18B1012025E6A5E01FE04FF40E
:101CE000604191FAA1F1B1FA81F1206AC840401C2B
:101CF00001218140C803E749091D096801F0F0018D
:101D0000F02292FAA2F2B2FA82F2D140E24A515C97
:101D1000C840E24908600020FFF724FA84E0A06987
:101D2000F0B30120010291FAA1F1B1FA81F1DC4A8C
:101D300042F82100FFF7FCF9054606E0FFF7F8F945
:101D4000401B022801D90320EDE52020010191FA72
:101D5000A1F1B1FA81F108430121B1EB601F03D178
:101D6000CC48001F006802E0CA48303000682021DB
:101D70000A0192FAA2F2B2FA82F2114301F01F02B2
:101D80000121914008400028D8D0C248006820F4C2
:101D90006040216A0843BF4908600846006800E0C7
:101DA0000DE020F07F404FF07F4292FAA2F2B2FAAB
:101DB00082F2E16991400843B649086034E00020AE
:101DC0004FF4807191FAA1F1B1FA81F1B44A42F86D
:101DD0002100FFF7ADF9054606E0FFF7A9F9401B22
:101DE000022801D903209EE52020010191FAA1F1EA
:101DF000B1FA81F108430121B1EB601F03D1A5487D
:101E0000001F006802E0A3483030006820210A016A
:101E100092FAA2F2B2FA82F2114301F01F020121FA
:101E2000914008400028D8D1207800F00800082808
:101E30006ED16069A8B3012090FAA0F1B1FA81F1E6
:101E4000974A02EB8101C1F88006FFF771F9054658
:101E500006E0FFF76DF9401B022801D9032062E577
:101E60004020022191FAA1F1B1FA81F10843012148
:101E7000B1EB601F03D18748001F006802E085486E
:101E8000303000684021022292FAA2F2B2FA82F2C5
:101E9000114301F01F020121914008400028D8D0D1
:101EA00036E0FFE70021012090FAA0F0B0FA80F0C0
:101EB0007B4A02EB8000C0F88016FFF739F905462F
:101EC00006E0FFF735F9401B022801D903202AE577
:101ED0004020022191FAA1F1B1FA81F108430121D8
:101EE000B1EB601F03D16B48001F006802E0694836
:101EF000303000684021022292FAA2F2B2FA82F255
:101F0000114301F01F020121914008400028D8D15F
:101F1000207800F00400042875D100265D482030A8
:101F2000006800F0805080B900BF5A482030006837
:101F300040F080505749203108600846006800F0A2
:101F40008050009000BF00BF01265648006800F492
:101F50008070B0B95348006840F4807051490860FF
:101F6000FFF7E6F8054606E0FFF7E2F8401B6428B5
:101F700001D90320D7E44B48006800F480700028A2
:101F8000F2D000BFA068012808D142483030006874
:101F900040F480703F49303108602DE0A06868B996
:101FA0003C483030006820F480703A493031086095
:101FB0000846006820F4806008601DE0A0680528DD
:101FC0000DD134483030006840F480603149303100
:101FD00008600846006840F4807008600CE02D48F6
:101FE0003030006820F480702A493031086008469B
:101FF000006820F48060086000BFA06870B3FFF73D
:1020000097F8054609E06AE0FFF792F8401B41F2B5
:102010008831884201D9032085E44020C10091FA2B
:10202000A1F1B1FA81F108430121B1EB601F03D1A5
:102030001848001F006802E0164830300068402150
:10204000CA0092FAA2F2B2FA82F2114301F01F0220
:102050000121914008400028D6D035E0FFF768F80C
:10206000054608E0FFF764F8401B41F288318842DA
:1020700001D9032057E44020C10091FAA1F1B1FA3F
:1020800081F108430121B1EB601F0DD10148001F10
:1020900000680BE004380240157B00083400002083
:1020A00000004742007000406C4800684021CA00B0
:1020B00092FAA2F2B2FA82F2114301F01F02012158
:1020C000914008400028CDD1012E07D16348103837
:1020D000006820F0805061491039086000BF606AD4
:1020E000F0B35E482C38006800F00C000C287AD061
:1020F000606A022879D100204FF0807191FAA1F135
:10210000B1FA81F1564A42F82100FFF711F805466D
:1021100006E0FFF70DF8401B022801D9032002E476
:102120002020010591FAA1F1B1FA81F108430121C2
:10213000B1EB601F03D149483438006801E04748DB
:10214000006820210A0592FAA2F2B2FA82F2114343
:1021500001F01F020121914008400028D9D100E080
:102160007AE0D4E90A010843216B08433B492C3942
:10217000096821F47D01084338492C3908600120A1
:10218000010691FAA1F1B1FA81F1354A42F8210034
:10219000FEF7CEFF054606E0FEF7CAFF401B022809
:1021A00001D9032009E42020010591FAA1F1B1FA37
:1021B00081F108430121B1EB601F03D12748343876
:1021C000006801E02548006820210A0592FAA2F281
:1021D000B2FA82F2114301F01F020121914008403E
:1021E0000028D9D038E035E0FFE700214FF08070BB
:1021F00090FAA0F0B0FA80F0194A42F82010FEF7E9
:1022000097FF054606E0FEF793FF401B022801D921
:10221000032058E42020010591FAA1F1B1FA81F1DF
:1022200008430121B1EB601F03D10C48343800682A
:1022300001E00A48006820210A0592FAA2F2B2FAE7
:1022400082F2114301F01F02012191400840002851
:10225000D9D101E0012036E4002034E434380240D2
:1022600000004742704770B50446002500BF207F3C
:10227000012801D1022070BD0120207700BF02207B
:10228000607700BFCA2021684862532021684862F5
:1022900000BF2068806820F4806021688860206822
:1022A000806820F4804021688860FEF741FF054681
:1022B00012E0FEF73DFF401BB0F57A7F0CD900BF5E
:1022C000FF202168486200BF0320607700BF002024
:1022D000207700BF0320CEE72068C068C0F38000ED
:1022E0000028E6D000BFFF202168486200BF01201F
:1022F000607700BF0020207700BF00BFBBE77047BA
:1023000010B5044620688068C0F3003078B12068BA
:10231000C068C0F3002050B12046FFF7F0FF2068EE
:10232000C06800F0800060F4C0702168C860206858
:102330008068C0F3403078B12068C068C0F34020A6
:1023400050B12046FFF78EFF2068C06800F0800083
:1023500060F420702168C8604FF4003002490860C2
:102360000120607710BD00001404014070B50446E0
:102370000D46002600BF207F012801D1022070BD3C
:102380000120207700BF0220607700BFCA202168AB
:10239000486253202168486200BFB5F5807F29D18B
:1023A0002068806820F480702168886020688068D8
:1023B00020F4805021688860FEF7BAFE064612E0DD
:1023C000FEF7B6FE801BB0F57A7F0CD900BFFF2068
:1023D0002168486200BF0320607700BF002020779B
:1023E00000BF0320CBE72068C06800F00100002890
:1023F000E6D028E02068806820F4007021688860BA
:102400002068806820F4005021688860FEF790FE04
:10241000064612E0FEF78CFE801BB0F57A7F0CD9E1
:1024200000BFFF202168486200BF0320607700BF23
:102430000020207700BF0320A1E72068C068C0F318
:1024400040000028E6D000BFFF202168486200BF9E
:102450000120607700BF0020207700BF00BF8EE71B
:102460002DE9F04106460C46174698460025B7F57B
:10247000807F05D14FF48070A0613068C56904E0A9
:102480004FF40070A0613068056AC5F30540207004
:10249000C5F30620607005F07F00A07005F4800091
:1024A000000CE070C5F30560207505F080402061E8
:1024B00005F08030E060B8F1000F0FD1207801F016
:1024C000C1F92070607801F0BDF96070A07801F06A
:1024D000B9F9A070207D01F0B5F920750020BDE8A4
:1024E000F081000070B505460B46164600242868AA
:1024F00040680E4900EA0104200CD870C4F304209F
:10250000587004F03F009870C4F3423018705EB900
:10251000D87801F097F9D870587801F093F958708D
:10252000987801F08FF99870002070BD3FFFFF0090
:102530002DE9F04106460C46174600253068006834
:102540000F4900EA0105C5F305402070C5F30620D8
:10255000607005F07F00A07005F48000000CE07052
:102560005FB9207801F06EF92070607801F06AF9A7
:102570006070A07801F066F9A0700020BDE8F081DD
:102580007F7F7F0010B504460CB9012010BD607F2D
:1025900020B900202077204600F04EF80220607716
:1025A00000BFCA202168486253202168486200BFEA
:1025B000204601F05FF940B100BFFF20216848626A
:1025C00000BF042060770120E0E720688068194997
:1025D0000840216888602169606808436169084390
:1025E000216889680843216888602168E06808617B
:1025F00020680169208941EA00402168086120685B
:10260000C06820F080002168C8602068006C20F459
:102610008020216808642068006CA1690843216853
:10262000086400BFFF202168486200BF0120607776
:102630000020ABE7BFFF8FFF704700002DE9F04798
:1026400004460D4616460027B84600BF207F0128E5
:1026500002D10220BDE8F0870120207700BF0220D0
:1026600060774EBB2068806800F0400000B102E057
:102670000020E87000BF286900B900E000BF28789A
:1026800001F0EBF84FEA0049687801F0E6F849EA12
:102690000029A87801F0E1F849EA0009E87849EA58
:1026A0000049287D01F0D9F849EA0060296908430A
:1026B000E96840EA01082AE02068806800F04000EC
:1026C00020B1287801F0BEF8804602E00020E870D2
:1026D00000BF286920B9287D01F0B4F8804604E0E5
:1026E000287D01F0AFF8804600BF287800046978A3
:1026F00040EA0120A9780843E97840EA0140297DB1
:1027000040EA016029690843E96840EA010800BF1E
:10271000CA202168486253202168486200BFA86926
:10272000B0F5807F3AD12068806820F480702168FD
:1027300088602068C06800F0800060F4C070216884
:10274000C860FEF7F5FC074612E0FEF7F1FCC01B7F
:10275000B0F57A7F0CD900BFFF202168486200BF26
:102760000320607700BF0020207700BF032071E7BF
:102770002068C06800F001000028E6D02068C0F89A
:102780001C802068806840F4807021688860206820
:10279000806840F480502168886039E02068806853
:1027A00020F40070216888602068C06800F0800014
:1027B00060F420702168C860FEF7BAFC074612E09A
:1027C000FEF7B6FCC01BB0F57A7F0CD900BFFF2026
:1027D0002168486200BF0320607700BF0020207797
:1027E00000BF032036E72068C068C0F3400000281F
:1027F000E6D02068C0F820802068806840F400702F
:10280000216888602068806840F4005021688860F2
:102810000D48006840F400300B4908600A48083051
:10282000006840F4003008490831086000BFFF200C
:102830002168486200BF0120607700BF0020207738
:1028400000BF00BF06E70000000401402DE9F04191
:1028500004460D461646002700BF207F012802D1FE
:102860000220BDE8F0810120207700BF02206077C0
:102870004EB9687800F01000102804D1687800F094
:10288000EF000A30687086B9E87800F0E6FF0304CC
:10289000687800F0E2FF43EA0023A87800F0DDFF4B
:1028A0000343287843EA403711E0687800F0CAFF14
:1028B0000746A87800F0C6FF0746E8780004697864
:1028C00040EA0120A9780843297840EA413700BF4F
:1028D000CA202168486253202168486200BF204610
:1028E00000F0C8FF60B100BFFF202168486200BF50
:1028F0000420607700BF0020207700BF0120B0E7F0
:1029000013483840216848602068C06820F0800083
:102910002168C860204600F0B3F860B100BFFF2016
:102920002168486200BF0420607700BF0020207744
:1029300000BF012095E700BFFF202168486200BF6B
:102940000120607700BF0020207700BF00BF88E72C
:102950003FFFFF002DE9F04104460D4616460027D3
:1029600000BF207F012802D10220BDE8F0810120B4
:10297000207700BF02206077CEB92068806800F021
:10298000400000B102E00020E87000BF287800F0AD
:1029900064FF0304687800F060FF43EA0023A8782E
:1029A00000F05BFF0343E87843EA004716E0206845
:1029B000806800F0400020B1287800F043FF07460F
:1029C00002E00020E87000BF28780004697840EA3F
:1029D0000120A9780843E97840EA014700BFCA20EE
:1029E0002168486253202168486200BF204600F0F9
:1029F00041FF60B100BFFF202168486200BF042092
:102A0000607700BF0020207700BF0120ADE71B48A2
:102A10003840216808602068806820F480202168A0
:102A20008860D5E901010843216889680843216865
:102A300088602068C06820F080002168C860204657
:102A400000F01EF860B100BFFF202168486200BF9F
:102A50000420607700BF0020207700BF012084E7BA
:102A600000BFFF202168486200BF0120607700BFDF
:102A70000020207700BF00BF77E700007F7F7F0046
:102A800070B5044600252068C06820F0A0002168C9
:102A9000C860FEF74DFB054607E0FEF749FB401B0B
:102AA000B0F57A7F01D9032070BD2068C06800F0BE
:102AB00020000028F1D00020F6E710B504460CB93C
:102AC000012010BD2068006820F0400021680860E7
:102AD000204600F048F80020606584F8510000BFEF
:102AE00084F8500000BF00BFEBE710B504460CB9F6
:102AF000012010BD94F8510028B9002084F850003E
:102B0000204600F031F8022084F851002068006867
:102B100020F0400021680860D4E901010843E16821
:102B200008432169084361690843218B01F400715E
:102B30000843E1690843216A0843A16A0843216800
:102B400008600421A06901EA1040616A0843216815
:102B500048602168E06A086100206065012084F80F
:102B600051000020C5E770477047042808D14FF096
:102B7000E021096941F004014FF0E022116107E012
:102B80004FF0E021096921F004014FF0E0221161CA
:102B90007047704770B504462546681EB0F1807FC7
:102BA00001D301200FE0681E4FF0E02148610F21A2
:102BB0004FF0FF3000F0A8FB00204FF0E0218861CB
:102BC00007200861002070BD10B5FFF7E2FF10BDBF
:102BD00010B504460CB9012010BD94F8350028B991
:102BE000002084F83400204600F00CF8022084F81D
:102BF0003500211D206803F04FFB012084F83500CB
:102C00000020E9E738B504462068B0F1804F16D1BE
:102C100000BF2648006840F00100244908600846CB
:102C2000006800F00100009000BF00BF00220521F5
:102C30001C20FEF7B9FA1C20FEF7A9FA34E01C4963
:102C40002068884216D100BF1848006840F0020092
:102C5000164908600846006800F00200009000BFB6
:102C600000BF002206211D20FEF79EFA1D20FEF760
:102C70008EFA19E00F492068884215D100BF0B4831
:102C8000006840F00400094908600846006800F048
:102C90000400009000BF00BF002206211E20FEF7A6
:102CA00083FA1E20FEF773FA38BD00002438024074
:102CB000000400400008004001460868C06840F079
:102CC00001000A68D0600868006840F001000A68E6
:102CD000106000207047704710B5044620680069F6
:102CE000C0F34000D8B12068C068C0F34000B0B164
:102CF0006FF002002168086101202075206880695A
:102D000000F0030018B12046FFF7E5FF05E020467C
:102D100000F08BF8204600F089F80020207520682C
:102D20000069C0F38000D8B12068C068C0F380009B
:102D3000B0B16FF00400216808610220207520689E
:102D4000806900F4407018B12046FFF7C4FF05E029
:102D5000204600F06AF8204600F068F80020207550
:102D600020680069C0F3C000D8B12068C068C0F313
:102D7000C000B0B16FF00800216808610420207520
:102D80002068C06900F0030018B12046FFF7A3FFD8
:102D900005E0204600F049F8204600F047F8002002
:102DA000207520680069C0F30010D8B12068C068A1
:102DB000C0F30010B0B16FF0100021680861082066
:102DC00020752068C06900F4407018B12046FFF7F4
:102DD00082FF05E0204600F028F8204600F026F8A3
:102DE000002020752068006900F0010058B12068BB
:102DF000C06800F0010030B16FF001002168086187
:102E0000204600F015F820680069C0F3801058B122
:102E10002068C068C0F3801030B16FF040002168B6
:102E20000861204600F042F810BD7047704700006E
:102E30000168B1F1804F2AD0154A0168914219D139
:102E400014490988491C134A118013490978F1B1C2
:102E500012490978491C114A117011460978032951
:102E600015DD00210C4A11700C4A117001210C4A29
:102E700011700CE00B4A0168914208D10A490978A7
:102E8000FF2904DA08490978491C074A117070477C
:102E900000040040260000202F0000202900002010
:102EA0002E0000200008004028000020704710B5C8
:102EB00004460CB9012010BDA06900B100E000BFBC
:102EC00094F8390028B9002084F83800204600F032
:102ED00025F8022084F839002068C06820F40050EA
:102EE0002168C860204603F0F5FB2068006920F4E3
:102EF0009040216808612068406920F02A0021681C
:102F000048612068C06840F400502168C860002013
:102F1000E063012084F839000020CCE7704730B529
:102F20000346002493F83940012C01D0122C37D1EC
:102F300001B10AB9012030BD00BF93F83800012863
:102F400001D10220F7E7012083F8380000BF996221
:102F50009A85DA850020D86393F83900122803D1C6
:102F6000322083F8390002E0222083F8390000BFC4
:102F7000002083F8380000BF1868C06840F48070F3
:102F80001D68E8601868406940F001001D686861CC
:102F90001868C06840F020001D68E8600020CAE79B
:102FA0000220C8E770B504460D462946204600F0C9
:102FB00001F870BD70B588B006460D460024E9B230
:102FC00055223046FDF781FD0446002C3CD0A11B64
:102FD000A81F814201DD08B070BD6078012800D0D3
:102FE000F9E7A079801DC1B22046FDF705FDA27961
:102FF000A11D895C884200D0EDE7E078A17800EB64
:1030000001204CF2C201884200D0E4E720221E21B8
:103010006846FDF7D2FAA079401E1E2801DD1E2069
:1030200001E0A079401E0246E11D6846FDF74EFA18
:103030006A460421002000F0AFFAA079C01DC1B299
:10304000204603F04BFD00BF2079012813D1207BDF
:103050003038E17A303901EB810100EB4100214940
:103060000870607D3038217D303901EB810100EB43
:1030700041001D490870207902281CD1A0790C2834
:103080000AD1A07B3038617B303901EB810100EB44
:103090004100164908800EE0607B303864214843C7
:1030A000A17B303901EB810100EB4101E07B30383D
:1030B00008440E4908800C480078462807DC094877
:1030C0000078192803DC09480088C82804DA01219F
:1030D0000748FDF7DDFE03E000210548FDF7D8FEB7
:1030E00000BF78E70000002001000020020000205F
:1030F0009C01002030B589B004460D462248008866
:103100002249098888423CDD00201F4908804FF48D
:103110007A61881003F014FF1C490880202101A85F
:10312000FDF775FA202101A8FDF771FA1848037818
:103130004CF2C20217A101A8FDF760F801AA022112
:10314000002000F029FA2022114601A8FDF735FAE7
:1031500001AA0421002000F01FFA0D480178007830
:10316000401C0B4B18704CF2C20000F01DF80848D0
:103170000078A84201DD064804700A48FDF77CFE8D
:1031800000BF09B030BD0000260000200400002070
:103190000600002049443A253034582C41646472BA
:1031A0003A2564008401002030B5C1B004460D46C4
:1031B00055208DF8040001208DF8050020128DF8AF
:1031C0000600E0B28DF807008DF80850052101A82F
:1031D000FDF712FC8DF8090003480621826A01A858
:1031E000904741B030BD0000B07A000800BFFEE754
:1031F00010B5C0B00024684600F05CFB0446002C0B
:1032000006DD0448FDF738FE21466846FFF7CAFE92
:1032100040B010BD900100207047000010B5084874
:103220000849086008488860084848600848C8603D
:1032300008480861084801680248884710BD000036
:10324000D53600086800002059360008ED36000821
:10325000BD360008A5360008B07A00082DE9F04117
:1032600005460E4617461C46FFF7D8FF3A4631463C
:10327000284600F009F80348416B20468847BDE81E
:10328000F0810000B07A0008F0B58BB005460E461C
:1032900014461848C16828468847002005900690C3
:1032A000CDE907040120002108220323CDE90132E2
:1032B000CDE90310072000900E480B460A46314620
:1032C000C7690120B8470120002106910791052315
:1032D000CDE90810CDE90231CDE904100820CDE98F
:1032E000001004480323072287690120B8470BB068
:1032F000F0BD0000B07A000802480068C0F3022068
:10330000704700000CED00E010B5002807DA0A074E
:10331000140E054A00F00F031B1FD45403E00A07E4
:10332000130E024A135410BD18ED00E000E400E053
:1033300070B5002419E004F1B001C8B2002100F01A
:1033400047F90021022000F043F90021102000F08D
:103350003FF9002505E00121002000F039F9681C43
:10336000C5B2802DF7DB601CC4B2082CE3DB70BD56
:103370001CB501200090002302461C2101904C48FE
:10338000FDF7D4FB01200090002302461E2101908E
:103390004848FDF7CBFB01200090002302461D2189
:1033A00001904548FDF7C2FB012000900023024632
:1033B0001F2101904148FDF7B9FB0021AE2000F02C
:1033C00007F90021022000F003F90021102000F08D
:1033D000FFF80021402000F0FBF80021812000F0E0
:1033E000F7F80021CF2000F0F3F80021A12000F031
:1033F000EFF80021C82000F0EBF80021A62000F033
:10340000E7F80021A82000F0E3F800213F2000F0B9
:10341000DFF80021D32000F0DBF80021084600F09F
:10342000D7F80021D52000F0D3F80021802000F04B
:10343000CFF80021D92000F0CBF80021F12000F0D6
:10344000C7F80021DA2000F0C3F80021122000F0B4
:10345000BFF80021DB2000F0BBF80021402000F085
:10346000B7F80021202000F0B3F80021022000F07E
:10347000AFF800218D2000F0ABF80021142000F0FF
:10348000A7F80021A42000F0A3F80021A62000F056
:103490009FF80021AF2000F09BF80021AF2000F042
:1034A00097F8FFF745FF0021084600F025F81CBDFE
:1034B0005C040020680400207404002080040020C4
:1034C00000B589B0202101A8FDF7A1F8202101A8AD
:1034D000FDF79DF8FFF72CFF03A20021084600F03E
:1034E0005BF809B000BD00004C6F52612047617469
:1034F000655761790000000070B504460D4605F17E
:10350000B001C8B2002100F063F8102141EA1410A4
:10351000002100F05DF804F00F0141F001000021EE
:1035200000F056F870BD00002DE9F04107460E4648
:10353000904600250024A8F12000C5B27F2F02DDAF
:103540000027B01CC6B231463846FFF7D5FF00242D
:1035500008E004EB05110F4A505C012100F038F837
:10356000601CC4B2082CF4DB701CC1B23846FFF7F3
:10357000C3FF002409E004EB05110831054A505C43
:10358000012100F025F8601CC4B2082CF3DBBDE873
:10359000F0810000557D00082DE9F04104460F46FA
:1035A000154600260EE0AA5D39462046FFF7BCFF0F
:1035B00004F10800C4B2782C02DD0024B81CC7B2A4
:1035C000701CC6B2A85D0028EDD1BDE8F0810000F6
:1035D00070B504460E4626B101211848FDF758FC87
:1035E00003E000211548FDF753FC00211448FDF7C6
:1035F0004FFC002517E000211248FDF749FC04F0BC
:10360000800020B101211048FDF742FC03E00021B9
:103610000D48FDF73DFC01210A48FDF739FC600625
:10362000040E681CC5B2082DE5DB01210448FDF736
:103630002FFC01210148FDF72BFC70BD6804002020
:103640005C04002074040020800400200120014953
:10365000087070470D0000202DE9F04104460D462A
:1036600016461F460A49C86A80470A4805800288EC
:1036700021460948FCF72AFF70B20849087008483B
:1036800007700348416B4FF47A708847BDE8F081BA
:10369000B07A000808000020840000200A00002002
:1036A0000B00002010B50449C86A80470248416BEE
:1036B0004FF47A70884710BDB07A000810B50449FD
:1036C000C86A80470248416B4FF47A70884710BD42
:1036D000B07A000810B50449C86A80470248416BB7
:1036E0004FF47A70884710BDB07A000810B50449CD
:1036F000C86A80470248416B4FF47A70884710BD12
:10370000B07A000810B5FDF7C9F8FDF7F3F8FFF738
:103710002FFE4FF4E13003F0BBF9FFF709FEFFF78E
:10372000CFFE09A0FCF75EFD4FF47A731A460E2116
:103730000A48FFF793FD0AA0FCF754FD03F058FB7D
:10374000012002F0E1FD10BDD0C2B4F3C2BDBDCC7A
:10375000D3FD204C6F5261200D0A000020A2D31926
:10376000476174657761790D0A00000018B502465B
:10377000002300212548006800F0F00050BB2348DA
:103780001C30006800F0805020B12148006800F42F
:10379000C05318E000BF1D481C30006840F0805046
:1037A0001A4C1C3420602046006800F080500090C5
:1037B00000BF00BF1648006800F4C05320460068F0
:1037C00020F080502060B3F5C05F03D1B2F5404FC8
:1037D00000D1012100BF012905D10E48006840F049
:1037E00004000C4C20600B48006820F001000843E6
:1037F000084C206000BF2046006800F001008842AD
:1038000001D0012018BD0020FCE70000083802406C
:1038100000700040003C024010B50948FEF770FD02
:103820004FF480710648FEF7A1FD00F091FB00F017
:10383000A3F90020FCF7DCFF02F010FE10BD000031
:1038400054020020014600BF080900EB800042003E
:1038500001F00F001044C0B270470146002203E09F
:10386000521CA1F10A00C1B20A29F9DA100741EA93
:103870001060704770B5044600252068C06800F0ED
:103880004000A0B9681E2168C860FDF751FC0546DC
:1038900007E0FDF74DFC401BB0F57A7F01D903200E
:1038A00070BD2068C06800F040000028F1D0002002
:1038B000F6E7000070B5054607480488002C01DCD7
:1038C000002070BD00200449088022460349284694
:1038D000FCF7FCFD2046F4E70800002084000020EF
:1038E000632802D101210B4A11700A490978012984
:1038F0000ED1094909880144074A1288914207D12B
:103900000021044A1170044909886431024A118077
:103910007047000016000020140000200FB42DE9AD
:10392000F04F8FB08346894614221AA90AA8FCF7E3
:1039300012FE9DF872A01AA8477A9DF87080067949
:1039400000BF00BF00BF8048814501D2484600E06B
:103950007D488146B9F1000F01D14FF00109484679
:1039600003F0C6FD794A7A4BCDE9020103F010FE5F
:10397000CDE9040103F0F2FA04460D46484603F08F
:10398000B7FD724A724BCDE9040103F001FECDE9A7
:10399000080120462946DDE9082303F093FFCDE91D
:1039A000060100226B4BDDE9060103F0F1FDCDE9D4
:1039B00002016948006803F084FDCDE90001DDE9FA
:1039C000022303F015FBCDE9040103F01DFD62495C
:1039D000086008460068B0F5F47F0CDB0846006814
:1039E000A0F5F470086000225C4B2046294603F0E5
:1039F000FFFA04460D4609E00022594B20462946AD
:103A000003F060FF04460D46701C86B20022544B42
:103A10002046294603F0BAFEEED90BE00022514BB6
:103A20002046294603F04EFF04460D4608F10100EA
:103A30001FFA80F800224B4B2046294603F0A6FED1
:103A4000ECD909E00022484B2046294603F03AFF12
:103A500004460D46781C87B20022434B2046294677
:103A600003F094FEEED9504603F042FD22462B4669
:103A7000CDE9020103F0BCFACDE9040103F0F4FC46
:103A80001FFA80FA05E0AAF13C001FFA80FA781CC0
:103A900087B2BAF13C0FF6DA06E0A7F13C0087B234
:103AA00008F101001FFA80F83C2FF6DA05E0A8F1D2
:103AB00018001FFA80F8701C86B2B8F1180FF6DAF9
:103AC0001AA9497959B11AA94979284A1288881836
:103AD000C11700EB91718910A0EB810181B91AA87F
:103AE000C078401E2249085CB04219DA1AA8C07892
:103AF000401E085C96FBF0F100FB116086B20FE0FF
:103B00001AA8C078401E1B49085CB04208DA1AA8FF
:103B1000C078401E085C96FBF0F100FB116086B295
:103B20008DF832A00AA8477208F0FF008DF8300027
:103B30000AA8067114220AA95846FCF70CFD0FB01A
:103B4000BDE8F00F5DF814FB42061200FCA9F1D2AB
:103B50004D62004000408F40200000200000F03FF8
:103B60000018F5400020AC4000004E40140000203A
:103B7000A47A0008987A00082DE9F04F91B04FF030
:103B8000000AD3462148007800283CD1684600F05E
:103B90004FF91422694605A8FCF7DDFC00234FF419
:103BA00080720AA91A48FEF75BFC9DF82A009DF86E
:103BB00029103C2202FB01009DF828104FF461629D
:103BC00002FB010A9DF81E109DF81D003C2202FB1D
:103BD00000109DF81C104FF4616202FB010BABEB6F
:103BE0000A0003F085FC804600220A4B03F0D0FC5B
:103BF000064603F08FF8044603F036FC06490860D9
:103C000001200249087011B0BDE8F08F1B000020B0
:103C1000540200200040DF3F1C0000202DE9F04747
:103C20008AB0064600BF00210C460D4646B96846DC
:103C300000F0FEF81422694605A8FCF78CFC04E0AD
:103C40001422314605A8FCF786FC00271AE037B19C
:103C5000F91707EB91718910A7EB810141B9002297
:103C6000494B2046294603F0C3F904460D4607E0B8
:103C70000022464B2046294603F0BAF904460D4679
:103C8000781C07B29DF81900BDF814100844B8421A
:103C9000DDDC9DF8191059B19DF81910BDF81420FC
:103CA0008818C11700EB91718910A0EB8101D9B977
:103CB0004FF0000A12E0364911F80A10354A01FBAC
:103CC00002F003F015FC074622462B4603F090F95C
:103CD00004460D460AF1010000F0FF0A9DF81700A6
:103CE000401E5045E7DC1AE04FF0000A12E02A4976
:103CF00011F80A10274A01FB02F003F0F9FB07460E
:103D000022462B4603F074F904460D460AF10100E1
:103D100000F0FF0A9DF81700401E5045E7DC9DF8B3
:103D20001E209DF81D10C1EB011102EB81019DF8D1
:103D30001C20C2EB4213C3EB022201EB02129DF8DE
:103D4000181040F2A323594302EBC11003F0D0FB3B
:103D5000074622462B4603F04BF904460D46002247
:103D60000E4B2046294603F013FC04460D46204620
:103D7000294603F0F3F8074603F076FB81464846F0
:103D80000AB0BDE8F087000050287E4138137E411C
:103D9000A47A000880510100987A00080040DF3FB3
:103DA00010B50D480078A8B90C480078012811D149
:103DB000FCF72AFDFDF762FA0948006840F00400AC
:103DC00007490860FDF74EFAFDF740FA0121084661
:103DD000FDF760FA10BD0000190000201800002057
:103DE000007000400F490968884209D90E490978D6
:103DF000012905D100210C4A11700A490968401AAD
:103E00000849096888420BD9322803D20021074AA1
:103E1000117005E00121054A117002490968401A34
:103E2000704700001C000020170000201800002030
:103E300010B586B00446002203A90C48FEF778FBB3
:103E400000220DF106010948FEF74CFB08480088E6
:103E5000ADF804009DF80900FFF742FD142201A906
:103E60002046FCF778FB06B010BD0000540200208D
:103E70001400002070B5002400250020FFF7CEFEBE
:103E800004460648FFF7CAFE0546AC4203D2C5F118
:103E9000FF30204470BD601BFCE7000040020020A2
:103EA00000B585B026480078002846D10121880554
:103EB00090FAA0F0B0FA80F0224A02EB8000C0F83D
:103EC00080162148214908600020486003211F48CE
:103ED0008160C1600021016141618161FEF752FB97
:103EE00000218DF8051001218DF803108DF80410C4
:103EF00006208DF8020000220DF102011348FEF7A2
:103F0000A5FC00208DF8080000218DF809108DF81F
:103F10000A108DF80B1003910491002202A90B489E
:103F2000FEF718FD002204212920FDF73DF9292084
:103F3000FDF72DF901200249087005B000BD000011
:103F40001A000020000047420028004054020020D0
:103F500010B50E48406800F0010030B10B48006811
:103F600040F004000949086002E001200849087097
:103F70000848006800F00C00042804D005480068D8
:103F800000F00C0008B9FCF789FC10BD007000407F
:103F9000170000200838024010B50446204600F003
:103FA00001F810BD10B59AB004464FF48071214855
:103FB000FEF7DCF91F48FEF756F904A8FFF738FFB3
:103FC000142204A915A8FCF7C6FA142215A91A4848
:103FD000FCF7C1FA17A807C88DE80700214604A816
:103FE000DDE91523FFF79AFC142204A910A8FCF7B9
:103FF000B2FA4FF480700F9000200D900C908DF865
:10400000270010A8807A8DF8260010A8407A8DF835
:1040100025009DF848008DF8240010A800798DF83F
:104020003800002209A90348FEF708FB00B100BFD1
:104030001AB010BD54020020400200202DE9F05FAC
:10404000092000F0B3FE8246062000F0AFFE4FEAE2
:10405000004B072000F0AAFE4BEA002B082000F0DE
:10406000A5FE4BEA0009484603F042FA0746002243
:104070001E4B03F08DFA054603F0F6F904460021C5
:10408000092001F027FE3B2000F090FE00F0BF0069
:1040900040F0400529463B2001F01CFE00BF3B20BC
:1040A00000F084FE00F020002028F8D0104800F036
:1040B0009BFF3B2000F07AFE00F0BF0040F040057F
:1040C00029463B2001F006FE00BF3B2000F06EFEBB
:1040D00000F020002028F8D05146092001F0FAFD18
:1040E000204600F081FFBDE8F09F000080844E4034
:1040F00000A1BC33704770470146012070470000A3
:1041000001460348814201D2802070470020FCE72D
:1041100040DD4A1F014890F8DC0070478C05002004
:104120002DE9F34F93B000201290139810B101289D
:1041300070D170E09749D1F8F40003F0D9F9CDE9D6
:104140000C01149803F0D4F9CDE90601302000F0F9
:104150002DFE20F0F90010B100208F4901E0002071
:104160000146CDE90401272000F020FE20F0F801EF
:10417000491C8848B0F8F8000844019003F0A1F900
:10418000CDE90201834890F8FA00012802D100200D
:10419000034601E00020804B0246CDE90003DDE943
:1041A000020102F025FF8046DDE9042302F020FF32
:1041B0000646DDE9062302F01BFFCDE9080175483C
:1041C00090F8FC00012803D100204FF0804101E06D
:1041D00000200146064632460B46DDE9080102F0A2
:1041E00007FF00226D4BCDE90A0103F0D1F98246A9
:1041F000DDE90C2302F0B0FF0022694BCDE90E018E
:1042000003F0C6F9CDE9100102F0A8FE044603F060
:104210002BF91290B9E00020044605465D48D0F81D
:104220001C01072804D0082805D0092809D105E079
:1042300000245C4D05E000245B4D02E000245B4D52
:1042400000BF00BF534991F82021012101FA02F07B
:1042500003F037F9064632460B462046294602F05F
:104260007BFFCDE9100100204B49DDE9102302F06E
:1042700073FFCDE90E014749B1F8260103F038F983
:10428000064600224A4B02F0B3FE8046DDE90E23CB
:1042900003F07EF9CDE90C013E4991F82511081D86
:1042A00003F00FF9CDE902013A49D1F8202191F844
:1042B0002411002901DD022100E00021511A8800AB
:1042C00003F016F906460F461499CA003149D1F891
:1042D0002011042303FB11221C322E4991F82A11CC
:1042E000102303FB01222B4991F8281109B1142155
:1042F00000E00021501A03F0FBF8804632463B46AE
:1043000002F02AFFCDE9000102F004FD8246DDE95A
:10431000022303F03DF9CDE90A0100221346DDE94D
:104320000A0103F033FA02D2DDE90A0101E00020BC
:104330000146064632460B460020184902F058FE58
:10434000CDE90801DDE90E23DDE9080103F020F9DC
:10435000CDE90601DDE90623DDE90C0102F048FEA6
:10436000CDE9040100220E4BDDE9040103F010F950
:104370000646104A104B02F03BFE804602F03AFD22
:10438000824603F071F8129000BF00BF129815B07A
:10439000BDE8F08F8C0500200000F03F00002040B9
:1043A00000408F408084FE4080840E4180841E4106
:1043B000000011402B8716D9CEF7EF3F70B50546A8
:1043C0001B4805601B491C4801F0F4FF19491B48B4
:1043D00001F0F0FF17491A4801F0ECFF00F048FD2A
:1043E000FFF72CFE002000F091FE164800F076F852
:1043F000002412E004EB4401134A505C00F036FE46
:1044000004EB4402104B1A44917804EB44021A4422
:10441000507801F05FFC601CC4B2102CEAD300207D
:1044200000F024FE0020094981F8DC0070BD000086
:1044300040000020614C0008CC060020E00600206F
:10444000F406002044000020388900088C05002074
:104450001CB5012000210B460246CDE900100421C5
:104460000B48FCF763FB00200090034602461B212B
:1044700001900748C438FCF759FB00200090034620
:1044800002461A2101900248B838FCF74FFB1CBDC8
:104490005C0600201CB50120009000230246042188
:1044A00001900D48FCF742FB002001210346024623
:1044B000CDE900101B210848C438FCF737FB002069
:1044C000012103460246CDE900101A210248B838FE
:1044D000FCF72CFB1CBD00005C06002010B5044658
:1044E0000322012105482368FCF7B2FC03220121C5
:1044F00002480C306368FCF7ABFC10BD9805002047
:104500002DE9F04106460C4615460027304600F0DE
:10451000ADFD204600F068FD052000F0F7FD01200C
:10452000FCF779FA304600F079FC074601F09CF977
:10453000AF4202DD0020BDE8F0810120FBE7000072
:10454000F8B500200090D84890F8DC00012802D08F
:1045500002287DD184E1D44890F8DD0010B1012813
:1045600077D1D4E0D04890F8FC00012842D13F2018
:1045700000F01CFC00909DF8000000F002000228F2
:1045800038D00B213E2001F0A5FB10213F2001F087
:10459000A1FBC64802F028F8C34890F8FE0038B9DD
:1045A000C34802F021F80020BF4981F8DC000BE08D
:1045B0000D2000F0FBFB40F0400421460D2001F0EF
:1045C00089FBBB4801F0CCFFBA48006838B1B94854
:1045D0000068006918B1B749096808698047002177
:1045E000B14880F8081180F80911A0F81411A0F85A
:1045F000121133E1AC48B0F8120158BBAA48B0F828
:10460000140138BBA84890F8FA0020B90121AA4843
:1046100000F0FAFB06E0322000F0C8FB0146A24899
:10462000A0F81211A04A92F8123192F814219A1AA5
:10463000D1B29D4AB2F81421A04BD01800F0E4FB8F
:104640009948B0F81211B0F81401091A964802E01E
:1046500027E102E107E0B0F81401084481B2924872
:10466000A0F814111BE0904A92F8123192F814212C
:104670009A1AD1B28C4AB2F81421904BD01800F09B
:10468000C3FB8948B0F81211B0F81401091A864822
:10469000B0F81401084481B28348A0F8141183488B
:1046A00001F0A2FF804890F8FE0038B900207E4952
:1046B00081F8DC007E4801F097FF0BE00D2000F050
:1046C00075FB40F0400421460D2001F003FB7848C3
:1046D00001F046FF7748006870B17648006880684E
:1046E00050B1714890F90A21B0F812117148006870
:1046F000002384687148A04700216B4880F80811A6
:1047000080F80911A0F81411A0F81211A6E00025F4
:104710004021122001F0DEFA122000F047FB009049
:104720009DF8000000F0200020281AD1202112203E
:1047300001F0D0FA5C4890F82E0118B900205A49CF
:1047400081F8DC00594801F04FFF5A48006838B141
:1047500058480068006918B15649096808698047D7
:104760007CE0192000F022FB41B24F4880F838115C
:1047700090F8380100F0800040B14B4890F83801C3
:10478000C043401CC0F385056D4204E0464890F8E4
:104790003801C0F385051A2000F008FB0446002DFF
:1047A00019DA4148D0F8E0004549884209D9A4F116
:1047B0009D0000EB2410284401B23B48A0F83A11B8
:1047C00020E0A4F1A40000EB2410284401B23648F4
:1047D000A0F83A1116E03448D0F8E0003849884291
:1047E00008D9A4F19D0000EB241001B22E48A0F8D6
:1047F0003A1107E0A4F1A40000EB241001B22A480A
:10480000A0F83A11132000F0D1FA0146264880F8AA
:104810003C1190F83C11294800F0F6FA224890F833
:104820002E0118B90020204981F8DC001F4801F052
:10483000DBFE2048006878B11E480068806858B1E7
:10484000194890F93831B0F93A2190F83C111948DB
:10485000006886681948B04700E000BF00BF21E04B
:10486000184801F0C1FE104890F8DD0038B1012869
:1048700004D10821122001F02DFA00BF00BF002052
:10488000094981F8DC000B48006838B10948006824
:10489000006818B1074909680868804700BF00BF71
:1048A00000E000BF00BFF8BD8C050020E00600203E
:1048B000F4060020400000209E0600208C0400200A
:1048C00040DD4A1FCC06002010B5644890F8DC009B
:1048D000012802D0022872D176E0604890F8DD000D
:1048E00010B101286DD153E05C48B0F8120198B9BD
:1048F0005A48B0F8140178B9584890F8FA0020B92D
:104900000121574800F080FA06E0322000F04EFA0C
:1049100001465248A0F812115048B0F81211B0F8F0
:104920001401091A4D4890F81601814213DD4B4AD3
:1049300092F81611B2F814214A4BD01800F064FA1C
:104940004648B0F8141190F81601084481B2434863
:10495000A0F814111BE0414A92F8123192F8142188
:104960009A1AD1B23D4AB2F814213E4BD01800F049
:104970004BFA3A48B0F81211B0F81401091A374846
:10498000B0F81401084481B23448A0F8141119E0B9
:10499000354801F029FE8021122001F09BF900200A
:1049A0002E4981F8DC003148006838B12F48006892
:1049B000C06818B12D490968C868804702E04AE01C
:1049C000FFE700BF00BF47E0244890F8DD0010B1CA
:1049D00001283DD13BE02148B0F81211B0F8140194
:1049E000091A1E4890F81701814213DD1B4A92F8FC
:1049F0001711B2F814211B4BD01801F095F9174884
:104A0000B0F8141190F81701084481B21348A0F8C7
:104A100014111BE0114A92F8123192F814219A1ADB
:104A2000D1B20E4AB2F814210E4BD01801F07CF925
:104A30000A48B0F81211B0F81401091A0748B0F882
:104A40001401084481B20548A0F8141101E000E007
:104A500000BF00BF00E000BF00BF10BD8C050020FC
:104A60009E0600208C040020E0060020400000206C
:104A70002DE9FC474F4890F8DC00012802D00228BD
:104A800073D16BE04B4890F8DD0010B1012862D182
:104A900046E04848006C18B90121464880F80811E2
:104AA000444890F80801012839D1424890F809019A
:104AB000A8BB414801F098FD01213E4880F809114A
:104AC000112000F073F94010404241B2394880F89B
:104AD0000A111C2000F06AF982461B2000F066F9DA
:104AE0004AEA0029484602F0ECFC074602F08CFC3A
:104AF000044602F0E6FC05460022304B02F048FD79
:104B0000CDE9000102F080FC01462A48C0F80C11F2
:104B10000C2000F04BF94109264880F810111BE0E9
:104B2000244890F82B01012814D10221122001F011
:104B3000D1F82348006868B121480068406948B14D
:104B40001C2000F033F900F03F041D480068416963
:104B50002046884700E000BF00BF27E0154890F8D6
:104B6000DD0018B101281DD101E01EE01BE0114855
:104B700090F82B01012814D10221122001F0AAF88B
:104B80000F48006868B10E480068406948B11C20B1
:104B900000F00CF900F03F04094800684169204624
:104BA000884700E000BF00BF00E000BF00BFBDE8D5
:104BB000FC8700008C050020F406002080844E4015
:104BC0004000002010B5194890F8DD0010B1012810
:104BD00029D100E028E0122000F0E8F800F0010000
:104BE00080B10521122001F075F811480068C8B1A4
:104BF0000F4800688069A8B10D48006881690120EC
:104C000088470FE00421122001F064F8084800688A
:104C100040B107480068806920B105480068816993
:104C20000020884700E000BF00BF10BD8C050020B9
:104C300040000020094890F8DD0010B101280AD199
:104C400008E0064890F8080118B90121034880F8E7
:104C5000081101E000E000BF00BF70478C05002094
:104C600010B53E4890F8DC00012802D0022872D12D
:104C70003AE03A4890F8DD0010BB0021374880F850
:104C8000081180F80911A0F81411A0F812110B21D5
:104C90003E2001F01FF810213F2001F01BF82F48A3
:104CA00090F8FE0001280CD10D2000F07FF840F0B4
:104CB000400421460D2001F00DF8294801F050FC78
:104CC00006E00020254981F8DC00254801F08CFC35
:104CD0002448006838B123480068C06818B12149E9
:104CE0000968C868804737E000F0C2F8FFF7A6F906
:104CF000002000F00BFA002412E004EB44011A4AF1
:104D0000505C00F0B3F904EB4402174B1A4491785D
:104D100004EB44021A44507800F0DCFF601CC4B27B
:104D2000102CEAD3002000F0A1F90C4991F83401CD
:104D300000F006FA0020094981F8DC000948006803
:104D400038B108480068406818B1064909684868E1
:104D5000804701E0FFE700BF00BF10BD8C050020C9
:104D6000F4060020400000203889000870B50025B6
:104D7000012000F07BF9FF21112000F0ABFF05209E
:104D800000F0C4F900240BE00120FBF744FE2C20C6
:104D900000F00CF800F00100A0400543601CC4B214
:104DA000202CF1DB00F060FD284670BD38B50446CC
:104DB00001226946204600F003F89DF8000038BD46
:104DC0002DE9F04105460E46174600210D48FCF737
:104DD0005FF805F07F010B487C3801F023F80024D0
:104DE00007E0002107487C3801F01CF83055601CB2
:104DF000C4B2BC42F5DB01210248FCF749F8BDE82A
:104E0000F08100005C06002070B504460D462A467D
:104E100021460020FFF7D4FF70BD000070B50446A6
:104E2000002514B1012C18D105E01120FFF7BEFFB9
:104E30004010454214E00C48D0F8E0000B4988428D
:104E400005D91B20FFF7B2FFA0F19D0504E01B2050
:104E5000FFF7ACFFA0F1A40502E04FF0FF3500BF63
:104E600000BF284670BD00008C05002040DD4A1FB1
:104E70007047000073B504460025494890F8DD00EE
:104E800010B101283FD13FE000214548A0F814119E
:104E90009DF80410A0F8121190F8FA0020B9012131
:104EA00001A800F041FF04E09DF80410322000F05A
:104EB00011FF9DF80400002809DD9DF8040040283A
:104EC00005DC9DF80410364880F8171109E09DF8BC
:104ED00004202146334802F013F82021304880F89E
:104EE00017112F4890F81711204600F01DFF2C488D
:104EF000B0F8141190F81701084481B22848A0F8BE
:104F00001411D0F8005146E0254890F82D010128F1
:104F10000DD13320FFF74AFF00F0BE0631463320A3
:104F200000F0D8FE19213B2000F0D4FE0DE0332024
:104F3000FFF73CFF00F0BE00461C3146332000F076
:104F4000C9FE1D213B2000F0C5FE9DF80410144849
:104F500080F83C119DF80410222000F0BBFE0021D7
:104F60000E2000F0B7FE00210D2000F0B3FE01205E
:104F7000FFF71CFF20F0F80020B900F08BFC0120A7
:104F8000FBF749FD9DF80410204600F0CDFE0448D3
:104F9000D0F8305100BF00BF284600F091FC7CBD26
:104FA0008C0500208C040020032806D0052806D09C
:104FB000062805D0072801D103E003E000BF00BFA9
:104FC00000BF00BF00BF704700B5064909788142A5
:104FD00007D00449087010B9FFF78DF801E0FFF71A
:104FE00089F800BD240000202DE9F04104460F4857
:104FF000C0F8E040204602F07BFA054600220C4B48
:1050000002F0AAF8074602F02FFA0446C4F307415B
:10501000062000F05FFEC4F30721072000F05AFECF
:10502000E1B2082000F056FEBDE8F0818C050020BA
:1050300080844E4070B504460D46204600F016F8B8
:1050400014B1012C0ED108E0074890F8FA0018B905
:105050002946322000F03EFE04E02946232000F0DD
:1050600039FE00BF00BF70BD8C05002070B504463E
:105070000120FFF79BFE00F0800020B101212248B3
:1050800080F8DD1003E000211F4880F8DD101E4885
:1050900090F8DD00A04200D170BD1B4880F8DD40D3
:1050A00090F8DD0010B1012814D000BF00F0DCFB47
:1050B0000120FFF77BFE00F07F052946012000F06C
:1050C00009FE0021402000F005FE3021412000F0C3
:1050D00001FE15E000F0C8FB0120FFF767FE00F0BD
:1050E0007F0040F080052946012000F0F3FD0021FB
:1050F000402000F0EFFD0021412000F0EBFD00BF5B
:1051000000BF00BFC8E700008C05002070B5044652
:105110001CB90120FFF758FF05E00020FFF754FFFE
:105120002046FFF741FF0120FFF740FE00F0F800A6
:1051300040EA04052946012000F0CCFD70BD0000C6
:1051400010B504460120FFF791FF074880F834416D
:10515000012C04D13421392000F0BCFD03E01221E0
:10516000392000F0B7FD10BD8C05002070B5044655
:10517000002500260920FFF719FE05464D20FFF700
:1051800015FE06462849D1F8E000FEF7B9FF05F004
:105190007F0140EA010505F08F0040F0700505F041
:1051A0008000802828D1112C03DD06F0F800C61DF0
:1051B00002E006F0F800061D06F0070007280DD1F2
:1051C000052C00DA0524142C00DD142405F0F00071
:1051D000611F01F00F0140EA01051CE0022C00DA1A
:1051E0000224112C00DD112405F0F000A11E01F0B5
:1051F0000F0140EA01050EE0B4F1FF3F01DA4FF084
:10520000FF340E2C00DD0E2405F0F000611C01F0CF
:105210000F0140EA01052946092000F05BFD3146F7
:105220004D2000F057FD70BD8C0500202DE9F047A2
:1052300004464FF00009B84890F8DD0010B101288D
:1052400030D130E0B44890F8FE904020FFF7AEFD3A
:1052500000F0030040F00C052946402000F03AFD24
:105260004120FFF7A3FD00F03E0040F0C000451CC8
:105270002946412000F02EFD3520FFF797FD00F074
:105280003F01A54880F816111E210D2000F022FDD7
:105290000021A14880F8081180F80911A0F8141124
:1052A000A0F8121105E19C4890F82D01012810D1B9
:1052B0003320FFF77BFD00F0BE0040F04000451CAE
:1052C0002946332000F006FD19213B2000F002FDA5
:1052D0000DE03320FFF76AFD00F0BE00451C2946B3
:1052E000332000F0F7FC1D213B2000F0F3FC8A483E
:1052F000D0F81C0109287CD23120FFF757FD00F0BF
:105300007F052946312000F0E5FC0021302000F027
:10531000E1FC8148D0F81C0109281AD2DFE800F02E
:10532000051A2F445970858A8F0048212F2000F0DC
:10533000D1FC7949D1F8E00002F0DAF80746002202
:10534000764B01F055FE054602F08EF88246FFF7D7
:105350004BFE79E044212F2000F0BCFC6E49D1F8CF
:10536000E00002F0C5F8074600226D4B01F040FE58
:10537000054602F079F88246FFF736FE64E04421E4
:105380002F2000F0A7FC6449D1F8E00002F0B0F84B
:1053900007460022634B01F02BFE054602F064F83D
:1053A0008246FFF721FE4FE044212F2000F092FCBF
:1053B0005949D1F8E00002F09BF8074600225A4B09
:1053C00001F016FE054602F04FF88246FFF70CFE8C
:1053D0003AE044212F2000F07DFC4F49D1F8E00055
:1053E00002F086F807460022504B01F001FE054608
:1053F00000E02AE002F038F88246FFF7F5FD23E0EE
:1054000044212F2000F066FC4349D1F8E00002F06F
:105410006FF807460022464B01F0EAFD054602F010
:1054200023F88246FFF7E0FD0EE040212F2000F038
:1054300051FC09E040212F2000F04CFC04E0402109
:105440002F2000F047FC00BF08E03120FFF7AEFC42
:1054500040F080052946312000F03CFC2E4890F8B1
:105460002E9190F82B0101280DD11D21112000F063
:1054700031FC4020FFF79AFC00F03305294640201C
:1054800000F028FC0CE01F21112000F023FC40203C
:10549000FFF78CFC00F03F052946402000F01AFC85
:1054A00000210F2000F016FC00210D2000F012FC5E
:1054B00000BF00BF4FF480711E48FBF7A8F8012021
:1054C000154981F8DC0034B121461B4801F03EF853
:1054D000194801F045F8104890F8DD0078B905202A
:1054E000FFF714FEB9F1000F13D10B48D0F80411E7
:1054F000124801F02BF8114801F032F809E0B9F137
:10550000010F03D10520FFF701FE02E00620FFF79F
:10551000FDFDBDE8F08700008C0500200082BE4044
:10552000005AC4400082CE408057D4408084DE4080
:10553000C058E4408C040020E0060020F40600205F
:105540002DE9FF4F8DB00D4614469946DDE91EB892
:10555000DDE91CA71B9E0D98FFF788FD0D9810B183
:10556000012877D198E0BA48C0F8EC50C0F8F44070
:105570001A99C0F8F01080F8FA7080F8FBB080F843
:10558000FC80229980F8FD10239980F8FE10A0F885
:10559000F860204601F0ACFF02460B46CDE9000161
:1055A0000020AC4901F0D8FD0022AB4BCDE902014F
:1055B00001F0EEFFCDE90601504601F099FFCDE97B
:1055C0000401DDE9062301F0E3FF0022A34BCDE94E
:1055D000080101F0DDFFCDE90A0101F045FF0146B8
:1055E0009B48C0F80411204601F082FF02460B469A
:1055F000CDE9080100209A4901F0AEFDCDE90A018C
:1056000001F032FF84B2210A022000F063FBE1B214
:10561000032000F05FFB2846FBF76CFA01460B9075
:10562000122000F057FB1A98FBF764FA01460B9022
:10563000132000F04FFB310A252000F04BFBF1B2A4
:10564000262000F047FB012F05D15946322000F0FB
:1056500041FB04E0F8E0FF21322000F03BFB30206A
:10566000FFF7A4FB00F06F00012F01D1002100E043
:105670008021084340EA081001460B90302000F0DA
:1056800029FB3120FFF792FB40F0400001460B90D0
:10569000312000F01FFBD7E0022D01D900BFFEE74B
:1056A000ED1D6B48C0F81C51C0F8204180F82591D1
:1056B000A0F8266180F8287180F829B180F82A8145
:1056C000209980F82B11219980F82C11229980F8CB
:1056D0002D11239980F82E110C2C01D90C2402E0F5
:1056E000062C00D20624072D03D10B2C05D00C2C40
:1056F00003D0082D06D10C2C04D10121544880F888
:10570000241103E00021524880F824111D20FFF7E6
:105710004DFB002040EA051040EA49003843C0B282
:1057200001460B901D2000F0D5FA1E20FFF73EFB2E
:1057300000F0080040EA041040EA8800032101EA72
:105740002A210843C0B201460B901E2000F0C2FA85
:105750002620FFF72BFB00F0F7013D4890F82401CD
:1057600041EAC000C0B201460B90262000F0B2FA18
:105770000AF0FF011F2000F0ADFA310A202000F0EE
:10578000A9FAF1B2212000F0A5FA012F03D1594660
:10579000222000F09FFA2E4890F82B01012811D109
:1057A0004420FFF703FB00F07F0040F0800001463B
:1057B0000B90442000F08EFA254890F82C112420FC
:1057C00000F088FA092D0ED12148D0F8E0002549D3
:1057D000884208D90221362000F07CFA64213A2060
:1057E00000F078FA0EE0092D08D10221362000F0F1
:1057F00071FA7F213A2000F06DFA03E00321362090
:1058000000F068FA062C0FD13120FFF7CFFA00F034
:10581000F800401D01460B90312000F05BFA0C218E
:10582000372000F057FA0EE03120FFF7BFFA00F002
:10583000F800C01C01460B90312000F04BFA0A2101
:10584000372000F047FA00BF00BF11B0BDE8F08F6D
:105850008C0500200000F03F0000204000408F40F9
:1058600080847E4140DD4A1F10B5074800F0BCFE31
:10587000064800F0B9FE0020FFF748FC002004496C
:1058800081F8DC0010BD0000E0060020CC060020FE
:105890008C05002010B5074800F0A6FE064800F071
:1058A000A3FE0120FFF732FC0020044981F8DC0050
:1058B00010BD0000E0060020CC0600208C05002072
:1058C00070B5044621462C4800F040FE2B4890F865
:1058D000DD0010B1012842D11CE04020FFF766FA3C
:1058E00000F0030040F010052946402000F0F2F9D6
:1058F0004120FFF75BFA00F03E052946412000F009
:10590000E9F93520FFF752FA00F03F011B4880F813
:10591000161124E0194890F82B0101280FD1F52128
:10592000112000F0D7F94020FFF740FA00F03300D3
:1059300040F040052946402000F0CCF90EE0F72168
:10594000112000F0C7F94020FFF730FA00F03F00C7
:1059500040F040052946402000F0BCF900BF00BFE0
:105960000220064981F8DC00034800F0F9FD03201D
:10597000FFF7CCFB70BD0000CC0600208C0500209A
:105980002DE9FF5F8346884617461D46DDE9119ADB
:10599000109E0E9C5846FFF769FB4046FFF7E6FB5A
:1059A000BBF1000F03D0BBF1010F68D168E08C4858
:1059B00080F8E480C0F8E870C0F8EC50C0F8F4401B
:1059C000A0F8F86080F8FA9080F8FCA0159980F8AB
:1059D000FD101699C0F80011384601F089FD00222B
:1059E000804BCDE9000101F0B7FBCDE9020101F0E8
:1059F0003BFD87B2390A042000F06CF9F9B20520AA
:105A000000F068F9204601F073FD02460B46CDE92F
:105A100000010020744901F09FFBCDE9020101F073
:105A200023FD84B2210A022000F054F9E1B20320E0
:105A300000F050F9310A252000F04CF9F1B226208F
:105A400000F048F93020FFF7B1F900F06F00B9F12C
:105A5000010F01D1002100E08021084340EA0A1033
:105A600001460390302000F035F93120FFF79EF910
:105A700040F0400001460390312000F02BF9ACE0EB
:105A8000574880F81881022D01D900BFFEE7ED1DAF
:105A90005348C0F81C51C0F820410F9980F82511D7
:105AA000A0F8266180F82891139980F82B11149999
:105AB00080F82C1180F82AA1159980F82D111699DB
:105AC000C0F830110C2C01D90C2402E0062C00D2B5
:105AD0000624072D03D10B2C05D00C2C03D0082D48
