:020000040800F2
:10000000901B00204501000893320008C12E000813
:1000100091320008690A0008E13F00080000000072
:10002000000000000000000000000000A53B0008E8
:10003000A10D00080000000095320008B53B000843
:100040005F0100085F0100085F0100085F01000810
:100050005F0100085F0100085F0100085F01000800
:100060005F0100085F0100085F0100085F010008F0
:100070005F0100085F0100085F0100085F010008E0
:100080005F0100085F0100085F0100085F010008D0
:10009000D53F00085F0100085F0100085F0100080C
:1000A0005F0100085F0100085F0100085F010008B0
:1000B000653C00085F0100085F0100085F0100085F
:1000C0005F0100085F0100085F0100085F01000890
:1000D0005F010008A93F0008C93F00085F01000850
:1000E0005F0100085F0100085F0100085F01000870
:1000F0005F0100085F0100085F0100085F01000860
:100100005F0100085F0100085F0100085F0100084F
:100110005F0100085F0100085F0100085F0100083F
:100120005F0100085F0100085F0100085F0100082F
:10013000DFF80CD000F028FC004800478D4900088B
:10014000901B00200648804706480047FEE7FEE770
:10015000FEE7FEE7FEE7FEE7FEE7FEE7FEE7FEE777
:100160001D3C000831010008202A04DB203A21FA56
:1001700002F00021704721FA02F3D040C2F12002C0
:10018000914008431946704740EA01039B0703D09A
:1001900009E008C9121F08C0042AFAD203E011F8C6
:1001A000013B00F8013B521EF9D27047D2B201E088
:1001B00000F8012B491EFBD270470022F6E710B56C
:1001C00013460A4604461946FFF7F0FF204610BDC5
:1001D000F0B480EA0102D40F4200B2EB410F02D228
:1001E0000246084611464A0042D0C30DDDB2C1F3B3
:1001F000C752AD1A202D35DAC1F3160141F40002C1
:1002000004B15242C5F1200602FA06F12A41104417
:10021000B3EBD05F23D0C4B1012DA0EBC35009DCF8
:10022000F0BC4FF0004202EAC352DBB200F500001E
:1002300000F07FBA400000F1807000EBC350A0F1E5
:10024000807040EAD170490009E0490841EAC07174
:10025000A0EBC35000F50000400800EBC350F0BC19
:1002600000F05EBA6142012202EB4101001BF6E799
:10027000F0BC704781F00041AAE780F00040A7E79A
:1002800080EA010210B502F00043400022D04A008B
:100290001FD0010E01EB1261C0F35600C2F35602EB
:1002A00040F4000042F40002A0FB022000047F3969
:1002B000140400D0401C50EA124001D44000491EF2
:1002C000C2B20C0604EBD010401C4008802A02D0B9
:1002D00003E0002010BD20F00100002900DA00201A
:1002E000184310BD30B480EA010202F0004530F03E
:1002F000004221F0004013D090B1C30DD40DC2F3E1
:100300001601C0F31600E41A41F4000140F40002A3
:100310007D34914201D3641C00E04900002C02DAD4
:1003200030BC002070474FF400000023914201D3FD
:10033000891A034340084FEA4101F7D151B1914274
:1003400002D14FF0004105E002D24FF0010101E07F
:100350006FF0010103EBC450284430BC00F0E0B959
:100360002DE9FE4F804681EA0300C00F0C46009045
:1003700021F0004123F00045B8EB0200A94105D26D
:100380004046214690461C460B46024623F000405C
:10039000104347D0270DC7F30A00C3F30A51029058
:1003A000401A019040286BDAC3F3130040F4801B1D
:1003B0000098924620B10023D2EB030A63EB0B0BAB
:1003C00001985946C0F14002504600F088F90646AF
:1003D0000D4650465946019A00F090F910EB08007E
:1003E0006141002487EA115284EAE7731A4340D03E
:1003F000009A62B3019A012A4FEA075215DC001BEA
:1004000061EB02014FF0004202EA0752CDE90042DF
:10041000001C41F5801132462B4600F0C7F903B0AD
:10042000BDE8F08F40462146F9E7001B61EB020171
:10043000001C41F5801300185B412018A2F500173D
:1004400047EB030140EAD570B6196D4111E06D0824
:100450004FEA360645EAC0754FEA0752001B61EBCA
:100460000201001C41F5801149084FEA30000019D3
:10047000514132462B4603B0BDE8F04F00F087B93A
:100480000098012240000023D0EB020263EBE073EE
:10049000009821464FEAE074B8EB000061EB0401DC
:1004A000E9E783F000435BE781F0004158E72DE97D
:1004B000FE4F81EA030404F0004421F0004100945F
:1004C0004FF0000B23F0004350EA01045ED052EAE3
:1004D00003045BD0C3F30A54C1F30A552C44A4F2BD
:1004E000F3340194A0FB0254C1F3130141F48011D1
:1004F000C3F3130343F4801301FB024400FB034ED8
:10050000840A970A44EA815447EA8357A4FB0768A0
:1005100002958D0A05FB07854FEA932C04FB0C54CA
:100520002705029D4FEA065847EA1637B5EB08053E
:100530006EEB070C870E920E47EA811742EA831290
:10054000A7FB0201B6EB0B0164EB00042B0D43EAA1
:100550000C335E1844EB1C50DA465146E7FB0201AF
:10056000C5F313044FEA0B3343EA14534FEA043242
:10057000019C43EA0603A4F10C040294009CCDE91B
:1005800000B400F013F903B0BDE8F08F002001467D
:10059000F9E796230022114600F0CBB80EB5C10F43
:1005A00080EAE0700844CA07002140F233438DE836
:1005B0000E000A460B4600F0F9F803B000BD00F04B
:1005C000004220F00040C10DC0F3160040F40000CE
:1005D0007F2901DA00207047962903DCC1F19601DA
:1005E000C84001E096398840002AF4D04042704764
:1005F00020F00040C10DC0F3160040F400007F2938
:1006000001DA00207047962903DCC1F19601C84049
:10061000704796398840704701F0004330B421F0AC
:10062000004150EA010206D00A0DA2F56072C1F342
:100630001301002A02DC30BC00207047440F44EA5A
:10064000C104C100E01830BC00EBC25000F068B833
:1006500030B50B46014600202022012409E021FA92
:1006600002F59D4205D303FA02F5491B04FA02F58F
:100670002844151EA2F10102F1DC30BD2DE9F05F26
:100680000546002092469B46884606468146402401
:100690001BE02846414647462246FFF765FD534684
:1006A0005A46C01A914110D311461846224600F00E
:1006B00016F82D1A67EB01084F462246012000214B
:1006C00000F00DF817EB00094E41201EA4F10104C3
:1006D000DFDC484631462A464346BDE8F09F202AE3
:1006E00004DB203A00FA02F1002070479140C2F189
:1006F000200320FA03F3194390407047202A06DBB9
:10070000CB17203A41FA02F043EAE07306E041FADF
:1007100002F3D040C2F120029140084319467047CD
:100720000029A8BF7047401C490008BF20F0010005
:10073000704710B4B0FA80FC00FA0CF050EA0104E3
:1007400004BF10BC704749B1CCF1200421FA04F475
:1007500011FA0CF118BF012121430843A3EB0C014E
:10076000CB1D4FEA00614FEA102042BF002010BCB1
:10077000704700EBC35010440029A4BF10BC704761
:10078000401C490008BF20F0010010BC704710B5A4
:10079000141E73F1000408DA401C41F100019218A4
:1007A0005B411A4301D120F0010010BD2DE9F04D4D
:1007B00092469B4611B1B1FA81F202E0B0FA80F2A2
:1007C00020329046FFF78BFF04460F4640EA0A00AE
:1007D00041EA0B0153465A46084313D0114653EAE7
:1007E000010019D0C8F140025046FFF7BDFC054694
:1007F0000E46504659464246FFF771FF084305D062
:10080000012004E020463946BDE8F08D0020054374
:1008100046EAE0762C4337430A986305E40AA0EBE6
:1008200008000022FD0A44EA47540A3002D500209D
:100830000146E9E7010510196941DDE9084500199C
:100840006941BDE8F04DA2E72DE9F04D81EA0304CE
:1008500004F0004B21F0004514464FF0000A23F04D
:10086000004150EA050220D054EA01021DD0C5F330
:100870000A570246C5F31303C1F31300C1F30A5626
:1008800040F4801543F48013A7EB0608101BD646EE
:1008900008F2FD3873EB050002D308F1010801E00E
:1008A00092185B41B8F1000F03DA00200146BDE861
:1008B000F08D00204FF48011064684460EE0171B91
:1008C00073EB050705D3121B63EB050306434CEAE4
:1008D000010C49084FEA300092185B4150EA0107C9
:1008E000EDD152EA030012D082EA040083EA050146
:1008F000084305D0101BAB4106D20122002306E0BD
:1009000000224FF0004302E06FF0010253101AEB97
:1009100006004CEB085110EB0A0041EB0B01BDE85F
:10092000F04DFFF734BFC1F30A52C1F3130140F297
:10093000FF3341F480119A4202DA002001467047E9
:1009400040F233439A42A2F2334202DC5242FFF7B2
:100950000BBCFFF7C4BE000030B5041E71F10004EB
:1009600004DB4FF00044404264EB0101141E73F1BC
:10097000000405DB1C464FF00043524263EB0403C6
:10098000994208BF904230BD064C074D06E0E06832
:1009900040F0010394E8070098471034AC42F6D3C6
:1009A000FFF7CAFB604F0008804F000870B504468F
:1009B00000688168C943C9071CD1816821F0010121
:1009C000816001F0F5FA05460FE000BF01F0F0FA92
:1009D000401B022809D9A06A40F01000A062E06A1A
:1009E00040F00100E062012070BD20688068C043D3
:1009F000C007EBD0002070BDF8B500260446009675
:100A000000688168C943C90728D0816841F00101A5
:100A10008160134813490068B0FBF1F000E0401E0C
:100A200000900028FBD101F0C3FA054611E000BF99
:100A300001F0BEFA401B02280BD9A06A40F010005A
:100A4000A062E06A40F00100E06284F824600120C6
:100A5000F8BD20688068C043C007E9D10020F8BD18
:100A60005000002040420F00FEE7000010B58AB0A1
:100A700004460020012103900490CDE90601CDE950
:100A8000081005900090019002906946204600F001
:100A90000FFD204600F0F6FF10B107A003F0B0FAFA
:100AA0000221204600F08EFC002802D006A003F0B0
:100AB000A7FA0AB010BD0000BFAAC6F443414ECA4F
:100AC000A7B0DC0D0A000000BFAAC6F4B9D2C6F078
:100AD000D6D0B6CED4CAD0EDCAA7B0DC0D0A00007D
:100AE0000246002003E000BF12F8013B5840491EB7
:100AF000C9B2F9D27047000030B515460A4689B030
:100B000001460020CDE902100490CDE9050204461B
:100B10006B4602E01C54401C80B29042FAD32C4831
:100B200000788DF80000080A8DF804008DF8031095
:100B300028A003F065FA9DF8001032A003F060FAD7
:100B4000284603F04EFA0546014639A003F058FA4C
:100B500025B1012D10D0022D2BD114E03E48008884
:100B6000010A8DF801108DF802003CA003F048FA4C
:100B70009DF8021049A01AE058488DF8014000780D
:100B80008DF8020015E056480068FFF731FDC4B249
:100B900054488DF801400068FFF72AFD8DF80200E7
:100BA000214651A003F02CFA9DF802105EA003F03C
:100BB00027FA6D4B6A4602A96C4800F015FC08B193
:100BC0006BA000E070A003F01BFA09B0002030BD5C
:100BD0001900002043616E5F53656E645F4D73675B
:100BE0005F5374644964203E3E4D795F5374644999
:100BF0006420B1EAD7BCD6A149443D202578202005
:100C0000200D0A0043616E5F53656E645F4D73672C
:100C10005F5374644964203E3E53656E736F725F28
:100C2000547970655F74202564200D0A000000006F
:100C300043616E5F53656E645F4D73675F537464A9
:100C40004964203E3E56616C7565547970655F74E9
:100C5000202564200D0A00000200002043616E5F21
:100C600053656E645F4D73675F5374644964203EDF
:100C70003E2056616C75655F4144432054784D6554
:100C800073736167652E446174615B315D3D766F9E
:100C90006C5F4C202564200D0A00000043616E5FEC
:100CA00053656E645F4D73675F5374644964203E9F
:100CB0003E2056616C75655F4144432054784D6514
:100CC00073736167652E446174615B325D3D766F5D
:100CD0006C5F4C202564200D0A00000000000020FD
:100CE0000C0000200800002043616E5F53656E64B5
:100CF0005F4D73675F5374644964203E3E205661C4
:100D00006C75655F4932432054784D657373616734
:100D1000652E446174615B315D3D766F6C5F4C2084
:100D20002564200D0A00000043616E5F53656E6408
:100D30005F4D73675F5374644964203E3E20566183
:100D40006C75655F4932432054784D6573736167F4
:100D5000652E446174615B325D3D766F6C5F4C2043
:100D60002564200D0A0000002400002088000020D7
:100D700043616E2073656E642064617461206572E6
:100D8000726F720D0A00000043616E2073656E641D
:100D9000206461746120737563636573730D0A0069
:100DA0007047002104E000BF00BF00BF00BF491C26
:100DB0008142F8D3704700B585B000210290012030
:100DC00004910091039004A9684600F039FF05B032
:100DD00000BD000006490020C8610648016941F0D5
:100DE00004010161016941F04001016170470000A7
:100DF000700B002000200240064A0021D161064904
:100E00000A6942F002020A614861086940F0400044
:100E100008617047700B002000200240044B002244
:100E2000DA61044A136943F00103136101807047DA
:100E3000700B00200020024014480022C168CB063D
:100E4000134904D5CA6942F00202CA611022C3687C
:100E50005B0705D5CB6943F00103CB6142F0040287
:100E6000C369DB0707D0CB6943F00403CB61C169D9
:100E700021F00101C161A2F58071013901D0C26088
:100E80007047C16921F00101C16170470020024033
:100E9000700B002070B5054601F08AF80646114C2B
:100EA00009E0681C07D025B101F082F8801BA84238
:100EB00001D9032070BDE068C007F2D1E068800668
:100EC00001D52020E060E068C00605D4E069C007D5
:100ED00002D1E068400703D5FFF7AEFF012070BDE7
:100EE000002070BD0020024013B5012201A902F0CC
:100EF000E1FD1CBD10B50A4800F0EAF90A210848D6
:100F000000F04EF9064800F08BF880B24FF4A5715E
:100F10004843040B024800F03BFA204610BD000095
:100F200058000020F8B50024009490F824202546AD
:100F3000012A12D0012280F824204A681F23072AA0
:100F40000DD20668776B521E02EB820293409F43DC
:100F50000B6893401F43776319E00220F8BD0668D1
:100F60000D2A0AD2376BD21F02EB820293409F43B5
:100F70000B6893401F43376309E0F76A0D3A02EBB1
:100F8000820293409F430B6893401F43F7620A68B5
:100F9000072306680A2A0AD3F7680A3A02EB4202D4
:100FA00093409F438B6893401F43F76008E0376985
:100FB00002EB420293409F438B6893401F4337618B
:100FC0000A68102A01D0112A20D1124B02689A42D5
:100FD00017D193681B0219D4936843F400039360FC
:100FE0000968102912D10C490C4A0968B1FBF2F1C9
:100FF00001EB8101490000E0491E00910029FBD16D
:1010000004E0816A41F020018162012480F82450CB
:101010002046F8BD002401405000002040420F004F
:101020000068C06C704700002DE9F04104004FF0EB
:1010300000057FD0A06A002628B9E66284F8246003
:10104000204600F081F82046FFF7B0FCA16AC906EF
:1010500000D420B1A06A40F01000A0626AE0A16A4A
:1010600021F4885141F00201A162334923688B4287
:10107000E16904D1B1F5402F01D14FF40021277B64
:101080004FF4807C41EA470261680A43A1686145E8
:1010900008D0012906D0002194F814E0BEF1010F18
:1010A00002D00AE06146F7E7C7B1A76A47F0200718
:1010B000A762E76A47F00107E7625F6827F46947BC
:1010C0000F435F60236899681C4F39401143996052
:1010D000A16861450BD0012909D00CE0DFF860E080
:1010E000A7690EEB47370F4347F40061E5E7218A14
:1010F0000D05A5F580152168CB6A23F470032B43F9
:10110000CB62216889680F4B1940914208D1E66291
:10111000A16A21F0020141F00101A162BDE8F08164
:10112000A06A20F0020040F01000A062E06A40F0E7
:101130000100E0620120F1E7003C0140FDF7E1FF22
:1011400000E0FFFFFE0E1FFF00B585B000210091FB
:1011500001910291039100680E49884218D10E480E
:10116000816941F400718161816901F40071049128
:10117000816941F0040181618069694600F00400E1
:1011800004900120009003200190044800F00AFE22
:1011900005B000BD002401400010024000080140DD
:1011A0002DE9F84300260D460446009600F000FFA6
:1011B000804620688168C90508D5A06A40F02000F3
:1011C000A06284F824600120BDE8F8834168C90565
:1011D00003D4C06A10F4700F26D0022000F086FFFE
:1011E00038490968B1FBF0F72068036936490B42BA
:1011F0004FEA61014FEAA1121BD1C3684FEA611C9B
:1012000013EA0C0F15D103690B4221D1C0681042BB
:101210001ED114201FE0681C06D045B300F0C8FEA4
:10122000A0EB0800A84222D8206800688007F2D509
:101230002AE003690B4202D1C168114206D002695B
:1012400022490A4206D1C068084203D1542002E074
:10125000292000E0FC204743009813E0681C0ED0D2
:101260002DB100F0A5FEA0EB0800A84207D9A06AA6
:1012700040F00400A06284F824600320A4E70098F2
:10128000401C0090B842E9D321686FF0120008605A
:10129000A06A40F40070A06220688068C0F34240F9
:1012A00007280CD1207B50B9A06A20F48070A0627E
:1012B000A06AC00403D4A06A40F00100A06200202C
:1012C00082E7000050000020244992244992240023
:1012D00070B5044690F8240001280DD0012084F850
:1012E00024002046FFF788FB02004FF0000005D0E5
:1012F00084F82400104670BD022070BDA16A40F23F
:101300000123994341F48071A1621F4D23681F4955
:10131000AB4218D10E6816F4702F14D0A66A46F4AA
:101320008016A6620E68760505D5A66A26F40056D4
:1013300046F48056A662A66AF6040AD5E66A26F046
:101340000606E66206E0A66A26F48016A6625E68D5
:10135000E9E7E06284F824006FF00200186020687A
:101360008368C3F34243072B05D1A84208D109681B
:1013700011F4702F04D0816841F480118160B9E7C5
:10138000816841F4A001F9E70028014004240140EC
:1013900010B5044690F82400012807D0012084F8F5
:1013A00024002046FFF702FB10B107E0022010BD29
:1013B000A16A21F4885141F00101A162002184F861
:1013C000241010BD90F82020012A07D0022A05D051
:1013D000416A41F4802141620120704700684269FE
:1013E0000A43426100207047F0B590F8205004682D
:1013F000A468012D05D0022D03D0416A41F480215B
:1014000053E014F0406F01D1E5004BD5C4F3016403
:10141000022C03D9416A41F4000146E00125A540B0
:101420001D608D684FF4C0739DB1CE6835434E6822
:1014300045EAC605066803EB0417F5514FF4C2757B
:10144000076805EB04150E697E51097D012905D059
:1014500009E00E88CD6845EA4655EBE701684E592C
:1014600046F480764E511179D2F805504FF4C67685
:1014700041EA0525016806EB04168D511178D2F872
:1014800001204FF4C47541EA0221026805EB0415FE
:101490005151006803EB0411425842F001024250DE
:1014A0000020F0BD416A41F4001141620120F0BD0D
:1014B00010B590F820300268012B07D0022B05D020
:1014C000416A41F480214162012010BDD2F800023E
:1014D00040F00100C2F80002087D00F01F03012067
:1014E0009840D2F81C328343C2F81C32CB69B3B99E
:1014F000D2F80C328343C2F80C328C894B6864F307
:101500001F434C6902EBC404C4F840320C890B68D9
:1015100064F31F434C6902EBC404C4F84432CB6942
:10152000012B16D1D2F80C320343C2F80C320C88CE
:101530004B6864F31F434C6902EBC404C4F84032A7
:101540000C89CB6864F31F434C6902EBC404C4F8F4
:1015500044328B69002BD2F804320FD053EA0003D7
:10156000C2F804320B69002BD2F8143208D00343BE
:10157000C2F81432096A012904D008E08343EFE776
:101580008343F5E7D2F81C120143C2F81C12D2F8CB
:10159000000220F00100C2F80002002010BD7047D8
:1015A00030B590F82040012C05D0022C03D0416AC0
:1015B00041F480215DE00468002955D02469A40726
:1015C00054D04FF4D874056804EB01142D5915F06C
:1015D0000405956005682D594ED0ED0855600568E5
:1015E0002C5904F00204D4604FF4DA74056804EB5B
:1015F00001142D5905F00F05156105682D59C5F326
:101600000725956105682C59240C54614FF4DC7250
:10161000046802EB0112A4581C700468A458240A40
:101620005C700468A458240C9C700468A258120EC4
:10163000DA704FF4DE72046802EB0112A4581C71D8
:101640000468A458240A5C710468A458240C9C7192
:101650000468A258120EDA71006881B1016941F084
:1016600020010161002030BDE468A8E7416A41F42F
:1016700000114162012030BD6D0D1560AFE7C168FA
:1016800041F02001C160EDE72DE9F05F05460068FB
:1016900000244669D0F804908768D0F80CB0D0F8E0
:1016A00010A0D0F81880F10748D0F90714D0012114
:1016B0008160B80703D5284600F011FA0CE07807DE
:1016C00002D54FF4006407E0380702D54FF4805488
:1016D00002E0284600F002FAF80516D529684FF412
:1016E00080708860B80503D5284600F0FAF90CE050
:1016F000780502D544F4005407E0380502D544F4D7
:10170000804402E0284600F0EBF9F80316D529687A
:101710004FF480308860B80303D5284600F0E3F921
:101720000CE0780302D544F4004407E0380302D506
:1017300044F4803402E0284600F0D4F9300707D59D
:101740005FEACB6004D52968102044F40074C860B7
:1017500070074FF0080707D55FEA0B7004D52868BB
:10176000C760284600F05AF9B00706D52868C06857
:10177000800702D0284600F053F9700607D55FEACB
:10178000CA6004D52968102044F480640861B0065A
:1017900007D55FEA0A7004D528680761284600F07B
:1017A0006DF9F00606D528680069800702D0284642
:1017B00000F065F9B00308D55FEAC96005D529686E
:1017C00010204860284600F05BF9F00307D55FEA77
:1017D000097004D528684760284600F085F9300470
:1017E00046D55FEA497040D5F00504D55FEAC87078
:1017F00001D044F00104B00504D55FEA887001D53A
:1018000044F00204700504D55FEA487001D544F045
:101810000404300529D518F0700F26D008F07000A8
:10182000402815D006DC102809D020280AD03028FE
:1018300016D10AE050280ED0602811D10EE044F0F5
:1018400008040DE044F010040AE044F0200407E02E
:1018500044F0400404E044F0800401E044F4807467
:101860002868816921F0700181612968042048603D
:10187000002C05D0686A204368622846FFF78FFE77
:10188000BDE8F09F70B5040003D094F8200010B1BB
:1018900004E0012070BD204600F082F82068016855
:1018A00021F00201016000F083FB0546052604E0FB
:1018B00000F07EFB401B0A2811D820684068800792
:1018C000F6D42068016841F00101016000F070FB6E
:1018D00005460BE000F06CFB401B0A2806D9606A45
:1018E00040F40030606284F82060D2E720684068ED
:1018F000C007EFD0207E0128206801683DD021F08C
:1019000080010160607E01282068016838D021F0E4
:1019100040010160A07E01282068016833D021F0D9
:1019200020010160E07E0128206801682ED041F08E
:1019300010010160207F01282068016829D021F072
:1019400008010160607F01282068016824D021F02F
:1019500004010160D4E902010843D4E904121143EF
:1019600008436168491E08432168C861002060621D
:10197000012084F82000002070BD41F08001C0E704
:1019800041F04001C5E741F02001CAE721F0100114
:10199000CFE741F00801D4E741F00401D9E70000A6
:1019A00010B586B000210091019102910391006869
:1019B000174988422AD11748C16941F00071C161B5
:1019C000C16901F000710491816941F004018161F4
:1019D0008069114C00F0040004904FF40060009006
:1019E0006946204600F0DEF9A01400900220019024
:1019F000032003906946204600F0D4F900221146E6
:101A0000142000F041FB142000F030FB06B010BDA4
:101A100000640040001002400008014070470000D0
:101A200070B58AB00021089109910191029103914A
:101A300008AB01AA0591FFF7B3FD002812D10024DD
:101A400008AD094E05E0295D315508A002F0D8FA2D
:101A5000641C0598A042F6D806A002F0D1FA064907
:101A6000012008700AB070BD1100002025303258E6
:101A7000200000000D0A0000100000207047704791
:101A80007047000070B5044690F82000012804D08B
:101A9000606A40F40020606218E0022084F82000B0
:101AA0002068016821F00101016000F081FA05461B
:101AB0000EE000BF00F07CFA401B0A2808D9606ADB
:101AC00040F400306062052084F82000012070BDE1
:101AD00020684068C007EDD1606270BD70477047F4
:101AE0007047704770477047704700002DE9F05FFE
:101AF00090F821100024022903D0042181630124DD
:101B000085E001680A6822F00E020A6001680A682E
:101B100022F001020A603F4E3E4FB215DFF8F4C0DA
:101B2000DFF8F090DFF8ECA0DFF8E8B0DFF8E4E0F1
:101B30000168783F13011502ACF1640CA9F150095A
:101B4000AAF13C0AABF1280BAEF1140E4FF4801849
:101B5000B14227D9B9420ED0614512D049451DD0B6
:101B6000514518D0594518D0714501D1424615E06C
:101B7000294EB14201D1012210E0274E1436B14264
:101B800001D110220AE0244E2836B14206D0224A62
:101B90003C32914201D11A4600E02A461E49091FF3
:101BA0000A602BE0B94213D0614517D0494522D0D5
:101BB00051451DD059451DD0714501D142461AE00D
:101BC000B14202D14FF0807215E0134EB14201D103
:101BD000012210E0104E1436B14201D110220AE069
:101BE0000D4E2836B14206D00B4A3C32914201D10B
:101BF0001A4600E02A46074980394A60012180F8E8
:101C00002110002180F82010416B01B18847204647
:101C1000BDE8F09F800002400804024070B5044611
:101C200000F0C6F90546601C02D004480078044460
:101C300000F0BEF9401BA042FAD370BD4400002062
:101C40002DE9F047054626480F460126017E012969
:101C50000FD00121814601762868DFF888804CF298
:101C60005034022808D0A2462046FFF713F9A8B145
:101C700031E00220BDE8F0872046FFF70BF908BBF2
:101C80000120FFF7A7F82046FFF704F9D8F8101055
:101C9000064621F00401C8F810101CE04FF0FF3098
:101CA0003860AC6811E02046FFF7A6F85046FFF711
:101CB000F1F8D8F81010060021F00201C8F8101051
:101CC00001D03C6007E004F50064D5E9020100EBB7
:101CD000C120A042E7D8002189F818103046C9E792
:101CE000700B0020002002400348016941F0800190
:101CF0000161002070470000002002402DE9F05FE4
:101D000007461C4888460024017E15461E460129C8
:101D100009D00121814601764CF2503A5046FFF736
:101D2000B9F818B122E00220BDE8F09F012F02D0DF
:101D3000022F00D00427D346DFF83CA0220128461A
:101D40003146FEF711FA81B208EB4400FFF766F85E
:101D50005846FFF79FF8DAF8102022F00102CAF87F
:101D6000102018B9641CE4B2BC42E7D3002289F801
:101D70001820D9E7700B00200020024006490020FF
:101D80000A69120607D5054A4A60054A4A60096988
:101D9000090600D501207047002002402301674555
:101DA000AB89EFCD2DE9F84FDFF8C891002409F198
:101DB000040A0AF1040B23460F270BF1040ED1E0AD
:101DC0000125A54006EA0502AA4276D1DFF8A8C19E
:101DD0004E68A6EB0C0866452BD00DDC032E34D0E4
:101DE00005DC36B3012E19D0022E2FD11BE0112EA7
:101DF00016D0122E2AD119E0B8F5881F19D006DCAA
:101E0000B8F5803F15D0B8F5801F1FD111E0B8F5A7
:101E1000001F0ED0B8F5041F18D10AE0CB6815E0FA
:101E2000CB681B1D12E0CB6808330FE0CB680C3386
:101E30000CE08B682BB1012B4FF0080303D04561F8
:101E400004E0042302E0056100E00023FF2A01D83A
:101E5000064601E000F104064FEA840501D9A5F128
:101E60002005D6F8008007FA05FC28EA0C0803FADA
:101E700005F548EA0508C6F800804D68ED0070D504
:101E80003E4DAE6946F00106AE61AD6924F0030631
:101E900005F0010500953A4D06EB050CDCF80850FD
:101EA000A607360F07FA06F825EA0805DFF8D480FA
:101EB000404503D14FF0000825E052E0DFF8C8802C
:101EC000404502D14FF001081DE0DFF8C0804045D9
:101ED00002D14FF0020816E0DFF8B480404502D18D
:101EE0004FF003080FE0DFF8AC80404502D14FF01F
:101EF000040808E0DFF8A080404502D14FF0050853
:101F000001E04FF0060808FA06F848EA0508CCF8A0
:101F100008804D68D9F80060ED034D4601D51643A1
:101F200000E096432E604D68DAF80060AD03554638
:101F300001D5164300E096432E604D68DBF8006043
:101F4000ED025D4601D5164300E096432E604D68D4
:101F5000DEF80060AD02754601D5164300E09643F9
:101F60002E60641C0A681646E2407FF429AFBDE883
:101F7000F88F000000040140000011100010024022
:101F80000000014000080140000C01400010014029
:101F90000014014000180140001C01408068084006
:101FA00000D0012070470AB1016170470904FBE7C6
:101FB00001488068704700004400002002488168A2
:101FC000027811448160704744000020074810B532
:101FD000016841F010010160032000F075F8002055
:101FE00000F006F800F024F8002010BD00200240A8
:101FF00070B50D4D04464FF47A712878B1FBF0F0BE
:102000000A490968B1FBF0F000F0CCFB48B9102C8C
:1020100007D200222146501E00F036F800206C60E6
:1020200070BD012070BD0000440000205000002061
:102030000C4808B5816941F001018161816901F0B5
:1020400001010091C16941F08051C161C06900F096
:10205000805000900448416821F0E06141F0007137
:10206000416008BD0010024000000140002809DB6B
:1020700000F01F02012191404009800000F1E020A2
:10208000C0F8001170470000F0B40E4B1B680C46FE
:10209000C3F30223C3F10705042D00D90425191D3C
:1020A000072901D2002300E0DB1E012606FA05F114
:1020B000491E214099409E40761E16403143F0BC97
:1020C00001F0AEBF0CED00E0064900F00702086821
:1020D0004FF6FF03184040EA0220034A104308600D
:1020E000704700000CED00E00000FA0510B52CA4CC
:1020F00001461DCC86B08DE81D002DA02D4C00683A
:102100000490002004292FD00BDC01292FD00229B4
:1021100028D100F071F96168C1F38131491C49008F
:102120001EE0082920D010291CD161682268D20144
:1021300018D5C1F38342C9031DF8020009D56168AF
:1021400004AAC1F34041515C1B4AB2FBF1F1484380
:1021500001E01A4948436168490203D44000032161
:10216000B0FBF1F006B010BD00F056F9FAE7226AB4
:10217000C2F30121012903D1920701D5C803F1E778
:10218000022905D1626A920702D549F64040E9E783
:102190000329E7D121688903E4D54FF22440E1E720
:1021A00002030405060708090A0B0C0D0E0F101098
:1021B000010200000010024000127A0000093D00F8
:1021C0002DE9F84305460078354CC00754D0E06946
:1021D0000026C00008D4E06940F08050E061E0696A
:1021E000012600F0805000902E480168C90512D4E5
:1021F0000168804641F480710160FFF7D9FE07460F
:1022000005E000BFFFF7D4FEC01B642823D8D8F830
:102210000000C005F6D5206A10F4407021D0A988CE
:1022200001F4407181421CD0206A1F49012220F430
:1022300040700A6000220A602062C00711D0FFF7D8
:10224000B7FE074641F2883808E000BFFFF7B0FE4E
:10225000C11B414502D90320BDE8F883206A8007ED
:10226000F4D5206A696820F44070084320621EB1EA
:10227000E06920F08050E0612878800705D560682B
:10228000A96820F44040084360602878C00605D55E
:102290006068696920F48000084360600020DBE723
:1022A0000010024000700040400442422DE9F04717
:1022B0000F46050061D0434E306800F00700B84279
:1022C00009D2306820F0070038433060306800F0F1
:1022D0000700B84251D128683B4C810712D540070E
:1022E00003D5606840F4E06060602878000703D59B
:1022F000606840F4605060606068A96820F0F00099
:10230000084360602878C00728D06868012810D08A
:102310002168022810D0890700292EDA616821F08F
:10232000030101436160FFF743FE804641F28839B3
:102330000DE021688903EFE78901EDE7FFF738FE3B
:10234000A0EB0801494502D90320BDE8F087606889
:10235000696800F00C00B0EB810FEFD1306800F03D
:102360000700B8420BD9306820F0070038433060CE
:10237000306800F00700B84201D00120E5E7287876
:10238000400705D56068E96820F4E06008436060B4
:102390002878000706D56068296920F4605040EA73
:1023A000C100606000F038F86168084AC1F30311A9
:1023B000515CC8400649086006480068FFF718FEEF
:1023C0000020C2E70020024000100240484F0008F1
:1023D0005000002048000020044805490068496872
:1023E000044AC1F30221515CC840704750000020EC
:1023F00000100240584F0008044805490068496829
:10240000044AC1F3C221515CC8407047500000200B
:1024100000100240584F000812A185B00FC98DE886
:102420000F0014A0144A006804905168134801F08A
:102430000C03042B10D0082B0ED1C1F38343C90326
:102440001DF803000AD5516804AAC1F34041515C4C
:102450000A4A5043B0FBF1F005B0704708494843C1
:10246000FAE7000002030405060708090A0B0C0D31
:102470000E0F1010010200000010024000127A003E
:1024800000093D002DE9F84F040070D02078C04DC0
:10249000C00749D06868C0F38100012807D0686888
:1024A000C0F38100022809D16868C00306D52868F6
:1024B000800339D560680028E7D035E06068B0F562
:1024C000803F0BD010B1B0F5A02F11D0286820F4B8
:1024D00080302860286820F4802002E0286840F4DA
:1024E00080302860606890B1FFF762FD06460AE020
:1024F000286840F480202860F0E700BFFFF758FD0F
:10250000801B642873D828688003F7D50CE0FFF798
:102510004FFD064605E000BFFFF74AFD801B64281B
:10252000F0D828688003F7D420789A4E80074FF0BF
:1025300001094FF0000839D5686810F00C0F07D07A
:102540006868C0F38100022809D16868C00306D416
:102550002868800714D52069012808D110E0206977
:10256000B0B1C6F80090FFF723FD074605E00AE189
:10257000FFF71EFDC01B0228C4D828688007F7D5C6
:102580002868616920F0F80040EAC10028600DE089
:10259000C6F80080FFF70CFD074604E0FFF708FDD2
:1025A000C01B022823D828688007F7D420780007AA
:1025B0002CD57948A169D9B1C0F80090FFF7F8FC93
:1025C000074604E0FFF7F4FCC01B02280FD8686A36
:1025D0008007F7D571484FF4FA510068B0FBF1F06D
:1025E000009000BF0098411E0091FAD20EE080E0FA
:1025F000C0F80080FFF7DCFC074604E0FFF7D8FCDA
:10260000C01B022875D8686A8007F7D42078400775
:1026100060D5E8690027C00008D4E86940F0805020
:10262000E861E869012700F0805000905C4801688B
:10263000C90513D40168834641F480710160FFF736
:10264000B7FC824606E000BFFFF7B2FCA0EB0A0031
:1026500064284ED8DBF80000C005F5D5E0680128F5
:102660000AD008B1052813D0286A20F0010028629A
:10267000286A20F0040002E0286A40F00100286285
:10268000E06841F2883B98B1FFF792FC82460BE08C
:10269000286A40F004002862EEE700BFFFF788FCDC
:1026A000A0EB0A0159455AD8286A8007F6D50CE0F4
:1026B000FFF77EFC824605E0FFF77AFCA0EB0A01FB
:1026C00059454CD8286A8007F6D41FB1E86920F034
:1026D0008050E861E06988B36968C1F3810102292B
:1026E00044D00228C6F8608004D0FFF761FC04469D
:1026F00038E034E0FFF75CFC074604E0FFF758FCE5
:10270000C01B02282BD828688001F7D4206AB0F5B6
:10271000803F05D16868A16820F4003008436860F4
:10272000D4E908010843696821F47411084368601A
:10273000C6F86090FFF73CFC044606E025E000BFC9
:10274000FFF736FC001B022809D828688001F7D55E
:102750001BE000BFFFF72CFC001B022802D903205E
:10276000BDE8F88F28688001F4D40EE00128F7D086
:102770006868226A00F48031914204D1616A00F4F1
:102780007010884201D00120EAE70020E8E700004D
:1027900000100240000042428004424250000020EB
:1027A0000070004010B5401EB0F1807F01D30120C1
:1027B00010BD4FF0E02460610F21601701F030FC84
:1027C0000020A06107202061002010BD70477047E5
:1027D00070B590F83C20012A19D0012400F83C4F34
:1027E0000222427050F83C3C5A689D6822F0700604
:1027F0000A684968324325F0800529435A6050F839
:102800003C2C9160447000210170084670BD02208C
:1028100070BD10B5040003D094F83D0010B107E07E
:10282000012010BD002084F83C00204600F00CF888
:10283000022084F83D00211D206801F019FA0120D2
:1028400084F83D00002010BD08B50068B0F1804F4D
:1028500012D10A48C16941F00101C161C069002279
:1028600000F00100009011461C20FFF70DFCBDE8B0
:1028700008401C20FFF7FABB08BD00000010024012
:1028800070B5044690F83C00012817D0012584F863
:102890003C50022084F83D002068826822F07702D4
:1028A00022F47F4282600868502830D00DDC202856
:1028B0004DD005DC98B310283BD148E0022070BD14
:1028C000302844D0402834D139E0602828D07028FE
:1028D00006D0B0F5805F2CD0B0F5005F29D10AE0BA
:1028E000CB68D1E90121206801F008FA20688168ED
:1028F00041F0770109E0CB68D1E90121206801F0BE
:10290000FDF92068816841F48041816011E0CA6866
:102910004968206801F004FA5021206807E016E0B9
:10292000CA684968206801F00CFA6021206801F04B
:10293000EFF984F83D50002084F83C0070BDCA686F
:102940004968206801F0ECF940212068EFE722682F
:1029500001461046EBE7704770B504460068016910
:102960004FF00005C943890715D4C168C9438907D9
:1029700011D4E91E01610120207720688069800759
:10298000204602D0FFF7E7FF04E000F098F8204669
:1029900000F096F8257720680169C943490717D4E4
:1029A000C168C943490713D46FF0040101610220D3
:1029B00020772068806910F4407F204602D0FFF71E
:1029C000CAFF04E000F07BF8204600F079F8257794
:1029D00020680169C943090716D4C168C9430907BA
:1029E00012D46FF008010161042020772068C069CB
:1029F0008007204602D0FFF7AEFF04E000F05FF84A
:102A0000204600F05DF8257720680169C943C906B2
:102A100017D4C168C943C90613D46FF0100101610E
:102A2000082020772068C06910F4407F204602D03B
:102A3000FFF791FF04E000F042F8204600F040F874
:102A4000257720680169C943C90708D1C168C9430E
:102A5000C90704D1891E0161204600F032F82068C0
:102A60000169C943090609D4C168C943090605D4E7
:102A70006FF0800101612046FFF7A8FE2068016920
:102A8000C943490609D4C168C943490605D46FF052
:102A900040010161204600F015F820680169C94332
:102AA00089060BD4C168C943890607D46FF0200199
:102AB00001612046BDE87040FFF789BE70BD7047D8
:102AC000704770477047000010B5C16B04460BA0FB
:102AD00001F096FA0020E0630C48844203D1012201
:102AE0000B4900F03FF909484030844205D1BDE868
:102AF00010400122074900F035B910BD554152542C
:102B0000204572726F723A25780D0A00F00000209D
:102B10002A0000203600002070B5026804461068C4
:102B2000D168536910F00F0F50D003F0010501F484
:102B3000907635435DD0C20705D0CA0503D5E26B58
:102B400042F00102E263420705D5DA0703D0E26BE7
:102B500042F00202E263820705D5DA0703D0E26B96
:102B600042F00402E263020705D5DA0703D0E26B04
:102B700042F00802E263E26B002A33D0800604D5FB
:102B8000880602D5204601F004F920684069E16B0F
:102B9000C0F38010090700D428B3204601F0EBF8F9
:102BA0002068416949061AD5416921F04001416117
:102BB000606BA0B11B494163606BFEF797FF002873
:102BC00010D0606B416BBDE870400847830610D59C
:102BD0008B060ED52046BDE8704001F0DAB82046DD
:102BE000FFF772FF70BD2046FFF76EFF0020E06325
:102BF00070BD030606D50B0604D52046BDE870401F
:102C000001F06EB94006F3D54806F1D5D1682046EB
:102C100021F04001D160202184F8391000F04FF9F3
:102C200070BD0000673D000870B5040004D094F842
:102C30003900002510B106E0012070BD84F838503D
:102C4000204600F023F8242084F839002068C16869
:102C500021F40051C160204601F0E6F820680169C6
:102C600021F4904101612068416921F02A0141610C
:102C70002068C16841F40051C160E563202084F8F8
:102C8000390084F83A00002070BD000070B586B0AD
:102C9000002400940194029403942E4E03682E495C
:102CA000022003222D4DB34226D18B6943F4804389
:102CB0008B618B6903F4804304938B6943F00403B5
:102CC0008B618969039201F0040104910102CDE94D
:102CD000001069462846FFF765F82815CDE900047D
:102CE000694628460294FFF75DF800221146252028
:102CF000FFF7CAF9252028E0194EB34227D1CB6946
:102D000043F40033CB61CB6903F4003304938B6944
:102D100043F004038B618969039201F0040104917B
:102D20000421CDE9001069462846FFF73BF808204A
:102D3000CDE90004694628460294FFF733F80022E3
:102D400011462620FFF7A0F92620FFF78FF906B0DD
:102D500070BD000000380140001002400008014032
:102D60000044004090F83A30202B22D1F9B1F2B162
:102D700090F83830012B1CD081628285C2850021F9
:102D8000C163222280F83A2080F838100168CA68AE
:102D900042F48072CA6001684A6942F001024A61E5
:102DA0000068C16841F02001C16000207047012027
:102DB000704702207047000010B504460E48844258
:102DC00008D10E48007801F0EFFF01220B490A48B4
:102DD000FFF7C8FF0848403084420BD1084800780C
:102DE00002F018F804480122BDE8104004494030C0
:102DF000FFF7B8BF10BD0000F00000202A0000203F
:102E0000360000202DE9F843044690F839001F46AB
:102E100016460D46202850D1A5B19EB194F8380031
:102E200001284AD0012084F838004FF00008C4F887
:102E30003C80212084F83900FFF7BAF8A684814647
:102E4000E68426E00120BDE8F883E08C401EE084A3
:102E5000A0684B46B0F5805F4FF000024FF0800154
:102E60002046009703D001F06CF8E8B90DE001F0BE
:102E700068F8C8B928882168C0F30800486020694C
:102E800008B16D1C05E0AD1C03E0216815F8010BCD
:102E90004860E08C0028D8D14B46002240212046D3
:102EA000009701F04EF808B10320CCE7202084F809
:102EB000390084F838800020C5E70220C3E7704756
:102EC000FEE7000010B586B000200090019002904F
:102ED00003900E48816941F00801816180690C4CC2
:102EE00000F0080004900122C0212046FFF75BF8A3
:102EF000C020009011200190012002900320039037
:102F000069462046FEF74EFF06B010BD0010024095
:102F1000000C01402DE9F05F8B4600210170364D19
:102F200091468046012280212846FFF73CF8012087
:102F300000F010F98026012240212846FFF733F8DF
:102F40000120FDF72EFF4C460027012000F056F827
:102F50004FF47A7A07E0641EE4B201D204270BE052
:102F60005046FDF71EFF40212846FFF717F80028BE
:102F7000F1D0002000F042F80320FDF712FF80217D
:102F80002846FFF70BF820B198F80000304388F886
:102F90000000002240212846FFF705F80120FDF738
:102FA00000FF7608C7D1002000F0D4F8BBF1000F75
:102FB0001FD0012280212846FEF7F5FF0120FDF7F2
:102FC000F0FE012240212846FEF7EDFF0520FDF727
:102FD000E8FE002240212846FEF7E5FF012280217D
:102FE0002846FEF7E0FF1420FDF7DBFE3846BDE87B
:102FF000F09F0022DEE70000000C01401FB5002119
:1030000001910291039140210091012801D01120EA
:103010000190012002900320039069460148FEF7C9
:10302000C1FE1FBD000C014010B5114C01228021D2
:103030002046FEF7B8FF0120FDF7B3FE0122402134
:103040002046FEF7B0FF0120FDF7ABFE00228021F5
:103050002046FEF7A8FF0A20FDF7A3FE002240212C
:103060002046FEF7A0FFBDE810400A20FDF799BEFC
:10307000000C014010B5114C002240212046FEF703
:1030800092FF0120FDF78DFE002280212046FEF7F1
:103090008AFF0120FDF785FE012240212046FEF730
:1030A00082FF0A20FDF77DFE012280212046FEF7E7
:1030B0007AFFBDE810400A20FDF773BE000C014006
:1030C0002DE9F0410025224E074680243C4201D1E3
:1030D000002200E0012280213046FEF764FF01203B
:1030E000FDF75FFE012240213046FEF75CFF052020
:1030F000FDF757FE002240213046FEF754FF012025
:10310000FDF74FFE6408E1D1012280213046FEF731
:103110004AFF012240213046FEF745FF0120FDF71E
:1031200040FE012000F016F880213046FEF736FF01
:1031300000B10125002240213046FEF734FF142063
:10314000FDF72FFE002000F005F82846BDE8F081CD
:10315000000C01401FB500210191029103918021D3
:103160000091012801D0112001900120029003203C
:10317000039069460148FEF715FE1FBD000C014093
:1031800000B585B0002001900948816941F0040133
:1031900081618069694600F004000490022000907B
:1031A0000120029003900348FEF7FCFD05B000BD2E
:1031B00000100240000801403EB500241048009471
:1031C00001940E49029401608915816004730475AD
:1031D000022505614FF460214460C161FDF724FFC1
:1031E0000120CDE90040694605480294FDF79AFEAA
:1031F000694603480195FDF795FE3EBD0024014058
:10320000580000200C480B494FF4A02201602821EF
:10321000416000218160C0E903124FF480124261D5
:103220000176012242768176C17601774177FEF7F9
:1032300029BB0000006400408800002010B586B063
:1032400000241248009401940294039404944FF0D3
:1032500080410594016043F67F61C0E9011440F2AA
:103260007F41C0E903148461FFF7D3FA4FF4805023
:10327000009069460548FFF703FB049404A903483E
:103280000594FFF7A5FA06B010BD0000B0000020BD
:10329000FEE770477047000010B51F4C0122402127
:1032A0002046FEF780FE0021491CC9B21429FBD339
:1032B000012280212046FEF776FE0021491CC9B27A
:1032C0001429FBD3002280212046FEF76CFE00214A
:1032D000491CC9B21429FBD3002240212046FEF725
:1032E00062FE0021491CC9B21429FBD301224021EE
:1032F0002046FEF758FE0021491CC9B21429FBD311
:10330000012280212046FEF74EFE0020401CC0B264
:103310001428FBD310BD0000000C014070B5184C00
:10332000002240212046FEF73EFE0021491CC9B282
:103330001429FBD3012280212046FEF734FE002110
:10334000491CC9B21429FBD3002501224021204683
:10335000FEF729FE0021491CC9B21429FBD3002223
:1033600040212046FEF71FFE0021491CC9B2142946
:10337000FBD36D1C092DE8DDBDE87040FFF78CBF65
:10338000000C01402DE9FC4180460024FFF784FF3A
:10339000052000F081F92C4D05E06420641CFEF747
:1033A0003DFC142C05DC80212846FEF7F7FD0028A3
:1033B000F3D100246D46012000F0F4F82855641C78
:1033C000032CF8D305208DF80400002001A92A5C05
:1033D0000B18401C5A700228F9D3032101A801F0F0
:1033E00099FA9DF80210884205D000F04DF94FF08F
:1033F000FF30BDE8FC819DF801009DF8001000EB56
:10340000012000B2FDF7CAF804460D460F4A104BE2
:10341000FDF74DF822462B46FDF749F806460F46C4
:10342000204629460B4A0C4BFDF741F80B4A0C4B42
:10343000FCF796FF32463B46FCF792FFFDF7ECF8AF
:10344000C8F800000020D4E7000C0140978357CD56
:103450009EC4BABE27C286A757CAA23F569FABAD2D
:10346000D85F00C07CB506460024FFF715FF032097
:1034700000F012F9274D05E06420641CFEF7CEFB36
:10348000142C05DC80212846FEF788FD0028F3D1A6
:1034900000246D46012000F085F82855641C032C9B
:1034A000F8D303208DF80400002001A92A5C0B1832
:1034B000401C5A700228F9D3032101A801F02AFA0E
:1034C0009DF8021088420ED000F0DEF8032101A81A
:1034D00001F020FA01469DF802200FA000F090FDB7
:1034E0004FF0FF307CBD9DF801009DF8001000EB0F
:1034F000012000B2FDF752F80D4A0E4BFCF7D7FF42
:103500000D4A0E4BFCF7CDFFFDF786F8306000202A
:103510007CBD0000000C014074656D702043524377
:10352000206572726F723A25642025640D0A0000CE
:103530007B14AE47E17A843F9A99999999D943408F
:10354000164810B5816986B041F008018161806933
:10355000134C00F008000490C0200090112001904E
:10356000012002900320039069462046FEF71AFCD2
:10357000002240212046FEF716FD0021491CC9B259
:103580001429FBD3012280212046FEF70CFD0020E8
:10359000401CC0B21428FBD306B010BD001002407E
:1035A000000C01402DE9F041364D0746002422462B
:1035B00040212846FEF7F7FC0020401CC0B214282A
:1035C000FBD30026012240212846FEF7ECFC002018
:1035D000401CC0B21428FBD380212846FEF7DEFC35
:1035E000610640EA1164002240212846FEF7DBFC18
:1035F0000020401CC0B21428FBD3761C072EE1DD4E
:10360000012280212846FEF7CEFC0020401CC0B2DB
:103610001428FBD357B1002280212846FEF7C3FCB3
:103620000020401CC0B21428FBD309E001228021F5
:103630002846FEF7B8FC0020401CC0B21428FBD37B
:10364000012240212846FEF7AEFC0020401CC0B2FB
:103650001428FBD3002240212846FEF7A4FC0020BA
:10366000401CC0B21428FBD3012280212846FEF75B
:103670009AFC0020401CC0B21428FBD32046BDE8B1
:10368000F0810000000C014010B5FFF747FEBDE8D7
:1036900010401E20AFF300802DE9F041344D074665
:1036A000002240212846FEF77EFC0020401CC0B2CC
:1036B0001428FBD30724012606FA04F038420AD066
:1036C000012280212846FEF76EFC0020401CC0B27B
:1036D0001428FBD309E0002280212846FEF763FC72
:1036E0000020401CC0B21428FBD3012240212846F0
:1036F000FEF759FC0020401CC0B21428FBD3002266
:1037000040212846FEF74FFC0020401CC0B2142880
:10371000FBD3641ED0D5012240212846FEF743FC8E
:103720000020401CC0B21428FBD380212846FEF79D
:1037300035FC00284FF000024FF0400128460ED023
:10374000FEF731FC0020401CC0B21428FBD33946E0
:1037500008A000F055FC4FF0FF30BDE8F081FEF707
:1037600022FC0020401CC0B21428FBD30020F4E748
:10377000000C014041434B204E47207768656E2086
:1037800077726974652025780D0A000070B50446CB
:10379000FF20002240F231150FE0A35C58400823BF
:1037A000060602D585EA400000E040005B1EC0B27C
:1037B00013F0FF03F4D1521CD2B28A42EDD370BD94
:1037C00010B5FCF7E6FE0449FCF75AFDBDE81040D1
:1037D0000249FCF787BD00000000C84200FF7F4798
:1037E00010B5FCF7D6FE0549FCF74AFD0449FCF785
:1037F00079FDBDE810400349FCF73CBD00002F43B4
:1038000000FF7F470000344230B4029C23B1012BFB
:1038100006D030BC80207047234630BC00F004B88E
:10382000234630BC00F040B82DE9FC4198461546CF
:103830000E46074600F0EEF8040025D16DB1012DCB
:1038400008D0022D03D08024FFF714FC29E042F6B3
:10385000104004E042F60D4001E042F6064000F060
:10386000E7F8040010D100F0C5F804000CD142467E
:103870000021684600F086F8040005D100220121ED
:1038800001A800F07FF80446FFF7F4FB4CB9BDF83F
:103890000000FFF7A5FF3860BDF80400FFF790FFB8
:1038A00030602046BDE8FC812DE9FC411D461746ED
:1038B0008846064600F0AEF8040034D15FB1012F0F
:1038C00006D0022F01D080242DE042F2164004E001
:1038D00042F20B4001E04FF4105000F0A9F8040050
:1038E00008D020E000F086F8040008D03846FDF744
:1038F00058FA01E04FF47A776D1EEDB2F2D20DB1B5
:1039000024B110E00424FFF7B5FB1AE000221146B1
:10391000684600F037F805460022012101A800F0B2
:1039200031F840EA0504FFF7A5FB54B9BDF80000E3
:10393000FFF756FF3060BDF80400FFF741FFC8F8FD
:1039400000002046BDE8FC8110B50448FDF729FAC7
:10395000BDE810404CF25030FDF723BAA0860100BC
:1039600038B50446FFF7AEFA0548047000F02FF8AA
:103970004CF25030FDF715FA684600F064F838BD97
:10398000400000207CB50D46044600216846FFF744
:10399000C1FAB8B9002211460DF10100FFF7BAFAD9
:1039A00080B90022294601A8FFF7B4FA50B9684649
:1039B00002219DF80450FFF7E9FEA84201D0022041
:1039C00000E00020BDF8001049BA21807CBD10B590
:1039D00000F020F8044643F2A20000F029F8044366
:1039E000FFF748FB1CB94CF25030FDF7DAF92046DE
:1039F00010BD000010B5FFF717FB05480121007846
:103A0000BDE8104001EB4000C0B2FFF759BB000019
:103A10004000002010B5FFF707FB04480078BDE820
:103A200010404006000EFFF74BBB00004000002096
:103A300070B50446000AFFF743FB0546E0B2FFF706
:103A40003FFB284370BDF8B50546FFF7E3FF064688
:103A50004FF45E50FFF7ECFF50EA060411D1FFF778
:103A6000C9FF04000DD1642200216846FFF78AFFD8
:103A7000040006D1002201210DF10200FFF782FFB0
:103A80000446FFF7F7FA1CB900984FEA3040286067
:103A90002046F8BD10B5002306E000BF30F8024B09
:103AA00021F813405B1C9BB29342F7D310BD0088F2
:103AB000704700002DE9F05FA0F1006415468A46CA
:103AC0008346B4F5802F52D2FEF758F9E70AC4F3C3
:103AD0004906C6F58064A54200D82C46DFF89490CC
:103AE0004FF0006000EBC72080464FF48062214910
:103AF000FFF7D0FF00204FF6FF7106E0331839F8CA
:103B000013208A4203D1401C80B2A042F6D3A042C7
:103B100025D24046FDF74FF90020494607E000BF97
:103B20003AF810208319401C21F8132080B2A042DB
:103B3000F6D3104940464FF4806200BF00F01CF8F5
:103B4000A54210D0281B0AEB440AA344002685B2E4
:103B50004FF480647F1CA542C2D82C46C0E72246A1
:103B600051465846EAE7BDE8F05FFEF7BDB8BDE84C
:103B7000F09F0000700100202DE9F04116460F462D
:103B8000054600240AE000BF37F814200023294628
:103B90000120FEF7B3F8641CA4B2AD1CB442F3D309
:103BA000BDE8F0817047000002210148FEF7F6B938
:103BB00000080140FEF702BA30B595B028216846EA
:103BC000FCF7FBFA14210AA8FCF7F7FA18210FA852
:103BD000FCF7F3FA01210804CDE900100024029457
:103BE00002250491CDE907504FF4E0100990684692
:103BF000FEF748FC0F20CDE90A056802CDE90C402C
:103C000002210AA80E94FEF751FBA80311900F950C
:103C10000FA8FEF7D5FA15B030BD00000D480168B9
:103C200041F00101016041680B4A114041600168A7
:103C30000A4A11400160016821F480210160416855
:103C400021F4FE0141604FF41F0181600449C0036B
:103C500008607047001002400000FFF8FFFFF6FE0A
:103C600008ED00E00148FEF777BE0000B00000203C
:103C7000F0B502681C4B1D4D1D4E1E4F1E4C4FF0E3
:103C8000804C984209D0A04207D0604505D0A84298
:103C900003D0B04201D0B84204D122F0700E4A687D
:103CA00042EA0E02984209D0A04207D0604505D0F2
:103CB000A84203D0B04201D0B84203D122F44075EB
:103CC000CA682A434D6922F080022A4302608A684A
:103CD000C2620A688262984201D0A04201D1096999
:103CE000016301214161F0BD002C0140000400404E
:103CF00000080040000C00400034014010B584680A
:103D000042EA032224F47F440A432243826010BD26
:103D1000826822F070020A4342F007018160704716
:103D200010B5036A046A24F001040462846924F073
:103D3000F00444EA021423F00A020A438461026296
:103D400010BD10B5036A23F0100303628369046A8F
:103D500023F4704343EA023224F0A00343EA011142
:103D60008261016210BD10B5406A0021C185C18425
:103D7000FEF7AAFE10BD0168CA6822F49072CA60FC
:103D800001684A6922F001024A61202180F83A1054
:103D9000704710B590F83A10222901D0022010BDCA
:103DA0008168B1F5805F11D00169002901681FD0D9
:103DB000496801F07F03816A4A1C82620B70C18DE1
:103DC000491E0904090CC18518D02BE00269816ADB
:103DD000002A0268526805D0D2B20A80816A491C62
:103DE0008162ECE7C2F308020A80816A891CF7E766
:103DF0004A68816A4B1C83620A70E0E70168CA68FE
:103E000022F02002CA600168CA6822F48072CA6087
:103E100001684A6922F001024A61202180F83A10C3
:103E2000FEF7CAFF002010BD2DE9F04104460068EE
:103E30000169E26821F44051114301612169A068E0
:103E40000843616908432168CA6841F20C639A43D8
:103E50000243CA6020684169A26921F4407111439C
:103E600041611E49206864253226884202D1FEF74E
:103E7000C3FA01E0FEF7B0FA00EBC00101EB00115C
:103E800060686FF018078000B1FBF0F2B2FBF5F24A
:103E9000B1FBF0F37A4303EB8202B1FBF0F306EBE4
:103EA0000212B2FBF5F2B3FBF5F302F0F00202EB03
:103EB0000312B1FBF0F3B1FBF0F0B0FBF5F0784387
:103EC00003EB800006EB0010B0FBF5F0216800F07A
:103ED0000F0010448860BDE8F08100000038014008
:103EE00090F83910212901D0022070478168B1F57E
:103EF000805F016A0BD04A1C026202680978516037
:103F0000C18C491E0904090CC1840ED017E0098830
:103F10000268C1F30801516001690029016A02D0F9
:103F2000491C0162ECE7891CFBE70168CA6822F0C2
:103F30008002CA600068C16841F04001C160002091
:103F400070472DE9F041984617460E460446069DF7
:103F50001DE0681C1BD02DB1FEF72AF8A0EB08006D
:103F6000A84214D92068C16821F4D071C1602068CA
:103F7000416921F001014161202084F8390084F871
:103F80003A00002084F838000320BDE8F081206862
:103F9000006836EA000004D00020B842D9D00020E2
:103FA000F3E70120F9E700000148FEF7B5BD000086
:103FB000F0000020642201FB02F30A46014601489A
:103FC000FEF720BFF00000200148FEF7A5BD00006D
:103FD000300100200148FDF757BB00008800002099
:103FE000FEE7012807D0022807D0072805D00828B7
:103FF00003D0002070470220704701207047000066
:104000000FB4054B10B503A9044A029800F0EAF872
:1040100010BC5DF814FB0000754900085400002036
:104020000907090E002804DB00F1E02080F80014E5
:10403000704700F00F0000F1E02080F8141D704779
:1040400002E008C8121F08C1002AFAD17047704761
:10405000002001E001C1121F002AFBD170470000BF
:104060002DE9FF5F82B00021DDE90430020DDDF8AB
:1040700040B0034318D044F61050A2F2FF3242433E
:104080001514119801281FD0A5EB0B00401C5FEA06
:10409000000A4FF000064E4FDFF83891B046504608
:1040A00015D5CAF1000413E0119801244AA3012890
:1040B00001D16FEA0B010298119AC0E90031C0E901
:1040C000024206B0BDE8F09FCBF10000DFE70446F6
:1040D0000021404A491842EB0450CDE9001012E09B
:1040E000E00707D032463B4640464946FCF7DFF939
:1040F0008046894632463B4610461946FCF7D7F9BA
:1041000006460F466410002CEAD1DDE90401DDE922
:104110000023BAF1000F06DAFCF7C9F942464B4614
:10412000FCF7C5F905E0FCF78FFB42464B46FCF770
:104130008BFB04460E460022284BFCF70DFC03D8EF
:104140004FF0FF30014607E00022254B2046314664
:10415000FCF706F9FCF7E7FB102409E0002C0ADB6A
:104160000A220023FCF78AFA039B30321A55641E98
:1041700050EA0102F2D1641C039AC4F11103144401
:10418000119A012A03D0012208430DD10AE0084305
:1041900004D000204FF0110B119072E7A3EB0B0538
:1041A0006D1E0DE05B4504DD4FF0000205F10105D9
:1041B00004E003DA4FF00002A5F10105002AECD07B
:1041C00002981199C0E90231C0E9004579E7000081
:1041D000000014400000F03F300000000000F043F9
:1041E0000000E03F2DE9FF4F95B09B46894606460B
:1041F00000250FE2252877D100242746F84A01211F
:10420000059400E0044316F8013F203B01FA03F057
:104210001042F7D130782A2811D06FF02F03307870
:10422000A0F13002092A16D8059A44F0020402EBE4
:10423000820203EB42021044761C0590EFE759F826
:10424000042B0592002A03DA504244F400540590EE
:1042500044F00204761C30782E2816D116F8010F8F
:1042600044F004042A280DD06FF02F023078A0F11A
:104270003003092B09D807EB870302EB4303C71868
:10428000761CF3E759F8047B761C30786C280FD045
:1042900006DC4C2817D068280DD06A2814D104E019
:1042A000742810D07A280FD10DE044F400140AE0ED
:1042B00044F4801401E044F440147278824202D144
:1042C00004F58014761C761C307866280BD013DC3D
:1042D000582877D009DC002875D04528F6D0462824
:1042E000F4D047281AD19DE118E0632835D064281E
:1042F00079D0652812D195E1702873D008DC672841
:10430000F1D069286FD06E280DD06F2806D1B5E0A6
:1043100073282CD0752875D0782874D05A461799F0
:1043200090476D1C75E1C4F30250022809D00328A0
:104330000DD0D9F8001004280DD00D6009F1040942
:1043400067E1D9F80010EA17C1E90052F6E7D9F899
:1043500000100D80F2E70D70F0E719F8041B8DF8DE
:10436000001000208DF80100EA46012003E059F812
:1043700004AB4FF0FF3061074FF0000102D40DE0B5
:1043800008F101018846B9420FDA8045F8DB1AF8D6
:1043900008100029F4D108E008F1010188468142A3
:1043A000FADB1AF808100029F6D105985B46A0EB55
:1043B000080721463846179A00F094FA284400EB83
:1043C000080507E04DE029E10DE01AF8010B5A4617
:1043D00017999047B8F10108F7D25B462146384655
:1043E000179A13E142E00A220092C4F302524FF0FE
:1043F000000A022A08D059F804CB032A4FEAEC71CC
:104400000AD00DE029E02AE009F1070121F00702B6
:10441000F2E802C1914609E00FFA8CFC4FEAEC7118
:10442000042A03D14FFA8CFC4FEAEC71002907DA19
:104430000A460021DCF1000C61EB02012D2202E0B2
:10444000220504D52B228DF80420012203E0E20787
:1044500001D02022F7E7904659E00A2102E010221D
:104460000DE010214FF0000A00910BE010224FF0F8
:10447000000A44F004040827009203E008224FF0E9
:10448000000A0092C4F30252022A05D059F804CB64
:104490000021032A08D009E009F1070121F00702F1
:1044A000F2E802C1914605E01FFA8CFC042A01D112
:1044B0000CF0FF0C4FF00008220728D5702806D01A
:1044C000009B83F0100353EA0A0305D00EE040225C
:1044D0008DF80420012208E05CEA010206D03022B7
:1044E0008DF804208DF8050002229046009B83F091
:1044F000080353EA0A030AD15CEA010201D1620708
:1045000005D530228DF804204FF001087F1E582871
:1045100004D034A003900EA802900DE036A0F9E775
:1045200053466046009AFCF7A9F884460398825CDB
:104530000298401E029002705CEA0100F0D10298DD
:1045400006A9081A00F1200A600702D524F4803475
:1045500000E00127574502DDA7EB0A0000E000203C
:1045600000EB0A01009005984144401A0590E003D1
:1045700006D45B462146179A059800F0B3F9054426
:10458000002706E001A85A46C05D179990476D1CA8
:104590007F1C4745F6DBE0030CD55B462146179AA6
:1045A000059800F09FF9054404E030205A46179919
:1045B00090476D1C0099481E00900029F5DC08E02A
:1045C000029802995A460078491C0291179990471F
:1045D0006D1CBAF10001AAF1010AF1DC65E10000ED
:1045E00009280100303132333435363738396162C9
:1045F000636465660000000030313233343536378D
:1046000038394142434445460000000000F058F963
:104610000544761C307800287FF4ECAD19B02846AC
:10462000BDE8F08F620700D4062709F1070222F0E7
:10463000070CFCE80223E14603F000485FEA080C9F
:1046400002D00FF2702C0DE05FEA045C02D50FF28D
:10465000682C07E05FEAC47C02D00FF2602C01E016
:10466000AFF2700C4FF0FF3823F00043CDF850C08C
:1046700065280CD006DC452809D046281DD04728DF
:104680003DD13DE0662818D067287ED138E0002172
:10469000112F01DB112000E0781CCDE9000106A9F3
:1046A0000EA8FFF7DDFCDDE90F010E9A0391002152
:1046B000009207F1010A04914DE04FF0004000978D
:1046C000CDE9011006A90EA8FFF7CAFCDDE90F022B
:1046D00003920E9B11990022DDF80CA00093049226
:1046E00011B9791C00EB010AB7EB0A0004D4C0F140
:1046F000FF3007F1010A0490AAEB0700019044E0A3
:10470000012F00DA01270021112F01DD112000E027
:104710003846CDE9000106A90EA8FFF7A1FCDDE9A6
:104720000F010E9A0391002104910092BA462107CD
:104730000CD40399514500DA8A46BAF1010F05DD20
:10474000009AAAF10101515C302908D0B84202DA7E
:1047500010F1040F06DA0121CDE9011015E0AAF1EC
:104760000101E9E7002805DC049901440491AAEB62
:10477000000102E0411C514500DD8A460499401ABF
:10478000401C01904FF000400290200704D4019893
:10479000504501DBCDF8048000208DF84F000298D1
:1047A0000DF14F07B0F1004F25D02B200E9002984D
:1047B0004FF0020800280CDA404202902D200E90A3
:1047C00007E00A210298FBF743FF3031029007F817
:1047D000011DB8F10001A8F10108F2DC02980028DF
:1047E000EFD1791E0E980870307800F0200040F06C
:1047F000450007F8020D12A8C01B00F10708149825
:10480000007800B1012000EB0A01019801EBE07192
:1048100005984144401A401E0590E00306D45B46CB
:104820002146179A059800F05DF805441498007821
:1048300018B15A46179990476D1CE00324D55B4682
:104840002146179A059800F04DF805441CE004989D
:10485000002807DBDDE90301884203DD0098405CA6
:10486000179901E0179930205A469047049805F1AE
:104870000105401C04900198401E019004D12E2097
:104880005A46179990476D1CBAF10001AAF1010A26
:10489000DDDC05E017F8010B5A46179990476D1CAF
:1048A000B8F10001A8F10108F4DC5B462146179A33
:1048B0000598ABE62D0000002B0000002000000052
:1048C0002DE9F041044600251E461746880404D40D
:1048D00005E039462020B0476D1C641EF9D52846F6
:1048E000BDE8F0812DE9F041044600251E469046C2
:1048F000C80301D5302700E02027880404D505E04F
:1049000041463846B0476D1C641EF9D52846BDE8BF
:10491000F081000030B500221346124C03E0C55C64
:1049200055405B1C625D8B42F9DBD007000E02F044
:10493000020140EA411002F0040140EAC10002F025
:10494000080140EA4100082101EA5201084304211C
:1049500001EAD2010843022101EA5211084340EA68
:10496000D21030BD484E00080148FDF78BB800005A
:104970008800002013B50A23012269460248FEF789
:1049800041FA00981CBD0000F000002008B5002589
:10499000FDF71CFBFFF710F95B48816941F010013E
:1049A0008161816901F010010091816941F0040188
:1049B0008161806900F004000090FEF723FCFEF79F
:1049C000FBFB534851494FF4E13600240160C0E934
:1049D00001640C27C460C0E904478461C461FEF728
:1049E00023F94B484B4940300160C0E90164C46081
:1049F000C0E904478461C461FEF716F9FEF71EFCA6
:104A00004420FEF7ADFF444981464FF032080123B0
:104A10000022081DCDF80080FEF7F6FEB9F1000F68
:104A200004D0FEF78DFD01253CA000E042A0FFF779
:104A3000E7FAFEF7A5FB36486838FCF717F8454853
:104A4000FFF735F8344C083CA0804348FFF72FF8B7
:104A5000424E307000F0BCF8FFF786FF012740F2AD
:104A6000DC5A3078FFF7BDFA20B1012809D00228BE
:104A700026D10FE06770FCF73DFA6080014638A050
:104A800005E06770FFF790F8207001463CA0FFF743
:104A9000B7FA15E00220607025B31F48001DFEF72D
:104AA000E1FC1D48FEF76EFCA068FBF788FD83461D
:104AB000E068FBF784FD01465A463AA0FFF7A0FAEA
:104AC00032780821A088FCF717F85046FDF7A6F8C1
:104AD00000F04AF90028C4D16420FDF79FF800F0E7
:104AE00081F8BEE7B9F1000F04D0FEF770FF08B1FE
:104AF000FEF72AFF084901230022081DCDF8008097
:104B0000FEF782FE8146CFE70010024000380140E8
:104B1000F00000200044004008000020CEC2CAAAD5
:104B2000B6C8B4ABB8D0C6F7D0CDBAC5A3BA53484F
:104B30005431580D0A000000CEC2CAAAB6C8B4ABA0
:104B4000B8D0C6F7D0CDBAC5A3BA53485433580D20
:104B50000A000000000003080001030819000020FB
:104B6000766F6C3D4765745F566F6C746167652046
:104B7000203D3D3D3D3D202578200D0A00000000F0
:104B8000737769746368696E673D537769746368A6
:104B9000696E675F56616C75653D3D202564200D2B
:104BA0000A00000073656E736F725F74656D20207C
:104BB000203D3D3D3D3D202564203A3B73656E73AD
:104BC0006F725F68756D3D3D3D2564200D0A0000E4
:104BD000012202490248FEF7C5B800002A00002061
:104BE000F000002070B5ADF5027D4FF480763146BF
:104BF0006846FBF7E2FA314640A8FBF7DEFA0024EC
:104C00008094314640A88194FBF7D7FA00F0C4F8AD
:104C10004FEA000500F0A8F8D8B331466846FBF724
:104C2000CCFA2A4640A96846FBF7AEFA9DF8000088
:104C300080948194052832D0394E3A4D55283AD087
:104C4000AA2823D107216846FBF74AFF9DF80710E1
:104C500088421BD1AA208DF8000230788DF801021D
:104C600028888DF80442010A8DF802128DF803029B
:104C70008DF805428DF80642072180A8FBF730FF2A
:104C80008DF80702082180A8FFF794F90DF5027D41
:104C900070BDFFE7294640A800F0A0F8BAE7072159
:104CA0006846FBF71DFF9DF807108842EED11C48AF
:104CB0000821401CE8E707216846FBF711FF9DF833
:104CC00007108842E2D19DF8011031709DF8020072
:104CD00002029DF803001043288055228DF800221F
:104CE0008DF80112010A8DF802128DF804428DF838
:104CF00003028DF805428DF80642072180A8FBF7D4
:104D0000EFFE8DF80702082180A8FFF753F92988E4
:104D10000548FCF7E9F831780448FCF7E5F8B5E711
:104D2000190000200400002000000308000103080F
:104D30000B49D1E90132934202D14FF0FF30704765
:104D4000084BD2B29A5C02708A68521C8A60007862
:104D50000D2802D14878401C4870002070470000A0
:104D600028000020700900200448D0E90110814289
:104D700001D101207047002070470000280000206A
:104D80000448D0E90110081AFF2801D90120704712
:104D900000207047280000200248D0E90110081ABE
:104DA000704700002800002010B50246FFF7E8FF1A
:104DB00010B14FF0FF3010BD0649074C4868C3B230
:104DC000401CE25448600D2A02D10878401C08704B
:104DD000002010BD280000207009002070B50D468D
:104DE0000646002405E03019FFF7A2FF401C02D060
:104DF000641CAC42F7DB204670BD00000448D0E9DB
:104E00000110081AFF2801D90120704700207047BF
:104E10003400002010B50246FFF7F0FF10B14FF04C
:104E2000FF3010BD0649074C4868C3B2401CE2542D
:104E300048600D2A02D10878401C0870002010BD7F
:104E400034000020700A002000316253C4F5A69798
:104E5000B988DBEA7D4C1F2E4372211087B6E5D45A
:104E6000FACB98A93E0F5C6D86B7E4D5427320114A
:104E70003F0E5D6CFBCA99A8C5F4A796013063523A
:104E80007C4D1E2FB889DAEB3D0C5F6EF9C89BAAEA
:104E900084B5E6D7407122137E4F1C2DBA8BD8E91A
:104EA000C7F6A59403326150BB8AD9E87F4E1D2C0A
:104EB00002336051C6F7A495F8C99AAB3C0D5E6FFA
:104EC0004170231285B4E7D67A4B1829BE8FDCEDEA
:104ED000C3F2A1900736655439085B6AFDCC9FAEDA
:104EE00080B1E2D344752617FCCD9EAF38095A6BCA
:104EF0004574271681B0E3D2BF8EDDEC7B4A1928BA
:104F000006376455C2F3A0914776251483B2E1D0E9
:104F1000FECF9CAD3A0B586904356657C0F1A29399
:104F2000BD8CDFEE79481B2AC1F0A3920534675689
:104F300078491A2BBC8DDEEF82B3E0D14677241579
:104F40003B0A5968FFCE9DAC000000000000000045
:104F5000010203040607080900000000010203041F
:104F6000804F00080000002058000000404000086A
:104F7000D84F000858000020381B0000504000089F
:104F80000000000000000000000000000000000021
:104F9000000000000000000000000500000000000C
:104FA00000050000000000000000000000000000FC
:104FB00000000000000000000000000000000000F1
:104FC00000000000010000001000000000000000D0
:084FD0000024F40000000000C1
:0400000508000131BD
:00000001FF
