:020000040800F2
:10000000D8160020DD01000809100008810F000843
:10001000E10F0008F907000869210008000000004E
:10002000000000000000000000000000191200089D
:10003000BD090008000000009110000831130008FD
:10004000F7010008F7010008F7010008F7010008B0
:10005000F7010008F7010008F7010008F7010008A0
:10006000F7010008F7010008F7010008F701000890
:10007000F7010008F7010008F7010008F701000880
:10008000F7010008F7010008F7010008F701000870
:10009000F7010008F7010008F7010008F701000860
:1000A000F7010008F7010008F7010008F701000850
:1000B00095130008F7010008F7010008F701000890
:1000C000F7010008F7010008F7010008F701000830
:1000D000F7010008191B0008F7010008F7010008E4
:1000E000F7010008F7010008F7010008F701000810
:1000F000F7010008F7010008F7010008F701000800
:10010000F7010008F7010008F7010008F7010008EF
:10011000CD190008F7010008F7010008F7010008F1
:10012000F7010008F7010008F7010008F7010008CF
:1001300000F002F800F042F80AA090E8000C8244B7
:100140008344AAF10107DA4501D100F037F8AFF294
:10015000090EBAE80F0013F0010F18BFFB1A43F0A5
:1001600001031847EC2200000C230000103A24BFC2
:1001700078C878C1FAD8520724BF30C830C144BF0C
:1001800004680C607047000000230024002500264E
:10019000103A28BF78C1FBD8520728BF30C148BFEA
:1001A0000B607047642900F08580732900F0A582F8
:1001B000002070471FB51FBD10B510BD00F0EAFA52
:1001C0001146FFF7F7FF02F035F800F008FB03B423
:1001D000FFF7F2FF03BC01F0E4FF0000094880478D
:1001E00009480047FEE7FEE7FEE7FEE7FEE7FEE719
:1001F000FEE7FEE7FEE7FEE704480549054A064B31
:10020000704700003513000831010008D8040020B1
:10021000D8160020D8060020D8060020704700001D
:100220000FB4044910B503AA029800F06BFA10BC91
:100230005DF814FB180000200FB41CB5074B06AA8C
:100240007B4469460090059800F02DFA002069462D
:1002500000F03CFA1CBC5DF814FB000089040000AF
:1002600070B50C460546012A05D02878800600D5D1
:10027000EA69002302E0012305E05B1C934202D2FD
:10028000E05C0028F9D1A869E618C01AA861286ABC
:10029000184428622846AFF3008004E0D5E9012124
:1002A00014F8010B9047B442F8D32846AFF300800E
:1002B00070BD00002DE9F041064600241068752944
:1002C000314616A510D0AFF30080002802DA404274
:1002D00013A507E031688A0701D512A502E0490796
:1002E00004D511A5012401E0AFF3008000210A220A
:1002F00006F1240709E0B0FBF2FCB0FBF2F302FBCD
:100300001C00303078541846491C0028F3D123468D
:100310002A463046BDE8F04100F067B90000000011
:100320002D0000002B000000200000002DE9F05FF0
:10033000894604464FF0000ADFF824B1FB44C0F8B8
:1003400020A02046E168884700287DD0252806D0D7
:10035000D4E901219047206A401C2062F1E7002582
:100360005F462046E16888472028064607DB312E95
:1003700005D2B81910F8200C08B10543F1E7A80719
:1003800001D525F00405C4F81CA00027C4F818A066
:100390002A2E09D0304601F0FDFE38B304EB870861
:1003A000303EC8F8186019E059F8041B204604EBE9
:1003B00087029161E1688847012F064618D1E069FC
:1003C000002820DA25F020051DE0D8F8180000EB01
:1003D000800006EB40003038C8F818002046E1687D
:1003E0008847064601F0D6FE0028EED1012F0AD03C
:1003F0002E2E08D12046E16888477F1C0646022F32
:1004000045F02005C4DBA069002803DA404245F02E
:100410000105A061E80701D025F01005A6B1A6F1FD
:100420004100192802D8203645F400654A46314675
:10043000204625604D46FFF7B5FE60B1012807D084
:10044000ED1D25F0070000E007E000F1080978E75E
:1004500005F1040975E730467AE7206ABDE8F09FA8
:100460009820000030B505460B462A4613F8014B8C
:1004700012F8010B08B1A042F8D01CB1002802D03C
:100480006D1CF1E7284630BD10B5431C02E010F8A2
:10049000011B71B18107FAD14FF0013202C88C1AE9
:1004A0008C4314EAC211F9D0C01A0A0603D0C01E48
:1004B00010BDC01A10BD0A0401D0801E10BD090273
:1004C000FCD0401E10BD032A40F2308010F0030C17
:1004D00000F0158011F8013BBCF1020F624498BF97
:1004E00011F801CB00F8013B38BF11F8013BA2F134
:1004F000040298BF00F801CB38BF00F8013B11F0AF
:10050000030300F01181083AC0F0088051F8043B61
:10051000083A51F804CBA0E80810F5E7121D5CBFBB
:1005200051F8043B40F8043BAFF30080D20724BFEE
:1005300011F8013B11F801CB48BF11F8012B24BF82
:1005400000F8013B00F801CB48BF00F8012B7047D1
:100550004FF000020429C0F0128010F0030C00F0EC
:100560001B80CCF1040CBCF1020F18BF00F8012B6A
:10057000A8BF20F8022BA1EB0C0100F00DB85FEA38
:10058000C17C24BF00F8012B00F8012B48BF00F804
:10059000012B70474FF0000200B513469446964673
:1005A000203922BFA0E80C50A0E80C50B1F1200186
:1005B000BFF4F7AF090728BFA0E80C5048BF0CC034
:1005C0005DF804EB890028BF40F8042B08BF704792
:1005D00048BF20F8022B11F0804F18BF00F8012B04
:1005E000704770477047704770472DE9F0470D46D8
:1005F00099469246044600F124080168880604D50D
:10060000E06921F01001216000E00120A84201DD35
:10061000471B00E00027A1697A1902EB0900081ABC
:10062000A0612078C00602D42046AFF300800026E7
:1006300008E0D4E901211AF806009047206A401C1E
:10064000761C20624E45F4DB2078C0060AD5204691
:10065000AFF3008006E0D4E9012130209047206A02
:10066000401C2062381EA7F10107F4DC07E0D4E942
:10067000012118F805009047206A401C2062281EBE
:10068000A5F10105F3DC2046AFF3008020780006D9
:1006900002D50220BDE8F0870120FBE701694A1C72
:1006A00002610878704700B58FB0CDE901310021B3
:1006B000059105497944CDE9031011466846FFF7D5
:1006C00035FE0FB000BD0000E5FFFFFF0A6802F82D
:1006D000010B0A60704710B5436913B1AFF3008096
:1006E00001E0FFF7BDFD012010BD127800F12401EB
:1006F0000A7000224A700122EDE711684FF0FF32C4
:10070000E9E70000074B70B50D467B44FFF7CBFFD0
:100710000446284600F03AF810B14FF0FF3070BDA3
:10072000204670BD0B1B000010B5203AC0F00B80B6
:10073000B1E81850203AA0E81850B1E81850A0E8E5
:100740001850BFF4F5AF5FEA027C24BFB1E818503F
:10075000A0E8185044BF18C918C0BDE810405FEAAF
:10076000827C24BF51F8043B40F8043B08BF70472B
:10077000D20728BF31F8023B48BF11F8012B28BF30
:1007800020F8023B48BF00F8012B7047007B00F0C7
:1007900080007047754600F02BF8AE4605006946AC
:1007A000534620F00700854618B020B5FFF724FD1A
:1007B000BDE820404FF000064FF000074FF0000862
:1007C0004FF0000B21F00701AC46ACE8C009ACE8E3
:1007D000C009ACE8C009ACE8C0098D46704710B547
:1007E0000446AFF300802046BDE81040FFF7EFBCA1
:1007F000004870477404002002A0FFF711FD00BFFD
:10080000FEE700000D0A4275734661756C745F481F
:10081000616E646C6572204552524F520D0A0000A1
:1008200008B510200223020104490090042000F0C2
:10083000DBFC00200249086008BD00000008014000
:10084000A001214210B5FF210448FFF781FE0020DE
:10085000034908800349087010BD0000730300209D
:1008600022000020240000202DE9F041A0B006461F
:100870000F460024002580216846FFF78BFE00BF4D
:1008800008E000F023FA08B9002505E04FF0FF3535
:10089000601CC4B2032CF4DB00BF002D03DA284631
:1008A00020B0BDE8F08100240AE029A12BA000F0CF
:1008B000CDF908B9002505E06FF00105601CC4B250
:1008C000032CF2DB00BF002D01DA2846E8E7002404
:1008D0000BE042F2981123A000F016F908B90025A8
:1008E00005E06FF00205601CC4B2032CF1DB00BF11
:1008F000002D01DA2846D3E73B4632461EA1684662
:10090000FFF79AFC6846FFF7BFFD00F0FF0841467D
:10091000684600F09BF8002802DA6FF0030514E047
:1009200000240FE021A12448FFF79CFD10B96FF0CF
:10093000040501E0002507E042F2107001F046FCDA
:10094000601CC4B2322CEDDB00BF2846A8E70000D3
:10095000313330343734383034303600646820690D
:10096000207365006E64702E6E6C65636C6F7564C9
:100970002E636F6D000000007B2274223A312C221E
:10098000646576696365223A222573222C226B65A1
:1009900079223A222573222C22766572223A227617
:1009A000302E302E302E30227D00000022737461F4
:1009B000747573223A300000730300207047000002
:1009C0002DE9F04107460E460024002512A13846C5
:1009D000FFF748FD0446E4B1A1796079303800EBB7
:1009E000800001EB40003038C5B20DA13846FFF75A
:1009F00039FD441C2A4621463046FFF764FD00209D
:100A00007055314607A0FFF70BFC29460AA0FFF7F7
:100A100007FC2846BDE8F0812B4950442C0000001B
:100A20003A000000CAD5B5BD4950CAFDBEDDA3BA23
:100A300025730D0A00000000CAD5B5BD4950CAFD96
:100A4000BEDDB3A4B6C83D25640D0A002DE9F04112
:100A5000A0B004460D4600260027FFF7F3FE2A4605
:100A60001EA16846FFF7E8FB694620A0FFF7D8FB08
:100A70006846FFF709FD00F0FF084146684600F0B0
:100A8000CDFB40F6B83001F0A1FB1AA11A48FFF7E0
:100A9000E9FC18B9701E20B0BDE8F081FFF7D2FE66
:100AA0002946204600F0C8FB214610A0FFF7B8FBFE
:100AB00000260EE011A11048FFF7D4FC10B96FF02A
:100AC000010701E0002706E00E4801F07FFB701CE3
:100AD000C6B23C2EEEDB00BF3846DCE741542B4368
:100AE000495053454E443D256400000025730D0ACE
:100AF000000000004F4B00007303002053454E449C
:100B0000204F4B00A086010070B5A0B004460D46F2
:100B100080216846FFF73EFDFFF794FE2B462246F4
:100B20000EA16846FFF788FB694613A0FFF778FB24
:100B30006846FFF7A9FCC6B23146684600F06EFB76
:100B40000F4801F043FB0FA10F48FFF78BFC18B9CA
:100B50004FF0FF3020B070BD0020FBE741542B4325
:100B6000495053544152543D22544350222C222583
:100B700073222C256400000025730D0A000000007C
:100B800060E316004F4B0000730300202DE9F04195
:100B9000A0B004460D460026002780216846FFF7D6
:100BA000F9FC23462A4615A16846FFF745FB68462F
:100BB000FFF76AFC00F0FF0841466846FFF746FF72
:100BC000002801DA771E14E000260FE01BA11E4862
:100BD000FFF748FC10B94FF0FF3701E0002707E0AE
:100BE00042F2107001F0F2FA701CC6B2322EEDDB48
:100BF00000BF384620B0BDE8F08100007B2274229F
:100C00003A332C226461746174797065223A322C13
:100C1000226461746173223A7B2261626364656657
:100C200067223A7B222573223A25647D7D2C226D32
:100C300073676964223A3030317D00002273746139
:100C4000747573223A3000007303002070B5A0B0B1
:100C500004460D4680216846FFF79CFCFFF7F2FD35
:100C60002B4622460EA16846FFF7E6FA694612A017
:100C7000FFF7D6FA6846FFF707FCC6B2314668466A
:100C800000F0CCFA0E4801F0A1FA0EA10E48FFF7D1
:100C9000E9FB18B94FF0FF3020B070BD0020FBE732
:100CA00041542B43574A41505F4355523D222573CF
:100CB000222C22257322000025730D0A000000005B
:100CC00060EC53004F4B00007303002010B5FFF79A
:100CD000B9FD0F2109A000F0A1FA0CA0FFF7A0FABE
:100CE0000F4801F073FA0FA10F48FFF7BBFB10B9D3
:100CF0004FF0FF3010BD0020FCE7000041542B43B3
:100D0000574D4F44455F4355523D310041542B43AD
:100D1000574D4F44455F4355523D310D0A00000089
:100D2000A08601004F4B0000730300202DE9F04125
:100D3000024600250026002000230024002791F809
:100D400003C00CF00F0591F803C00CF0100CBCF1BF
:100D5000000F03D091F802C04CEA050591F800C0DD
:100D6000BCF1000F31D0146800202BE04FF0010CD3
:100D70000CFA00F3B1F800C00CEA03069E4220D141
:100D800083004FF00F0C0CFA03F7BC4305FA03FC89
:100D90004CEA040491F803C0BCF1280F06D14FF0CF
:100DA000010C0CFA00FCC2F814C00AE091F803C070
:100DB000BCF1480F05D14FF0010C0CFA00FCC2F851
:100DC00010C0401C0828D1D31460B1F800C0BCF199
:100DD000FF0F34DD546800202EE000F1080C4FF0C6
:100DE000010808FA0CF3B1F800C00CEA03069E42B1
:100DF00021D183004FF00F0C0CFA03F7BC4305FA26
:100E000003FC4CEA040491F803C0BCF1280F05D19F
:100E100000F1080C08FA0CF8C2F8148091F803C02D
:100E2000BCF1480F07D100F1080C4FF0010808FA97
:100E30000CF8C2F81080401C0828CED35460BDE8DE
:100E4000F08100002DE9F0430446894616461F460E
:100E50000121204600F084F8A4B39EB397B3642E1A
:100E600031DA4FF0010804F00104002527E004EA1C
:100E70000800F0B1194800F8059007EB8700400022
:100E80007043642190FBF1F081B21448801C20F87B
:100E9000151007EB87004FF6FF7101EA40010F487C
:100EA000001D20F815100021801C20F8151084EA80
:100EB0000804681CC5B24FEA48604FEA1068002C6D
:100EC000D5D109E004E00121204600F049F803E013
:100ED0000021204600F044F8BDE8F0830200002025
:100EE000002036E01C49095C002930DD1A49891DC3
:100EF00031F81020891E31F810108A421DDA164987
:100F0000891D31F8102031F81010491C8BB212499C
:100F1000891D21F81030091F31F810108A4208DAB3
:100F20000E49096809B9012100E000210B4A11604E
:100F30000DE00021094A116009E000220649891DDF
:100F400021F81020891F095C491E034A1154411CD5
:100F5000C8B20128C6DB704702000020A001214270
:100F600000F0010242B1012903D10122034B1A60B2
:100F700002E00022014B1A6070470000A0012142EC
:100F800002A0FFF74DF900BFFEE700000D0A48611F
:100F900072644661756C745F48616E646C65722042
:100FA0004552524F520D0A00F8B504460D461746F9
:100FB0001E46304600F00DF88DF800708DF80140A7
:100FC0008DF8025001208DF80300684600F01EF8ED
:100FD000F8BD10B50446204600F050F810BD0000E2
:100FE00002A0FFF71DF900BFFEE700000D0A4D65E6
:100FF0006D4D616E6167655F48616E646C657220FE
:101000004552524F520D0A007047000070B5002142
:1010100000230F22C47804B3154C246804F4E06460
:10102000C4F5E064210AC1F10403CA40447804FA1B
:1010300003F184781440214309010E4C0678A15530
:10104000047804F01F050124AC4005786D11AD0053
:1010500005F1E025C5F8004109E0047804F01F051A
:101060000124AC40044D0678761145F8264070BD49
:101070000CED00E000E400E080E100E00249014303
:10108000024A1160704700000000FA050CED00E014
:101090007047000029B1064AD2690243044BDA6165
:1010A00004E0034AD2698243014BDA6170470000D1
:1010B0000010024029B1064A12690243044B1A612A
:1010C00004E0034A12698243014B1A617047000031
:1010D0000010024029B1064A92690243044B9A610A
:1010E00004E0034A92698243014B9A617047000011
:1010F0000010024029B1064AD2680243044BDA606C
:1011000004E0034AD2688243014BDA607047000072
:101110000010024030B500210022002400232D4D94
:101120006D6805F00C0121B1042905D0082923D1EF
:1011300005E0294D056022E0274D05601FE0254DA3
:101140006D6805F47012234D6D6805F48034022536
:1011500005EB92421CB9214D554305600BE01D4D36
:101160006D6805F400351DB11C4D5543056002E066
:10117000194D5543056002E0174D056000BF00BFE3
:10118000144D6D6805F0F0010909154D6B5C05689B
:10119000DD4045600F4D6D6805F4E061090A104DB2
:1011A0006B5C4568DD4085600A4D6D6805F46051F3
:1011B000C90A0B4D6B5C4568DD40C560054D6D6827
:1011C00005F44041890B074D6B5CC568B5FBF3F531
:1011D000056130BD0010024000127A0000093D0098
:1011E0003C0000204C0000202DE9F84307460C4647
:1011F00015461E46DDF8208001213846FFF76AFFBC
:10120000ADF800508DF802608DF8038069462046E5
:10121000FFF78CFDBDE8F8837047000070B5044609
:101220000D462946204600F069FC022101A000F08D
:1012300065FC70BD0D0A000070B504460D462946D8
:10124000204600F05BFC70BD10B500F001F810BD49
:101250000CB50020019000903348006840F48030C5
:101260003149086000BF3048006800F40030009049
:101270000198401C0190009818B90198B0F5A06F32
:10128000F1D12948006800F4003010B1012000902D
:1012900001E0002000900098012843D12348006815
:1012A00040F01000214908600846006820F0030063
:1012B00008600846006840F0020008601A4840686C
:1012C000194948600846406848600846406840F44C
:1012D000806048600846406820F47C1048600846FA
:1012E000406840F4E81048600846006840F08070AC
:1012F000086000BF0C48006800F000700028F9D0BA
:101300000948406820F003000749486008464068E3
:1013100040F00200486000BF0348406800F00C0045
:101320000828F9D10CBD0000001002400020024046
:101330007047000010B51348006840F001001149E3
:10134000086008464068104908400E494860084651
:1013500000680E4908400B4908600846006820F400
:10136000802008600846406820F4FE0048604FF482
:101370001F008860FFF768FF4FF0006004490860B5
:1013800010BD0000001002400000FFF8FFFFF6FE55
:1013900008ED00E010B50221480700F043F9A0B1C4
:1013A0000221480700F022F94FF0804000F02DF9AB
:1013B00040490880084600883F4A1288104481B29C
:1013C0004FF0804000F0A6FA72E00421080700F018
:1013D00029F900283ED00421080700F007F9FFF79B
:1013E0007FFD3648007880B135480078401C34498C
:1013F000087008460078032807DD00202F49087090
:101400002F49087001202F4908702F48007880B1BB
:101410002E480078401C2D490870084600780328A3
:1014200007DD002028490870284908700120284954
:1014300008704FF0804000F0EBF81E490880084625
:101440000088244A1288104481B24FF0804000F096
:1014500063FA2DE00821C80600F0E4F8A0B10821E5
:10146000C80600F0C3F84FF0804000F0D4F81149EE
:10147000088008460088184A1288104481B24FF04C
:10148000804000F04BFA13E01021880600F0AEF81F
:101490004FF0804000F0C2F80649088008460088F6
:1014A0000E4A1288104481B24FF0804000F038FAA2
:1014B00010BD00000E000020100000201F000020C2
:1014C000200000201E000020250000202600002013
:1014D000240000201200002014000020160000202C
:1014E00010B5002401210846FFF7D4FD1C20364921
:1014F00008700020487001208870C8700846FFF707
:1015000085FD324800683249B0FBF1F0401E84B2DC
:101510004FF6FF702F49888000200880C8804880DF
:101520004FF0804000F000FA01222146900700F0C1
:10153000EEF90020284908800120488027480088CB
:10154000C880002008814FF0804000F085F800211D
:101550004FF0804000F0CCF801201F49488020481F
:101560000088C8804FF0804000F0CCF800214FF098
:10157000804000F019F90120174948801948008877
:10158000C8804FF0804000F01DF900214FF08040EE
:1015900000F068F901201049488013480088C8808D
:1015A0004FF0804000F068F900214FF0804000F0DB
:1015B000A1F901221E21900700F045F801218807BA
:1015C00000F017F810BD00000A00002028000020DD
:1015D000808D5B005A020020640200201000002071
:1015E000120000201400002016000020CA430282CE
:1015F000704721B1028842F00102028004E00288B3
:101600004FF6FE731A40028070470146888E70477D
:101610000146088F70470146888F70470146B1F830
:101620004000704730B50246002000230024158A90
:1016300005EA0103958905EA010413B10CB1012003
:1016400000E0002030BD1AB183890B43838102E0A2
:1016500083898B438381704770B500240022002367
:10166000058C4FF6FE7635400584028C8388048B0A
:101670004FF68F752C40B51E2C400D882C43751EDF
:101680002A400D892A434D882A43144DA8420BD085
:10169000134DA84208D0134DA84205D0124DA842C0
:1016A00002D0124DA84213D14FF6F7752A404D894A
:1016B0002A434FF6FB752A408D882A434FF6FF6573
:1016C0002B404FF6FF552B408D892B43CD892B4363
:1016D00083800483CD888586028470BD002C014000
:1016E00000340140004001400044014000480140F6
:1016F0000A460021018B4FF6F7731940114301830D
:101700007047000070B5002400220023058C4FF6BE
:10171000EF7635400584028C8388048B48F6FF758C
:101720002C404FF6FF452C400D884FF6FF7606EA19
:1017300005252C434FF6DF752A400D8906EA05156D
:101740002A434D8806EA05152A43154DA84202D0C2
:10175000144DA8421DD14FF67F752A404D894FF692
:10176000FF7606EA05152A434FF6BF752A408D8895
:1017700006EA05152A434FF6FF352B404FF2FF7559
:101780002B408D8906EA85052B43CD8906EA850520
:101790002B4383800483CD880587028470BD0000BD
:1017A000002C0140003401400A460021018B4FF219
:1017B000FF7319404FF6FF7303EA022319430183B5
:1017C0007047000070B5002400220023058C4FF6FE
:1017D000FF6635400584028C8388848B4FF68F75B5
:1017E0002C404FF6FC752C400D882C434FF6FF55CE
:1017F0002A400D894FF6FF7606EA05252A434D88D3
:1018000006EA05252A43154DA84202D0144DA842E8
:101810001DD14FF2FF752A404D894FF6FF7606EA3B
:1018200005252A434FF6FF352A408D8806EA05250F
:101830002A434EF6FF752B404DF6FF752B408D89E0
:1018400006EA05152B43CD8906EA05152B4383804F
:101850008483CD888587028470BD0000002C014000
:10186000003401400A460021818B4FF6F77319407E
:10187000114381837047000070B5002200230024CB
:10188000058C4EF6FF7635400584038C8488828B68
:1018900048F6FF752A404FF6FF452A400D884FF65F
:1018A000FF7606EA05252A434DF6FF752B400D8984
:1018B00006EA05352B434D8806EA05352B430B4DCB
:1018C000A84202D00A4DA84208D14BF6FF752C4021
:1018D0008D894FF6FF7606EA85152C438480828336
:1018E000CD88A0F84050038470BD0000002C01405A
:1018F000003401400A460021818B4FF2FF731940EA
:101900004FF6FF7303EA0223194381837047018571
:101910008282704781867047018770478187704750
:10192000A0F8401070470000002202881D4B98422A
:101930000ED01D4B98420BD0B0F1804F08D01B4BFE
:10194000984205D01A4B984202D01A4B984204D1C3
:101950004FF68F731A404B881A43174B984207D0A3
:10196000164B984204D04FF6FF431A40CB881A43D7
:1019700002808B8883850B8803850A4B98420BD0A5
:10198000094B984208D00E4B984205D00D4B984217
:1019900002D00D4B984201D10B7A0386012383823A
:1019A00070470000002C014000340140000400405A
:1019B00000080040000C00400010004000140040EF
:1019C00000400140004401400048014010B540F291
:1019D00025510E4800F080F9B8B101200C4908707B
:1019E00000200C490870094800F032FA0A490B4AF5
:1019F0001288885409480088401C08490880084615
:101A00000088FF2801DD0020088010BD004C004048
:101A10002500002026000020730300202200002063
:101A200010B586B004462B48008840F480702949E0
:101A300008800846008840F0200008804FF4A0632A
:101A4000342201210846FFF7AFFA0121C804FFF74D
:101A500021FB01211020FFF73DFB1E480C3800F050
:101A6000EDF84FF48060ADF8140003208DF81600F7
:101A700018208DF8170005A91748FFF757F94FF4FC
:101A80000060ADF8140004208DF8170005A9124875
:101A9000FFF74CF901940020ADF80800ADF80A00FA
:101AA000ADF80C00ADF810000C20ADF80E0001A947
:101AB00008480C3800F060F9012240F22551054831
:101AC0000C3800F033F9012102480C3800F0AAF874
:101AD00006B010BD0C4C00400010014010B504468B
:101AE00000BF0548008800F040000028F9D02146DA
:101AF000014800F0B2F910BD004C004070B504463A
:101B00000D4603E02078FFF7E9FF641C281EA5F1CD
:101B10000101CDB2F6D170BD10B540F225510E488D
:101B200000F0DAF8B8B101200C49087000200C4927
:101B30000870094800F08CF90A490B4A1288885449
:101B400009480088401C0849088008460088FF288A
:101B500001DD0020088010BD003801401F0000207A
:101B600020000020740200201C00002010B586B068
:101B700004462A48008840F48070284908800846B6
:101B8000008840F0200008804FF4A0632522032144
:101B90000846FFF709FA012144F20400FFF79AFA18
:101BA0001E480C3800F04AF84FF40070ADF81400ED
:101BB00003208DF8160018208DF8170005A9184885
:101BC000FFF7B4F84FF48060ADF8140004208DF8EE
:101BD000170005A91248FFF7A9F801940020ADF8F5
:101BE0000800ADF80A00ADF80C00ADF810000C20AC
:101BF000ADF80E0001A909480C3800F0BDF801222B
:101C000040F2255105480C3800F090F801210348B6
:101C10000C3800F007F806B010BD00000C38014089
:101C20000008014021B1828942F40052828104E01F
:101C300082894DF6FF731A408281704710B50446C1
:101C40002048844209D101218803FFF753FA00217B
:101C50004FF48040FFF74EFA32E01B48844209D12E
:101C600001214804FFF726FA00214FF40030FFF766
:101C700021FA25E01548844209D101218804FFF7A3
:101C800019FA00214FF48020FFF714FA18E01048E9
:101C9000844209D10121C804FFF70CFA00214FF456
:101CA0000020FFF707FA0BE00A48844208D101211F
:101CB0000805FFF7FFF900214FF48010FFF7FAF94C
:101CC00010BD0000003801400044004000480040C2
:101CD000004C00400050004070B502460024002334
:101CE0000025002040F66A16B14200D100BFC1F3C2
:101CF000421501F01F03012606FA03F3012D02D15C
:101D00009689334006E0022D02D1168A334001E065
:101D1000968A33400C12012606FA04F416883440E1
:101D200013B10CB1012000E0002070BDF0B50346F6
:101D3000002400260025002040F66A17B94200D191
:101D400000BF1846C1F3421401F01F06012707FA2D
:101D500006F5012C01D10C3004E0022C01D1103029
:101D600000E014301AB107682F43076002E00768EB
:101D7000AF430760F0BD00002DE9F04786B005468F
:101D80000E460024A24600BFA1460027B08900B13C
:101D900000BF2F462C8A4CF6FF700440F0880443A5
:101DA0002C82AC894EF6F3100440B0883189084388
:101DB000718908430443AC81AC8A4FF6FF4004406C
:101DC000B0890443AC8201A8FFF7A4F91F488742F9
:101DD00002D1DDF810A001E0DDF80CA0A88900F424
:101DE000004040B10AEBCA0000EB0A10316849001C
:101DF000B0FBF1F807E00AEBCA0000EB0A1031680B
:101E00008900B0FBF1F86420B8FBF0F00401200970
:101E1000642101FB1089A88900F4004040B1322000
:101E200000EBC900B0FBF1F000F00700044308E04C
:101E3000322000EB09106421B0FBF1F000F00F003C
:101E400004432C8106B0BDE8F08700000038014053
:101E500001468888C0F308007047C1F308028280F9
:101E60007047000070B5A0B00446002559A1204677
:101E7000FEF7F8FA68B1062158A0FEF7E7FD002842
:101E800003DA58A0FEF7CCF9A1E05BA0FEF7C8F991
:101E90009DE05CA12046FEF7E5FA0028F4D05BA1A6
:101EA0002046FEF7DFFA002845D080216846FEF77D
:101EB00071FB5BA12046FEF7D5FA00281AD05BA083
:101EC000FEF7AEF95CA1204600F00EF905462A4661
:101ED0005BA16846FEF7B0F96846FEF7D5FAC6B2D0
:101EE00031466846FEF7B2FD002870DA5EA0FEF7C4
:101EF00097F96CE061A12046FEF7B4FA002866D09D
:101F000061A0FEF78DF94CA1204600F0EDF80546E2
:101F10002A4660A16846FEF78FF96846FEF7B4FAD4
:101F2000C6B231466846FEF791FD00284FDA4EA052
:101F3000FEF776F94BE061A12046FEF793FA002800
:101F400045D080216846FEF725FB35A12046FEF7E7
:101F500089FAE8B15DA0FEF763F937A1204600F0E9
:101F6000C3F805462A4636A16846FEF765F9684675
:101F7000FEF78AFAC6B231466846FEF767FD0028CA
:101F800002DA39A0FEF74CF90120534908701EE02F
:101F90003AA12046FEF766FAC8B150A0FEF740F914
:101FA00025A1204600F0A0F805462A4639A168463A
:101FB000FEF742F96846FEF767FAC6B23146684650
:101FC000FEF744FD002802DA27A0FEF729F920B029
:101FD00070BD000024234154230D0000244F4B23E7
:101FE000230D0000B7A2CBCDD0C4CCF8B0FCCAA75B
:101FF000B0DCA3A10D0A0000D0C4CCF8B0FCA3A1B2
:102000000D0A00002274223A350000002261706936
:10201000746167223A22646566656E73652200000A
:102020002264617461223A3100000000B2BCB7C082
:10203000A3A10D0A00000000636D64696400000044
:102040007B2274223A362C22636D646964223A251D
:10205000732C22737461747573223A302C2264617C
:102060007461223A317D0000B7A2CBCDCFECD3A66C
:10207000CAA7B0DCA3A10D0A0000000022646174AD
:1020800061223A3000000000B3B7B7C0A3A10D0A27
:10209000000000007B2274223A362C22636D6469B2
:1020A00064223A25732C22737461747573223A305A
:1020B0002C2264617461223A307D000022617069D3
:1020C000746167223A226374726C2200BFAACBF853
:1020D000A3A10D0A0000000000000020B9D8CBF831
:1020E000A3A10D0A000000002DE9F04107460E46AD
:1020F0000024002580211948FEF72AFA324618A14B
:102100001648FEF799F815493846FEF7ABF904462C
:1021100014B90020BDE8F0811048FEF7B5F945B2CA
:102120002C4480210D48FEF713FA00250DE020789D
:10213000392806DC2078302803DB20780749485509
:1021400000E004E0681C45B2641C0A2DEFDB00BF10
:102150000021024A681C11541046DBE7500200209F
:10216000222573223A00000002A0FEF759F800BFB2
:10217000FEE700000D0A55736167654661756C7472
:102180005F48616E646C6572204552524F520D0A71
:102190000000000030380A2801D2012070470020DA
:1021A0007047014600BF70470648006840F08070E5
:1021B000044908600448006840F0010002490860D2
:1021C00070470000FCED00E0001000E030B5014673
:1021D0000E4C62680E4C24680E4DB4FBF5F404FB03
:1021E00001F3D018904205D900BF084C64688442BE
:1021F000FBD309E000BF054C64688442FBD800BFF4
:10220000024C64688442FBD330BD0000001000E043
:102210002800002040420F0000BF054A128802F04B
:102220004002002AF9D0C2B2014B1B1D1A80704730
:102230000038014010B5FFF7B7FF0E48FFF7C6FFA3
:102240004FF4E130FFF792FC4FF4E130FFF7E8FB89
:10225000FEF7E6FAFFF744F907A0FDF7E1FF4FF4B8
:10226000FA73322201210846FEF7ECFD00F018F85F
:10227000002010BDA0860100436F727465782D4D5B
:1022800033B2D9D7F757694669CDA8D1B6C4A3BF31
:10229000E9C1ACBDD3D4C6C6BDCCA80D0A000000B0
:1022A000A0B00026002580216846FEF773F9264875
:1022B000FFF78CFF00BF10E024A12DA0FEF7D4FA99
:1022C000044624B121462DA0FDF7AAFF03E03348C0
:1022D000FDF7A6FF03E0701CC6B2032EECDB00BFC7
:1022E00030E042F21070FFF771FF6D1C00BF2C4808
:1022F000007860B169462B48FEF762FB6846FFF73D
:10230000B1FD80216846FEF745F9FEF79BFAB5F569
:102310007A7F17D3002524A128480078FEF736FCE1
:10232000FEF790FA2548017825A0FDF779FF2348AC
:102330000078401C2149087008460078022801DD19
:1023400000200870CDE7000040420F0030396334B0
:10235000373461353536303234393861623166357B
:102360003437323564366364613635360000000038
:10237000617364616635343500000000436F6E6E32
:1023800065637420546F20536572766572204552E0
:10239000524F523D25640D0A00000000EC23000856
:1023A0002400002073030020323031382D30362DC8
:1023B00032302031343A31303A32360000000020D9
:1023C000B7A2CBCDB4ABB8D0CAFDBEDD6C6F636B2A
:1023D0003D2564A3A10D0A000400000800000000D0
:1023E000000000020001000010000000636F6E6E2C
:1023F00065637420746F20736572766574207375DD
:102400006363657373204445564943455F49443AC5
:102410002074656D70657261747572653120534505
:10242000435245545F4B4559203237633461663817
:1024300063643864373438646361383838663830F8
:10244000396539333039313834200D0A0000000045
:102450007024000800000020500000006C010008FB
:10246000C0240008500000208816000088010008E1
:10247000010000000000000000000000000000005B
:1024800070175802780060EA0000000000000000A9
:10249000000000000000000000A24A04000000004C
:1024A0000000000001020304060708090000000004
:1024B00001020304010203040607080902040608D6
:0400000508000131BD
:00000001FF
